{
    "_format": "hh-sol-artifact-1",
    "contractName": "Bridge",
    "sourceName": "contracts/Bridge.sol",
    "abi": [
        {
            "inputs": [
                {
                    "internalType": "address",
                    "name": "target",
                    "type": "address"
                }
            ],
            "name": "AddressEmptyCode",
            "type": "error"
        },
        {
            "inputs": [
                {
                    "internalType": "address",
                    "name": "account",
                    "type": "address"
                }
            ],
            "name": "AddressInsufficientBalance",
            "type": "error"
        },
        {
            "inputs": [
                {
                    "internalType": "address",
                    "name": "implementation",
                    "type": "address"
                }
            ],
            "name": "ERC1967InvalidImplementation",
            "type": "error"
        },
        {
            "inputs": [],
            "name": "ERC1967NonPayable",
            "type": "error"
        },
        {
            "inputs": [],
            "name": "EnforcedPause",
            "type": "error"
        },
        {
            "inputs": [],
            "name": "ExpectedPause",
            "type": "error"
        },
        {
            "inputs": [],
            "name": "FailedInnerCall",
            "type": "error"
        },
        {
            "inputs": [],
            "name": "InvalidInitialization",
            "type": "error"
        },
        {
            "inputs": [],
            "name": "NotInitializing",
            "type": "error"
        },
        {
            "inputs": [
                {
                    "internalType": "address",
                    "name": "owner",
                    "type": "address"
                }
            ],
            "name": "OwnableInvalidOwner",
            "type": "error"
        },
        {
            "inputs": [
                {
                    "internalType": "address",
                    "name": "account",
                    "type": "address"
                }
            ],
            "name": "OwnableUnauthorizedAccount",
            "type": "error"
        },
        {
            "inputs": [],
            "name": "ReentrancyGuardReentrantCall",
            "type": "error"
        },
        {
            "inputs": [
                {
                    "internalType": "address",
                    "name": "token",
                    "type": "address"
                }
            ],
            "name": "SafeERC20FailedOperation",
            "type": "error"
        },
        {
            "inputs": [],
            "name": "UUPSUnauthorizedCallContext",
            "type": "error"
        },
        {
            "inputs": [
                {
                    "internalType": "bytes32",
                    "name": "slot",
                    "type": "bytes32"
                }
            ],
            "name": "UUPSUnsupportedProxiableUUID",
            "type": "error"
        },
        {
            "anonymous": false,
            "inputs": [
                {
                    "indexed": false,
                    "internalType": "uint64",
                    "name": "version",
                    "type": "uint64"
                }
            ],
            "name": "Initialized",
            "type": "event"
        },
        {
            "anonymous": false,
            "inputs": [
                {
                    "indexed": true,
                    "internalType": "address",
                    "name": "user",
                    "type": "address"
                },
                {
                    "indexed": true,
                    "internalType": "bytes32",
                    "name": "destChain",
                    "type": "bytes32"
                },
                {
                    "indexed": false,
                    "internalType": "address",
                    "name": "fromToken",
                    "type": "address"
                },
                {
                    "indexed": false,
                    "internalType": "address",
                    "name": "toToken",
                    "type": "address"
                },
                {
                    "indexed": false,
                    "internalType": "uint256",
                    "name": "inputAmount",
                    "type": "uint256"
                },
                {
                    "indexed": false,
                    "internalType": "uint256",
                    "name": "outputAmount",
                    "type": "uint256"
                },
                {
                    "indexed": false,
                    "internalType": "uint256",
                    "name": "fee",
                    "type": "uint256"
                }
            ],
            "name": "Lock",
            "type": "event"
        },
        {
            "anonymous": false,
            "inputs": [
                {
                    "indexed": true,
                    "internalType": "address",
                    "name": "user",
                    "type": "address"
                },
                {
                    "indexed": false,
                    "internalType": "string",
                    "name": "username",
                    "type": "string"
                },
                {
                    "indexed": false,
                    "internalType": "address",
                    "name": "fromToken",
                    "type": "address"
                },
                {
                    "indexed": false,
                    "internalType": "uint256",
                    "name": "inputAmount",
                    "type": "uint256"
                },
                {
                    "indexed": false,
                    "internalType": "uint256",
                    "name": "outputAmount",
                    "type": "uint256"
                },
                {
                    "indexed": false,
                    "internalType": "uint256",
                    "name": "fee",
                    "type": "uint256"
                }
            ],
            "name": "LockHive",
            "type": "event"
        },
        {
            "anonymous": false,
            "inputs": [
                {
                    "indexed": true,
                    "internalType": "address",
                    "name": "user",
                    "type": "address"
                },
                {
                    "indexed": true,
                    "internalType": "bytes21",
                    "name": "username",
                    "type": "bytes21"
                },
                {
                    "indexed": false,
                    "internalType": "address",
                    "name": "fromToken",
                    "type": "address"
                },
                {
                    "indexed": false,
                    "internalType": "address",
                    "name": "toToken",
                    "type": "address"
                },
                {
                    "indexed": false,
                    "internalType": "uint256",
                    "name": "inputAmount",
                    "type": "uint256"
                },
                {
                    "indexed": false,
                    "internalType": "uint256",
                    "name": "outputAmount",
                    "type": "uint256"
                },
                {
                    "indexed": false,
                    "internalType": "uint256",
                    "name": "fee",
                    "type": "uint256"
                }
            ],
            "name": "LockPartisia",
            "type": "event"
        },
        {
            "anonymous": false,
            "inputs": [
                {
                    "indexed": true,
                    "internalType": "address",
                    "name": "previousOwner",
                    "type": "address"
                },
                {
                    "indexed": true,
                    "internalType": "address",
                    "name": "newOwner",
                    "type": "address"
                }
            ],
            "name": "OwnershipTransferred",
            "type": "event"
        },
        {
            "anonymous": false,
            "inputs": [
                {
                    "indexed": true,
                    "internalType": "address",
                    "name": "recipient",
                    "type": "address"
                },
                {
                    "indexed": true,
                    "internalType": "address",
                    "name": "tokenAddress",
                    "type": "address"
                },
                {
                    "indexed": false,
                    "internalType": "uint256",
                    "name": "amount",
                    "type": "uint256"
                }
            ],
            "name": "PartisiaRelease",
            "type": "event"
        },
        {
            "anonymous": false,
            "inputs": [
                {
                    "indexed": false,
                    "internalType": "address",
                    "name": "account",
                    "type": "address"
                }
            ],
            "name": "Paused",
            "type": "event"
        },
        {
            "anonymous": false,
            "inputs": [
                {
                    "indexed": true,
                    "internalType": "address",
                    "name": "user",
                    "type": "address"
                },
                {
                    "indexed": false,
                    "internalType": "address",
                    "name": "token",
                    "type": "address"
                },
                {
                    "indexed": false,
                    "internalType": "string",
                    "name": "lockHash",
                    "type": "string"
                },
                {
                    "indexed": false,
                    "internalType": "uint256",
                    "name": "inputAmount",
                    "type": "uint256"
                },
                {
                    "indexed": false,
                    "internalType": "uint256",
                    "name": "outputAmount",
                    "type": "uint256"
                }
            ],
            "name": "Release",
            "type": "event"
        },
        {
            "anonymous": false,
            "inputs": [
                {
                    "indexed": false,
                    "internalType": "address",
                    "name": "account",
                    "type": "address"
                }
            ],
            "name": "Unpaused",
            "type": "event"
        },
        {
            "anonymous": false,
            "inputs": [
                {
                    "indexed": true,
                    "internalType": "address",
                    "name": "implementation",
                    "type": "address"
                }
            ],
            "name": "Upgraded",
            "type": "event"
        },
        {
            "anonymous": false,
            "inputs": [
                {
                    "indexed": false,
                    "internalType": "uint256",
                    "name": "amount",
                    "type": "uint256"
                },
                {
                    "indexed": false,
                    "internalType": "uint256",
                    "name": "data",
                    "type": "uint256"
                }
            ],
            "name": "test1",
            "type": "event"
        },
        {
            "inputs": [],
            "name": "UPGRADE_INTERFACE_VERSION",
            "outputs": [
                {
                    "internalType": "string",
                    "name": "",
                    "type": "string"
                }
            ],
            "stateMutability": "view",
            "type": "function"
        },
        {
            "inputs": [
                {
                    "internalType": "bytes",
                    "name": "_data",
                    "type": "bytes"
                }
            ],
            "name": "_decodeSwapDescription",
            "outputs": [
                {
                    "components": [
                        {
                            "internalType": "address",
                            "name": "srcToken",
                            "type": "address"
                        },
                        {
                            "internalType": "address",
                            "name": "dstToken",
                            "type": "address"
                        },
                        {
                            "internalType": "uint256",
                            "name": "amount",
                            "type": "uint256"
                        },
                        {
                            "internalType": "bytes",
                            "name": "data",
                            "type": "bytes"
                        }
                    ],
                    "internalType": "struct ISwapper.SwapDescription",
                    "name": "",
                    "type": "tuple"
                }
            ],
            "stateMutability": "pure",
            "type": "function"
        },
        {
            "inputs": [
                {
                    "internalType": "bytes32",
                    "name": "_chain",
                    "type": "bytes32"
                }
            ],
            "name": "addDestChain",
            "outputs": [],
            "stateMutability": "nonpayable",
            "type": "function"
        },
        {
            "inputs": [],
            "name": "bridgeAdmin",
            "outputs": [
                {
                    "internalType": "address",
                    "name": "",
                    "type": "address"
                }
            ],
            "stateMutability": "view",
            "type": "function"
        },
        {
            "inputs": [],
            "name": "bridgeLiquidityToken",
            "outputs": [
                {
                    "internalType": "address",
                    "name": "",
                    "type": "address"
                }
            ],
            "stateMutability": "view",
            "type": "function"
        },
        {
            "inputs": [
                {
                    "internalType": "bytes32",
                    "name": "",
                    "type": "bytes32"
                }
            ],
            "name": "destChains",
            "outputs": [
                {
                    "internalType": "bool",
                    "name": "",
                    "type": "bool"
                }
            ],
            "stateMutability": "view",
            "type": "function"
        },
        {
            "inputs": [
                {
                    "internalType": "address",
                    "name": "_token",
                    "type": "address"
                }
            ],
            "name": "getBalance",
            "outputs": [
                {
                    "internalType": "uint256",
                    "name": "",
                    "type": "uint256"
                }
            ],
            "stateMutability": "view",
            "type": "function"
        },
        {
            "inputs": [
                {
                    "internalType": "address",
                    "name": "_swapper",
                    "type": "address"
                },
                {
                    "internalType": "address",
                    "name": "_owner",
                    "type": "address"
                }
            ],
            "name": "initialize",
            "outputs": [],
            "stateMutability": "nonpayable",
            "type": "function"
        },
        {
            "inputs": [
                {
                    "internalType": "bytes",
                    "name": "_data",
                    "type": "bytes"
                },
                {
                    "internalType": "bytes32",
                    "name": "_destChain",
                    "type": "bytes32"
                },
                {
                    "internalType": "address",
                    "name": "_toToken",
                    "type": "address"
                }
            ],
            "name": "lock",
            "outputs": [
                {
                    "internalType": "uint256",
                    "name": "swapOutput",
                    "type": "uint256"
                }
            ],
            "stateMutability": "payable",
            "type": "function"
        },
        {
            "inputs": [
                {
                    "internalType": "bytes",
                    "name": "_data",
                    "type": "bytes"
                },
                {
                    "internalType": "bytes21",
                    "name": "_username",
                    "type": "bytes21"
                },
                {
                    "internalType": "address",
                    "name": "_toToken",
                    "type": "address"
                }
            ],
            "name": "lockPartisia",
            "outputs": [
                {
                    "internalType": "uint256",
                    "name": "swapOutput",
                    "type": "uint256"
                }
            ],
            "stateMutability": "payable",
            "type": "function"
        },
        {
            "inputs": [],
            "name": "owner",
            "outputs": [
                {
                    "internalType": "address",
                    "name": "",
                    "type": "address"
                }
            ],
            "stateMutability": "view",
            "type": "function"
        },
        {
            "inputs": [
                {
                    "internalType": "address",
                    "name": "",
                    "type": "address"
                }
            ],
            "name": "partisiaBridges",
            "outputs": [
                {
                    "internalType": "address",
                    "name": "",
                    "type": "address"
                }
            ],
            "stateMutability": "view",
            "type": "function"
        },
        {
            "inputs": [
                {
                    "internalType": "address",
                    "name": "_recipient",
                    "type": "address"
                },
                {
                    "internalType": "address",
                    "name": "_tokenAddress",
                    "type": "address"
                },
                {
                    "internalType": "uint256",
                    "name": "_amount",
                    "type": "uint256"
                }
            ],
            "name": "partisiaRelease",
            "outputs": [],
            "stateMutability": "nonpayable",
            "type": "function"
        },
        {
            "inputs": [],
            "name": "pause",
            "outputs": [],
            "stateMutability": "nonpayable",
            "type": "function"
        },
        {
            "inputs": [],
            "name": "paused",
            "outputs": [
                {
                    "internalType": "bool",
                    "name": "",
                    "type": "bool"
                }
            ],
            "stateMutability": "view",
            "type": "function"
        },
        {
            "inputs": [
                {
                    "internalType": "string",
                    "name": "",
                    "type": "string"
                }
            ],
            "name": "processed",
            "outputs": [
                {
                    "internalType": "bool",
                    "name": "",
                    "type": "bool"
                }
            ],
            "stateMutability": "view",
            "type": "function"
        },
        {
            "inputs": [],
            "name": "proxiableUUID",
            "outputs": [
                {
                    "internalType": "bytes32",
                    "name": "",
                    "type": "bytes32"
                }
            ],
            "stateMutability": "view",
            "type": "function"
        },
        {
            "inputs": [
                {
                    "internalType": "bytes",
                    "name": "_data",
                    "type": "bytes"
                },
                {
                    "internalType": "address",
                    "name": "_to",
                    "type": "address"
                },
                {
                    "internalType": "string",
                    "name": "_lockHash",
                    "type": "string"
                }
            ],
            "name": "release",
            "outputs": [
                {
                    "internalType": "uint256",
                    "name": "swapOutput",
                    "type": "uint256"
                }
            ],
            "stateMutability": "payable",
            "type": "function"
        },
        {
            "inputs": [
                {
                    "internalType": "bytes32",
                    "name": "_chain",
                    "type": "bytes32"
                }
            ],
            "name": "removeDestChain",
            "outputs": [],
            "stateMutability": "nonpayable",
            "type": "function"
        },
        {
            "inputs": [],
            "name": "renounceOwnership",
            "outputs": [],
            "stateMutability": "nonpayable",
            "type": "function"
        },
        {
            "inputs": [
                {
                    "internalType": "address",
                    "name": "_bridgeAdmin",
                    "type": "address"
                }
            ],
            "name": "setBridgeAdmin",
            "outputs": [],
            "stateMutability": "nonpayable",
            "type": "function"
        },
        {
            "inputs": [
                {
                    "internalType": "address",
                    "name": "_liquidityToken",
                    "type": "address"
                }
            ],
            "name": "setBridgeLiquidityToken",
            "outputs": [],
            "stateMutability": "nonpayable",
            "type": "function"
        },
        {
            "inputs": [
                {
                    "internalType": "address",
                    "name": "_token",
                    "type": "address"
                },
                {
                    "internalType": "address",
                    "name": "_partisiaBridge",
                    "type": "address"
                }
            ],
            "name": "setPartisiaBridge",
            "outputs": [],
            "stateMutability": "nonpayable",
            "type": "function"
        },
        {
            "inputs": [
                {
                    "internalType": "bytes",
                    "name": "_data",
                    "type": "bytes"
                },
                {
                    "internalType": "bytes21",
                    "name": "_username",
                    "type": "bytes21"
                },
                {
                    "internalType": "bytes32",
                    "name": "_destChain",
                    "type": "bytes32"
                },
                {
                    "internalType": "address",
                    "name": "_toToken",
                    "type": "address"
                }
            ],
            "name": "swap_and_lock_Partisia",
            "outputs": [
                {
                    "internalType": "uint256",
                    "name": "swapOutput",
                    "type": "uint256"
                }
            ],
            "stateMutability": "payable",
            "type": "function"
        },
        {
            "inputs": [],
            "name": "swapper",
            "outputs": [
                {
                    "internalType": "contract ISwapper",
                    "name": "",
                    "type": "address"
                }
            ],
            "stateMutability": "view",
            "type": "function"
        },
        {
            "inputs": [
                {
                    "internalType": "address",
                    "name": "newOwner",
                    "type": "address"
                }
            ],
            "name": "transferOwnership",
            "outputs": [],
            "stateMutability": "nonpayable",
            "type": "function"
        },
        {
            "inputs": [],
            "name": "unpause",
            "outputs": [],
            "stateMutability": "nonpayable",
            "type": "function"
        },
        {
            "inputs": [
                {
                    "internalType": "address",
                    "name": "newImplementation",
                    "type": "address"
                },
                {
                    "internalType": "bytes",
                    "name": "data",
                    "type": "bytes"
                }
            ],
            "name": "upgradeToAndCall",
            "outputs": [],
            "stateMutability": "payable",
            "type": "function"
        }
    ],
    "bytecode": "0x60a06040523073ffffffffffffffffffffffffffffffffffffffff1660809073ffffffffffffffffffffffffffffffffffffffff1681525034801561004357600080fd5b506080516168936200006e60003960008181613ebf01528181613f1401526140cf01526168936000f3fe6080604052600436106101b75760003560e01c80635c975abb116100ec578063ad3cb1cc1161008a578063c96bc85211610064578063c96bc852146105c9578063cf0bc925146105f2578063f2fde38b1461061d578063f8b2cb4f14610646576101b7565b8063ad3cb1cc14610531578063c1964d051461055c578063c54368ff1461058c576101b7565b80638456cb59116100c65780638456cb59146104875780638da5cb5b1461049e578063986cf3b6146104c9578063a6af2dfe14610506576101b7565b80635c975abb1461041c578063715018a614610447578063772269671461045e576101b7565b80633f4ba83a116101595780634cc9f107116101335780634cc9f107146103835780634f1ef286146103ac57806352d1902d146103c85780635bcd1636146103f3576101b7565b80633f4ba83a14610313578063485cc9551461032a5780634cbfb85614610353576101b7565b806320cd25a51161019557806320cd25a51461026657806328c3da43146102965780632b3297f9146102bf5780633bd74d86146102ea576101b7565b8063114d39b0146101bc57806311f8ca56146101f95780631a47f0a314610236575b600080fd5b3480156101c857600080fd5b506101e360048036038101906101de91906149de565b610683565b6040516101f09190614a26565b60405180910390f35b34801561020557600080fd5b50610220600480360381019061021b9190614a9f565b6106a3565b60405161022d9190614adb565b60405180910390f35b610250600480360381019061024b9190614bb3565b6106d6565b60405161025d9190614c40565b60405180910390f35b610280600480360381019061027b9190614c5b565b610fd9565b60405161028d9190614c40565b60405180910390f35b3480156102a257600080fd5b506102bd60048036038101906102b891906149de565b6118ef565b005b3480156102cb57600080fd5b506102d461196b565b6040516102e19190614d2e565b60405180910390f35b3480156102f657600080fd5b50610311600480360381019061030c9190614a9f565b611991565b005b34801561031f57600080fd5b50610328611a4b565b005b34801561033657600080fd5b50610351600480360381019061034c9190614d49565b611a5d565b005b61036d60048036038101906103689190614ddf565b611c4f565b60405161037a9190614c40565b60405180910390f35b34801561038f57600080fd5b506103aa60048036038101906103a591906149de565b6124b0565b005b6103c660048036038101906103c19190614fb5565b612547565b005b3480156103d457600080fd5b506103dd612566565b6040516103ea9190615020565b60405180910390f35b3480156103ff57600080fd5b5061041a60048036038101906104159190615067565b612599565b005b34801561042857600080fd5b50610431612814565b60405161043e9190614a26565b60405180910390f35b34801561045357600080fd5b5061045c612839565b005b34801561046a57600080fd5b5061048560048036038101906104809190614a9f565b61284d565b005b34801561049357600080fd5b5061049c612908565b005b3480156104aa57600080fd5b506104b361291a565b6040516104c09190614adb565b60405180910390f35b3480156104d557600080fd5b506104f060048036038101906104eb919061515b565b612952565b6040516104fd9190614a26565b60405180910390f35b34801561051257600080fd5b5061051b612988565b6040516105289190614adb565b60405180910390f35b34801561053d57600080fd5b506105466129ae565b6040516105539190615223565b60405180910390f35b61057660048036038101906105719190615245565b6129e7565b6040516105839190614c40565b60405180910390f35b34801561059857600080fd5b506105b360048036038101906105ae91906152cd565b613657565b6040516105c091906153f0565b60405180910390f35b3480156105d557600080fd5b506105f060048036038101906105eb9190614d49565b6136d5565b005b3480156105fe57600080fd5b50610607613808565b6040516106149190614adb565b60405180910390f35b34801561062957600080fd5b50610644600480360381019061063f9190614a9f565b61382c565b005b34801561065257600080fd5b5061066d60048036038101906106689190614a9f565b6138b2565b60405161067a9190614c40565b60405180910390f35b60036020528060005260406000206000915054906101000a900460ff1681565b60046020528060005260406000206000915054906101000a900473ffffffffffffffffffffffffffffffffffffffff1681565b60006106e0613a01565b6106e8613a42565b3273ffffffffffffffffffffffffffffffffffffffff163373ffffffffffffffffffffffffffffffffffffffff1614610756576040517f08c379a000000000000000000000000000000000000000000000000000000000815260040161074d9061545e565b60405180910390fd5b600033905060006107678787613657565b905060008160400151036107b0576040517f08c379a00000000000000000000000000000000000000000000000000000000081526004016107a7906154ca565b60405180910390fd5b60008054906101000a900473ffffffffffffffffffffffffffffffffffffffff1673ffffffffffffffffffffffffffffffffffffffff16816020015173ffffffffffffffffffffffffffffffffffffffff1614610842576040517f08c379a000000000000000000000000000000000000000000000000000000000815260040161083990615536565b60405180910390fd5b600073ffffffffffffffffffffffffffffffffffffffff16600460008673ffffffffffffffffffffffffffffffffffffffff1673ffffffffffffffffffffffffffffffffffffffff16815260200190815260200160002060009054906101000a900473ffffffffffffffffffffffffffffffffffffffff1673ffffffffffffffffffffffffffffffffffffffff1603610910576040517f08c379a0000000000000000000000000000000000000000000000000000000008152600401610907906155a2565b60405180910390fd5b600560009054906101000a900473ffffffffffffffffffffffffffffffffffffffff1673ffffffffffffffffffffffffffffffffffffffff166331f7d9646040518163ffffffff1660e01b8152600401602060405180830381865afa15801561097d573d6000803e3d6000fd5b505050506040513d601f19601f820116820180604052508101906109a191906155d7565b73ffffffffffffffffffffffffffffffffffffffff16816000015173ffffffffffffffffffffffffffffffffffffffff1603610a225780604001513414610a1d576040517f08c379a0000000000000000000000000000000000000000000000000000000008152600401610a1490615650565b60405180910390fd5b610c28565b60003414610a65576040517f08c379a0000000000000000000000000000000000000000000000000000000008152600401610a5c906156bc565b60405180910390fd5b600560009054906101000a900473ffffffffffffffffffffffffffffffffffffffff1673ffffffffffffffffffffffffffffffffffffffff1663cb71253582600001518484604001516040518463ffffffff1660e01b8152600401610acc939291906156dc565b600060405180830381600087803b158015610ae657600080fd5b505af1158015610afa573d6000803e3d6000fd5b50505050600560009054906101000a900473ffffffffffffffffffffffffffffffffffffffff1673ffffffffffffffffffffffffffffffffffffffff1663104e81ff8260000151600560009054906101000a900473ffffffffffffffffffffffffffffffffffffffff1673ffffffffffffffffffffffffffffffffffffffff16630380fd036040518163ffffffff1660e01b8152600401602060405180830381865afa158015610bae573d6000803e3d6000fd5b505050506040513d601f19601f82011682018060405250810190610bd291906155d7565b84604001516040518463ffffffff1660e01b8152600401610bf5939291906156dc565b600060405180830381600087803b158015610c0f57600080fd5b505af1158015610c23573d6000803e3d6000fd5b505050505b600560009054906101000a900473ffffffffffffffffffffffffffffffffffffffff1673ffffffffffffffffffffffffffffffffffffffff1663a8b37608826040518263ffffffff1660e01b8152600401610c8391906153f0565b6020604051808303816000875af1158015610ca2573d6000803e3d6000fd5b505050506040513d601f19601f82011682018060405250810190610cc69190615728565b92506000600560009054906101000a900473ffffffffffffffffffffffffffffffffffffffff1673ffffffffffffffffffffffffffffffffffffffff166347de2ef6856040518263ffffffff1660e01b8152600401610d259190614c40565b6020604051808303816000875af1158015610d44573d6000803e3d6000fd5b505050506040513d601f19601f82011682018060405250810190610d689190615728565b90508084610d769190615784565b9350600560009054906101000a900473ffffffffffffffffffffffffffffffffffffffff1673ffffffffffffffffffffffffffffffffffffffff166331f7d9646040518163ffffffff1660e01b8152600401602060405180830381865afa158015610de5573d6000803e3d6000fd5b505050506040513d601f19601f82011682018060405250810190610e0991906155d7565b73ffffffffffffffffffffffffffffffffffffffff1660008054906101000a900473ffffffffffffffffffffffffffffffffffffffff1673ffffffffffffffffffffffffffffffffffffffff1603610ea7573073ffffffffffffffffffffffffffffffffffffffff166108fc859081150290604051600060405180830381858888f19350505050158015610ea1573d6000803e3d6000fd5b50610f59565b600560009054906101000a900473ffffffffffffffffffffffffffffffffffffffff1673ffffffffffffffffffffffffffffffffffffffff166330e0789e60008054906101000a900473ffffffffffffffffffffffffffffffffffffffff1630876040518463ffffffff1660e01b8152600401610f26939291906156dc565b600060405180830381600087803b158015610f4057600080fd5b505af1158015610f54573d6000803e3d6000fd5b505050505b856affffffffffffffffffffff19168373ffffffffffffffffffffffffffffffffffffffff167f0ce5b1c36550ce0d49e5fa573e398b1ca9412db7a02811a4aff4ffa14a2b601784600001518886604001518987604051610fbe9594939291906157b8565b60405180910390a3505050610fd1613a99565b949350505050565b6000610fe3613a01565b610feb613a42565b3273ffffffffffffffffffffffffffffffffffffffff163373ffffffffffffffffffffffffffffffffffffffff1614611059576040517f08c379a00000000000000000000000000000000000000000000000000000000081526004016110509061587d565b60405180910390fd5b6000339050600061106a8787613657565b905060008160400151036110b3576040517f08c379a00000000000000000000000000000000000000000000000000000000081526004016110aa906158e9565b60405180910390fd5b60008054906101000a900473ffffffffffffffffffffffffffffffffffffffff1673ffffffffffffffffffffffffffffffffffffffff16816020015173ffffffffffffffffffffffffffffffffffffffff1614611145576040517f08c379a000000000000000000000000000000000000000000000000000000000815260040161113c9061597b565b60405180910390fd5b6003600086815260200190815260200160002060009054906101000a900460ff166111a5576040517f08c379a000000000000000000000000000000000000000000000000000000000815260040161119c906159e7565b60405180910390fd5b600073ffffffffffffffffffffffffffffffffffffffff168473ffffffffffffffffffffffffffffffffffffffff1603611214576040517f08c379a000000000000000000000000000000000000000000000000000000000815260040161120b90615a79565b60405180910390fd5b600560009054906101000a900473ffffffffffffffffffffffffffffffffffffffff1673ffffffffffffffffffffffffffffffffffffffff166331f7d9646040518163ffffffff1660e01b8152600401602060405180830381865afa158015611281573d6000803e3d6000fd5b505050506040513d601f19601f820116820180604052508101906112a591906155d7565b73ffffffffffffffffffffffffffffffffffffffff16816000015173ffffffffffffffffffffffffffffffffffffffff16036113265780604001513414611321576040517f08c379a000000000000000000000000000000000000000000000000000000000815260040161131890615b0b565b60405180910390fd5b6115c9565b60003414611369576040517f08c379a000000000000000000000000000000000000000000000000000000000815260040161136090615b9d565b60405180910390fd5b6113a76040518060400160405280601e81526020017f5468697320697320696e736964652074686520656c736520636c617573650000815250613ab2565b600560009054906101000a900473ffffffffffffffffffffffffffffffffffffffff1673ffffffffffffffffffffffffffffffffffffffff1663cb71253582600001518484604001516040518463ffffffff1660e01b815260040161140e939291906156dc565b600060405180830381600087803b15801561142857600080fd5b505af115801561143c573d6000803e3d6000fd5b5050505061146160405180606001604052806028815260200161683660289139613ab2565b600560009054906101000a900473ffffffffffffffffffffffffffffffffffffffff1673ffffffffffffffffffffffffffffffffffffffff1663104e81ff8260000151600560009054906101000a900473ffffffffffffffffffffffffffffffffffffffff1673ffffffffffffffffffffffffffffffffffffffff16630380fd036040518163ffffffff1660e01b8152600401602060405180830381865afa158015611511573d6000803e3d6000fd5b505050506040513d601f19601f8201168201806040525081019061153591906155d7565b84604001516040518463ffffffff1660e01b8152600401611558939291906156dc565b600060405180830381600087803b15801561157257600080fd5b505af1158015611586573d6000803e3d6000fd5b505050506115c86040518060400160405280600d81526020017f417070726f76616c20646f6e6500000000000000000000000000000000000000815250613ab2565b5b600560009054906101000a900473ffffffffffffffffffffffffffffffffffffffff1673ffffffffffffffffffffffffffffffffffffffff1663a8b3760834836040518363ffffffff1660e01b815260040161162591906153f0565b60206040518083038185885af1158015611643573d6000803e3d6000fd5b50505050506040513d601f19601f820116820180604052508101906116689190615728565b9250600083116116ad576040517f08c379a00000000000000000000000000000000000000000000000000000000081526004016116a490615c2f565b60405180910390fd5b60006002600560009054906101000a900473ffffffffffffffffffffffffffffffffffffffff1673ffffffffffffffffffffffffffffffffffffffff166347de2ef6866040518263ffffffff1660e01b815260040161170c9190614c40565b6020604051808303816000875af115801561172b573d6000803e3d6000fd5b505050506040513d601f19601f8201168201806040525081019061174f9190615728565b6117599190615c4f565b905083811061179d576040517f08c379a000000000000000000000000000000000000000000000000000000000815260040161179490615d03565b60405180910390fd5b80846117a99190615784565b93507f26c9c7e7f4922b49f2d6f47aa20c008ed7820ee5496903f11e846bf7c248a46c8460008054906101000a900473ffffffffffffffffffffffffffffffffffffffff1673ffffffffffffffffffffffffffffffffffffffff166370a08231306040518263ffffffff1660e01b81526004016118269190614adb565b602060405180830381865afa158015611843573d6000803e3d6000fd5b505050506040513d601f19601f820116820180604052508101906118679190615728565b604051611875929190615d23565b60405180910390a1858373ffffffffffffffffffffffffffffffffffffffff167fde7a35d4e92ea3618a612a510930eb345de81289e96c9e1fb2952342ca8ae7be846000015188866040015189876040516118d49594939291906157b8565b60405180910390a35050506118e7613a99565b949350505050565b6118f7613b4b565b6000801b810361193c576040517f08c379a000000000000000000000000000000000000000000000000000000000815260040161193390615d98565b60405180910390fd5b60016003600083815260200190815260200160002060006101000a81548160ff02191690831515021790555050565b600560009054906101000a900473ffffffffffffffffffffffffffffffffffffffff1681565b611999613b4b565b600073ffffffffffffffffffffffffffffffffffffffff168173ffffffffffffffffffffffffffffffffffffffff1603611a08576040517f08c379a00000000000000000000000000000000000000000000000000000000081526004016119ff90615e04565b60405180910390fd5b806000806101000a81548173ffffffffffffffffffffffffffffffffffffffff021916908373ffffffffffffffffffffffffffffffffffffffff16021790555050565b611a53613b4b565b611a5b613bd2565b565b6000611a67613c44565b905060008160000160089054906101000a900460ff1615905060008260000160009054906101000a900467ffffffffffffffff1690506000808267ffffffffffffffff16148015611ab55750825b9050600060018367ffffffffffffffff16148015611aea575060003073ffffffffffffffffffffffffffffffffffffffff163b145b905081158015611af8575080155b15611b2f576040517ff92ee8a900000000000000000000000000000000000000000000000000000000815260040160405180910390fd5b60018560000160006101000a81548167ffffffffffffffff021916908367ffffffffffffffff1602179055508315611b7f5760018560000160086101000a81548160ff0219169083151502179055505b611b8886613c6c565b611b90613c80565b611b98613c92565b611ba0613ca4565b86600560006101000a81548173ffffffffffffffffffffffffffffffffffffffff021916908373ffffffffffffffffffffffffffffffffffffffff160217905550611bea86613cae565b8315611c465760008560000160086101000a81548160ff0219169083151502179055507fc7f505b2f371ae2175ee4913f4499e1f2633a7b5936321eed1cdaeb6115181d26001604051611c3d9190615e73565b60405180910390a15b50505050505050565b6000611c59613a01565b611c61613a42565b3273ffffffffffffffffffffffffffffffffffffffff163373ffffffffffffffffffffffffffffffffffffffff1614611ccf576040517f08c379a0000000000000000000000000000000000000000000000000000000008152600401611cc69061545e565b60405180910390fd5b600160009054906101000a900473ffffffffffffffffffffffffffffffffffffffff1673ffffffffffffffffffffffffffffffffffffffff163373ffffffffffffffffffffffffffffffffffffffff1614611d5f576040517f08c379a0000000000000000000000000000000000000000000000000000000008152600401611d5690615eda565b60405180910390fd5b6000611d6b8787613657565b90506000816040015103611db4576040517f08c379a0000000000000000000000000000000000000000000000000000000008152600401611dab906154ca565b60405180910390fd5b60008054906101000a900473ffffffffffffffffffffffffffffffffffffffff1673ffffffffffffffffffffffffffffffffffffffff16816000015173ffffffffffffffffffffffffffffffffffffffff1614611e46576040517f08c379a0000000000000000000000000000000000000000000000000000000008152600401611e3d90615f46565b60405180910390fd5b60028484604051611e58929190615f96565b908152602001604051809103902060009054906101000a900460ff1615611eb4576040517f08c379a0000000000000000000000000000000000000000000000000000000008152600401611eab90615ffb565b60405180910390fd5b600160028585604051611ec8929190615f96565b908152602001604051809103902060006101000a81548160ff021916908315150217905550806020015173ffffffffffffffffffffffffffffffffffffffff16816000015173ffffffffffffffffffffffffffffffffffffffff1603611f3457806040015191506121b4565b611f726040518060400160405280602081526020017f7468697320697320696e20656c73652c20617070726f76696e6720746f203058815250613ab2565b600560009054906101000a900473ffffffffffffffffffffffffffffffffffffffff1673ffffffffffffffffffffffffffffffffffffffff1663104e81ff8260000151600560009054906101000a900473ffffffffffffffffffffffffffffffffffffffff1673ffffffffffffffffffffffffffffffffffffffff16630380fd036040518163ffffffff1660e01b8152600401602060405180830381865afa158015612022573d6000803e3d6000fd5b505050506040513d601f19601f8201168201806040525081019061204691906155d7565b84604001516040518463ffffffff1660e01b8152600401612069939291906156dc565b600060405180830381600087803b15801561208357600080fd5b505af1158015612097573d6000803e3d6000fd5b50505050600560009054906101000a900473ffffffffffffffffffffffffffffffffffffffff1673ffffffffffffffffffffffffffffffffffffffff1663a8b37608826040518263ffffffff1660e01b81526004016120f691906153f0565b6020604051808303816000875af1158015612115573d6000803e3d6000fd5b505050506040513d601f19601f820116820180604052508101906121399190615728565b915061217a6040518060400160405280601381526020017f746873692069732073776170206f75747075740000000000000000000000000081525083613d85565b7f26c9c7e7f4922b49f2d6f47aa20c008ed7820ee5496903f11e846bf7c248a46c82836040516121ab929190615d23565b60405180910390a15b600560009054906101000a900473ffffffffffffffffffffffffffffffffffffffff1673ffffffffffffffffffffffffffffffffffffffff166331f7d9646040518163ffffffff1660e01b8152600401602060405180830381865afa158015612221573d6000803e3d6000fd5b505050506040513d601f19601f8201168201806040525081019061224591906155d7565b73ffffffffffffffffffffffffffffffffffffffff16816020015173ffffffffffffffffffffffffffffffffffffffff160361236c5760008573ffffffffffffffffffffffffffffffffffffffff16836040516122a19061604c565b60006040518083038185875af1925050503d80600081146122de576040519150601f19603f3d011682016040523d82523d6000602084013e6122e3565b606091505b505090506123266040518060400160405280601581526020017f73656e64696e672066756e647320746f2075736572000000000000000000000081525082613e21565b80612366576040517f08c379a000000000000000000000000000000000000000000000000000000000815260040161235d906160ad565b60405180910390fd5b50612440565b600560009054906101000a900473ffffffffffffffffffffffffffffffffffffffff1673ffffffffffffffffffffffffffffffffffffffff166330e0789e826020015187856040518463ffffffff1660e01b81526004016123cf939291906156dc565b600060405180830381600087803b1580156123e957600080fd5b505af11580156123fd573d6000803e3d6000fd5b5050505061243f6040518060400160405280601c81526020017f746f6b656e207472616e73666572656420746f20746865207573657200000000815250613ab2565b5b8473ffffffffffffffffffffffffffffffffffffffff167ff335c0ff9f2ccebd96f14837787af88d61251228f49d11a819c48c9cb728a634826020015186868560400151876040516124969594939291906160fa565b60405180910390a2506124a7613a99565b95945050505050565b6124b8613b4b565b6003600082815260200190815260200160002060009054906101000a900460ff16612518576040517f08c379a000000000000000000000000000000000000000000000000000000000815260040161250f90616194565b60405180910390fd5b60006003600083815260200190815260200160002060006101000a81548160ff02191690831515021790555050565b61254f613ebd565b61255882613fa3565b6125628282613fae565b5050565b60006125706140cd565b7f360894a13ba1a3210667c828492db98dca3e2076cc3735a920a3ca505d382bbc60001b905090565b6125a1613b4b565b600073ffffffffffffffffffffffffffffffffffffffff16600460008473ffffffffffffffffffffffffffffffffffffffff1673ffffffffffffffffffffffffffffffffffffffff16815260200190815260200160002060009054906101000a900473ffffffffffffffffffffffffffffffffffffffff1673ffffffffffffffffffffffffffffffffffffffff160361266f576040517f08c379a0000000000000000000000000000000000000000000000000000000008152600401612666906155a2565b60405180910390fd5b600560009054906101000a900473ffffffffffffffffffffffffffffffffffffffff1673ffffffffffffffffffffffffffffffffffffffff166331f7d9646040518163ffffffff1660e01b8152600401602060405180830381865afa1580156126dc573d6000803e3d6000fd5b505050506040513d601f19601f8201168201806040525081019061270091906155d7565b73ffffffffffffffffffffffffffffffffffffffff168273ffffffffffffffffffffffffffffffffffffffff160361277e578273ffffffffffffffffffffffffffffffffffffffff166108fc829081150290604051600060405180830381858888f19350505050158015612778573d6000803e3d6000fd5b506127aa565b6127a983828473ffffffffffffffffffffffffffffffffffffffff166141549092919063ffffffff16565b5b8173ffffffffffffffffffffffffffffffffffffffff168373ffffffffffffffffffffffffffffffffffffffff167f268dac0e0b625b59151d57edbe8f7257193ff912f62b085427e8e67165440eb4836040516128079190614c40565b60405180910390a3505050565b60008061281f6141d3565b90508060000160009054906101000a900460ff1691505090565b612841613b4b565b61284b6000613cae565b565b612855613b4b565b600073ffffffffffffffffffffffffffffffffffffffff168173ffffffffffffffffffffffffffffffffffffffff16036128c4576040517f08c379a00000000000000000000000000000000000000000000000000000000081526004016128bb90615e04565b60405180910390fd5b80600160006101000a81548173ffffffffffffffffffffffffffffffffffffffff021916908373ffffffffffffffffffffffffffffffffffffffff16021790555050565b612910613b4b565b6129186141fb565b565b60008061292561426d565b90508060000160009054906101000a900473ffffffffffffffffffffffffffffffffffffffff1691505090565b6002818051602081018201805184825260208301602085012081835280955050505050506000915054906101000a900460ff1681565b600160009054906101000a900473ffffffffffffffffffffffffffffffffffffffff1681565b6040518060400160405280600581526020017f352e302e3000000000000000000000000000000000000000000000000000000081525081565b60006129f1613a01565b6129f9613a42565b3273ffffffffffffffffffffffffffffffffffffffff163373ffffffffffffffffffffffffffffffffffffffff1614612a67576040517f08c379a0000000000000000000000000000000000000000000000000000000008152600401612a5e9061545e565b60405180910390fd5b60003390506000612a788888613657565b90506000816040015103612ac1576040517f08c379a0000000000000000000000000000000000000000000000000000000008152600401612ab8906154ca565b60405180910390fd5b600073ffffffffffffffffffffffffffffffffffffffff16816000015173ffffffffffffffffffffffffffffffffffffffff1614158015612b335750600073ffffffffffffffffffffffffffffffffffffffff16816020015173ffffffffffffffffffffffffffffffffffffffff1614155b612b72576040517f08c379a0000000000000000000000000000000000000000000000000000000008152600401612b6990616200565b60405180910390fd5b806020015173ffffffffffffffffffffffffffffffffffffffff16816000015173ffffffffffffffffffffffffffffffffffffffff1603612be8576040517f08c379a0000000000000000000000000000000000000000000000000000000008152600401612bdf90616292565b60405180910390fd5b600060046000836020015173ffffffffffffffffffffffffffffffffffffffff1673ffffffffffffffffffffffffffffffffffffffff16815260200190815260200160002060009054906101000a900473ffffffffffffffffffffffffffffffffffffffff169050600073ffffffffffffffffffffffffffffffffffffffff168173ffffffffffffffffffffffffffffffffffffffff1603612cbf576040517f08c379a0000000000000000000000000000000000000000000000000000000008152600401612cb6906162fe565b60405180910390fd5b600560009054906101000a900473ffffffffffffffffffffffffffffffffffffffff1673ffffffffffffffffffffffffffffffffffffffff166331f7d9646040518163ffffffff1660e01b8152600401602060405180830381865afa158015612d2c573d6000803e3d6000fd5b505050506040513d601f19601f82011682018060405250810190612d5091906155d7565b73ffffffffffffffffffffffffffffffffffffffff16826000015173ffffffffffffffffffffffffffffffffffffffff1603612dd15781604001513414612dcc576040517f08c379a0000000000000000000000000000000000000000000000000000000008152600401612dc390615650565b60405180910390fd5b61309b565b60003414612e14576040517f08c379a0000000000000000000000000000000000000000000000000000000008152600401612e0b906156bc565b60405180910390fd5b8160400151826000015173ffffffffffffffffffffffffffffffffffffffff166370a08231856040518263ffffffff1660e01b8152600401612e569190614adb565b602060405180830381865afa158015612e73573d6000803e3d6000fd5b505050506040513d601f19601f82011682018060405250810190612e979190615728565b1015612ed8576040517f08c379a0000000000000000000000000000000000000000000000000000000008152600401612ecf9061636a565b60405180910390fd5b600560009054906101000a900473ffffffffffffffffffffffffffffffffffffffff1673ffffffffffffffffffffffffffffffffffffffff1663cb71253583600001518585604001516040518463ffffffff1660e01b8152600401612f3f939291906156dc565b600060405180830381600087803b158015612f5957600080fd5b505af1158015612f6d573d6000803e3d6000fd5b50505050600560009054906101000a900473ffffffffffffffffffffffffffffffffffffffff1673ffffffffffffffffffffffffffffffffffffffff1663104e81ff8360000151600560009054906101000a900473ffffffffffffffffffffffffffffffffffffffff1673ffffffffffffffffffffffffffffffffffffffff16630380fd036040518163ffffffff1660e01b8152600401602060405180830381865afa158015613021573d6000803e3d6000fd5b505050506040513d601f19601f8201168201806040525081019061304591906155d7565b85604001516040518463ffffffff1660e01b8152600401613068939291906156dc565b600060405180830381600087803b15801561308257600080fd5b505af1158015613096573d6000803e3d6000fd5b505050505b600560009054906101000a900473ffffffffffffffffffffffffffffffffffffffff1673ffffffffffffffffffffffffffffffffffffffff1663a8b37608836040518263ffffffff1660e01b81526004016130f691906153f0565b6020604051808303816000875af1158015613115573d6000803e3d6000fd5b505050506040513d601f19601f820116820180604052508101906131399190615728565b93506000600560009054906101000a900473ffffffffffffffffffffffffffffffffffffffff1673ffffffffffffffffffffffffffffffffffffffff166347de2ef6866040518263ffffffff1660e01b81526004016131989190614c40565b6020604051808303816000875af11580156131b7573d6000803e3d6000fd5b505050506040513d601f19601f820116820180604052508101906131db9190615728565b905080856131e99190615784565b94506131f78a8a8989610fd9565b50600560009054906101000a900473ffffffffffffffffffffffffffffffffffffffff1673ffffffffffffffffffffffffffffffffffffffff166331f7d9646040518163ffffffff1660e01b8152600401602060405180830381865afa158015613265573d6000803e3d6000fd5b505050506040513d601f19601f8201168201806040525081019061328991906155d7565b73ffffffffffffffffffffffffffffffffffffffff16836020015173ffffffffffffffffffffffffffffffffffffffff16036134435784471015613302576040517f08c379a00000000000000000000000000000000000000000000000000000000081526004016132f9906163d6565b60405180910390fd5b60008273ffffffffffffffffffffffffffffffffffffffff16868a60405160240161332d9190616405565b6040516020818303038152906040527f073b1422000000000000000000000000000000000000000000000000000000007bffffffffffffffffffffffffffffffffffffffffffffffffffffffff19166020820180517bffffffffffffffffffffffffffffffffffffffffffffffffffffffff83818316178352505050506040516133b79190616451565b60006040518083038185875af1925050503d80600081146133f4576040519150601f19603f3d011682016040523d82523d6000602084013e6133f9565b606091505b505090508061343d576040517f08c379a0000000000000000000000000000000000000000000000000000000008152600401613434906164da565b60405180910390fd5b50613642565b826020015173ffffffffffffffffffffffffffffffffffffffff1663a9059cbb83876040518363ffffffff1660e01b81526004016134829291906164fa565b6020604051808303816000875af11580156134a1573d6000803e3d6000fd5b505050506040513d601f19601f820116820180604052508101906134c5919061654f565b613504576040517f08c379a00000000000000000000000000000000000000000000000000000000081526004016134fb906165ee565b60405180910390fd5b60008273ffffffffffffffffffffffffffffffffffffffff16898760405160240161353092919061660e565b6040516020818303038152906040527f1900a9a0000000000000000000000000000000000000000000000000000000007bffffffffffffffffffffffffffffffffffffffffffffffffffffffff19166020820180517bffffffffffffffffffffffffffffffffffffffffffffffffffffffff83818316178352505050506040516135ba9190616451565b6000604051808303816000865af19150503d80600081146135f7576040519150601f19603f3d011682016040523d82523d6000602084013e6135fc565b606091505b5050905080613640576040517f08c379a0000000000000000000000000000000000000000000000000000000008152600401613637906164da565b60405180910390fd5b505b5050505061364e613a99565b95945050505050565b61365f614936565b60008060008086868101906136749190616675565b935093509350935060405180608001604052808573ffffffffffffffffffffffffffffffffffffffff1681526020018473ffffffffffffffffffffffffffffffffffffffff1681526020018381526020018281525094505050505092915050565b6136dd613b4b565b600073ffffffffffffffffffffffffffffffffffffffff168273ffffffffffffffffffffffffffffffffffffffff16141580156137475750600073ffffffffffffffffffffffffffffffffffffffff168173ffffffffffffffffffffffffffffffffffffffff1614155b613786576040517f08c379a000000000000000000000000000000000000000000000000000000000815260040161377d90616744565b60405180910390fd5b80600460008473ffffffffffffffffffffffffffffffffffffffff1673ffffffffffffffffffffffffffffffffffffffff16815260200190815260200160002060006101000a81548173ffffffffffffffffffffffffffffffffffffffff021916908373ffffffffffffffffffffffffffffffffffffffff1602179055505050565b60008054906101000a900473ffffffffffffffffffffffffffffffffffffffff1681565b613834613b4b565b600073ffffffffffffffffffffffffffffffffffffffff168173ffffffffffffffffffffffffffffffffffffffff16036138a65760006040517f1e4fbdf700000000000000000000000000000000000000000000000000000000815260040161389d9190614adb565b60405180910390fd5b6138af81613cae565b50565b6000600560009054906101000a900473ffffffffffffffffffffffffffffffffffffffff1673ffffffffffffffffffffffffffffffffffffffff166331f7d9646040518163ffffffff1660e01b8152600401602060405180830381865afa158015613921573d6000803e3d6000fd5b505050506040513d601f19601f8201168201806040525081019061394591906155d7565b73ffffffffffffffffffffffffffffffffffffffff168273ffffffffffffffffffffffffffffffffffffffff160361397f574790506139fc565b8173ffffffffffffffffffffffffffffffffffffffff166370a08231306040518263ffffffff1660e01b81526004016139b89190614adb565b602060405180830381865afa1580156139d5573d6000803e3d6000fd5b505050506040513d601f19601f820116820180604052508101906139f99190615728565b90505b919050565b613a09612814565b15613a40576040517fd93c066500000000000000000000000000000000000000000000000000000000815260040160405180910390fd5b565b6000613a4c614295565b90506002816000015403613a8c576040517f3ee5aeb500000000000000000000000000000000000000000000000000000000815260040160405180910390fd5b6002816000018190555050565b6000613aa3614295565b90506001816000018190555050565b613b4881604051602401613ac69190615223565b6040516020818303038152906040527f41304fac000000000000000000000000000000000000000000000000000000007bffffffffffffffffffffffffffffffffffffffffffffffffffffffff19166020820180517bffffffffffffffffffffffffffffffffffffffffffffffffffffffff83818316178352505050506142bd565b50565b613b536142d7565b73ffffffffffffffffffffffffffffffffffffffff16613b7161291a565b73ffffffffffffffffffffffffffffffffffffffff1614613bd057613b946142d7565b6040517f118cdaa7000000000000000000000000000000000000000000000000000000008152600401613bc79190614adb565b60405180910390fd5b565b613bda6142df565b6000613be46141d3565b905060008160000160006101000a81548160ff0219169083151502179055507f5db9ee0a495bf2e6ff9c91a7834c1ba4fdd244a5e8aa4e537bd38aeae4b073aa613c2c6142d7565b604051613c399190614adb565b60405180910390a150565b60007ff0c57e16840df040f15088dc2f81fe391c3923bec73e23a9662efc9c229c6a00905090565b613c7461431f565b613c7d8161435f565b50565b613c8861431f565b613c906143e5565b565b613c9a61431f565b613ca2614419565b565b613cac61431f565b565b6000613cb861426d565b905060008160000160009054906101000a900473ffffffffffffffffffffffffffffffffffffffff169050828260000160006101000a81548173ffffffffffffffffffffffffffffffffffffffff021916908373ffffffffffffffffffffffffffffffffffffffff1602179055508273ffffffffffffffffffffffffffffffffffffffff168173ffffffffffffffffffffffffffffffffffffffff167f8be0079c531659141344cd1fd0a4f28419497f9722a3daafe3b4186f6b6457e060405160405180910390a3505050565b613e1d8282604051602401613d9b929190616764565b6040516020818303038152906040527fb60e72cc000000000000000000000000000000000000000000000000000000007bffffffffffffffffffffffffffffffffffffffffffffffffffffffff19166020820180517bffffffffffffffffffffffffffffffffffffffffffffffffffffffff83818316178352505050506142bd565b5050565b613eb98282604051602401613e37929190616794565b6040516020818303038152906040527fc3b55635000000000000000000000000000000000000000000000000000000007bffffffffffffffffffffffffffffffffffffffffffffffffffffffff19166020820180517bffffffffffffffffffffffffffffffffffffffffffffffffffffffff83818316178352505050506142bd565b5050565b7f000000000000000000000000000000000000000000000000000000000000000073ffffffffffffffffffffffffffffffffffffffff163073ffffffffffffffffffffffffffffffffffffffff161480613f6a57507f000000000000000000000000000000000000000000000000000000000000000073ffffffffffffffffffffffffffffffffffffffff16613f5161443a565b73ffffffffffffffffffffffffffffffffffffffff1614155b15613fa1576040517fe07c8dba00000000000000000000000000000000000000000000000000000000815260040160405180910390fd5b565b613fab613b4b565b50565b8173ffffffffffffffffffffffffffffffffffffffff166352d1902d6040518163ffffffff1660e01b8152600401602060405180830381865afa92505050801561401657506040513d601f19601f8201168201806040525081019061401391906167d9565b60015b61405757816040517f4c9c8ce300000000000000000000000000000000000000000000000000000000815260040161404e9190614adb565b60405180910390fd5b7f360894a13ba1a3210667c828492db98dca3e2076cc3735a920a3ca505d382bbc60001b81146140be57806040517faa1d49a40000000000000000000000000000000000000000000000000000000081526004016140b59190615020565b60405180910390fd5b6140c88383614491565b505050565b7f000000000000000000000000000000000000000000000000000000000000000073ffffffffffffffffffffffffffffffffffffffff163073ffffffffffffffffffffffffffffffffffffffff1614614152576040517fe07c8dba00000000000000000000000000000000000000000000000000000000815260040160405180910390fd5b565b6141ce838473ffffffffffffffffffffffffffffffffffffffff1663a9059cbb85856040516024016141879291906164fa565b604051602081830303815290604052915060e01b6020820180517bffffffffffffffffffffffffffffffffffffffffffffffffffffffff8381831617835250505050614504565b505050565b60007fcd5ed15c6e187e77e9aee88184c21f4f2182ab5827cb3b7e07fbedcd63f03300905090565b614203613a01565b600061420d6141d3565b905060018160000160006101000a81548160ff0219169083151502179055507f62e78cea01bee320cd4e420270b5ea74000d11b0c9f74754ebdbfc544b05a2586142556142d7565b6040516142629190614adb565b60405180910390a150565b60007f9016d09d72d40fdae2fd8ceac6b6234c7706214fd39c1cd1e609a0528c199300905090565b60007f9b779b17422d0df92223018b32b4d1fa46e071723d6817e2486d003becc55f00905090565b6142d4816142cc61459b6145bc565b63ffffffff16565b50565b600033905090565b6142e7612814565b61431d576040517f8dfc202b00000000000000000000000000000000000000000000000000000000815260040160405180910390fd5b565b6143276145c7565b61435d576040517fd7e6bcf800000000000000000000000000000000000000000000000000000000815260040160405180910390fd5b565b61436761431f565b600073ffffffffffffffffffffffffffffffffffffffff168173ffffffffffffffffffffffffffffffffffffffff16036143d95760006040517f1e4fbdf70000000000000000000000000000000000000000000000000000000081526004016143d09190614adb565b60405180910390fd5b6143e281613cae565b50565b6143ed61431f565b60006143f76141d3565b905060008160000160006101000a81548160ff02191690831515021790555050565b61442161431f565b600061442b614295565b90506001816000018190555050565b60006144687f360894a13ba1a3210667c828492db98dca3e2076cc3735a920a3ca505d382bbc60001b6145e7565b60000160009054906101000a900473ffffffffffffffffffffffffffffffffffffffff16905090565b61449a826145f1565b8173ffffffffffffffffffffffffffffffffffffffff167fbc7cd75a20ee27fd9adebab32041f755214dbc6bffa90cc0225b39da2e5c2d3b60405160405180910390a26000815111156144f7576144f182826146be565b50614500565b6144ff614742565b5b5050565b600061452f828473ffffffffffffffffffffffffffffffffffffffff1661477f90919063ffffffff16565b90506000815114158015614554575080806020019051810190614552919061654f565b155b1561459657826040517f5274afe700000000000000000000000000000000000000000000000000000000815260040161458d9190614adb565b60405180910390fd5b505050565b60006a636f6e736f6c652e6c6f679050600080835160208501845afa505050565b61498a819050919050565b60006145d1613c44565b60000160089054906101000a900460ff16905090565b6000819050919050565b60008173ffffffffffffffffffffffffffffffffffffffff163b0361464d57806040517f4c9c8ce30000000000000000000000000000000000000000000000000000000081526004016146449190614adb565b60405180910390fd5b8061467a7f360894a13ba1a3210667c828492db98dca3e2076cc3735a920a3ca505d382bbc60001b6145e7565b60000160006101000a81548173ffffffffffffffffffffffffffffffffffffffff021916908373ffffffffffffffffffffffffffffffffffffffff16021790555050565b60606000808473ffffffffffffffffffffffffffffffffffffffff16846040516146e89190616451565b600060405180830381855af49150503d8060008114614723576040519150601f19603f3d011682016040523d82523d6000602084013e614728565b606091505b5091509150614738858383614795565b9250505092915050565b600034111561477d576040517fb398979f00000000000000000000000000000000000000000000000000000000815260040160405180910390fd5b565b606061478d83836000614824565b905092915050565b6060826147aa576147a5826148f1565b61481c565b600082511480156147d2575060008473ffffffffffffffffffffffffffffffffffffffff163b145b1561481457836040517f9996b31500000000000000000000000000000000000000000000000000000000815260040161480b9190614adb565b60405180910390fd5b81905061481d565b5b9392505050565b60608147101561486b57306040517fcd7860590000000000000000000000000000000000000000000000000000000081526004016148629190614adb565b60405180910390fd5b6000808573ffffffffffffffffffffffffffffffffffffffff1684866040516148949190616451565b60006040518083038185875af1925050503d80600081146148d1576040519150601f19603f3d011682016040523d82523d6000602084013e6148d6565b606091505b50915091506148e6868383614795565b925050509392505050565b6000815111156149045780518082602001fd5b6040517f1425ea4200000000000000000000000000000000000000000000000000000000815260040160405180910390fd5b6040518060800160405280600073ffffffffffffffffffffffffffffffffffffffff168152602001600073ffffffffffffffffffffffffffffffffffffffff16815260200160008152602001606081525090565b614992616806565b565b6000604051905090565b600080fd5b600080fd5b6000819050919050565b6149bb816149a8565b81146149c657600080fd5b50565b6000813590506149d8816149b2565b92915050565b6000602082840312156149f4576149f361499e565b5b6000614a02848285016149c9565b91505092915050565b60008115159050919050565b614a2081614a0b565b82525050565b6000602082019050614a3b6000830184614a17565b92915050565b600073ffffffffffffffffffffffffffffffffffffffff82169050919050565b6000614a6c82614a41565b9050919050565b614a7c81614a61565b8114614a8757600080fd5b50565b600081359050614a9981614a73565b92915050565b600060208284031215614ab557614ab461499e565b5b6000614ac384828501614a8a565b91505092915050565b614ad581614a61565b82525050565b6000602082019050614af06000830184614acc565b92915050565b600080fd5b600080fd5b600080fd5b60008083601f840112614b1b57614b1a614af6565b5b8235905067ffffffffffffffff811115614b3857614b37614afb565b5b602083019150836001820283011115614b5457614b53614b00565b5b9250929050565b60007fffffffffffffffffffffffffffffffffffffffffff000000000000000000000082169050919050565b614b9081614b5b565b8114614b9b57600080fd5b50565b600081359050614bad81614b87565b92915050565b60008060008060608587031215614bcd57614bcc61499e565b5b600085013567ffffffffffffffff811115614beb57614bea6149a3565b5b614bf787828801614b05565b94509450506020614c0a87828801614b9e565b9250506040614c1b87828801614a8a565b91505092959194509250565b6000819050919050565b614c3a81614c27565b82525050565b6000602082019050614c556000830184614c31565b92915050565b60008060008060608587031215614c7557614c7461499e565b5b600085013567ffffffffffffffff811115614c9357614c926149a3565b5b614c9f87828801614b05565b94509450506020614cb2878288016149c9565b9250506040614cc387828801614a8a565b91505092959194509250565b6000819050919050565b6000614cf4614cef614cea84614a41565b614ccf565b614a41565b9050919050565b6000614d0682614cd9565b9050919050565b6000614d1882614cfb565b9050919050565b614d2881614d0d565b82525050565b6000602082019050614d436000830184614d1f565b92915050565b60008060408385031215614d6057614d5f61499e565b5b6000614d6e85828601614a8a565b9250506020614d7f85828601614a8a565b9150509250929050565b60008083601f840112614d9f57614d9e614af6565b5b8235905067ffffffffffffffff811115614dbc57614dbb614afb565b5b602083019150836001820283011115614dd857614dd7614b00565b5b9250929050565b600080600080600060608688031215614dfb57614dfa61499e565b5b600086013567ffffffffffffffff811115614e1957614e186149a3565b5b614e2588828901614b05565b95509550506020614e3888828901614a8a565b935050604086013567ffffffffffffffff811115614e5957614e586149a3565b5b614e6588828901614d89565b92509250509295509295909350565b600080fd5b6000601f19601f8301169050919050565b7f4e487b7100000000000000000000000000000000000000000000000000000000600052604160045260246000fd5b614ec282614e79565b810181811067ffffffffffffffff82111715614ee157614ee0614e8a565b5b80604052505050565b6000614ef4614994565b9050614f008282614eb9565b919050565b600067ffffffffffffffff821115614f2057614f1f614e8a565b5b614f2982614e79565b9050602081019050919050565b82818337600083830152505050565b6000614f58614f5384614f05565b614eea565b905082815260208101848484011115614f7457614f73614e74565b5b614f7f848285614f36565b509392505050565b600082601f830112614f9c57614f9b614af6565b5b8135614fac848260208601614f45565b91505092915050565b60008060408385031215614fcc57614fcb61499e565b5b6000614fda85828601614a8a565b925050602083013567ffffffffffffffff811115614ffb57614ffa6149a3565b5b61500785828601614f87565b9150509250929050565b61501a816149a8565b82525050565b60006020820190506150356000830184615011565b92915050565b61504481614c27565b811461504f57600080fd5b50565b6000813590506150618161503b565b92915050565b6000806000606084860312156150805761507f61499e565b5b600061508e86828701614a8a565b935050602061509f86828701614a8a565b92505060406150b086828701615052565b9150509250925092565b600067ffffffffffffffff8211156150d5576150d4614e8a565b5b6150de82614e79565b9050602081019050919050565b60006150fe6150f9846150ba565b614eea565b90508281526020810184848401111561511a57615119614e74565b5b615125848285614f36565b509392505050565b600082601f83011261514257615141614af6565b5b81356151528482602086016150eb565b91505092915050565b6000602082840312156151715761517061499e565b5b600082013567ffffffffffffffff81111561518f5761518e6149a3565b5b61519b8482850161512d565b91505092915050565b600081519050919050565b600082825260208201905092915050565b60005b838110156151de5780820151818401526020810190506151c3565b60008484015250505050565b60006151f5826151a4565b6151ff81856151af565b935061520f8185602086016151c0565b61521881614e79565b840191505092915050565b6000602082019050818103600083015261523d81846151ea565b905092915050565b6000806000806000608086880312156152615761526061499e565b5b600086013567ffffffffffffffff81111561527f5761527e6149a3565b5b61528b88828901614b05565b9550955050602061529e88828901614b9e565b93505060406152af888289016149c9565b92505060606152c088828901614a8a565b9150509295509295909350565b600080602083850312156152e4576152e361499e565b5b600083013567ffffffffffffffff811115615302576153016149a3565b5b61530e85828601614b05565b92509250509250929050565b61532381614a61565b82525050565b61533281614c27565b82525050565b600081519050919050565b600082825260208201905092915050565b600061535f82615338565b6153698185615343565b93506153798185602086016151c0565b61538281614e79565b840191505092915050565b60006080830160008301516153a5600086018261531a565b5060208301516153b8602086018261531a565b5060408301516153cb6040860182615329565b50606083015184820360608601526153e38282615354565b9150508091505092915050565b6000602082019050818103600083015261540a818461538d565b905092915050565b7f63616c6c65722063616e6e6f7420626520736d61727420636f6e747261637400600082015250565b6000615448601f836151af565b915061545382615412565b602082019050919050565b600060208201905081810360008301526154778161543b565b9050919050565b7f616d6f756e74203d3d2030000000000000000000000000000000000000000000600082015250565b60006154b4600b836151af565b91506154bf8261547e565b602082019050919050565b600060208201905081810360008301526154e3816154a7565b9050919050565b7f64737420746f6b656e20213d206c697175696469747920746f6b656e00000000600082015250565b6000615520601c836151af565b915061552b826154ea565b602082019050919050565b6000602082019050818103600083015261554f81615513565b9050919050565b7f756e737570706f7274656420746f6b656e000000000000000000000000000000600082015250565b600061558c6011836151af565b915061559782615556565b602082019050919050565b600060208201905081810360008301526155bb8161557f565b9050919050565b6000815190506155d181614a73565b92915050565b6000602082840312156155ed576155ec61499e565b5b60006155fb848285016155c2565b91505092915050565b7f6d73672e76616c756520213d20616d6f756e7400000000000000000000000000600082015250565b600061563a6013836151af565b915061564582615604565b602082019050919050565b600060208201905081810360008301526156698161562d565b9050919050565b7f6d73672e76616c756520213d2030000000000000000000000000000000000000600082015250565b60006156a6600e836151af565b91506156b182615670565b602082019050919050565b600060208201905081810360008301526156d581615699565b9050919050565b60006060820190506156f16000830186614acc565b6156fe6020830185614acc565b61570b6040830184614c31565b949350505050565b6000815190506157228161503b565b92915050565b60006020828403121561573e5761573d61499e565b5b600061574c84828501615713565b91505092915050565b7f4e487b7100000000000000000000000000000000000000000000000000000000600052601160045260246000fd5b600061578f82614c27565b915061579a83614c27565b92508282039050818111156157b2576157b1615755565b5b92915050565b600060a0820190506157cd6000830188614acc565b6157da6020830187614acc565b6157e76040830186614c31565b6157f46060830185614c31565b6158016080830184614c31565b9695505050505050565b7f43616c6c65722063616e6e6f74206265206120736d61727420636f6e7472616360008201527f7400000000000000000000000000000000000000000000000000000000000000602082015250565b60006158676021836151af565b91506158728261580b565b604082019050919050565b600060208201905081810360008301526158968161585a565b9050919050565b7f416d6f756e742063616e6e6f7420626520300000000000000000000000000000600082015250565b60006158d36012836151af565b91506158de8261589d565b602082019050919050565b60006020820190508181036000830152615902816158c6565b9050919050565b7f44657374696e6174696f6e20746f6b656e206d7573742062652074686520627260008201527f69646765206c697175696469747920746f6b656e000000000000000000000000602082015250565b60006159656034836151af565b915061597082615909565b604082019050919050565b6000602082019050818103600083015261599481615958565b9050919050565b7f556e737570706f727465642064657374696e6174696f6e20636861696e000000600082015250565b60006159d1601d836151af565b91506159dc8261599b565b602082019050919050565b60006020820190508181036000830152615a00816159c4565b9050919050565b7f546f20746f6b656e2063616e6e6f7420626520746865207a65726f206164647260008201527f6573730000000000000000000000000000000000000000000000000000000000602082015250565b6000615a636023836151af565b9150615a6e82615a07565b604082019050919050565b60006020820190508181036000830152615a9281615a56565b9050919050565b7f4d6573736167652076616c7565206d75737420657175616c207468652073776160008201527f7020616d6f756e74000000000000000000000000000000000000000000000000602082015250565b6000615af56028836151af565b9150615b0082615a99565b604082019050919050565b60006020820190508181036000830152615b2481615ae8565b9050919050565b7f4d6573736167652076616c7565206d757374206265203020666f72206e6f6e2d60008201527f6e617469766520746f6b656e7300000000000000000000000000000000000000602082015250565b6000615b87602d836151af565b9150615b9282615b2b565b604082019050919050565b60006020820190508181036000830152615bb681615b7a565b9050919050565b7f53776170206f7574707574206d7573742062652067726561746572207468616e60008201527f2030000000000000000000000000000000000000000000000000000000000000602082015250565b6000615c196022836151af565b9150615c2482615bbd565b604082019050919050565b60006020820190508181036000830152615c4881615c0c565b9050919050565b6000615c5a82614c27565b9150615c6583614c27565b9250828202615c7381614c27565b91508282048414831517615c8a57615c89615755565b5b5092915050565b7f466565206d757374206265206c657373207468616e207468652073776170206f60008201527f7574707574000000000000000000000000000000000000000000000000000000602082015250565b6000615ced6025836151af565b9150615cf882615c91565b604082019050919050565b60006020820190508181036000830152615d1c81615ce0565b9050919050565b6000604082019050615d386000830185614c31565b615d456020830184614c31565b9392505050565b7f636168696e2063616e6e6f74206265207a65726f000000000000000000000000600082015250565b6000615d826014836151af565b9150615d8d82615d4c565b602082019050919050565b60006020820190508181036000830152615db181615d75565b9050919050565b7f20616464726573732063616e6e6f74206265207a65726f000000000000000000600082015250565b6000615dee6017836151af565b9150615df982615db8565b602082019050919050565b60006020820190508181036000830152615e1d81615de1565b9050919050565b6000819050919050565b600067ffffffffffffffff82169050919050565b6000615e5d615e58615e5384615e24565b614ccf565b615e2e565b9050919050565b615e6d81615e42565b82525050565b6000602082019050615e886000830184615e64565b92915050565b7f63616c6c65722073686f756c64206265206272696467652061646d696e000000600082015250565b6000615ec4601d836151af565b9150615ecf82615e8e565b602082019050919050565b60006020820190508181036000830152615ef381615eb7565b9050919050565b7f73726320746f6b656e20213d206c697175696469747920746f6b656e00000000600082015250565b6000615f30601c836151af565b9150615f3b82615efa565b602082019050919050565b60006020820190508181036000830152615f5f81615f23565b9050919050565b600081905092915050565b6000615f7d8385615f66565b9350615f8a838584614f36565b82840190509392505050565b6000615fa3828486615f71565b91508190509392505050565b7f6861736820616c72656164792070726f63657373656400000000000000000000600082015250565b6000615fe56016836151af565b9150615ff082615faf565b602082019050919050565b6000602082019050818103600083015261601481615fd8565b9050919050565b600081905092915050565b50565b600061603660008361601b565b915061604182616026565b600082019050919050565b600061605782616029565b9150819050919050565b7f5472616e7366657220746f20726563697069656e74206661696c656400000000600082015250565b6000616097601c836151af565b91506160a282616061565b602082019050919050565b600060208201905081810360008301526160c68161608a565b9050919050565b60006160d983856151af565b93506160e6838584614f36565b6160ef83614e79565b840190509392505050565b600060808201905061610f6000830188614acc565b81810360208301526161228186886160cd565b90506161316040830185614c31565b61613e6060830184614c31565b9695505050505050565b7f636861696e206e6f7420737570706f7274656400000000000000000000000000600082015250565b600061617e6013836151af565b915061618982616148565b602082019050919050565b600060208201905081810360008301526161ad81616171565b9050919050565b7f696e76616c696420746f6b656e73206164647265737365730000000000000000600082015250565b60006161ea6018836151af565b91506161f5826161b4565b602082019050919050565b60006020820190508181036000830152616219816161dd565b9050919050565b7f73726320746f6b656e20262064737420746f6b656e2073686f756c642062652060008201527f646966666572656e740000000000000000000000000000000000000000000000602082015250565b600061627c6029836151af565b915061628782616220565b604082019050919050565b600060208201905081810360008301526162ab8161626f565b9050919050565b7f696e76616c69642064737420746f6b656e000000000000000000000000000000600082015250565b60006162e86011836151af565b91506162f3826162b2565b602082019050919050565b60006020820190508181036000830152616317816162db565b9050919050565b7f696e73756666696369656e742062616c616e6365000000000000000000000000600082015250565b60006163546014836151af565b915061635f8261631e565b602082019050919050565b6000602082019050818103600083015261638381616347565b9050919050565b7f496e73756666696369656e742062616c616e6365000000000000000000000000600082015250565b60006163c06014836151af565b91506163cb8261638a565b602082019050919050565b600060208201905081810360008301526163ef816163b3565b9050919050565b6163ff81614b5b565b82525050565b600060208201905061641a60008301846163f6565b92915050565b600061642b82615338565b616435818561601b565b93506164458185602086016151c0565b80840191505092915050565b600061645d8284616420565b915081905092915050565b7f4465706f73697420746f20506172746973696120627269646765206661696c6560008201527f6400000000000000000000000000000000000000000000000000000000000000602082015250565b60006164c46021836151af565b91506164cf82616468565b604082019050919050565b600060208201905081810360008301526164f3816164b7565b9050919050565b600060408201905061650f6000830185614acc565b61651c6020830184614c31565b9392505050565b61652c81614a0b565b811461653757600080fd5b50565b60008151905061654981616523565b92915050565b6000602082840312156165655761656461499e565b5b60006165738482850161653a565b91505092915050565b7f5472616e7366657220746f20506172746973696120627269646765206661696c60008201527f6564000000000000000000000000000000000000000000000000000000000000602082015250565b60006165d86022836151af565b91506165e38261657c565b604082019050919050565b60006020820190508181036000830152616607816165cb565b9050919050565b600060408201905061662360008301856163f6565b6166306020830184614c31565b9392505050565b600061664282614a41565b9050919050565b61665281616637565b811461665d57600080fd5b50565b60008135905061666f81616649565b92915050565b6000806000806080858703121561668f5761668e61499e565b5b600061669d87828801616660565b94505060206166ae87828801616660565b93505060406166bf87828801615052565b925050606085013567ffffffffffffffff8111156166e0576166df6149a3565b5b6166ec87828801614f87565b91505092959194509250565b7f616464726573732063616e6e6f74206265207a65726f00000000000000000000600082015250565b600061672e6016836151af565b9150616739826166f8565b602082019050919050565b6000602082019050818103600083015261675d81616721565b9050919050565b6000604082019050818103600083015261677e81856151ea565b905061678d6020830184614c31565b9392505050565b600060408201905081810360008301526167ae81856151ea565b90506167bd6020830184614a17565b9392505050565b6000815190506167d3816149b2565b92915050565b6000602082840312156167ef576167ee61499e565b5b60006167fd848285016167c4565b91505092915050565b7f4e487b7100000000000000000000000000000000000000000000000000000000600052605160045260246000fdfe5472616e736665722066726f6d207573657220746f20636f6e747261637420636f6d706c65746564a264697066735822122018bb2f5da27e0e532ddff1873616d90a3bc93e18dc747b96eb5cdcaa5d603a4864736f6c63430008180033",
    "linkReferences": {},
    "deployedLinkReferences": {}
}