{
	"xstake/src/wstf token launch/contracts/token/ERC20/implementation.sol": {
		"MyOmniToken": {
			"abi": [
				{
					"inputs": [
						{
							"internalType": "string",
							"name": "name_",
							"type": "string"
						},
						{
							"internalType": "string",
							"name": "symbol_",
							"type": "string"
						},
						{
							"internalType": "uint256",
							"name": "initialSupply",
							"type": "uint256"
						},
						{
							"internalType": "address",
							"name": "initialMinterAddress",
							"type": "address"
						},
						{
							"internalType": "bool",
							"name": "ismainChain",
							"type": "bool"
						}
					],
					"stateMutability": "nonpayable",
					"type": "constructor"
				},
				{
					"inputs": [
						{
							"internalType": "address",
							"name": "spender",
							"type": "address"
						},
						{
							"internalType": "uint256",
							"name": "allowance",
							"type": "uint256"
						},
						{
							"internalType": "uint256",
							"name": "needed",
							"type": "uint256"
						}
					],
					"name": "ERC20InsufficientAllowance",
					"type": "error"
				},
				{
					"inputs": [
						{
							"internalType": "address",
							"name": "sender",
							"type": "address"
						},
						{
							"internalType": "uint256",
							"name": "balance",
							"type": "uint256"
						},
						{
							"internalType": "uint256",
							"name": "needed",
							"type": "uint256"
						}
					],
					"name": "ERC20InsufficientBalance",
					"type": "error"
				},
				{
					"inputs": [
						{
							"internalType": "address",
							"name": "approver",
							"type": "address"
						}
					],
					"name": "ERC20InvalidApprover",
					"type": "error"
				},
				{
					"inputs": [
						{
							"internalType": "address",
							"name": "receiver",
							"type": "address"
						}
					],
					"name": "ERC20InvalidReceiver",
					"type": "error"
				},
				{
					"inputs": [
						{
							"internalType": "address",
							"name": "sender",
							"type": "address"
						}
					],
					"name": "ERC20InvalidSender",
					"type": "error"
				},
				{
					"inputs": [
						{
							"internalType": "address",
							"name": "spender",
							"type": "address"
						}
					],
					"name": "ERC20InvalidSpender",
					"type": "error"
				},
				{
					"anonymous": false,
					"inputs": [
						{
							"indexed": true,
							"internalType": "address",
							"name": "owner",
							"type": "address"
						},
						{
							"indexed": true,
							"internalType": "address",
							"name": "spender",
							"type": "address"
						},
						{
							"indexed": false,
							"internalType": "uint256",
							"name": "value",
							"type": "uint256"
						}
					],
					"name": "Approval",
					"type": "event"
				},
				{
					"anonymous": false,
					"inputs": [
						{
							"indexed": false,
							"internalType": "uint8",
							"name": "conf",
							"type": "uint8"
						}
					],
					"name": "DefaultConfLevelSet",
					"type": "event"
				},
				{
					"anonymous": false,
					"inputs": [
						{
							"indexed": false,
							"internalType": "address",
							"name": "omni",
							"type": "address"
						}
					],
					"name": "OmniPortalSet",
					"type": "event"
				},
				{
					"anonymous": false,
					"inputs": [
						{
							"indexed": true,
							"internalType": "address",
							"name": "from",
							"type": "address"
						},
						{
							"indexed": true,
							"internalType": "address",
							"name": "to",
							"type": "address"
						},
						{
							"indexed": false,
							"internalType": "uint256",
							"name": "value",
							"type": "uint256"
						}
					],
					"name": "Transfer",
					"type": "event"
				},
				{
					"inputs": [
						{
							"internalType": "address",
							"name": "owner",
							"type": "address"
						},
						{
							"internalType": "address",
							"name": "spender",
							"type": "address"
						}
					],
					"name": "allowance",
					"outputs": [
						{
							"internalType": "uint256",
							"name": "",
							"type": "uint256"
						}
					],
					"stateMutability": "view",
					"type": "function"
				},
				{
					"inputs": [
						{
							"internalType": "address",
							"name": "spender",
							"type": "address"
						},
						{
							"internalType": "uint256",
							"name": "value",
							"type": "uint256"
						}
					],
					"name": "approve",
					"outputs": [
						{
							"internalType": "bool",
							"name": "",
							"type": "bool"
						}
					],
					"stateMutability": "nonpayable",
					"type": "function"
				},
				{
					"inputs": [
						{
							"internalType": "address",
							"name": "account",
							"type": "address"
						}
					],
					"name": "balanceOf",
					"outputs": [
						{
							"internalType": "uint256",
							"name": "",
							"type": "uint256"
						}
					],
					"stateMutability": "view",
					"type": "function"
				},
				{
					"inputs": [],
					"name": "decimals",
					"outputs": [
						{
							"internalType": "uint8",
							"name": "",
							"type": "uint8"
						}
					],
					"stateMutability": "view",
					"type": "function"
				},
				{
					"inputs": [],
					"name": "defaultConfLevel",
					"outputs": [
						{
							"internalType": "uint8",
							"name": "",
							"type": "uint8"
						}
					],
					"stateMutability": "view",
					"type": "function"
				},
				{
					"inputs": [
						{
							"internalType": "address",
							"name": "account",
							"type": "address"
						},
						{
							"internalType": "uint256",
							"name": "value",
							"type": "uint256"
						}
					],
					"name": "mint",
					"outputs": [],
					"stateMutability": "nonpayable",
					"type": "function"
				},
				{
					"inputs": [],
					"name": "name",
					"outputs": [
						{
							"internalType": "string",
							"name": "",
							"type": "string"
						}
					],
					"stateMutability": "view",
					"type": "function"
				},
				{
					"inputs": [],
					"name": "omni",
					"outputs": [
						{
							"internalType": "contract IOmniPortal",
							"name": "",
							"type": "address"
						}
					],
					"stateMutability": "view",
					"type": "function"
				},
				{
					"inputs": [
						{
							"internalType": "address",
							"name": "from",
							"type": "address"
						},
						{
							"internalType": "address",
							"name": "to",
							"type": "address"
						},
						{
							"internalType": "uint256",
							"name": "value",
							"type": "uint256"
						}
					],
					"name": "receiveTransfer",
					"outputs": [],
					"stateMutability": "nonpayable",
					"type": "function"
				},
				{
					"inputs": [],
					"name": "symbol",
					"outputs": [
						{
							"internalType": "string",
							"name": "",
							"type": "string"
						}
					],
					"stateMutability": "view",
					"type": "function"
				},
				{
					"inputs": [],
					"name": "totalSupply",
					"outputs": [
						{
							"internalType": "uint256",
							"name": "",
							"type": "uint256"
						}
					],
					"stateMutability": "view",
					"type": "function"
				},
				{
					"inputs": [
						{
							"internalType": "address",
							"name": "to",
							"type": "address"
						},
						{
							"internalType": "uint256",
							"name": "value",
							"type": "uint256"
						}
					],
					"name": "transfer",
					"outputs": [
						{
							"internalType": "bool",
							"name": "",
							"type": "bool"
						}
					],
					"stateMutability": "nonpayable",
					"type": "function"
				},
				{
					"inputs": [
						{
							"internalType": "uint64",
							"name": "destChain",
							"type": "uint64"
						},
						{
							"internalType": "address",
							"name": "destToken",
							"type": "address"
						},
						{
							"internalType": "address",
							"name": "to",
							"type": "address"
						},
						{
							"internalType": "uint256",
							"name": "value",
							"type": "uint256"
						}
					],
					"name": "transfer",
					"outputs": [],
					"stateMutability": "payable",
					"type": "function"
				},
				{
					"inputs": [
						{
							"internalType": "address",
							"name": "from",
							"type": "address"
						},
						{
							"internalType": "address",
							"name": "to",
							"type": "address"
						},
						{
							"internalType": "uint256",
							"name": "value",
							"type": "uint256"
						}
					],
					"name": "transferFrom",
					"outputs": [
						{
							"internalType": "bool",
							"name": "",
							"type": "bool"
						}
					],
					"stateMutability": "nonpayable",
					"type": "function"
				}
			],
			"devdoc": {
				"errors": {
					"ERC20InsufficientAllowance(address,uint256,uint256)": [
						{
							"details": "Indicates a failure with the `spender`’s `allowance`. Used in transfers.",
							"params": {
								"allowance": "Amount of tokens a `spender` is allowed to operate with.",
								"needed": "Minimum amount required to perform a transfer.",
								"spender": "Address that may be allowed to operate on tokens without being their owner."
							}
						}
					],
					"ERC20InsufficientBalance(address,uint256,uint256)": [
						{
							"details": "Indicates an error related to the current `balance` of a `sender`. Used in transfers.",
							"params": {
								"balance": "Current balance for the interacting account.",
								"needed": "Minimum amount required to perform a transfer.",
								"sender": "Address whose tokens are being transferred."
							}
						}
					],
					"ERC20InvalidApprover(address)": [
						{
							"details": "Indicates a failure with the `approver` of a token to be approved. Used in approvals.",
							"params": {
								"approver": "Address initiating an approval operation."
							}
						}
					],
					"ERC20InvalidReceiver(address)": [
						{
							"details": "Indicates a failure with the token `receiver`. Used in transfers.",
							"params": {
								"receiver": "Address to which tokens are being transferred."
							}
						}
					],
					"ERC20InvalidSender(address)": [
						{
							"details": "Indicates a failure with the token `sender`. Used in transfers.",
							"params": {
								"sender": "Address whose tokens are being transferred."
							}
						}
					],
					"ERC20InvalidSpender(address)": [
						{
							"details": "Indicates a failure with the `spender` to be approved. Used in approvals.",
							"params": {
								"spender": "Address that may be allowed to operate on tokens without being their owner."
							}
						}
					]
				},
				"events": {
					"Approval(address,address,uint256)": {
						"details": "Emitted when the allowance of a `spender` for an `owner` is set by a call to {approve}. `value` is the new allowance."
					},
					"DefaultConfLevelSet(uint8)": {
						"params": {
							"conf": "Confirmation level"
						}
					},
					"Transfer(address,address,uint256)": {
						"details": "Emitted when `value` tokens are moved from one account (`from`) to another (`to`). Note that `value` may be zero."
					}
				},
				"kind": "dev",
				"methods": {
					"allowance(address,address)": {
						"details": "Returns the remaining number of tokens that `spender` will be allowed to spend on behalf of `owner` through {transferFrom}. This is zero by default. This value changes when {approve} or {transferFrom} are called."
					},
					"approve(address,uint256)": {
						"details": "Sets a `value` amount of tokens as the allowance of `spender` over the caller's tokens. Returns a boolean value indicating whether the operation succeeded. IMPORTANT: Beware that changing an allowance with this method brings the risk that someone may use both the old and the new allowance by unfortunate transaction ordering. One possible solution to mitigate this race condition is to first reduce the spender's allowance to 0 and set the desired value afterwards: https://github.com/ethereum/EIPs/issues/20#issuecomment-263524729 Emits an {Approval} event."
					},
					"balanceOf(address)": {
						"details": "Returns the value of tokens owned by `account`."
					},
					"decimals()": {
						"details": "Returns the decimals places of the token."
					},
					"name()": {
						"details": "Returns the name of the token."
					},
					"symbol()": {
						"details": "Returns the symbol of the token."
					},
					"totalSupply()": {
						"details": "Returns the value of tokens in existence."
					},
					"transfer(address,uint256)": {
						"details": "Moves a `value` amount of tokens from the caller's account to `to`. Returns a boolean value indicating whether the operation succeeded. Emits a {Transfer} event."
					},
					"transferFrom(address,address,uint256)": {
						"details": "Moves a `value` amount of tokens from `from` to `to` using the allowance mechanism. `value` is then deducted from the caller's allowance. Returns a boolean value indicating whether the operation succeeded. Emits a {Transfer} event."
					}
				},
				"version": 1
			},
			"evm": {
				"assembly": "    /* \"xstake/src/wstf token launch/contracts/token/ERC20/implementation.sol\":128:1210  contract MyOmniToken is OmniERC20 {... */\n  mstore(0x40, 0x80)\n    /* \"xstake/src/wstf token launch/contracts/token/ERC20/implementation.sol\":164:225  address omniPortal=0xcB60A0451831E4865bC49f41F9C67665Fc9b75C3 */\n  0x07\n  dup1\n  sload\n  not(sub(shl(0xa0, 0x01), 0x01))\n  and\n    /* \"xstake/src/wstf token launch/contracts/token/ERC20/implementation.sol\":183:225  0xcB60A0451831E4865bC49f41F9C67665Fc9b75C3 */\n  0xcb60a0451831e4865bc49f41f9c67665fc9b75c3\n    /* \"xstake/src/wstf token launch/contracts/token/ERC20/implementation.sol\":164:225  address omniPortal=0xcB60A0451831E4865bC49f41F9C67665Fc9b75C3 */\n  or\n  swap1\n  sstore\n    /* \"xstake/src/wstf token launch/contracts/token/ERC20/implementation.sol\":231:698  constructor(... */\n  callvalue\n  dup1\n  iszero\n  tag_1\n  jumpi\n  0x00\n  dup1\n  revert\ntag_1:\n  pop\n  mload(0x40)\n  sub(codesize, bytecodeSize)\n  dup1\n  bytecodeSize\n  dup4\n  codecopy\n  dup2\n  add\n  0x40\n  dup2\n  swap1\n  mstore\n  tag_2\n  swap2\n  tag_3\n  jump\t// in\ntag_2:\n    /* \"xstake/src/wstf token launch/contracts/token/ERC20/implementation.sol\":430:440  omniPortal */\n  sload(0x07)\n    /* \"xstake/src/wstf token launch/contracts/token/ERC20/implementation.sol\":414:419  name_ */\n  dup6\n  swap1\n    /* \"xstake/src/wstf token launch/contracts/token/ERC20/implementation.sol\":421:428  symbol_ */\n  dup6\n  swap1\n  sub(shl(0xa0, 0x01), 0x01)\n    /* \"xstake/src/wstf token launch/contracts/token/ERC20/implementation.sol\":430:440  omniPortal */\n  and\n  dup1\n  0x01\n    /* \"xstake/lib/omni/contracts/core/src/pkg/XApp.sol\":296:317  _setOmniPortal(omni_) */\n  tag_8\n    /* \"xstake/src/wstf token launch/contracts/token/ERC20/implementation.sol\":430:440  omniPortal */\n  dup3\n    /* \"xstake/lib/omni/contracts/core/src/pkg/XApp.sol\":296:310  _setOmniPortal */\n  tag_9\n    /* \"xstake/lib/omni/contracts/core/src/pkg/XApp.sol\":296:317  _setOmniPortal(omni_) */\n  jump\t// in\ntag_8:\n    /* \"xstake/lib/omni/contracts/core/src/pkg/XApp.sol\":327:366  _setDefaultConfLevel(defaultConfLevel_) */\n  tag_10\n    /* \"xstake/lib/omni/contracts/core/src/pkg/XApp.sol\":348:365  defaultConfLevel_ */\n  dup2\n    /* \"xstake/lib/omni/contracts/core/src/pkg/XApp.sol\":327:347  _setDefaultConfLevel */\n  tag_11\n    /* \"xstake/lib/omni/contracts/core/src/pkg/XApp.sol\":327:366  _setDefaultConfLevel(defaultConfLevel_) */\n  jump\t// in\ntag_10:\n  pop\n    /* \"xstake/src/wstf token launch/contracts/token/ERC20/OmniERC20.sol\":895:900  _name */\n  0x05\n  swap1\n  pop\n    /* \"xstake/src/wstf token launch/contracts/token/ERC20/OmniERC20.sol\":895:908  _name = name_ */\n  tag_13\n    /* \"xstake/src/wstf token launch/contracts/token/ERC20/OmniERC20.sol\":903:908  name_ */\n  dup5\n    /* \"xstake/src/wstf token launch/contracts/token/ERC20/OmniERC20.sol\":895:900  _name */\n  dup3\n    /* \"xstake/src/wstf token launch/contracts/token/ERC20/OmniERC20.sol\":895:908  _name = name_ */\n  tag_14\n  jump\t// in\ntag_13:\n  pop\n    /* \"xstake/src/wstf token launch/contracts/token/ERC20/OmniERC20.sol\":918:925  _symbol */\n  0x06\n    /* \"xstake/src/wstf token launch/contracts/token/ERC20/OmniERC20.sol\":918:935  _symbol = symbol_ */\n  tag_15\n    /* \"xstake/src/wstf token launch/contracts/token/ERC20/OmniERC20.sol\":928:935  symbol_ */\n  dup4\n    /* \"xstake/src/wstf token launch/contracts/token/ERC20/OmniERC20.sol\":918:925  _symbol */\n  dup3\n    /* \"xstake/src/wstf token launch/contracts/token/ERC20/OmniERC20.sol\":918:935  _symbol = symbol_ */\n  tag_14\n  jump\t// in\ntag_15:\n  pop\n  pop\n  pop\n  pop\n    /* \"xstake/src/wstf token launch/contracts/token/ERC20/implementation.sol\":534:552  ismainChain== true */\n  dup1\n  iszero\n  iszero\n    /* \"xstake/src/wstf token launch/contracts/token/ERC20/implementation.sol\":548:552  true */\n  0x01\n    /* \"xstake/src/wstf token launch/contracts/token/ERC20/implementation.sol\":534:552  ismainChain== true */\n  sub\n    /* \"xstake/src/wstf token launch/contracts/token/ERC20/implementation.sol\":531:692  if(ismainChain== true){... */\n  tag_17\n  jumpi\n    /* \"xstake/src/wstf token launch/contracts/token/ERC20/implementation.sol\":563:605  _mint(initialMinterAddress, initialSupply) */\n  tag_18\n    /* \"xstake/src/wstf token launch/contracts/token/ERC20/implementation.sol\":569:589  initialMinterAddress */\n  dup3\n    /* \"xstake/src/wstf token launch/contracts/token/ERC20/implementation.sol\":591:604  initialSupply */\n  dup5\n    /* \"xstake/src/wstf token launch/contracts/token/ERC20/implementation.sol\":563:568  _mint */\n  tag_19\n    /* \"xstake/src/wstf token launch/contracts/token/ERC20/implementation.sol\":563:605  _mint(initialMinterAddress, initialSupply) */\n  jump\t// in\ntag_18:\n    /* \"xstake/src/wstf token launch/contracts/token/ERC20/implementation.sol\":531:692  if(ismainChain== true){... */\n  jump(tag_21)\ntag_17:\n    /* \"xstake/src/wstf token launch/contracts/token/ERC20/implementation.sol\":646:681  _mint(address(this), initialSupply) */\n  tag_21\n    /* \"xstake/src/wstf token launch/contracts/token/ERC20/implementation.sol\":660:664  this */\n  address\n    /* \"xstake/src/wstf token launch/contracts/token/ERC20/implementation.sol\":667:680  initialSupply */\n  dup5\n    /* \"xstake/src/wstf token launch/contracts/token/ERC20/implementation.sol\":646:651  _mint */\n  tag_19\n    /* \"xstake/src/wstf token launch/contracts/token/ERC20/implementation.sol\":646:681  _mint(address(this), initialSupply) */\n  jump\t// in\ntag_21:\n    /* \"xstake/src/wstf token launch/contracts/token/ERC20/implementation.sol\":231:698  constructor(... */\n  pop\n  pop\n  pop\n  pop\n  pop\n    /* \"xstake/src/wstf token launch/contracts/token/ERC20/implementation.sol\":128:1210  contract MyOmniToken is OmniERC20 {... */\n  jump(tag_62)\n    /* \"xstake/lib/omni/contracts/core/src/pkg/XAppBase.sol\":3791:3976  function _setOmniPortal(address _omni) internal {... */\ntag_9:\n  sub(shl(0xa0, 0x01), 0x01)\n    /* \"xstake/lib/omni/contracts/core/src/pkg/XAppBase.sol\":3857:3876  _omni != address(0) */\n  dup2\n  and\n    /* \"xstake/lib/omni/contracts/core/src/pkg/XAppBase.sol\":3849:3899  require(_omni != address(0), \"XApp: no zero omni\") */\n  tag_24\n  jumpi\n  mload(0x40)\n  shl(0xe5, 0x461bcd)\n  dup2\n  mstore\n    /* \"#utility.yul\":4560:4562   */\n  0x20\n    /* \"xstake/lib/omni/contracts/core/src/pkg/XAppBase.sol\":3849:3899  require(_omni != address(0), \"XApp: no zero omni\") */\n  0x04\n  dup3\n  add\n    /* \"#utility.yul\":4542:4563   */\n  mstore\n    /* \"#utility.yul\":4599:4601   */\n  0x12\n    /* \"#utility.yul\":4579:4597   */\n  0x24\n  dup3\n  add\n    /* \"#utility.yul\":4572:4602   */\n  mstore\n  shl(0x70, 0x584170703a206e6f207a65726f206f6d6e69)\n    /* \"#utility.yul\":4618:4636   */\n  0x44\n  dup3\n  add\n    /* \"#utility.yul\":4611:4659   */\n  mstore\n    /* \"#utility.yul\":4676:4694   */\n  0x64\n  add\n    /* \"xstake/lib/omni/contracts/core/src/pkg/XAppBase.sol\":3849:3899  require(_omni != address(0), \"XApp: no zero omni\") */\ntag_25:\n  mload(0x40)\n  dup1\n  swap2\n  sub\n  swap1\n  revert\ntag_24:\n    /* \"xstake/lib/omni/contracts/core/src/pkg/XAppBase.sol\":3909:3913  omni */\n  0x00\n    /* \"xstake/lib/omni/contracts/core/src/pkg/XAppBase.sol\":3909:3934  omni = IOmniPortal(_omni) */\n  dup1\n  sload\n  not(sub(shl(0xa0, 0x01), 0x01))\n  and\n  sub(shl(0xa0, 0x01), 0x01)\n  dup4\n  and\n  swap1\n  dup2\n  or\n  swap1\n  swap2\n  sstore\n    /* \"xstake/lib/omni/contracts/core/src/pkg/XAppBase.sol\":3949:3969  OmniPortalSet(_omni) */\n  mload(0x40)\n    /* \"#utility.yul\":4851:4902   */\n  swap1\n  dup2\n  mstore\n    /* \"xstake/lib/omni/contracts/core/src/pkg/XAppBase.sol\":3949:3969  OmniPortalSet(_omni) */\n  0x79162c8d053a07e70cdc1ccc536f0440b571f8508377d2bef51094fadab98f47\n  swap1\n    /* \"#utility.yul\":4839:4841   */\n  0x20\n    /* \"#utility.yul\":4824:4842   */\n  add\n    /* \"xstake/lib/omni/contracts/core/src/pkg/XAppBase.sol\":3949:3969  OmniPortalSet(_omni) */\ntag_27:\n  mload(0x40)\n  dup1\n  swap2\n  sub\n  swap1\n  log1\n    /* \"xstake/lib/omni/contracts/core/src/pkg/XAppBase.sol\":3791:3976  function _setOmniPortal(address _omni) internal {... */\n  pop\n  jump\t// out\n    /* \"xstake/lib/omni/contracts/core/src/pkg/XAppBase.sol\":3462:3663  function _setDefaultConfLevel(uint8 conf) internal {... */\ntag_11:\n    /* \"xstake/lib/omni/contracts/core/src/pkg/XAppBase.sol\":3531:3554  ConfLevel.isValid(conf) */\n  tag_30\n    /* \"xstake/lib/omni/contracts/core/src/pkg/XAppBase.sol\":3549:3553  conf */\n  dup2\n    /* \"xstake/lib/omni/contracts/core/src/pkg/XAppBase.sol\":3531:3548  ConfLevel.isValid */\n  tag_31\n    /* \"xstake/lib/omni/contracts/core/src/pkg/XAppBase.sol\":3531:3554  ConfLevel.isValid(conf) */\n  jump\t// in\ntag_30:\n    /* \"xstake/lib/omni/contracts/core/src/pkg/XAppBase.sol\":3523:3583  require(ConfLevel.isValid(conf), \"XApp: invalid conf level\") */\n  tag_32\n  jumpi\n  mload(0x40)\n  shl(0xe5, 0x461bcd)\n  dup2\n  mstore\n    /* \"#utility.yul\":5115:5117   */\n  0x20\n    /* \"xstake/lib/omni/contracts/core/src/pkg/XAppBase.sol\":3523:3583  require(ConfLevel.isValid(conf), \"XApp: invalid conf level\") */\n  0x04\n  dup3\n  add\n    /* \"#utility.yul\":5097:5118   */\n  mstore\n    /* \"#utility.yul\":5154:5156   */\n  0x18\n    /* \"#utility.yul\":5134:5152   */\n  0x24\n  dup3\n  add\n    /* \"#utility.yul\":5127:5157   */\n  mstore\n    /* \"#utility.yul\":5193:5219   */\n  0x584170703a20696e76616c696420636f6e66206c6576656c0000000000000000\n    /* \"#utility.yul\":5173:5191   */\n  0x44\n  dup3\n  add\n    /* \"#utility.yul\":5166:5220   */\n  mstore\n    /* \"#utility.yul\":5237:5255   */\n  0x64\n  add\n    /* \"xstake/lib/omni/contracts/core/src/pkg/XAppBase.sol\":3523:3583  require(ConfLevel.isValid(conf), \"XApp: invalid conf level\") */\n  tag_25\n    /* \"#utility.yul\":4913:5261   */\n  jump\n    /* \"xstake/lib/omni/contracts/core/src/pkg/XAppBase.sol\":3523:3583  require(ConfLevel.isValid(conf), \"XApp: invalid conf level\") */\ntag_32:\n    /* \"xstake/lib/omni/contracts/core/src/pkg/XAppBase.sol\":3593:3609  defaultConfLevel */\n  0x00\n    /* \"xstake/lib/omni/contracts/core/src/pkg/XAppBase.sol\":3593:3616  defaultConfLevel = conf */\n  dup1\n  sload\n  not(shl(0xa0, 0xff))\n  and\n  shl(0xa0, 0x01)\n  0xff\n  dup5\n  and\n  swap1\n  dup2\n  mul\n  swap2\n  swap1\n  swap2\n  or\n  swap1\n  swap2\n  sstore\n    /* \"xstake/lib/omni/contracts/core/src/pkg/XAppBase.sol\":3631:3656  DefaultConfLevelSet(conf) */\n  mload(0x40)\n    /* \"#utility.yul\":5408:5444   */\n  swap1\n  dup2\n  mstore\n    /* \"xstake/lib/omni/contracts/core/src/pkg/XAppBase.sol\":3631:3656  DefaultConfLevelSet(conf) */\n  0x8de08a798b4e50b4f351c1eaa91a11530043802be3ffac2df87db0c45a2e8483\n  swap1\n    /* \"#utility.yul\":5396:5398   */\n  0x20\n    /* \"#utility.yul\":5381:5399   */\n  add\n    /* \"xstake/lib/omni/contracts/core/src/pkg/XAppBase.sol\":3631:3656  DefaultConfLevelSet(conf) */\n  tag_27\n    /* \"#utility.yul\":5266:5450   */\n  jump\n    /* \"xstake/src/wstf token launch/contracts/token/ERC20/implementation.sol\":1000:1208  function _mint(address account, uint256 value) internal {... */\ntag_19:\n  sub(shl(0xa0, 0x01), 0x01)\n    /* \"xstake/src/wstf token launch/contracts/token/ERC20/implementation.sol\":1070:1091  account == address(0) */\n  dup3\n  and\n    /* \"xstake/src/wstf token launch/contracts/token/ERC20/implementation.sol\":1066:1157  if (account == address(0)) {... */\n  tag_38\n  jumpi\n    /* \"xstake/src/wstf token launch/contracts/token/ERC20/implementation.sol\":1114:1146  ERC20InvalidReceiver(address(0)) */\n  mload(0x40)\n  shl(0xe0, 0xec442f05)\n  dup2\n  mstore\n    /* \"xstake/src/wstf token launch/contracts/token/ERC20/implementation.sol\":1143:1144  0 */\n  0x00\n    /* \"xstake/src/wstf token launch/contracts/token/ERC20/implementation.sol\":1114:1146  ERC20InvalidReceiver(address(0)) */\n  0x04\n  dup3\n  add\n    /* \"#utility.yul\":4851:4902   */\n  mstore\n    /* \"#utility.yul\":4824:4842   */\n  0x24\n  add\n    /* \"xstake/src/wstf token launch/contracts/token/ERC20/implementation.sol\":1114:1146  ERC20InvalidReceiver(address(0)) */\n  tag_25\n    /* \"#utility.yul\":4705:4908   */\n  jump\n    /* \"xstake/src/wstf token launch/contracts/token/ERC20/implementation.sol\":1066:1157  if (account == address(0)) {... */\ntag_38:\n    /* \"xstake/src/wstf token launch/contracts/token/ERC20/implementation.sol\":1166:1201  _update(address(0), account, value) */\n  tag_40\n    /* \"xstake/src/wstf token launch/contracts/token/ERC20/implementation.sol\":1182:1183  0 */\n  0x00\n    /* \"xstake/src/wstf token launch/contracts/token/ERC20/implementation.sol\":1186:1193  account */\n  dup4\n    /* \"xstake/src/wstf token launch/contracts/token/ERC20/implementation.sol\":1195:1200  value */\n  dup4\n    /* \"xstake/src/wstf token launch/contracts/token/ERC20/implementation.sol\":1166:1173  _update */\n  tag_41\n    /* \"xstake/src/wstf token launch/contracts/token/ERC20/implementation.sol\":1166:1201  _update(address(0), account, value) */\n  jump\t// in\ntag_40:\n    /* \"xstake/src/wstf token launch/contracts/token/ERC20/implementation.sol\":1000:1208  function _mint(address account, uint256 value) internal {... */\n  pop\n  pop\n  jump\t// out\n    /* \"xstake/lib/omni/contracts/core/src/libraries/ConfLevel.sol\":791:911  function isValid(uint8 level) internal pure returns (bool) {... */\ntag_31:\n    /* \"xstake/lib/omni/contracts/core/src/libraries/ConfLevel.sol\":844:848  bool */\n  0x00\n    /* \"xstake/lib/omni/contracts/core/src/libraries/ConfLevel.sol\":867:882  level == Latest */\n  0xff\n  dup3\n  and\n    /* \"xstake/lib/omni/contracts/core/src/libraries/ConfLevel.sol\":571:572  1 */\n  0x01\n    /* \"xstake/lib/omni/contracts/core/src/libraries/ConfLevel.sol\":867:882  level == Latest */\n  eq\n  dup1\n    /* \"xstake/lib/omni/contracts/core/src/libraries/ConfLevel.sol\":867:904  level == Latest || level == Finalized */\n  tag_43\n  jumpi\n  pop\n    /* \"xstake/lib/omni/contracts/core/src/libraries/ConfLevel.sol\":886:904  level == Finalized */\n  0xff\n  dup3\n  and\n    /* \"xstake/lib/omni/contracts/core/src/libraries/ConfLevel.sol\":710:711  4 */\n  0x04\n    /* \"xstake/lib/omni/contracts/core/src/libraries/ConfLevel.sol\":886:904  level == Finalized */\n  eq\n    /* \"xstake/lib/omni/contracts/core/src/libraries/ConfLevel.sol\":867:904  level == Latest || level == Finalized */\ntag_43:\n    /* \"xstake/lib/omni/contracts/core/src/libraries/ConfLevel.sol\":860:904  return level == Latest || level == Finalized */\n  swap3\n    /* \"xstake/lib/omni/contracts/core/src/libraries/ConfLevel.sol\":791:911  function isValid(uint8 level) internal pure returns (bool) {... */\n  swap2\n  pop\n  pop\n  jump\t// out\n    /* \"xstake/src/wstf token launch/contracts/token/ERC20/OmniERC20.sol\":3300:4006  function _update(address from, address to, uint256 value) internal virtual {... */\ntag_41:\n  sub(shl(0xa0, 0x01), 0x01)\n    /* \"xstake/src/wstf token launch/contracts/token/ERC20/OmniERC20.sol\":3389:3407  from == address(0) */\n  dup4\n  and\n    /* \"xstake/src/wstf token launch/contracts/token/ERC20/OmniERC20.sol\":3385:3744  if (from == address(0)) {... */\n  tag_45\n  jumpi\n    /* \"xstake/src/wstf token launch/contracts/token/ERC20/OmniERC20.sol\":3439:3444  value */\n  dup1\n    /* \"xstake/src/wstf token launch/contracts/token/ERC20/OmniERC20.sol\":3423:3435  _totalSupply */\n  0x04\n  0x00\n    /* \"xstake/src/wstf token launch/contracts/token/ERC20/OmniERC20.sol\":3423:3444  _totalSupply += value */\n  dup3\n  dup3\n  sload\n  tag_46\n  swap2\n  swap1\n  tag_47\n  jump\t// in\ntag_46:\n  swap1\n  swap2\n  sstore\n  pop\n    /* \"xstake/src/wstf token launch/contracts/token/ERC20/OmniERC20.sol\":3385:3744  if (from == address(0)) {... */\n  tag_48\n  swap1\n  pop\n  jump\ntag_45:\n  sub(shl(0xa0, 0x01), 0x01)\n    /* \"xstake/src/wstf token launch/contracts/token/ERC20/OmniERC20.sol\":3497:3512  _balances[from] */\n  dup4\n  and\n    /* \"xstake/src/wstf token launch/contracts/token/ERC20/OmniERC20.sol\":3475:3494  uint256 fromBalance */\n  0x00\n    /* \"xstake/src/wstf token launch/contracts/token/ERC20/OmniERC20.sol\":3497:3512  _balances[from] */\n  swap1\n  dup2\n  mstore\n    /* \"xstake/src/wstf token launch/contracts/token/ERC20/OmniERC20.sol\":3497:3506  _balances */\n  0x02\n    /* \"xstake/src/wstf token launch/contracts/token/ERC20/OmniERC20.sol\":3497:3512  _balances[from] */\n  0x20\n  mstore\n  0x40\n  swap1\n  keccak256\n  sload\n    /* \"xstake/src/wstf token launch/contracts/token/ERC20/OmniERC20.sol\":3530:3549  fromBalance < value */\n  dup2\n  dup2\n  lt\n    /* \"xstake/src/wstf token launch/contracts/token/ERC20/OmniERC20.sol\":3526:3641  if (fromBalance < value) {... */\n  iszero\n  tag_49\n  jumpi\n    /* \"xstake/src/wstf token launch/contracts/token/ERC20/OmniERC20.sol\":3576:3626  ERC20InsufficientBalance(from, fromBalance, value) */\n  mload(0x40)\n  shl(0xe2, 0x391434e3)\n  dup2\n  mstore\n  sub(shl(0xa0, 0x01), 0x01)\n    /* \"#utility.yul\":5902:5934   */\n  dup6\n  and\n    /* \"xstake/src/wstf token launch/contracts/token/ERC20/OmniERC20.sol\":3576:3626  ERC20InsufficientBalance(from, fromBalance, value) */\n  0x04\n  dup3\n  add\n    /* \"#utility.yul\":5884:5935   */\n  mstore\n    /* \"#utility.yul\":5951:5969   */\n  0x24\n  dup2\n  add\n    /* \"#utility.yul\":5944:5978   */\n  dup3\n  swap1\n  mstore\n    /* \"#utility.yul\":5994:6012   */\n  0x44\n  dup2\n  add\n    /* \"#utility.yul\":5987:6021   */\n  dup4\n  swap1\n  mstore\n    /* \"#utility.yul\":5857:5875   */\n  0x64\n  add\n    /* \"xstake/src/wstf token launch/contracts/token/ERC20/OmniERC20.sol\":3576:3626  ERC20InsufficientBalance(from, fromBalance, value) */\n  tag_25\n    /* \"#utility.yul\":5682:6027   */\n  jump\n    /* \"xstake/src/wstf token launch/contracts/token/ERC20/OmniERC20.sol\":3526:3641  if (fromBalance < value) {... */\ntag_49:\n  sub(shl(0xa0, 0x01), 0x01)\n    /* \"xstake/src/wstf token launch/contracts/token/ERC20/OmniERC20.sol\":3682:3697  _balances[from] */\n  dup5\n  and\n  0x00\n  swap1\n  dup2\n  mstore\n    /* \"xstake/src/wstf token launch/contracts/token/ERC20/OmniERC20.sol\":3682:3691  _balances */\n  0x02\n    /* \"xstake/src/wstf token launch/contracts/token/ERC20/OmniERC20.sol\":3682:3697  _balances[from] */\n  0x20\n  mstore\n  0x40\n  swap1\n  keccak256\n    /* \"xstake/src/wstf token launch/contracts/token/ERC20/OmniERC20.sol\":3700:3719  fromBalance - value */\n  swap1\n  dup3\n  swap1\n  sub\n    /* \"xstake/src/wstf token launch/contracts/token/ERC20/OmniERC20.sol\":3682:3719  _balances[from] = fromBalance - value */\n  swap1\n  sstore\n    /* \"xstake/src/wstf token launch/contracts/token/ERC20/OmniERC20.sol\":3385:3744  if (from == address(0)) {... */\ntag_48:\n  sub(shl(0xa0, 0x01), 0x01)\n    /* \"xstake/src/wstf token launch/contracts/token/ERC20/OmniERC20.sol\":3758:3774  to == address(0) */\n  dup3\n  and\n    /* \"xstake/src/wstf token launch/contracts/token/ERC20/OmniERC20.sol\":3754:3959  if (to == address(0)) {... */\n  tag_52\n  jumpi\n    /* \"xstake/src/wstf token launch/contracts/token/ERC20/OmniERC20.sol\":3818:3830  _totalSupply */\n  0x04\n    /* \"xstake/src/wstf token launch/contracts/token/ERC20/OmniERC20.sol\":3818:3839  _totalSupply -= value */\n  dup1\n  sload\n  dup3\n  swap1\n  sub\n  swap1\n  sstore\n    /* \"xstake/src/wstf token launch/contracts/token/ERC20/OmniERC20.sol\":3754:3959  if (to == address(0)) {... */\n  jump(tag_53)\ntag_52:\n  sub(shl(0xa0, 0x01), 0x01)\n    /* \"xstake/src/wstf token launch/contracts/token/ERC20/OmniERC20.sol\":3912:3925  _balances[to] */\n  dup3\n  and\n  0x00\n  swap1\n  dup2\n  mstore\n    /* \"xstake/src/wstf token launch/contracts/token/ERC20/OmniERC20.sol\":3912:3921  _balances */\n  0x02\n    /* \"xstake/src/wstf token launch/contracts/token/ERC20/OmniERC20.sol\":3912:3925  _balances[to] */\n  0x20\n  mstore\n  0x40\n  swap1\n  keccak256\n    /* \"xstake/src/wstf token launch/contracts/token/ERC20/OmniERC20.sol\":3912:3934  _balances[to] += value */\n  dup1\n  sload\n  dup3\n  add\n  swap1\n  sstore\n    /* \"xstake/src/wstf token launch/contracts/token/ERC20/OmniERC20.sol\":3754:3959  if (to == address(0)) {... */\ntag_53:\n    /* \"xstake/src/wstf token launch/contracts/token/ERC20/OmniERC20.sol\":3989:3991  to */\n  dup2\n  sub(shl(0xa0, 0x01), 0x01)\n    /* \"xstake/src/wstf token launch/contracts/token/ERC20/OmniERC20.sol\":3974:3999  Transfer(from, to, value) */\n  and\n    /* \"xstake/src/wstf token launch/contracts/token/ERC20/OmniERC20.sol\":3983:3987  from */\n  dup4\n  sub(shl(0xa0, 0x01), 0x01)\n    /* \"xstake/src/wstf token launch/contracts/token/ERC20/OmniERC20.sol\":3974:3999  Transfer(from, to, value) */\n  and\n  0xddf252ad1be2c89b69c2b068fc378daa952ba7f163c4a11628f55a4df523b3ef\n    /* \"xstake/src/wstf token launch/contracts/token/ERC20/OmniERC20.sol\":3993:3998  value */\n  dup4\n    /* \"xstake/src/wstf token launch/contracts/token/ERC20/OmniERC20.sol\":3974:3999  Transfer(from, to, value) */\n  mload(0x40)\n  tag_54\n  swap2\n    /* \"#utility.yul\":6178:6203   */\n  dup2\n  mstore\n    /* \"#utility.yul\":6166:6168   */\n  0x20\n    /* \"#utility.yul\":6151:6169   */\n  add\n  swap1\n    /* \"#utility.yul\":6032:6209   */\n  jump\n    /* \"xstake/src/wstf token launch/contracts/token/ERC20/OmniERC20.sol\":3974:3999  Transfer(from, to, value) */\ntag_54:\n  mload(0x40)\n  dup1\n  swap2\n  sub\n  swap1\n  log3\n    /* \"xstake/src/wstf token launch/contracts/token/ERC20/OmniERC20.sol\":3300:4006  function _update(address from, address to, uint256 value) internal virtual {... */\n  pop\n  pop\n  pop\n  jump\t// out\n    /* \"#utility.yul\":14:141   */\ntag_56:\n    /* \"#utility.yul\":75:85   */\n  0x4e487b71\n    /* \"#utility.yul\":70:73   */\n  0xe0\n    /* \"#utility.yul\":66:86   */\n  shl\n    /* \"#utility.yul\":63:64   */\n  0x00\n    /* \"#utility.yul\":56:87   */\n  mstore\n    /* \"#utility.yul\":106:110   */\n  0x41\n    /* \"#utility.yul\":103:104   */\n  0x04\n    /* \"#utility.yul\":96:111   */\n  mstore\n    /* \"#utility.yul\":130:134   */\n  0x24\n    /* \"#utility.yul\":127:128   */\n  0x00\n    /* \"#utility.yul\":120:135   */\n  revert\n    /* \"#utility.yul\":146:869   */\ntag_57:\n    /* \"#utility.yul\":200:205   */\n  0x00\n    /* \"#utility.yul\":253:256   */\n  dup3\n    /* \"#utility.yul\":246:250   */\n  0x1f\n    /* \"#utility.yul\":238:244   */\n  dup4\n    /* \"#utility.yul\":234:251   */\n  add\n    /* \"#utility.yul\":230:257   */\n  slt\n    /* \"#utility.yul\":220:275   */\n  tag_65\n  jumpi\n    /* \"#utility.yul\":271:272   */\n  0x00\n    /* \"#utility.yul\":268:269   */\n  dup1\n    /* \"#utility.yul\":261:273   */\n  revert\n    /* \"#utility.yul\":220:275   */\ntag_65:\n    /* \"#utility.yul\":298:311   */\n  dup2\n  mload\n  sub(shl(0x40, 0x01), 0x01)\n    /* \"#utility.yul\":323:353   */\n  dup2\n  gt\n    /* \"#utility.yul\":320:376   */\n  iszero\n  tag_67\n  jumpi\n    /* \"#utility.yul\":356:374   */\n  tag_67\n  tag_56\n  jump\t// in\ntag_67:\n    /* \"#utility.yul\":405:407   */\n  0x40\n    /* \"#utility.yul\":399:408   */\n  mload\n    /* \"#utility.yul\":497:499   */\n  0x1f\n    /* \"#utility.yul\":459:476   */\n  dup3\n  add\n  not(0x1f)\n    /* \"#utility.yul\":455:486   */\n  swap1\n  dup2\n  and\n    /* \"#utility.yul\":488:490   */\n  0x3f\n    /* \"#utility.yul\":451:491   */\n  add\n    /* \"#utility.yul\":447:501   */\n  and\n    /* \"#utility.yul\":435:502   */\n  dup2\n  add\n  sub(shl(0x40, 0x01), 0x01)\n    /* \"#utility.yul\":517:551   */\n  dup2\n  gt\n    /* \"#utility.yul\":553:575   */\n  dup3\n  dup3\n  lt\n    /* \"#utility.yul\":514:576   */\n  or\n    /* \"#utility.yul\":511:599   */\n  iszero\n  tag_69\n  jumpi\n    /* \"#utility.yul\":579:597   */\n  tag_69\n  tag_56\n  jump\t// in\ntag_69:\n    /* \"#utility.yul\":615:617   */\n  0x40\n    /* \"#utility.yul\":608:630   */\n  mstore\n    /* \"#utility.yul\":639:661   */\n  dup2\n  dup2\n  mstore\n    /* \"#utility.yul\":680:699   */\n  dup4\n  dup3\n  add\n    /* \"#utility.yul\":701:705   */\n  0x20\n    /* \"#utility.yul\":676:706   */\n  add\n    /* \"#utility.yul\":673:712   */\n  dup6\n  lt\n    /* \"#utility.yul\":670:729   */\n  iszero\n  tag_70\n  jumpi\n    /* \"#utility.yul\":725:726   */\n  0x00\n    /* \"#utility.yul\":722:723   */\n  dup1\n    /* \"#utility.yul\":715:727   */\n  revert\n    /* \"#utility.yul\":670:729   */\ntag_70:\n    /* \"#utility.yul\":782:788   */\n  dup2\n    /* \"#utility.yul\":775:779   */\n  0x20\n    /* \"#utility.yul\":767:773   */\n  dup6\n    /* \"#utility.yul\":763:780   */\n  add\n    /* \"#utility.yul\":756:760   */\n  0x20\n    /* \"#utility.yul\":748:754   */\n  dup4\n    /* \"#utility.yul\":744:761   */\n  add\n    /* \"#utility.yul\":738:789   */\n  mcopy\n    /* \"#utility.yul\":837:838   */\n  0x00\n    /* \"#utility.yul\":809:828   */\n  swap2\n  dup2\n  add\n    /* \"#utility.yul\":830:834   */\n  0x20\n    /* \"#utility.yul\":805:835   */\n  add\n    /* \"#utility.yul\":798:839   */\n  swap2\n  swap1\n  swap2\n  mstore\n    /* \"#utility.yul\":813:819   */\n  swap4\n    /* \"#utility.yul\":146:869   */\n  swap3\n  pop\n  pop\n  pop\n  jump\t// out\n    /* \"#utility.yul\":874:1844   */\ntag_3:\n    /* \"#utility.yul\":997:1003   */\n  0x00\n    /* \"#utility.yul\":1005:1011   */\n  dup1\n    /* \"#utility.yul\":1013:1019   */\n  0x00\n    /* \"#utility.yul\":1021:1027   */\n  dup1\n    /* \"#utility.yul\":1029:1035   */\n  0x00\n    /* \"#utility.yul\":1082:1085   */\n  0xa0\n    /* \"#utility.yul\":1070:1079   */\n  dup7\n    /* \"#utility.yul\":1061:1068   */\n  dup9\n    /* \"#utility.yul\":1057:1080   */\n  sub\n    /* \"#utility.yul\":1053:1086   */\n  slt\n    /* \"#utility.yul\":1050:1103   */\n  iszero\n  tag_72\n  jumpi\n    /* \"#utility.yul\":1099:1100   */\n  0x00\n    /* \"#utility.yul\":1096:1097   */\n  dup1\n    /* \"#utility.yul\":1089:1101   */\n  revert\n    /* \"#utility.yul\":1050:1103   */\ntag_72:\n    /* \"#utility.yul\":1126:1142   */\n  dup6\n  mload\n  sub(shl(0x40, 0x01), 0x01)\n    /* \"#utility.yul\":1154:1184   */\n  dup2\n  gt\n    /* \"#utility.yul\":1151:1201   */\n  iszero\n  tag_73\n  jumpi\n    /* \"#utility.yul\":1197:1198   */\n  0x00\n    /* \"#utility.yul\":1194:1195   */\n  dup1\n    /* \"#utility.yul\":1187:1199   */\n  revert\n    /* \"#utility.yul\":1151:1201   */\ntag_73:\n    /* \"#utility.yul\":1220:1281   */\n  tag_74\n    /* \"#utility.yul\":1273:1280   */\n  dup9\n    /* \"#utility.yul\":1264:1270   */\n  dup3\n    /* \"#utility.yul\":1253:1262   */\n  dup10\n    /* \"#utility.yul\":1249:1271   */\n  add\n    /* \"#utility.yul\":1220:1281   */\n  tag_57\n  jump\t// in\ntag_74:\n    /* \"#utility.yul\":1327:1329   */\n  0x20\n    /* \"#utility.yul\":1312:1330   */\n  dup9\n  add\n    /* \"#utility.yul\":1306:1331   */\n  mload\n    /* \"#utility.yul\":1210:1281   */\n  swap1\n  swap7\n  pop\n    /* \"#utility.yul\":1306:1331   */\n  swap1\n  pop\n  sub(shl(0x40, 0x01), 0x01)\n    /* \"#utility.yul\":1343:1375   */\n  dup2\n  gt\n    /* \"#utility.yul\":1340:1392   */\n  iszero\n  tag_75\n  jumpi\n    /* \"#utility.yul\":1388:1389   */\n  0x00\n    /* \"#utility.yul\":1385:1386   */\n  dup1\n    /* \"#utility.yul\":1378:1390   */\n  revert\n    /* \"#utility.yul\":1340:1392   */\ntag_75:\n    /* \"#utility.yul\":1411:1474   */\n  tag_76\n    /* \"#utility.yul\":1466:1473   */\n  dup9\n    /* \"#utility.yul\":1455:1463   */\n  dup3\n    /* \"#utility.yul\":1444:1453   */\n  dup10\n    /* \"#utility.yul\":1440:1464   */\n  add\n    /* \"#utility.yul\":1411:1474   */\n  tag_57\n  jump\t// in\ntag_76:\n    /* \"#utility.yul\":1514:1516   */\n  0x40\n    /* \"#utility.yul\":1499:1517   */\n  dup9\n  add\n    /* \"#utility.yul\":1493:1518   */\n  mload\n    /* \"#utility.yul\":1561:1563   */\n  0x60\n    /* \"#utility.yul\":1546:1564   */\n  dup10\n  add\n    /* \"#utility.yul\":1540:1565   */\n  mload\n    /* \"#utility.yul\":1401:1474   */\n  swap2\n  swap7\n  pop\n    /* \"#utility.yul\":1493:1518   */\n  swap5\n  pop\n    /* \"#utility.yul\":1540:1565   */\n  swap1\n  pop\n  sub(shl(0xa0, 0x01), 0x01)\n    /* \"#utility.yul\":1594:1625   */\n  dup2\n  and\n    /* \"#utility.yul\":1584:1626   */\n  dup2\n  eq\n    /* \"#utility.yul\":1574:1644   */\n  tag_77\n  jumpi\n    /* \"#utility.yul\":1640:1641   */\n  0x00\n    /* \"#utility.yul\":1637:1638   */\n  dup1\n    /* \"#utility.yul\":1630:1642   */\n  revert\n    /* \"#utility.yul\":1574:1644   */\ntag_77:\n    /* \"#utility.yul\":1734:1737   */\n  0x80\n    /* \"#utility.yul\":1719:1738   */\n  dup8\n  add\n    /* \"#utility.yul\":1713:1739   */\n  mload\n    /* \"#utility.yul\":1663:1668   */\n  swap1\n  swap3\n  pop\n    /* \"#utility.yul\":1777:1792   */\n  dup1\n  iszero\n    /* \"#utility.yul\":1770:1793   */\n  iszero\n    /* \"#utility.yul\":1758:1794   */\n  dup2\n  eq\n    /* \"#utility.yul\":1748:1812   */\n  tag_78\n  jumpi\n    /* \"#utility.yul\":1808:1809   */\n  0x00\n    /* \"#utility.yul\":1805:1806   */\n  dup1\n    /* \"#utility.yul\":1798:1810   */\n  revert\n    /* \"#utility.yul\":1748:1812   */\ntag_78:\n    /* \"#utility.yul\":1831:1838   */\n  dup1\n    /* \"#utility.yul\":1821:1838   */\n  swap2\n  pop\n  pop\n    /* \"#utility.yul\":874:1844   */\n  swap3\n  swap6\n  pop\n  swap3\n  swap6\n  swap1\n  swap4\n  pop\n  jump\t// out\n    /* \"#utility.yul\":1849:2229   */\ntag_58:\n    /* \"#utility.yul\":1928:1929   */\n  0x01\n    /* \"#utility.yul\":1924:1936   */\n  dup2\n  dup2\n  shr\n  swap1\n    /* \"#utility.yul\":1971:1983   */\n  dup3\n  and\n  dup1\n    /* \"#utility.yul\":1992:2053   */\n  tag_80\n  jumpi\n    /* \"#utility.yul\":2046:2050   */\n  0x7f\n    /* \"#utility.yul\":2038:2044   */\n  dup3\n    /* \"#utility.yul\":2034:2051   */\n  and\n    /* \"#utility.yul\":2024:2051   */\n  swap2\n  pop\n    /* \"#utility.yul\":1992:2053   */\ntag_80:\n    /* \"#utility.yul\":2099:2101   */\n  0x20\n    /* \"#utility.yul\":2091:2097   */\n  dup3\n    /* \"#utility.yul\":2088:2102   */\n  lt\n    /* \"#utility.yul\":2068:2086   */\n  dup2\n    /* \"#utility.yul\":2065:2103   */\n  sub\n    /* \"#utility.yul\":2062:2223   */\n  tag_81\n  jumpi\n    /* \"#utility.yul\":2145:2155   */\n  0x4e487b71\n    /* \"#utility.yul\":2140:2143   */\n  0xe0\n    /* \"#utility.yul\":2136:2156   */\n  shl\n    /* \"#utility.yul\":2133:2134   */\n  0x00\n    /* \"#utility.yul\":2126:2157   */\n  mstore\n    /* \"#utility.yul\":2180:2184   */\n  0x22\n    /* \"#utility.yul\":2177:2178   */\n  0x04\n    /* \"#utility.yul\":2170:2185   */\n  mstore\n    /* \"#utility.yul\":2208:2212   */\n  0x24\n    /* \"#utility.yul\":2205:2206   */\n  0x00\n    /* \"#utility.yul\":2198:2213   */\n  revert\n    /* \"#utility.yul\":2062:2223   */\ntag_81:\n  pop\n    /* \"#utility.yul\":1849:2229   */\n  swap2\n  swap1\n  pop\n  jump\t// out\n    /* \"#utility.yul\":2360:2878   */\ntag_60:\n    /* \"#utility.yul\":2462:2464   */\n  0x1f\n    /* \"#utility.yul\":2457:2460   */\n  dup3\n    /* \"#utility.yul\":2454:2465   */\n  gt\n    /* \"#utility.yul\":2451:2872   */\n  iszero\n  tag_84\n  jumpi\n    /* \"#utility.yul\":2498:2503   */\n  dup1\n    /* \"#utility.yul\":2495:2496   */\n  0x00\n    /* \"#utility.yul\":2488:2504   */\n  mstore\n    /* \"#utility.yul\":2542:2546   */\n  0x20\n    /* \"#utility.yul\":2539:2540   */\n  0x00\n    /* \"#utility.yul\":2529:2547   */\n  keccak256\n    /* \"#utility.yul\":2612:2614   */\n  0x1f\n    /* \"#utility.yul\":2600:2610   */\n  dup5\n    /* \"#utility.yul\":2596:2615   */\n  add\n    /* \"#utility.yul\":2593:2594   */\n  0x05\n    /* \"#utility.yul\":2589:2616   */\n  shr\n    /* \"#utility.yul\":2583:2587   */\n  dup2\n    /* \"#utility.yul\":2579:2617   */\n  add\n    /* \"#utility.yul\":2648:2652   */\n  0x20\n    /* \"#utility.yul\":2636:2646   */\n  dup6\n    /* \"#utility.yul\":2633:2653   */\n  lt\n    /* \"#utility.yul\":2630:2677   */\n  iszero\n  tag_85\n  jumpi\n  pop\n    /* \"#utility.yul\":2671:2675   */\n  dup1\n    /* \"#utility.yul\":2630:2677   */\ntag_85:\n    /* \"#utility.yul\":2726:2728   */\n  0x1f\n    /* \"#utility.yul\":2721:2724   */\n  dup5\n    /* \"#utility.yul\":2717:2729   */\n  add\n    /* \"#utility.yul\":2714:2715   */\n  0x05\n    /* \"#utility.yul\":2710:2730   */\n  shr\n    /* \"#utility.yul\":2704:2708   */\n  dup3\n    /* \"#utility.yul\":2700:2731   */\n  add\n    /* \"#utility.yul\":2690:2731   */\n  swap2\n  pop\n    /* \"#utility.yul\":2781:2862   */\ntag_86:\n    /* \"#utility.yul\":2799:2801   */\n  dup2\n    /* \"#utility.yul\":2792:2797   */\n  dup2\n    /* \"#utility.yul\":2789:2802   */\n  lt\n    /* \"#utility.yul\":2781:2862   */\n  iszero\n  tag_88\n  jumpi\n    /* \"#utility.yul\":2858:2859   */\n  0x00\n    /* \"#utility.yul\":2844:2860   */\n  dup2\n  sstore\n    /* \"#utility.yul\":2825:2826   */\n  0x01\n    /* \"#utility.yul\":2814:2827   */\n  add\n    /* \"#utility.yul\":2781:2862   */\n  jump(tag_86)\ntag_88:\n    /* \"#utility.yul\":2785:2788   */\n  pop\n  pop\n    /* \"#utility.yul\":2451:2872   */\ntag_84:\n    /* \"#utility.yul\":2360:2878   */\n  pop\n  pop\n  pop\n  jump\t// out\n    /* \"#utility.yul\":3054:4353   */\ntag_14:\n    /* \"#utility.yul\":3174:3184   */\n  dup2\n  mload\n  sub(shl(0x40, 0x01), 0x01)\n    /* \"#utility.yul\":3196:3226   */\n  dup2\n  gt\n    /* \"#utility.yul\":3193:3249   */\n  iszero\n  tag_92\n  jumpi\n    /* \"#utility.yul\":3229:3247   */\n  tag_92\n  tag_56\n  jump\t// in\ntag_92:\n    /* \"#utility.yul\":3258:3355   */\n  tag_93\n    /* \"#utility.yul\":3348:3354   */\n  dup2\n    /* \"#utility.yul\":3308:3346   */\n  tag_94\n    /* \"#utility.yul\":3340:3344   */\n  dup5\n    /* \"#utility.yul\":3334:3345   */\n  sload\n    /* \"#utility.yul\":3308:3346   */\n  tag_58\n  jump\t// in\ntag_94:\n    /* \"#utility.yul\":3302:3306   */\n  dup5\n    /* \"#utility.yul\":3258:3355   */\n  tag_60\n  jump\t// in\ntag_93:\n    /* \"#utility.yul\":3404:3408   */\n  0x20\n    /* \"#utility.yul\":3435:3437   */\n  0x1f\n    /* \"#utility.yul\":3424:3438   */\n  dup3\n  gt\n    /* \"#utility.yul\":3452:3453   */\n  0x01\n    /* \"#utility.yul\":3447:4096   */\n  dup2\n  eq\n  tag_96\n  jumpi\n    /* \"#utility.yul\":4140:4141   */\n  0x00\n    /* \"#utility.yul\":4157:4163   */\n  dup4\n    /* \"#utility.yul\":4154:4243   */\n  iszero\n  tag_97\n  jumpi\n  pop\n    /* \"#utility.yul\":4209:4228   */\n  dup5\n  dup3\n  add\n    /* \"#utility.yul\":4203:4229   */\n  mload\n    /* \"#utility.yul\":4154:4243   */\ntag_97:\n  not(0x00)\n    /* \"#utility.yul\":3011:3012   */\n  0x03\n    /* \"#utility.yul\":3007:3018   */\n  dup6\n  swap1\n  shl\n    /* \"#utility.yul\":3003:3027   */\n  shr\n    /* \"#utility.yul\":2999:3028   */\n  not\n    /* \"#utility.yul\":2989:3029   */\n  and\n    /* \"#utility.yul\":3035:3036   */\n  0x01\n    /* \"#utility.yul\":3031:3042   */\n  dup5\n  swap1\n  shl\n    /* \"#utility.yul\":2986:3043   */\n  or\n    /* \"#utility.yul\":4256:4337   */\n  dup5\n  sstore\n    /* \"#utility.yul\":3417:4347   */\n  jump(tag_88)\n    /* \"#utility.yul\":3447:4096   */\ntag_96:\n    /* \"#utility.yul\":2307:2308   */\n  0x00\n    /* \"#utility.yul\":2300:2314   */\n  dup5\n  dup2\n  mstore\n    /* \"#utility.yul\":2344:2348   */\n  0x20\n    /* \"#utility.yul\":2331:2349   */\n  dup2\n  keccak256\n  not(0x1f)\n    /* \"#utility.yul\":3483:3503   */\n  dup6\n  and\n  swap2\n    /* \"#utility.yul\":3601:3823   */\ntag_100:\n    /* \"#utility.yul\":3615:3622   */\n  dup3\n    /* \"#utility.yul\":3612:3613   */\n  dup2\n    /* \"#utility.yul\":3609:3623   */\n  lt\n    /* \"#utility.yul\":3601:3823   */\n  iszero\n  tag_102\n  jumpi\n    /* \"#utility.yul\":3697:3716   */\n  dup8\n  dup6\n  add\n    /* \"#utility.yul\":3691:3717   */\n  mload\n    /* \"#utility.yul\":3676:3718   */\n  dup3\n  sstore\n    /* \"#utility.yul\":3804:3808   */\n  0x20\n    /* \"#utility.yul\":3789:3809   */\n  swap5\n  dup6\n  add\n  swap5\n    /* \"#utility.yul\":3757:3758   */\n  0x01\n    /* \"#utility.yul\":3745:3759   */\n  swap1\n  swap3\n  add\n  swap2\n    /* \"#utility.yul\":3631:3643   */\n  add\n    /* \"#utility.yul\":3601:3823   */\n  jump(tag_100)\ntag_102:\n    /* \"#utility.yul\":3605:3608   */\n  pop\n    /* \"#utility.yul\":3851:3857   */\n  dup5\n    /* \"#utility.yul\":3842:3849   */\n  dup3\n    /* \"#utility.yul\":3839:3858   */\n  lt\n    /* \"#utility.yul\":3836:4037   */\n  iszero\n  tag_103\n  jumpi\n    /* \"#utility.yul\":3912:3931   */\n  dup7\n  dup5\n  add\n    /* \"#utility.yul\":3906:3932   */\n  mload\n  not(0x00)\n    /* \"#utility.yul\":3995:3996   */\n  0x03\n    /* \"#utility.yul\":3991:4005   */\n  dup8\n  swap1\n  shl\n    /* \"#utility.yul\":4007:4010   */\n  0xf8\n    /* \"#utility.yul\":3987:4011   */\n  and\n    /* \"#utility.yul\":3983:4020   */\n  shr\n    /* \"#utility.yul\":3979:4021   */\n  not\n    /* \"#utility.yul\":3964:4022   */\n  and\n    /* \"#utility.yul\":3949:4023   */\n  dup2\n  sstore\n    /* \"#utility.yul\":3836:4037   */\ntag_103:\n  pop\n  pop\n  pop\n  pop\n    /* \"#utility.yul\":4083:4084   */\n  0x01\n    /* \"#utility.yul\":4067:4081   */\n  swap1\n  dup2\n  shl\n    /* \"#utility.yul\":4063:4085   */\n  add\n    /* \"#utility.yul\":4050:4086   */\n  swap1\n  sstore\n  pop\n    /* \"#utility.yul\":3054:4353   */\n  jump\t// out\n    /* \"#utility.yul\":5455:5677   */\ntag_47:\n    /* \"#utility.yul\":5520:5529   */\n  dup1\n  dup3\n  add\n    /* \"#utility.yul\":5541:5551   */\n  dup1\n  dup3\n  gt\n    /* \"#utility.yul\":5538:5671   */\n  iszero\n  tag_43\n  jumpi\n    /* \"#utility.yul\":5593:5603   */\n  0x4e487b71\n    /* \"#utility.yul\":5588:5591   */\n  0xe0\n    /* \"#utility.yul\":5584:5604   */\n  shl\n    /* \"#utility.yul\":5581:5582   */\n  0x00\n    /* \"#utility.yul\":5574:5605   */\n  mstore\n    /* \"#utility.yul\":5628:5632   */\n  0x11\n    /* \"#utility.yul\":5625:5626   */\n  0x04\n    /* \"#utility.yul\":5618:5633   */\n  mstore\n    /* \"#utility.yul\":5656:5660   */\n  0x24\n    /* \"#utility.yul\":5653:5654   */\n  0x00\n    /* \"#utility.yul\":5646:5661   */\n  revert\n    /* \"#utility.yul\":6032:6209   */\ntag_62:\n    /* \"xstake/src/wstf token launch/contracts/token/ERC20/implementation.sol\":128:1210  contract MyOmniToken is OmniERC20 {... */\n  dataSize(sub_0)\n  dup1\n  dataOffset(sub_0)\n  0x00\n  codecopy\n  0x00\n  return\nstop\n\nsub_0: assembly {\n        /* \"xstake/src/wstf token launch/contracts/token/ERC20/implementation.sol\":128:1210  contract MyOmniToken is OmniERC20 {... */\n      mstore(0x40, 0x80)\n      jumpi(tag_1, lt(calldatasize, 0x04))\n      shr(0xe0, calldataload(0x00))\n      dup1\n      0x4a536a06\n      gt\n      tag_16\n      jumpi\n      dup1\n      0x95d89b41\n      gt\n      tag_17\n      jumpi\n      dup1\n      0x95d89b41\n      eq\n      tag_12\n      jumpi\n      dup1\n      0xa9059cbb\n      eq\n      tag_13\n      jumpi\n      dup1\n      0xbdb3c8e6\n      eq\n      tag_14\n      jumpi\n      dup1\n      0xdd62ed3e\n      eq\n      tag_15\n      jumpi\n      0x00\n      dup1\n      revert\n    tag_17:\n      dup1\n      0x4a536a06\n      eq\n      tag_9\n      jumpi\n      dup1\n      0x70a08231\n      eq\n      tag_10\n      jumpi\n      dup1\n      0x74eeb847\n      eq\n      tag_11\n      jumpi\n      0x00\n      dup1\n      revert\n    tag_16:\n      dup1\n      0x23b872dd\n      gt\n      tag_18\n      jumpi\n      dup1\n      0x23b872dd\n      eq\n      tag_5\n      jumpi\n      dup1\n      0x313ce567\n      eq\n      tag_6\n      jumpi\n      dup1\n      0x39acf9f1\n      eq\n      tag_7\n      jumpi\n      dup1\n      0x40c10f19\n      eq\n      tag_8\n      jumpi\n      0x00\n      dup1\n      revert\n    tag_18:\n      dup1\n      0x06fdde03\n      eq\n      tag_2\n      jumpi\n      dup1\n      0x095ea7b3\n      eq\n      tag_3\n      jumpi\n      dup1\n      0x18160ddd\n      eq\n      tag_4\n      jumpi\n    tag_1:\n      0x00\n      dup1\n      revert\n        /* \"xstake/src/wstf token launch/contracts/token/ERC20/OmniERC20.sol\":948:1046  function name() public view virtual override returns (string memory) {... */\n    tag_2:\n      callvalue\n      dup1\n      iszero\n      tag_19\n      jumpi\n      0x00\n      dup1\n      revert\n    tag_19:\n      pop\n      tag_20\n      tag_21\n      jump\t// in\n    tag_20:\n      mload(0x40)\n      tag_22\n      swap2\n      swap1\n      tag_23\n      jump\t// in\n    tag_22:\n      mload(0x40)\n      dup1\n      swap2\n      sub\n      swap1\n      return\n        /* \"xstake/src/wstf token launch/contracts/token/ERC20/OmniERC20.sol\":1656:1851  function approve(address spender, uint256 value) public virtual override returns (bool) {... */\n    tag_3:\n      callvalue\n      dup1\n      iszero\n      tag_24\n      jumpi\n      0x00\n      dup1\n      revert\n    tag_24:\n      pop\n      tag_25\n      tag_26\n      calldatasize\n      0x04\n      tag_27\n      jump\t// in\n    tag_26:\n      tag_28\n      jump\t// in\n    tag_25:\n      mload(0x40)\n        /* \"#utility.yul\":1206:1220   */\n      swap1\n      iszero\n        /* \"#utility.yul\":1199:1221   */\n      iszero\n        /* \"#utility.yul\":1181:1222   */\n      dup2\n      mstore\n        /* \"#utility.yul\":1169:1171   */\n      0x20\n        /* \"#utility.yul\":1154:1172   */\n      add\n        /* \"xstake/src/wstf token launch/contracts/token/ERC20/OmniERC20.sol\":1656:1851  function approve(address spender, uint256 value) public virtual override returns (bool) {... */\n      tag_22\n        /* \"#utility.yul\":1041:1228   */\n      jump\n        /* \"xstake/src/wstf token launch/contracts/token/ERC20/OmniERC20.sol\":1257:1363  function totalSupply() public view virtual override returns (uint256) {... */\n    tag_4:\n      callvalue\n      dup1\n      iszero\n      tag_31\n      jumpi\n      0x00\n      dup1\n      revert\n    tag_31:\n      pop\n        /* \"xstake/src/wstf token launch/contracts/token/ERC20/OmniERC20.sol\":1344:1356  _totalSupply */\n      sload(0x04)\n        /* \"xstake/src/wstf token launch/contracts/token/ERC20/OmniERC20.sol\":1257:1363  function totalSupply() public view virtual override returns (uint256) {... */\n    tag_32:\n      mload(0x40)\n        /* \"#utility.yul\":1379:1404   */\n      swap1\n      dup2\n      mstore\n        /* \"#utility.yul\":1367:1369   */\n      0x20\n        /* \"#utility.yul\":1352:1370   */\n      add\n        /* \"xstake/src/wstf token launch/contracts/token/ERC20/OmniERC20.sol\":1257:1363  function totalSupply() public view virtual override returns (uint256) {... */\n      tag_22\n        /* \"#utility.yul\":1233:1410   */\n      jump\n        /* \"xstake/src/wstf token launch/contracts/token/ERC20/OmniERC20.sol\":1857:2110  function transferFrom(address from, address to, uint256 value) public virtual override returns (bool) {... */\n    tag_5:\n      callvalue\n      dup1\n      iszero\n      tag_36\n      jumpi\n      0x00\n      dup1\n      revert\n    tag_36:\n      pop\n      tag_25\n      tag_38\n      calldatasize\n      0x04\n      tag_39\n      jump\t// in\n    tag_38:\n      tag_40\n      jump\t// in\n        /* \"xstake/src/wstf token launch/contracts/token/ERC20/OmniERC20.sol\":1160:1251  function decimals() public view virtual override returns (uint8) {... */\n    tag_6:\n      callvalue\n      dup1\n      iszero\n      tag_42\n      jumpi\n      0x00\n      dup1\n      revert\n    tag_42:\n      pop\n        /* \"xstake/src/wstf token launch/contracts/token/ERC20/OmniERC20.sol\":1242:1244  18 */\n      0x12\n        /* \"xstake/src/wstf token launch/contracts/token/ERC20/OmniERC20.sol\":1160:1251  function decimals() public view virtual override returns (uint8) {... */\n    tag_43:\n      mload(0x40)\n        /* \"#utility.yul\":2100:2104   */\n      0xff\n        /* \"#utility.yul\":2088:2105   */\n      swap1\n      swap2\n      and\n        /* \"#utility.yul\":2070:2106   */\n      dup2\n      mstore\n        /* \"#utility.yul\":2058:2060   */\n      0x20\n        /* \"#utility.yul\":2043:2061   */\n      add\n        /* \"xstake/src/wstf token launch/contracts/token/ERC20/OmniERC20.sol\":1160:1251  function decimals() public view virtual override returns (uint8) {... */\n      tag_22\n        /* \"#utility.yul\":1928:2112   */\n      jump\n        /* \"xstake/lib/omni/contracts/core/src/pkg/XAppBase.sol\":680:703  IOmniPortal public omni */\n    tag_7:\n      callvalue\n      dup1\n      iszero\n      tag_47\n      jumpi\n      0x00\n      dup1\n      revert\n    tag_47:\n      pop\n      sload(0x00)\n      tag_48\n      swap1\n      sub(shl(0xa0, 0x01), 0x01)\n      and\n      dup2\n      jump\n    tag_48:\n      mload(0x40)\n      sub(shl(0xa0, 0x01), 0x01)\n        /* \"#utility.yul\":2300:2332   */\n      swap1\n      swap2\n      and\n        /* \"#utility.yul\":2282:2333   */\n      dup2\n      mstore\n        /* \"#utility.yul\":2270:2272   */\n      0x20\n        /* \"#utility.yul\":2255:2273   */\n      add\n        /* \"xstake/lib/omni/contracts/core/src/pkg/XAppBase.sol\":680:703  IOmniPortal public omni */\n      tag_22\n        /* \"#utility.yul\":2117:2339   */\n      jump\n        /* \"xstake/src/wstf token launch/contracts/token/ERC20/implementation.sol\":803:964  function mint(address account, uint256 value) public {... */\n    tag_8:\n      callvalue\n      dup1\n      iszero\n      tag_52\n      jumpi\n      0x00\n      dup1\n      revert\n    tag_52:\n      pop\n      tag_53\n      tag_54\n      calldatasize\n      0x04\n      tag_27\n      jump\t// in\n    tag_54:\n      tag_55\n      jump\t// in\n    tag_53:\n      stop\n        /* \"xstake/src/wstf token launch/contracts/token/ERC20/OmniERC20.sol\":2774:2978  function receiveTransfer(address from, address to, uint256 value) external xrecv {... */\n    tag_9:\n      callvalue\n      dup1\n      iszero\n      tag_56\n      jumpi\n      0x00\n      dup1\n      revert\n    tag_56:\n      pop\n      tag_53\n      tag_58\n      calldatasize\n      0x04\n      tag_39\n      jump\t// in\n    tag_58:\n      tag_59\n      jump\t// in\n        /* \"xstake/src/wstf token launch/contracts/token/ERC20/OmniERC20.sol\":1369:1494  function balanceOf(address account) public view virtual override returns (uint256) {... */\n    tag_10:\n      callvalue\n      dup1\n      iszero\n      tag_60\n      jumpi\n      0x00\n      dup1\n      revert\n    tag_60:\n      pop\n      tag_32\n      tag_62\n      calldatasize\n      0x04\n      tag_63\n      jump\t// in\n    tag_62:\n      sub(shl(0xa0, 0x01), 0x01)\n        /* \"xstake/src/wstf token launch/contracts/token/ERC20/OmniERC20.sol\":1469:1487  _balances[account] */\n      and\n        /* \"xstake/src/wstf token launch/contracts/token/ERC20/OmniERC20.sol\":1443:1450  uint256 */\n      0x00\n        /* \"xstake/src/wstf token launch/contracts/token/ERC20/OmniERC20.sol\":1469:1487  _balances[account] */\n      swap1\n      dup2\n      mstore\n        /* \"xstake/src/wstf token launch/contracts/token/ERC20/OmniERC20.sol\":1469:1478  _balances */\n      0x02\n        /* \"xstake/src/wstf token launch/contracts/token/ERC20/OmniERC20.sol\":1469:1487  _balances[account] */\n      0x20\n      mstore\n      0x40\n      swap1\n      keccak256\n      sload\n      swap1\n        /* \"xstake/src/wstf token launch/contracts/token/ERC20/OmniERC20.sol\":1369:1494  function balanceOf(address account) public view virtual override returns (uint256) {... */\n      jump\n        /* \"xstake/lib/omni/contracts/core/src/pkg/XAppBase.sol\":779:808  uint8 public defaultConfLevel */\n    tag_11:\n      callvalue\n      dup1\n      iszero\n      tag_66\n      jumpi\n      0x00\n      dup1\n      revert\n    tag_66:\n      pop\n      sload(0x00)\n      tag_43\n      swap1\n      shl(0xa0, 0x01)\n      swap1\n      div\n      0xff\n      and\n      dup2\n      jump\n        /* \"xstake/src/wstf token launch/contracts/token/ERC20/OmniERC20.sol\":1052:1154  function symbol() public view virtual override returns (string memory) {... */\n    tag_12:\n      callvalue\n      dup1\n      iszero\n      tag_70\n      jumpi\n      0x00\n      dup1\n      revert\n    tag_70:\n      pop\n      tag_20\n      tag_72\n      jump\t// in\n        /* \"xstake/src/wstf token launch/contracts/token/ERC20/OmniERC20.sol\":2117:2304  function transfer(address to, uint256 value) public virtual override returns (bool) {... */\n    tag_13:\n      callvalue\n      dup1\n      iszero\n      tag_74\n      jumpi\n      0x00\n      dup1\n      revert\n    tag_74:\n      pop\n      tag_25\n      tag_76\n      calldatasize\n      0x04\n      tag_27\n      jump\t// in\n    tag_76:\n      tag_77\n      jump\t// in\n        /* \"xstake/src/wstf token launch/contracts/token/ERC20/OmniERC20.sol\":2309:2768  function transfer(uint64 destChain, address destToken, address to, uint256 value) external payable {... */\n    tag_14:\n      tag_53\n      tag_80\n      calldatasize\n      0x04\n      tag_81\n      jump\t// in\n    tag_80:\n      tag_82\n      jump\t// in\n        /* \"xstake/src/wstf token launch/contracts/token/ERC20/OmniERC20.sol\":1501:1650  function allowance(address owner, address spender) public view virtual override returns (uint256) {... */\n    tag_15:\n      callvalue\n      dup1\n      iszero\n      tag_83\n      jumpi\n      0x00\n      dup1\n      revert\n    tag_83:\n      pop\n      tag_32\n      tag_85\n      calldatasize\n      0x04\n      tag_86\n      jump\t// in\n    tag_85:\n      sub(shl(0xa0, 0x01), 0x01)\n        /* \"xstake/src/wstf token launch/contracts/token/ERC20/OmniERC20.sol\":1616:1634  _allowances[owner] */\n      swap2\n      dup3\n      and\n        /* \"xstake/src/wstf token launch/contracts/token/ERC20/OmniERC20.sol\":1590:1597  uint256 */\n      0x00\n        /* \"xstake/src/wstf token launch/contracts/token/ERC20/OmniERC20.sol\":1616:1634  _allowances[owner] */\n      swap1\n      dup2\n      mstore\n        /* \"xstake/src/wstf token launch/contracts/token/ERC20/OmniERC20.sol\":1616:1627  _allowances */\n      0x03\n        /* \"xstake/src/wstf token launch/contracts/token/ERC20/OmniERC20.sol\":1616:1634  _allowances[owner] */\n      0x20\n      swap1\n      dup2\n      mstore\n      0x40\n      dup1\n      dup4\n      keccak256\n        /* \"xstake/src/wstf token launch/contracts/token/ERC20/OmniERC20.sol\":1616:1643  _allowances[owner][spender] */\n      swap4\n      swap1\n      swap5\n      and\n      dup3\n      mstore\n      swap2\n      swap1\n      swap2\n      mstore\n      keccak256\n      sload\n      swap1\n        /* \"xstake/src/wstf token launch/contracts/token/ERC20/OmniERC20.sol\":1501:1650  function allowance(address owner, address spender) public view virtual override returns (uint256) {... */\n      jump\n        /* \"xstake/src/wstf token launch/contracts/token/ERC20/OmniERC20.sol\":948:1046  function name() public view virtual override returns (string memory) {... */\n    tag_21:\n        /* \"xstake/src/wstf token launch/contracts/token/ERC20/OmniERC20.sol\":1002:1015  string memory */\n      0x60\n        /* \"xstake/src/wstf token launch/contracts/token/ERC20/OmniERC20.sol\":1034:1039  _name */\n      0x05\n        /* \"xstake/src/wstf token launch/contracts/token/ERC20/OmniERC20.sol\":1027:1039  return _name */\n      dup1\n      sload\n      tag_90\n      swap1\n      tag_91\n      jump\t// in\n    tag_90:\n      dup1\n      0x1f\n      add\n      0x20\n      dup1\n      swap2\n      div\n      mul\n      0x20\n      add\n      mload(0x40)\n      swap1\n      dup2\n      add\n      0x40\n      mstore\n      dup1\n      swap3\n      swap2\n      swap1\n      dup2\n      dup2\n      mstore\n      0x20\n      add\n      dup3\n      dup1\n      sload\n      tag_92\n      swap1\n      tag_91\n      jump\t// in\n    tag_92:\n      dup1\n      iszero\n      tag_93\n      jumpi\n      dup1\n      0x1f\n      lt\n      tag_94\n      jumpi\n      0x0100\n      dup1\n      dup4\n      sload\n      div\n      mul\n      dup4\n      mstore\n      swap2\n      0x20\n      add\n      swap2\n      jump(tag_93)\n    tag_94:\n      dup3\n      add\n      swap2\n      swap1\n      0x00\n      mstore\n      keccak256(0x00, 0x20)\n      swap1\n    tag_95:\n      dup2\n      sload\n      dup2\n      mstore\n      swap1\n      0x01\n      add\n      swap1\n      0x20\n      add\n      dup1\n      dup4\n      gt\n      tag_95\n      jumpi\n      dup3\n      swap1\n      sub\n      0x1f\n      and\n      dup3\n      add\n      swap2\n    tag_93:\n      pop\n      pop\n      pop\n      pop\n      pop\n      swap1\n      pop\n        /* \"xstake/src/wstf token launch/contracts/token/ERC20/OmniERC20.sol\":948:1046  function name() public view virtual override returns (string memory) {... */\n      swap1\n      jump\t// out\n        /* \"xstake/src/wstf token launch/contracts/token/ERC20/OmniERC20.sol\":1656:1851  function approve(address spender, uint256 value) public virtual override returns (bool) {... */\n    tag_28:\n        /* \"xstake/src/wstf token launch/contracts/token/ERC20/OmniERC20.sol\":1738:1742  bool */\n      0x00\n        /* \"xstake/src/wstf token launch/contracts/utils/Context.sol\":735:745  msg.sender */\n      caller\n        /* \"xstake/src/wstf token launch/contracts/token/ERC20/OmniERC20.sol\":1792:1823  _approve(owner, spender, value) */\n      tag_99\n        /* \"xstake/src/wstf token launch/contracts/utils/Context.sol\":735:745  msg.sender */\n      dup2\n        /* \"xstake/src/wstf token launch/contracts/token/ERC20/OmniERC20.sol\":1808:1815  spender */\n      dup6\n        /* \"xstake/src/wstf token launch/contracts/token/ERC20/OmniERC20.sol\":1817:1822  value */\n      dup6\n        /* \"xstake/src/wstf token launch/contracts/token/ERC20/OmniERC20.sol\":1792:1800  _approve */\n      tag_100\n        /* \"xstake/src/wstf token launch/contracts/token/ERC20/OmniERC20.sol\":1792:1823  _approve(owner, spender, value) */\n      jump\t// in\n    tag_99:\n        /* \"xstake/src/wstf token launch/contracts/token/ERC20/OmniERC20.sol\":1840:1844  true */\n      0x01\n        /* \"xstake/src/wstf token launch/contracts/token/ERC20/OmniERC20.sol\":1833:1844  return true */\n      swap2\n      pop\n      pop\n        /* \"xstake/src/wstf token launch/contracts/token/ERC20/OmniERC20.sol\":1656:1851  function approve(address spender, uint256 value) public virtual override returns (bool) {... */\n    tag_96:\n      swap3\n      swap2\n      pop\n      pop\n      jump\t// out\n        /* \"xstake/src/wstf token launch/contracts/token/ERC20/OmniERC20.sol\":1857:2110  function transferFrom(address from, address to, uint256 value) public virtual override returns (bool) {... */\n    tag_40:\n        /* \"xstake/src/wstf token launch/contracts/token/ERC20/OmniERC20.sol\":1953:1957  bool */\n      0x00\n        /* \"xstake/src/wstf token launch/contracts/utils/Context.sol\":735:745  msg.sender */\n      caller\n        /* \"xstake/src/wstf token launch/contracts/token/ERC20/OmniERC20.sol\":2009:2046  _spendAllowance(from, spender, value) */\n      tag_104\n        /* \"xstake/src/wstf token launch/contracts/token/ERC20/OmniERC20.sol\":2025:2029  from */\n      dup6\n        /* \"xstake/src/wstf token launch/contracts/utils/Context.sol\":735:745  msg.sender */\n      dup3\n        /* \"xstake/src/wstf token launch/contracts/token/ERC20/OmniERC20.sol\":2040:2045  value */\n      dup6\n        /* \"xstake/src/wstf token launch/contracts/token/ERC20/OmniERC20.sol\":2009:2024  _spendAllowance */\n      tag_105\n        /* \"xstake/src/wstf token launch/contracts/token/ERC20/OmniERC20.sol\":2009:2046  _spendAllowance(from, spender, value) */\n      jump\t// in\n    tag_104:\n        /* \"xstake/src/wstf token launch/contracts/token/ERC20/OmniERC20.sol\":2056:2082  _transfer(from, to, value) */\n      tag_106\n        /* \"xstake/src/wstf token launch/contracts/token/ERC20/OmniERC20.sol\":2066:2070  from */\n      dup6\n        /* \"xstake/src/wstf token launch/contracts/token/ERC20/OmniERC20.sol\":2072:2074  to */\n      dup6\n        /* \"xstake/src/wstf token launch/contracts/token/ERC20/OmniERC20.sol\":2076:2081  value */\n      dup6\n        /* \"xstake/src/wstf token launch/contracts/token/ERC20/OmniERC20.sol\":2056:2065  _transfer */\n      tag_107\n        /* \"xstake/src/wstf token launch/contracts/token/ERC20/OmniERC20.sol\":2056:2082  _transfer(from, to, value) */\n      jump\t// in\n    tag_106:\n      pop\n        /* \"xstake/src/wstf token launch/contracts/token/ERC20/OmniERC20.sol\":2099:2103  true */\n      0x01\n      swap5\n        /* \"xstake/src/wstf token launch/contracts/token/ERC20/OmniERC20.sol\":1857:2110  function transferFrom(address from, address to, uint256 value) public virtual override returns (bool) {... */\n      swap4\n      pop\n      pop\n      pop\n      pop\n      jump\t// out\n        /* \"xstake/src/wstf token launch/contracts/token/ERC20/implementation.sol\":803:964  function mint(address account, uint256 value) public {... */\n    tag_55:\n        /* \"xstake/src/wstf token launch/contracts/token/ERC20/implementation.sol\":936:957  _mint(account, value) */\n      tag_110\n        /* \"xstake/src/wstf token launch/contracts/token/ERC20/implementation.sol\":942:949  account */\n      dup3\n        /* \"xstake/src/wstf token launch/contracts/token/ERC20/implementation.sol\":951:956  value */\n      dup3\n        /* \"xstake/src/wstf token launch/contracts/token/ERC20/implementation.sol\":936:941  _mint */\n      tag_111\n        /* \"xstake/src/wstf token launch/contracts/token/ERC20/implementation.sol\":936:957  _mint(account, value) */\n      jump\t// in\n    tag_110:\n        /* \"xstake/src/wstf token launch/contracts/token/ERC20/implementation.sol\":803:964  function mint(address account, uint256 value) public {... */\n      pop\n      pop\n      jump\t// out\n        /* \"xstake/src/wstf token launch/contracts/token/ERC20/OmniERC20.sol\":2774:2978  function receiveTransfer(address from, address to, uint256 value) external xrecv {... */\n    tag_59:\n        /* \"xstake/lib/omni/contracts/core/src/pkg/XAppBase.sol\":1058:1062  omni */\n      sload(0x00)\n        /* \"xstake/lib/omni/contracts/core/src/pkg/XAppBase.sol\":1058:1069  omni.xmsg() */\n      0x40\n      dup1\n      mload\n      shl(0xe1, 0x17993807)\n      dup2\n      mstore\n      dup2\n      mload\n      sub(shl(0xa0, 0x01), 0x01)\n        /* \"xstake/lib/omni/contracts/core/src/pkg/XAppBase.sol\":1058:1062  omni */\n      swap1\n      swap4\n      and\n      swap3\n        /* \"xstake/lib/omni/contracts/core/src/pkg/XAppBase.sol\":1058:1067  omni.xmsg */\n      0x2f32700e\n      swap3\n        /* \"xstake/lib/omni/contracts/core/src/pkg/XAppBase.sol\":1058:1069  omni.xmsg() */\n      0x04\n      dup1\n      dup5\n      add\n      swap4\n      swap2\n      swap3\n      swap2\n      dup3\n      swap1\n      sub\n      add\n      dup2\n        /* \"xstake/lib/omni/contracts/core/src/pkg/XAppBase.sol\":1058:1062  omni */\n      dup7\n        /* \"xstake/lib/omni/contracts/core/src/pkg/XAppBase.sol\":1058:1069  omni.xmsg() */\n      gas\n      staticcall\n      iszero\n      dup1\n      iszero\n      tag_114\n      jumpi\n      returndatasize\n      0x00\n      dup1\n      returndatacopy\n      revert(0x00, returndatasize)\n    tag_114:\n      pop\n      pop\n      pop\n      pop\n      mload(0x40)\n      returndatasize\n      not(0x1f)\n      0x1f\n      dup3\n      add\n      and\n      dup3\n      add\n      dup1\n      0x40\n      mstore\n      pop\n      dup2\n      add\n      swap1\n      tag_115\n      swap2\n      swap1\n      tag_116\n      jump\t// in\n    tag_115:\n        /* \"xstake/lib/omni/contracts/core/src/pkg/XAppBase.sol\":1051:1069  xmsg = omni.xmsg() */\n      dup1\n      mload\n        /* \"xstake/lib/omni/contracts/core/src/pkg/XAppBase.sol\":1051:1055  xmsg */\n      0x01\n        /* \"xstake/lib/omni/contracts/core/src/pkg/XAppBase.sol\":1051:1069  xmsg = omni.xmsg() */\n      dup1\n      sload\n      0x20\n      swap1\n      swap4\n      add\n      mload\n      sub(shl(0xa0, 0x01), 0x01)\n      and\n      0x010000000000000000\n      mul\n      not(sub(shl(0xe0, 0x01), 0x01))\n      swap1\n      swap4\n      and\n      0xffffffffffffffff\n      swap1\n      swap3\n      and\n      swap2\n      swap1\n      swap2\n      or\n      swap2\n      swap1\n      swap2\n      or\n      swap1\n      sstore\n        /* \"xstake/src/wstf token launch/contracts/token/ERC20/OmniERC20.sol\":2874:2883  isXCall() */\n      tag_118\n        /* \"xstake/src/wstf token launch/contracts/token/ERC20/OmniERC20.sol\":2874:2881  isXCall */\n      tag_119\n        /* \"xstake/src/wstf token launch/contracts/token/ERC20/OmniERC20.sol\":2874:2883  isXCall() */\n      jump\t// in\n    tag_118:\n        /* \"xstake/src/wstf token launch/contracts/token/ERC20/OmniERC20.sol\":2866:2936  require(isXCall(), \"OmniERC20: Only callable via cross-chain message\") */\n      tag_120\n      jumpi\n      mload(0x40)\n      shl(0xe5, 0x461bcd)\n      dup2\n      mstore\n        /* \"#utility.yul\":5144:5146   */\n      0x20\n        /* \"xstake/src/wstf token launch/contracts/token/ERC20/OmniERC20.sol\":2866:2936  require(isXCall(), \"OmniERC20: Only callable via cross-chain message\") */\n      0x04\n      dup3\n      add\n        /* \"#utility.yul\":5126:5147   */\n      mstore\n        /* \"#utility.yul\":5183:5185   */\n      0x30\n        /* \"#utility.yul\":5163:5181   */\n      0x24\n      dup3\n      add\n        /* \"#utility.yul\":5156:5186   */\n      mstore\n        /* \"#utility.yul\":5222:5256   */\n      0x4f6d6e6945524332303a204f6e6c792063616c6c61626c65207669612063726f\n        /* \"#utility.yul\":5202:5220   */\n      0x44\n      dup3\n      add\n        /* \"#utility.yul\":5195:5257   */\n      mstore\n      shl(0x80, 0x73732d636861696e206d657373616765)\n        /* \"#utility.yul\":5273:5291   */\n      0x64\n      dup3\n      add\n        /* \"#utility.yul\":5266:5312   */\n      mstore\n        /* \"#utility.yul\":5329:5348   */\n      0x84\n      add\n        /* \"xstake/src/wstf token launch/contracts/token/ERC20/OmniERC20.sol\":2866:2936  require(isXCall(), \"OmniERC20: Only callable via cross-chain message\") */\n    tag_121:\n      mload(0x40)\n      dup1\n      swap2\n      sub\n      swap1\n      revert\n    tag_120:\n        /* \"xstake/src/wstf token launch/contracts/token/ERC20/OmniERC20.sol\":2946:2970  _update(from, to, value) */\n      tag_123\n        /* \"xstake/src/wstf token launch/contracts/token/ERC20/OmniERC20.sol\":2954:2958  from */\n      dup4\n        /* \"xstake/src/wstf token launch/contracts/token/ERC20/OmniERC20.sol\":2960:2962  to */\n      dup4\n        /* \"xstake/src/wstf token launch/contracts/token/ERC20/OmniERC20.sol\":2964:2969  value */\n      dup4\n        /* \"xstake/src/wstf token launch/contracts/token/ERC20/OmniERC20.sol\":2946:2953  _update */\n      tag_124\n        /* \"xstake/src/wstf token launch/contracts/token/ERC20/OmniERC20.sol\":2946:2970  _update(from, to, value) */\n      jump\t// in\n    tag_123:\n      pop\n      pop\n        /* \"xstake/lib/omni/contracts/core/src/pkg/XAppBase.sol\":1097:1101  xmsg */\n      0x01\n        /* \"xstake/lib/omni/contracts/core/src/pkg/XAppBase.sol\":1090:1101  delete xmsg */\n      dup1\n      sload\n      not(sub(shl(0xe0, 0x01), 0x01))\n      and\n      swap1\n      sstore\n      pop\n        /* \"xstake/src/wstf token launch/contracts/token/ERC20/OmniERC20.sol\":2774:2978  function receiveTransfer(address from, address to, uint256 value) external xrecv {... */\n      jump\t// out\n        /* \"xstake/src/wstf token launch/contracts/token/ERC20/OmniERC20.sol\":1052:1154  function symbol() public view virtual override returns (string memory) {... */\n    tag_72:\n        /* \"xstake/src/wstf token launch/contracts/token/ERC20/OmniERC20.sol\":1108:1121  string memory */\n      0x60\n        /* \"xstake/src/wstf token launch/contracts/token/ERC20/OmniERC20.sol\":1140:1147  _symbol */\n      0x06\n        /* \"xstake/src/wstf token launch/contracts/token/ERC20/OmniERC20.sol\":1133:1147  return _symbol */\n      dup1\n      sload\n      tag_90\n      swap1\n      tag_91\n      jump\t// in\n        /* \"xstake/src/wstf token launch/contracts/token/ERC20/OmniERC20.sol\":2117:2304  function transfer(address to, uint256 value) public virtual override returns (bool) {... */\n    tag_77:\n        /* \"xstake/src/wstf token launch/contracts/token/ERC20/OmniERC20.sol\":2195:2199  bool */\n      0x00\n        /* \"xstake/src/wstf token launch/contracts/utils/Context.sol\":735:745  msg.sender */\n      caller\n        /* \"xstake/src/wstf token launch/contracts/token/ERC20/OmniERC20.sol\":2249:2276  _transfer(owner, to, value) */\n      tag_99\n        /* \"xstake/src/wstf token launch/contracts/utils/Context.sol\":735:745  msg.sender */\n      dup2\n        /* \"xstake/src/wstf token launch/contracts/token/ERC20/OmniERC20.sol\":2266:2268  to */\n      dup6\n        /* \"xstake/src/wstf token launch/contracts/token/ERC20/OmniERC20.sol\":2270:2275  value */\n      dup6\n        /* \"xstake/src/wstf token launch/contracts/token/ERC20/OmniERC20.sol\":2249:2258  _transfer */\n      tag_107\n        /* \"xstake/src/wstf token launch/contracts/token/ERC20/OmniERC20.sol\":2249:2276  _transfer(owner, to, value) */\n      jump\t// in\n        /* \"xstake/src/wstf token launch/contracts/token/ERC20/OmniERC20.sol\":2309:2768  function transfer(uint64 destChain, address destToken, address to, uint256 value) external payable {... */\n    tag_82:\n        /* \"xstake/src/wstf token launch/contracts/utils/Context.sol\":735:745  msg.sender */\n      caller\n        /* \"xstake/src/wstf token launch/contracts/token/ERC20/OmniERC20.sol\":2456:2493  _transfer(from, address(this), value) */\n      tag_137\n        /* \"xstake/src/wstf token launch/contracts/utils/Context.sol\":735:745  msg.sender */\n      dup2\n        /* \"xstake/src/wstf token launch/contracts/token/ERC20/OmniERC20.sol\":2480:2484  this */\n      address\n        /* \"xstake/src/wstf token launch/contracts/token/ERC20/OmniERC20.sol\":2487:2492  value */\n      dup5\n        /* \"xstake/src/wstf token launch/contracts/token/ERC20/OmniERC20.sol\":2456:2465  _transfer */\n      tag_107\n        /* \"xstake/src/wstf token launch/contracts/token/ERC20/OmniERC20.sol\":2456:2493  _transfer(from, address(this), value) */\n      jump\t// in\n    tag_137:\n        /* \"xstake/src/wstf token launch/contracts/token/ERC20/OmniERC20.sol\":2560:2629  abi.encodeCall(OmniERC20.receiveTransfer, (address(this), to, value)) */\n      mload(0x40)\n        /* \"xstake/src/wstf token launch/contracts/token/ERC20/OmniERC20.sol\":2611:2615  this */\n      address\n        /* \"xstake/src/wstf token launch/contracts/token/ERC20/OmniERC20.sol\":2560:2629  abi.encodeCall(OmniERC20.receiveTransfer, (address(this), to, value)) */\n      0x24\n      dup3\n      add\n        /* \"#utility.yul\":5561:5612   */\n      mstore\n      sub(shl(0xa0, 0x01), 0x01)\n        /* \"#utility.yul\":5648:5680   */\n      dup5\n      and\n        /* \"#utility.yul\":5628:5646   */\n      0x44\n      dup3\n      add\n        /* \"#utility.yul\":5621:5681   */\n      mstore\n        /* \"#utility.yul\":5697:5715   */\n      0x64\n      dup2\n      add\n        /* \"#utility.yul\":5690:5724   */\n      dup4\n      swap1\n      mstore\n        /* \"xstake/src/wstf token launch/contracts/token/ERC20/OmniERC20.sol\":2540:2557  bytes memory data */\n      0x00\n      swap1\n        /* \"#utility.yul\":5534:5552   */\n      0x84\n      add\n        /* \"xstake/src/wstf token launch/contracts/token/ERC20/OmniERC20.sol\":2560:2629  abi.encodeCall(OmniERC20.receiveTransfer, (address(this), to, value)) */\n      0x40\n      dup1\n      mload\n      not(0x1f)\n      dup2\n      dup5\n      sub\n      add\n      dup2\n      mstore\n      swap2\n      swap1\n      mstore\n      0x20\n      dup2\n      add\n      dup1\n      mload\n      sub(shl(0xe0, 0x01), 0x01)\n      and\n      shl(0xe1, 0x2529b503)\n      or\n      swap1\n      mstore\n      swap1\n      pop\n      0x00\n        /* \"xstake/src/wstf token launch/contracts/token/ERC20/OmniERC20.sol\":2653:2694  xcall(destChain, destToken, data, 150000) */\n      tag_140\n        /* \"xstake/src/wstf token launch/contracts/token/ERC20/OmniERC20.sol\":2659:2668  destChain */\n      dup8\n        /* \"xstake/src/wstf token launch/contracts/token/ERC20/OmniERC20.sol\":2670:2679  destToken */\n      dup8\n        /* \"xstake/src/wstf token launch/contracts/token/ERC20/OmniERC20.sol\":2560:2629  abi.encodeCall(OmniERC20.receiveTransfer, (address(this), to, value)) */\n      dup5\n        /* \"xstake/src/wstf token launch/contracts/token/ERC20/OmniERC20.sol\":2687:2693  150000 */\n      0x0249f0\n        /* \"xstake/src/wstf token launch/contracts/token/ERC20/OmniERC20.sol\":2653:2658  xcall */\n      tag_141\n        /* \"xstake/src/wstf token launch/contracts/token/ERC20/OmniERC20.sol\":2653:2694  xcall(destChain, destToken, data, 150000) */\n      jump\t// in\n    tag_140:\n        /* \"xstake/src/wstf token launch/contracts/token/ERC20/OmniERC20.sol\":2639:2694  uint256 fee = xcall(destChain, destToken, data, 150000) */\n      swap1\n      pop\n        /* \"xstake/src/wstf token launch/contracts/token/ERC20/OmniERC20.sol\":2725:2728  fee */\n      dup1\n        /* \"xstake/src/wstf token launch/contracts/token/ERC20/OmniERC20.sol\":2712:2721  msg.value */\n      callvalue\n        /* \"xstake/src/wstf token launch/contracts/token/ERC20/OmniERC20.sol\":2712:2728  msg.value >= fee */\n      lt\n      iszero\n        /* \"xstake/src/wstf token launch/contracts/token/ERC20/OmniERC20.sol\":2704:2760  require(msg.value >= fee, \"OmniERC20: Insufficient fee\") */\n      tag_142\n      jumpi\n      mload(0x40)\n      shl(0xe5, 0x461bcd)\n      dup2\n      mstore\n        /* \"#utility.yul\":5937:5939   */\n      0x20\n        /* \"xstake/src/wstf token launch/contracts/token/ERC20/OmniERC20.sol\":2704:2760  require(msg.value >= fee, \"OmniERC20: Insufficient fee\") */\n      0x04\n      dup3\n      add\n        /* \"#utility.yul\":5919:5940   */\n      mstore\n        /* \"#utility.yul\":5976:5978   */\n      0x1b\n        /* \"#utility.yul\":5956:5974   */\n      0x24\n      dup3\n      add\n        /* \"#utility.yul\":5949:5979   */\n      mstore\n        /* \"#utility.yul\":6015:6044   */\n      0x4f6d6e6945524332303a20496e73756666696369656e74206665650000000000\n        /* \"#utility.yul\":5995:6013   */\n      0x44\n      dup3\n      add\n        /* \"#utility.yul\":5988:6045   */\n      mstore\n        /* \"#utility.yul\":6062:6080   */\n      0x64\n      add\n        /* \"xstake/src/wstf token launch/contracts/token/ERC20/OmniERC20.sol\":2704:2760  require(msg.value >= fee, \"OmniERC20: Insufficient fee\") */\n      tag_121\n        /* \"#utility.yul\":5735:6086   */\n      jump\n        /* \"xstake/src/wstf token launch/contracts/token/ERC20/OmniERC20.sol\":2704:2760  require(msg.value >= fee, \"OmniERC20: Insufficient fee\") */\n    tag_142:\n        /* \"xstake/src/wstf token launch/contracts/token/ERC20/OmniERC20.sol\":2408:2768  {... */\n      pop\n      pop\n      pop\n        /* \"xstake/src/wstf token launch/contracts/token/ERC20/OmniERC20.sol\":2309:2768  function transfer(uint64 destChain, address destToken, address to, uint256 value) external payable {... */\n      pop\n      pop\n      pop\n      pop\n      jump\t// out\n        /* \"xstake/src/wstf token launch/contracts/token/ERC20/OmniERC20.sol\":4013:4141  function _approve(address owner, address spender, uint256 value) internal {... */\n    tag_100:\n        /* \"xstake/src/wstf token launch/contracts/token/ERC20/OmniERC20.sol\":4097:4134  _approve(owner, spender, value, true) */\n      tag_148\n        /* \"xstake/src/wstf token launch/contracts/token/ERC20/OmniERC20.sol\":4106:4111  owner */\n      dup4\n        /* \"xstake/src/wstf token launch/contracts/token/ERC20/OmniERC20.sol\":4113:4120  spender */\n      dup4\n        /* \"xstake/src/wstf token launch/contracts/token/ERC20/OmniERC20.sol\":4122:4127  value */\n      dup4\n        /* \"xstake/src/wstf token launch/contracts/token/ERC20/OmniERC20.sol\":4129:4133  true */\n      0x01\n        /* \"xstake/src/wstf token launch/contracts/token/ERC20/OmniERC20.sol\":4097:4105  _approve */\n      tag_149\n        /* \"xstake/src/wstf token launch/contracts/token/ERC20/OmniERC20.sol\":4097:4134  _approve(owner, spender, value, true) */\n      jump\t// in\n    tag_148:\n        /* \"xstake/src/wstf token launch/contracts/token/ERC20/OmniERC20.sol\":4013:4141  function _approve(address owner, address spender, uint256 value) internal {... */\n      pop\n      pop\n      pop\n      jump\t// out\n        /* \"xstake/src/wstf token launch/contracts/token/ERC20/OmniERC20.sol\":4585:5062  function _spendAllowance(address owner, address spender, uint256 value) internal virtual {... */\n    tag_105:\n      sub(shl(0xa0, 0x01), 0x01)\n        /* \"xstake/src/wstf token launch/contracts/token/ERC20/OmniERC20.sol\":1616:1634  _allowances[owner] */\n      dup4\n      dup2\n      and\n        /* \"xstake/src/wstf token launch/contracts/token/ERC20/OmniERC20.sol\":4684:4708  uint256 currentAllowance */\n      0x00\n        /* \"xstake/src/wstf token launch/contracts/token/ERC20/OmniERC20.sol\":1616:1634  _allowances[owner] */\n      swap1\n      dup2\n      mstore\n        /* \"xstake/src/wstf token launch/contracts/token/ERC20/OmniERC20.sol\":1616:1627  _allowances */\n      0x03\n        /* \"xstake/src/wstf token launch/contracts/token/ERC20/OmniERC20.sol\":1616:1634  _allowances[owner] */\n      0x20\n      swap1\n      dup2\n      mstore\n      0x40\n      dup1\n      dup4\n      keccak256\n        /* \"xstake/src/wstf token launch/contracts/token/ERC20/OmniERC20.sol\":1616:1643  _allowances[owner][spender] */\n      swap4\n      dup7\n      and\n      dup4\n      mstore\n      swap3\n      swap1\n      mstore\n      keccak256\n      sload\n      not(0x00)\n        /* \"xstake/src/wstf token launch/contracts/token/ERC20/OmniERC20.sol\":4750:4787  currentAllowance != type(uint256).max */\n      dup2\n      eq\n        /* \"xstake/src/wstf token launch/contracts/token/ERC20/OmniERC20.sol\":4746:5056  if (currentAllowance != type(uint256).max) {... */\n      tag_156\n      jumpi\n        /* \"xstake/src/wstf token launch/contracts/token/ERC20/OmniERC20.sol\":4826:4831  value */\n      dup2\n        /* \"xstake/src/wstf token launch/contracts/token/ERC20/OmniERC20.sol\":4807:4823  currentAllowance */\n      dup2\n        /* \"xstake/src/wstf token launch/contracts/token/ERC20/OmniERC20.sol\":4807:4831  currentAllowance < value */\n      lt\n        /* \"xstake/src/wstf token launch/contracts/token/ERC20/OmniERC20.sol\":4803:4933  if (currentAllowance < value) {... */\n      iszero\n      tag_153\n      jumpi\n        /* \"xstake/src/wstf token launch/contracts/token/ERC20/OmniERC20.sol\":4858:4918  ERC20InsufficientAllowance(spender, currentAllowance, value) */\n      mload(0x40)\n      shl(0xe1, 0x7dc7a0d9)\n      dup2\n      mstore\n      sub(shl(0xa0, 0x01), 0x01)\n        /* \"#utility.yul\":6311:6343   */\n      dup5\n      and\n        /* \"xstake/src/wstf token launch/contracts/token/ERC20/OmniERC20.sol\":4858:4918  ERC20InsufficientAllowance(spender, currentAllowance, value) */\n      0x04\n      dup3\n      add\n        /* \"#utility.yul\":6293:6344   */\n      mstore\n        /* \"#utility.yul\":6360:6378   */\n      0x24\n      dup2\n      add\n        /* \"#utility.yul\":6353:6387   */\n      dup3\n      swap1\n      mstore\n        /* \"#utility.yul\":6403:6421   */\n      0x44\n      dup2\n      add\n        /* \"#utility.yul\":6396:6430   */\n      dup4\n      swap1\n      mstore\n        /* \"#utility.yul\":6266:6284   */\n      0x64\n      add\n        /* \"xstake/src/wstf token launch/contracts/token/ERC20/OmniERC20.sol\":4858:4918  ERC20InsufficientAllowance(spender, currentAllowance, value) */\n      tag_121\n        /* \"#utility.yul\":6091:6436   */\n      jump\n        /* \"xstake/src/wstf token launch/contracts/token/ERC20/OmniERC20.sol\":4803:4933  if (currentAllowance < value) {... */\n    tag_153:\n        /* \"xstake/src/wstf token launch/contracts/token/ERC20/OmniERC20.sol\":4974:5031  _approve(owner, spender, currentAllowance - value, false) */\n      tag_156\n        /* \"xstake/src/wstf token launch/contracts/token/ERC20/OmniERC20.sol\":4983:4988  owner */\n      dup5\n        /* \"xstake/src/wstf token launch/contracts/token/ERC20/OmniERC20.sol\":4990:4997  spender */\n      dup5\n        /* \"xstake/src/wstf token launch/contracts/token/ERC20/OmniERC20.sol\":5018:5023  value */\n      dup5\n        /* \"xstake/src/wstf token launch/contracts/token/ERC20/OmniERC20.sol\":4999:5015  currentAllowance */\n      dup5\n        /* \"xstake/src/wstf token launch/contracts/token/ERC20/OmniERC20.sol\":4999:5023  currentAllowance - value */\n      sub\n        /* \"xstake/src/wstf token launch/contracts/token/ERC20/OmniERC20.sol\":5025:5030  false */\n      0x00\n        /* \"xstake/src/wstf token launch/contracts/token/ERC20/OmniERC20.sol\":4974:4982  _approve */\n      tag_149\n        /* \"xstake/src/wstf token launch/contracts/token/ERC20/OmniERC20.sol\":4974:5031  _approve(owner, spender, currentAllowance - value, false) */\n      jump\t// in\n    tag_156:\n        /* \"xstake/src/wstf token launch/contracts/token/ERC20/OmniERC20.sol\":4674:5062  {... */\n      pop\n        /* \"xstake/src/wstf token launch/contracts/token/ERC20/OmniERC20.sol\":4585:5062  function _spendAllowance(address owner, address spender, uint256 value) internal virtual {... */\n      pop\n      pop\n      pop\n      jump\t// out\n        /* \"xstake/src/wstf token launch/contracts/token/ERC20/OmniERC20.sol\":2984:3293  function _transfer(address from, address to, uint256 value) internal virtual {... */\n    tag_107:\n      sub(shl(0xa0, 0x01), 0x01)\n        /* \"xstake/src/wstf token launch/contracts/token/ERC20/OmniERC20.sol\":3075:3093  from == address(0) */\n      dup4\n      and\n        /* \"xstake/src/wstf token launch/contracts/token/ERC20/OmniERC20.sol\":3071:3157  if (from == address(0)) {... */\n      tag_158\n      jumpi\n        /* \"xstake/src/wstf token launch/contracts/token/ERC20/OmniERC20.sol\":3116:3146  ERC20InvalidSender(address(0)) */\n      mload(0x40)\n      shl(0xe1, 0x4b637e8f)\n      dup2\n      mstore\n        /* \"xstake/src/wstf token launch/contracts/token/ERC20/OmniERC20.sol\":3143:3144  0 */\n      0x00\n        /* \"xstake/src/wstf token launch/contracts/token/ERC20/OmniERC20.sol\":3116:3146  ERC20InvalidSender(address(0)) */\n      0x04\n      dup3\n      add\n        /* \"#utility.yul\":2282:2333   */\n      mstore\n        /* \"#utility.yul\":2255:2273   */\n      0x24\n      add\n        /* \"xstake/src/wstf token launch/contracts/token/ERC20/OmniERC20.sol\":3116:3146  ERC20InvalidSender(address(0)) */\n      tag_121\n        /* \"#utility.yul\":2117:2339   */\n      jump\n        /* \"xstake/src/wstf token launch/contracts/token/ERC20/OmniERC20.sol\":3071:3157  if (from == address(0)) {... */\n    tag_158:\n      sub(shl(0xa0, 0x01), 0x01)\n        /* \"xstake/src/wstf token launch/contracts/token/ERC20/OmniERC20.sol\":3170:3186  to == address(0) */\n      dup3\n      and\n        /* \"xstake/src/wstf token launch/contracts/token/ERC20/OmniERC20.sol\":3166:3252  if (to == address(0)) {... */\n      tag_161\n      jumpi\n        /* \"xstake/src/wstf token launch/contracts/token/ERC20/OmniERC20.sol\":3209:3241  ERC20InvalidReceiver(address(0)) */\n      mload(0x40)\n      shl(0xe0, 0xec442f05)\n      dup2\n      mstore\n        /* \"xstake/src/wstf token launch/contracts/token/ERC20/OmniERC20.sol\":3238:3239  0 */\n      0x00\n        /* \"xstake/src/wstf token launch/contracts/token/ERC20/OmniERC20.sol\":3209:3241  ERC20InvalidReceiver(address(0)) */\n      0x04\n      dup3\n      add\n        /* \"#utility.yul\":2282:2333   */\n      mstore\n        /* \"#utility.yul\":2255:2273   */\n      0x24\n      add\n        /* \"xstake/src/wstf token launch/contracts/token/ERC20/OmniERC20.sol\":3209:3241  ERC20InvalidReceiver(address(0)) */\n      tag_121\n        /* \"#utility.yul\":2117:2339   */\n      jump\n        /* \"xstake/src/wstf token launch/contracts/token/ERC20/OmniERC20.sol\":3166:3252  if (to == address(0)) {... */\n    tag_161:\n        /* \"xstake/src/wstf token launch/contracts/token/ERC20/OmniERC20.sol\":3262:3286  _update(from, to, value) */\n      tag_148\n        /* \"xstake/src/wstf token launch/contracts/token/ERC20/OmniERC20.sol\":3270:3274  from */\n      dup4\n        /* \"xstake/src/wstf token launch/contracts/token/ERC20/OmniERC20.sol\":3276:3278  to */\n      dup4\n        /* \"xstake/src/wstf token launch/contracts/token/ERC20/OmniERC20.sol\":3280:3285  value */\n      dup4\n        /* \"xstake/src/wstf token launch/contracts/token/ERC20/OmniERC20.sol\":3262:3269  _update */\n      tag_124\n        /* \"xstake/src/wstf token launch/contracts/token/ERC20/OmniERC20.sol\":3262:3286  _update(from, to, value) */\n      jump\t// in\n        /* \"xstake/src/wstf token launch/contracts/token/ERC20/implementation.sol\":1000:1208  function _mint(address account, uint256 value) internal {... */\n    tag_111:\n      sub(shl(0xa0, 0x01), 0x01)\n        /* \"xstake/src/wstf token launch/contracts/token/ERC20/implementation.sol\":1070:1091  account == address(0) */\n      dup3\n      and\n        /* \"xstake/src/wstf token launch/contracts/token/ERC20/implementation.sol\":1066:1157  if (account == address(0)) {... */\n      tag_165\n      jumpi\n        /* \"xstake/src/wstf token launch/contracts/token/ERC20/implementation.sol\":1114:1146  ERC20InvalidReceiver(address(0)) */\n      mload(0x40)\n      shl(0xe0, 0xec442f05)\n      dup2\n      mstore\n        /* \"xstake/src/wstf token launch/contracts/token/ERC20/implementation.sol\":1143:1144  0 */\n      0x00\n        /* \"xstake/src/wstf token launch/contracts/token/ERC20/implementation.sol\":1114:1146  ERC20InvalidReceiver(address(0)) */\n      0x04\n      dup3\n      add\n        /* \"#utility.yul\":2282:2333   */\n      mstore\n        /* \"#utility.yul\":2255:2273   */\n      0x24\n      add\n        /* \"xstake/src/wstf token launch/contracts/token/ERC20/implementation.sol\":1114:1146  ERC20InvalidReceiver(address(0)) */\n      tag_121\n        /* \"#utility.yul\":2117:2339   */\n      jump\n        /* \"xstake/src/wstf token launch/contracts/token/ERC20/implementation.sol\":1066:1157  if (account == address(0)) {... */\n    tag_165:\n        /* \"xstake/src/wstf token launch/contracts/token/ERC20/implementation.sol\":1166:1201  _update(address(0), account, value) */\n      tag_110\n        /* \"xstake/src/wstf token launch/contracts/token/ERC20/implementation.sol\":1182:1183  0 */\n      0x00\n        /* \"xstake/src/wstf token launch/contracts/token/ERC20/implementation.sol\":1186:1193  account */\n      dup4\n        /* \"xstake/src/wstf token launch/contracts/token/ERC20/implementation.sol\":1195:1200  value */\n      dup4\n        /* \"xstake/src/wstf token launch/contracts/token/ERC20/implementation.sol\":1166:1173  _update */\n      tag_124\n        /* \"xstake/src/wstf token launch/contracts/token/ERC20/implementation.sol\":1166:1201  _update(address(0), account, value) */\n      jump\t// in\n        /* \"xstake/lib/omni/contracts/core/src/pkg/XAppBase.sol\":1209:1326  function isXCall() internal view returns (bool) {... */\n    tag_119:\n        /* \"xstake/lib/omni/contracts/core/src/pkg/XAppBase.sol\":1251:1255  bool */\n      0x00\n        /* \"xstake/lib/omni/contracts/core/src/pkg/XAppBase.sol\":1274:1278  omni */\n      dup1\n      0x00\n      swap1\n      sload\n      swap1\n      0x0100\n      exp\n      swap1\n      div\n      sub(shl(0xa0, 0x01), 0x01)\n      and\n      sub(shl(0xa0, 0x01), 0x01)\n        /* \"xstake/lib/omni/contracts/core/src/pkg/XAppBase.sol\":1274:1286  omni.isXCall */\n      and\n      0x55e2448e\n        /* \"xstake/lib/omni/contracts/core/src/pkg/XAppBase.sol\":1274:1288  omni.isXCall() */\n      mload(0x40)\n      dup2\n      0xffffffff\n      and\n      0xe0\n      shl\n      dup2\n      mstore\n      0x04\n      add\n      0x20\n      mload(0x40)\n      dup1\n      dup4\n      sub\n      dup2\n      dup7\n      gas\n      staticcall\n      iszero\n      dup1\n      iszero\n      tag_170\n      jumpi\n      returndatasize\n      0x00\n      dup1\n      returndatacopy\n      revert(0x00, returndatasize)\n    tag_170:\n      pop\n      pop\n      pop\n      pop\n      mload(0x40)\n      returndatasize\n      not(0x1f)\n      0x1f\n      dup3\n      add\n      and\n      dup3\n      add\n      dup1\n      0x40\n      mstore\n      pop\n      dup2\n      add\n      swap1\n      tag_171\n      swap2\n      swap1\n      tag_172\n      jump\t// in\n    tag_171:\n        /* \"xstake/lib/omni/contracts/core/src/pkg/XAppBase.sol\":1274:1319  omni.isXCall() && msg.sender == address(omni) */\n      dup1\n      iszero\n      tag_173\n      jumpi\n      pop\n        /* \"xstake/lib/omni/contracts/core/src/pkg/XAppBase.sol\":1314:1318  omni */\n      and(sub(shl(0xa0, 0x01), 0x01), sload(0x00))\n        /* \"xstake/lib/omni/contracts/core/src/pkg/XAppBase.sol\":1292:1302  msg.sender */\n      caller\n        /* \"xstake/lib/omni/contracts/core/src/pkg/XAppBase.sol\":1292:1319  msg.sender == address(omni) */\n      eq\n        /* \"xstake/lib/omni/contracts/core/src/pkg/XAppBase.sol\":1274:1319  omni.isXCall() && msg.sender == address(omni) */\n    tag_173:\n        /* \"xstake/lib/omni/contracts/core/src/pkg/XAppBase.sol\":1267:1319  return omni.isXCall() && msg.sender == address(omni) */\n      swap1\n      pop\n        /* \"xstake/lib/omni/contracts/core/src/pkg/XAppBase.sol\":1209:1326  function isXCall() internal view returns (bool) {... */\n      swap1\n      jump\t// out\n        /* \"xstake/src/wstf token launch/contracts/token/ERC20/OmniERC20.sol\":3300:4006  function _update(address from, address to, uint256 value) internal virtual {... */\n    tag_124:\n      sub(shl(0xa0, 0x01), 0x01)\n        /* \"xstake/src/wstf token launch/contracts/token/ERC20/OmniERC20.sol\":3389:3407  from == address(0) */\n      dup4\n      and\n        /* \"xstake/src/wstf token launch/contracts/token/ERC20/OmniERC20.sol\":3385:3744  if (from == address(0)) {... */\n      tag_175\n      jumpi\n        /* \"xstake/src/wstf token launch/contracts/token/ERC20/OmniERC20.sol\":3439:3444  value */\n      dup1\n        /* \"xstake/src/wstf token launch/contracts/token/ERC20/OmniERC20.sol\":3423:3435  _totalSupply */\n      0x04\n      0x00\n        /* \"xstake/src/wstf token launch/contracts/token/ERC20/OmniERC20.sol\":3423:3444  _totalSupply += value */\n      dup3\n      dup3\n      sload\n      tag_176\n      swap2\n      swap1\n      tag_177\n      jump\t// in\n    tag_176:\n      swap1\n      swap2\n      sstore\n      pop\n        /* \"xstake/src/wstf token launch/contracts/token/ERC20/OmniERC20.sol\":3385:3744  if (from == address(0)) {... */\n      tag_178\n      swap1\n      pop\n      jump\n    tag_175:\n      sub(shl(0xa0, 0x01), 0x01)\n        /* \"xstake/src/wstf token launch/contracts/token/ERC20/OmniERC20.sol\":3497:3512  _balances[from] */\n      dup4\n      and\n        /* \"xstake/src/wstf token launch/contracts/token/ERC20/OmniERC20.sol\":3475:3494  uint256 fromBalance */\n      0x00\n        /* \"xstake/src/wstf token launch/contracts/token/ERC20/OmniERC20.sol\":3497:3512  _balances[from] */\n      swap1\n      dup2\n      mstore\n        /* \"xstake/src/wstf token launch/contracts/token/ERC20/OmniERC20.sol\":3497:3506  _balances */\n      0x02\n        /* \"xstake/src/wstf token launch/contracts/token/ERC20/OmniERC20.sol\":3497:3512  _balances[from] */\n      0x20\n      mstore\n      0x40\n      swap1\n      keccak256\n      sload\n        /* \"xstake/src/wstf token launch/contracts/token/ERC20/OmniERC20.sol\":3530:3549  fromBalance < value */\n      dup2\n      dup2\n      lt\n        /* \"xstake/src/wstf token launch/contracts/token/ERC20/OmniERC20.sol\":3526:3641  if (fromBalance < value) {... */\n      iszero\n      tag_179\n      jumpi\n        /* \"xstake/src/wstf token launch/contracts/token/ERC20/OmniERC20.sol\":3576:3626  ERC20InsufficientBalance(from, fromBalance, value) */\n      mload(0x40)\n      shl(0xe2, 0x391434e3)\n      dup2\n      mstore\n      sub(shl(0xa0, 0x01), 0x01)\n        /* \"#utility.yul\":6311:6343   */\n      dup6\n      and\n        /* \"xstake/src/wstf token launch/contracts/token/ERC20/OmniERC20.sol\":3576:3626  ERC20InsufficientBalance(from, fromBalance, value) */\n      0x04\n      dup3\n      add\n        /* \"#utility.yul\":6293:6344   */\n      mstore\n        /* \"#utility.yul\":6360:6378   */\n      0x24\n      dup2\n      add\n        /* \"#utility.yul\":6353:6387   */\n      dup3\n      swap1\n      mstore\n        /* \"#utility.yul\":6403:6421   */\n      0x44\n      dup2\n      add\n        /* \"#utility.yul\":6396:6430   */\n      dup4\n      swap1\n      mstore\n        /* \"#utility.yul\":6266:6284   */\n      0x64\n      add\n        /* \"xstake/src/wstf token launch/contracts/token/ERC20/OmniERC20.sol\":3576:3626  ERC20InsufficientBalance(from, fromBalance, value) */\n      tag_121\n        /* \"#utility.yul\":6091:6436   */\n      jump\n        /* \"xstake/src/wstf token launch/contracts/token/ERC20/OmniERC20.sol\":3526:3641  if (fromBalance < value) {... */\n    tag_179:\n      sub(shl(0xa0, 0x01), 0x01)\n        /* \"xstake/src/wstf token launch/contracts/token/ERC20/OmniERC20.sol\":3682:3697  _balances[from] */\n      dup5\n      and\n      0x00\n      swap1\n      dup2\n      mstore\n        /* \"xstake/src/wstf token launch/contracts/token/ERC20/OmniERC20.sol\":3682:3691  _balances */\n      0x02\n        /* \"xstake/src/wstf token launch/contracts/token/ERC20/OmniERC20.sol\":3682:3697  _balances[from] */\n      0x20\n      mstore\n      0x40\n      swap1\n      keccak256\n        /* \"xstake/src/wstf token launch/contracts/token/ERC20/OmniERC20.sol\":3700:3719  fromBalance - value */\n      swap1\n      dup3\n      swap1\n      sub\n        /* \"xstake/src/wstf token launch/contracts/token/ERC20/OmniERC20.sol\":3682:3719  _balances[from] = fromBalance - value */\n      swap1\n      sstore\n        /* \"xstake/src/wstf token launch/contracts/token/ERC20/OmniERC20.sol\":3385:3744  if (from == address(0)) {... */\n    tag_178:\n      sub(shl(0xa0, 0x01), 0x01)\n        /* \"xstake/src/wstf token launch/contracts/token/ERC20/OmniERC20.sol\":3758:3774  to == address(0) */\n      dup3\n      and\n        /* \"xstake/src/wstf token launch/contracts/token/ERC20/OmniERC20.sol\":3754:3959  if (to == address(0)) {... */\n      tag_181\n      jumpi\n        /* \"xstake/src/wstf token launch/contracts/token/ERC20/OmniERC20.sol\":3818:3830  _totalSupply */\n      0x04\n        /* \"xstake/src/wstf token launch/contracts/token/ERC20/OmniERC20.sol\":3818:3839  _totalSupply -= value */\n      dup1\n      sload\n      dup3\n      swap1\n      sub\n      swap1\n      sstore\n        /* \"xstake/src/wstf token launch/contracts/token/ERC20/OmniERC20.sol\":3754:3959  if (to == address(0)) {... */\n      jump(tag_182)\n    tag_181:\n      sub(shl(0xa0, 0x01), 0x01)\n        /* \"xstake/src/wstf token launch/contracts/token/ERC20/OmniERC20.sol\":3912:3925  _balances[to] */\n      dup3\n      and\n      0x00\n      swap1\n      dup2\n      mstore\n        /* \"xstake/src/wstf token launch/contracts/token/ERC20/OmniERC20.sol\":3912:3921  _balances */\n      0x02\n        /* \"xstake/src/wstf token launch/contracts/token/ERC20/OmniERC20.sol\":3912:3925  _balances[to] */\n      0x20\n      mstore\n      0x40\n      swap1\n      keccak256\n        /* \"xstake/src/wstf token launch/contracts/token/ERC20/OmniERC20.sol\":3912:3934  _balances[to] += value */\n      dup1\n      sload\n      dup3\n      add\n      swap1\n      sstore\n        /* \"xstake/src/wstf token launch/contracts/token/ERC20/OmniERC20.sol\":3754:3959  if (to == address(0)) {... */\n    tag_182:\n        /* \"xstake/src/wstf token launch/contracts/token/ERC20/OmniERC20.sol\":3989:3991  to */\n      dup2\n      sub(shl(0xa0, 0x01), 0x01)\n        /* \"xstake/src/wstf token launch/contracts/token/ERC20/OmniERC20.sol\":3974:3999  Transfer(from, to, value) */\n      and\n        /* \"xstake/src/wstf token launch/contracts/token/ERC20/OmniERC20.sol\":3983:3987  from */\n      dup4\n      sub(shl(0xa0, 0x01), 0x01)\n        /* \"xstake/src/wstf token launch/contracts/token/ERC20/OmniERC20.sol\":3974:3999  Transfer(from, to, value) */\n      and\n      0xddf252ad1be2c89b69c2b068fc378daa952ba7f163c4a11628f55a4df523b3ef\n        /* \"xstake/src/wstf token launch/contracts/token/ERC20/OmniERC20.sol\":3993:3998  value */\n      dup4\n        /* \"xstake/src/wstf token launch/contracts/token/ERC20/OmniERC20.sol\":3974:3999  Transfer(from, to, value) */\n      mload(0x40)\n      tag_183\n      swap2\n        /* \"#utility.yul\":1379:1404   */\n      dup2\n      mstore\n        /* \"#utility.yul\":1367:1369   */\n      0x20\n        /* \"#utility.yul\":1352:1370   */\n      add\n      swap1\n        /* \"#utility.yul\":1233:1410   */\n      jump\n        /* \"xstake/src/wstf token launch/contracts/token/ERC20/OmniERC20.sol\":3974:3999  Transfer(from, to, value) */\n    tag_183:\n      mload(0x40)\n      dup1\n      swap2\n      sub\n      swap1\n      log3\n        /* \"xstake/src/wstf token launch/contracts/token/ERC20/OmniERC20.sol\":3300:4006  function _update(address from, address to, uint256 value) internal virtual {... */\n      pop\n      pop\n      pop\n      jump\t// out\n        /* \"xstake/lib/omni/contracts/core/src/pkg/XAppBase.sol\":2156:2537  function xcall(uint64 destChainId, address to, bytes memory data, uint64 gasLimit) internal returns (uint256) {... */\n    tag_141:\n        /* \"xstake/lib/omni/contracts/core/src/pkg/XAppBase.sol\":2257:2264  uint256 */\n      0x00\n        /* \"xstake/lib/omni/contracts/core/src/pkg/XAppBase.sol\":2290:2294  omni */\n      dup1\n      sload\n        /* \"xstake/lib/omni/contracts/core/src/pkg/XAppBase.sol\":2290:2330  omni.feeFor(destChainId, data, gasLimit) */\n      mload(0x40)\n      shl(0xe2, 0x2376548f)\n      dup2\n      mstore\n        /* \"xstake/lib/omni/contracts/core/src/pkg/XAppBase.sol\":2257:2264  uint256 */\n      dup3\n      swap2\n      sub(shl(0xa0, 0x01), 0x01)\n        /* \"xstake/lib/omni/contracts/core/src/pkg/XAppBase.sol\":2290:2294  omni */\n      and\n      swap1\n        /* \"xstake/lib/omni/contracts/core/src/pkg/XAppBase.sol\":2290:2301  omni.feeFor */\n      0x8dd9523c\n      swap1\n        /* \"xstake/lib/omni/contracts/core/src/pkg/XAppBase.sol\":2290:2330  omni.feeFor(destChainId, data, gasLimit) */\n      tag_185\n      swap1\n        /* \"xstake/lib/omni/contracts/core/src/pkg/XAppBase.sol\":2302:2313  destChainId */\n      dup10\n      swap1\n        /* \"xstake/lib/omni/contracts/core/src/pkg/XAppBase.sol\":2315:2319  data */\n      dup9\n      swap1\n        /* \"xstake/lib/omni/contracts/core/src/pkg/XAppBase.sol\":2321:2329  gasLimit */\n      dup9\n      swap1\n        /* \"xstake/lib/omni/contracts/core/src/pkg/XAppBase.sol\":2290:2330  omni.feeFor(destChainId, data, gasLimit) */\n      0x04\n      add\n      tag_186\n      jump\t// in\n    tag_185:\n      0x20\n      mload(0x40)\n      dup1\n      dup4\n      sub\n      dup2\n      dup7\n      gas\n      staticcall\n      iszero\n      dup1\n      iszero\n      tag_188\n      jumpi\n      returndatasize\n      0x00\n      dup1\n      returndatacopy\n      revert(0x00, returndatasize)\n    tag_188:\n      pop\n      pop\n      pop\n      pop\n      mload(0x40)\n      returndatasize\n      not(0x1f)\n      0x1f\n      dup3\n      add\n      and\n      dup3\n      add\n      dup1\n      0x40\n      mstore\n      pop\n      dup2\n      add\n      swap1\n      tag_189\n      swap2\n      swap1\n      tag_190\n      jump\t// in\n    tag_189:\n        /* \"xstake/lib/omni/contracts/core/src/pkg/XAppBase.sol\":2276:2330  uint256 fee = omni.feeFor(destChainId, data, gasLimit) */\n      swap1\n      pop\n        /* \"xstake/lib/omni/contracts/core/src/pkg/XAppBase.sol\":2373:2376  fee */\n      dup1\n        /* \"xstake/lib/omni/contracts/core/src/pkg/XAppBase.sol\":2348:2369  address(this).balance */\n      selfbalance\n        /* \"xstake/lib/omni/contracts/core/src/pkg/XAppBase.sol\":2348:2376  address(this).balance >= fee */\n      lt\n      iszero\n        /* \"xstake/lib/omni/contracts/core/src/pkg/XAppBase.sol\":2348:2396  address(this).balance >= fee || msg.value >= fee */\n      dup1\n      tag_191\n      jumpi\n      pop\n        /* \"xstake/lib/omni/contracts/core/src/pkg/XAppBase.sol\":2393:2396  fee */\n      dup1\n        /* \"xstake/lib/omni/contracts/core/src/pkg/XAppBase.sol\":2380:2389  msg.value */\n      callvalue\n        /* \"xstake/lib/omni/contracts/core/src/pkg/XAppBase.sol\":2380:2396  msg.value >= fee */\n      lt\n      iszero\n        /* \"xstake/lib/omni/contracts/core/src/pkg/XAppBase.sol\":2348:2396  address(this).balance >= fee || msg.value >= fee */\n    tag_191:\n        /* \"xstake/lib/omni/contracts/core/src/pkg/XAppBase.sol\":2340:2425  require(address(this).balance >= fee || msg.value >= fee, \"XApp: insufficient funds\") */\n      tag_192\n      jumpi\n      mload(0x40)\n      shl(0xe5, 0x461bcd)\n      dup2\n      mstore\n        /* \"#utility.yul\":7960:7962   */\n      0x20\n        /* \"xstake/lib/omni/contracts/core/src/pkg/XAppBase.sol\":2340:2425  require(address(this).balance >= fee || msg.value >= fee, \"XApp: insufficient funds\") */\n      0x04\n      dup3\n      add\n        /* \"#utility.yul\":7942:7963   */\n      mstore\n        /* \"#utility.yul\":7999:8001   */\n      0x18\n        /* \"#utility.yul\":7979:7997   */\n      0x24\n      dup3\n      add\n        /* \"#utility.yul\":7972:8002   */\n      mstore\n        /* \"#utility.yul\":8038:8064   */\n      0x584170703a20696e73756666696369656e742066756e64730000000000000000\n        /* \"#utility.yul\":8018:8036   */\n      0x44\n      dup3\n      add\n        /* \"#utility.yul\":8011:8065   */\n      mstore\n        /* \"#utility.yul\":8082:8100   */\n      0x64\n      add\n        /* \"xstake/lib/omni/contracts/core/src/pkg/XAppBase.sol\":2340:2425  require(address(this).balance >= fee || msg.value >= fee, \"XApp: insufficient funds\") */\n      tag_121\n        /* \"#utility.yul\":7758:8106   */\n      jump\n        /* \"xstake/lib/omni/contracts/core/src/pkg/XAppBase.sol\":2340:2425  require(address(this).balance >= fee || msg.value >= fee, \"XApp: insufficient funds\") */\n    tag_192:\n        /* \"xstake/lib/omni/contracts/core/src/pkg/XAppBase.sol\":2435:2439  omni */\n      sload(0x00)\n        /* \"xstake/lib/omni/contracts/core/src/pkg/XAppBase.sol\":2435:2510  omni.xcall{ value: fee }(destChainId, defaultConfLevel, to, data, gasLimit) */\n      mload(0x40)\n      shl(0xe0, 0xc21dda4f)\n      dup2\n      mstore\n      sub(shl(0xa0, 0x01), 0x01)\n        /* \"xstake/lib/omni/contracts/core/src/pkg/XAppBase.sol\":2435:2439  omni */\n      dup3\n      and\n      swap2\n        /* \"xstake/lib/omni/contracts/core/src/pkg/XAppBase.sol\":2435:2445  omni.xcall */\n      0xc21dda4f\n      swap2\n        /* \"xstake/lib/omni/contracts/core/src/pkg/XAppBase.sol\":2454:2457  fee */\n      dup5\n      swap2\n        /* \"xstake/lib/omni/contracts/core/src/pkg/XAppBase.sol\":2435:2510  omni.xcall{ value: fee }(destChainId, defaultConfLevel, to, data, gasLimit) */\n      tag_195\n      swap2\n        /* \"xstake/lib/omni/contracts/core/src/pkg/XAppBase.sol\":2460:2471  destChainId */\n      dup12\n      swap2\n      shl(0xa0, 0x01)\n        /* \"xstake/lib/omni/contracts/core/src/pkg/XAppBase.sol\":2473:2489  defaultConfLevel */\n      swap1\n      div\n      0xff\n      and\n      swap1\n        /* \"xstake/lib/omni/contracts/core/src/pkg/XAppBase.sol\":2491:2493  to */\n      dup12\n      swap1\n        /* \"xstake/lib/omni/contracts/core/src/pkg/XAppBase.sol\":2495:2499  data */\n      dup12\n      swap1\n        /* \"xstake/lib/omni/contracts/core/src/pkg/XAppBase.sol\":2501:2509  gasLimit */\n      dup12\n      swap1\n        /* \"xstake/lib/omni/contracts/core/src/pkg/XAppBase.sol\":2435:2510  omni.xcall{ value: fee }(destChainId, defaultConfLevel, to, data, gasLimit) */\n      0x04\n      add\n      tag_196\n      jump\t// in\n    tag_195:\n      0x00\n      mload(0x40)\n      dup1\n      dup4\n      sub\n      dup2\n      dup6\n      dup9\n      dup1\n      extcodesize\n      iszero\n      dup1\n      iszero\n      tag_197\n      jumpi\n      0x00\n      dup1\n      revert\n    tag_197:\n      pop\n      gas\n      call\n      iszero\n      dup1\n      iszero\n      tag_199\n      jumpi\n      returndatasize\n      0x00\n      dup1\n      returndatacopy\n      revert(0x00, returndatasize)\n    tag_199:\n      pop\n        /* \"xstake/lib/omni/contracts/core/src/pkg/XAppBase.sol\":2527:2530  fee */\n      swap4\n      swap10\n        /* \"xstake/lib/omni/contracts/core/src/pkg/XAppBase.sol\":2156:2537  function xcall(uint64 destChainId, address to, bytes memory data, uint64 gasLimit) internal returns (uint256) {... */\n      swap9\n      pop\n      pop\n      pop\n      pop\n      pop\n      pop\n      pop\n      pop\n      pop\n      jump\t// out\n        /* \"xstake/src/wstf token launch/contracts/token/ERC20/OmniERC20.sol\":4147:4579  function _approve(address owner, address spender, uint256 value, bool emitEvent) internal virtual {... */\n    tag_149:\n      sub(shl(0xa0, 0x01), 0x01)\n        /* \"xstake/src/wstf token launch/contracts/token/ERC20/OmniERC20.sol\":4259:4278  owner == address(0) */\n      dup5\n      and\n        /* \"xstake/src/wstf token launch/contracts/token/ERC20/OmniERC20.sol\":4255:4344  if (owner == address(0)) {... */\n      tag_201\n      jumpi\n        /* \"xstake/src/wstf token launch/contracts/token/ERC20/OmniERC20.sol\":4301:4333  ERC20InvalidApprover(address(0)) */\n      mload(0x40)\n      shl(0xe0, 0xe602df05)\n      dup2\n      mstore\n        /* \"xstake/src/wstf token launch/contracts/token/ERC20/OmniERC20.sol\":4330:4331  0 */\n      0x00\n        /* \"xstake/src/wstf token launch/contracts/token/ERC20/OmniERC20.sol\":4301:4333  ERC20InvalidApprover(address(0)) */\n      0x04\n      dup3\n      add\n        /* \"#utility.yul\":2282:2333   */\n      mstore\n        /* \"#utility.yul\":2255:2273   */\n      0x24\n      add\n        /* \"xstake/src/wstf token launch/contracts/token/ERC20/OmniERC20.sol\":4301:4333  ERC20InvalidApprover(address(0)) */\n      tag_121\n        /* \"#utility.yul\":2117:2339   */\n      jump\n        /* \"xstake/src/wstf token launch/contracts/token/ERC20/OmniERC20.sol\":4255:4344  if (owner == address(0)) {... */\n    tag_201:\n      sub(shl(0xa0, 0x01), 0x01)\n        /* \"xstake/src/wstf token launch/contracts/token/ERC20/OmniERC20.sol\":4357:4378  spender == address(0) */\n      dup4\n      and\n        /* \"xstake/src/wstf token launch/contracts/token/ERC20/OmniERC20.sol\":4353:4443  if (spender == address(0)) {... */\n      tag_203\n      jumpi\n        /* \"xstake/src/wstf token launch/contracts/token/ERC20/OmniERC20.sol\":4401:4432  ERC20InvalidSpender(address(0)) */\n      mload(0x40)\n      shl(0xe1, 0x4a1406b1)\n      dup2\n      mstore\n        /* \"xstake/src/wstf token launch/contracts/token/ERC20/OmniERC20.sol\":4429:4430  0 */\n      0x00\n        /* \"xstake/src/wstf token launch/contracts/token/ERC20/OmniERC20.sol\":4401:4432  ERC20InvalidSpender(address(0)) */\n      0x04\n      dup3\n      add\n        /* \"#utility.yul\":2282:2333   */\n      mstore\n        /* \"#utility.yul\":2255:2273   */\n      0x24\n      add\n        /* \"xstake/src/wstf token launch/contracts/token/ERC20/OmniERC20.sol\":4401:4432  ERC20InvalidSpender(address(0)) */\n      tag_121\n        /* \"#utility.yul\":2117:2339   */\n      jump\n        /* \"xstake/src/wstf token launch/contracts/token/ERC20/OmniERC20.sol\":4353:4443  if (spender == address(0)) {... */\n    tag_203:\n      sub(shl(0xa0, 0x01), 0x01)\n        /* \"xstake/src/wstf token launch/contracts/token/ERC20/OmniERC20.sol\":4452:4470  _allowances[owner] */\n      dup1\n      dup6\n      and\n      0x00\n      swap1\n      dup2\n      mstore\n        /* \"xstake/src/wstf token launch/contracts/token/ERC20/OmniERC20.sol\":4452:4463  _allowances */\n      0x03\n        /* \"xstake/src/wstf token launch/contracts/token/ERC20/OmniERC20.sol\":4452:4470  _allowances[owner] */\n      0x20\n      swap1\n      dup2\n      mstore\n      0x40\n      dup1\n      dup4\n      keccak256\n        /* \"xstake/src/wstf token launch/contracts/token/ERC20/OmniERC20.sol\":4452:4479  _allowances[owner][spender] */\n      swap4\n      dup8\n      and\n      dup4\n      mstore\n      swap3\n      swap1\n      mstore\n      keccak256\n        /* \"xstake/src/wstf token launch/contracts/token/ERC20/OmniERC20.sol\":4452:4487  _allowances[owner][spender] = value */\n      dup3\n      swap1\n      sstore\n        /* \"xstake/src/wstf token launch/contracts/token/ERC20/OmniERC20.sol\":4497:4573  if (emitEvent) {... */\n      dup1\n      iszero\n      tag_156\n      jumpi\n        /* \"xstake/src/wstf token launch/contracts/token/ERC20/OmniERC20.sol\":4547:4554  spender */\n      dup3\n      sub(shl(0xa0, 0x01), 0x01)\n        /* \"xstake/src/wstf token launch/contracts/token/ERC20/OmniERC20.sol\":4531:4562  Approval(owner, spender, value) */\n      and\n        /* \"xstake/src/wstf token launch/contracts/token/ERC20/OmniERC20.sol\":4540:4545  owner */\n      dup5\n      sub(shl(0xa0, 0x01), 0x01)\n        /* \"xstake/src/wstf token launch/contracts/token/ERC20/OmniERC20.sol\":4531:4562  Approval(owner, spender, value) */\n      and\n      0x8c5be1e5ebec7d5bd14f71427d1e84f3dd0314c0f7b2291e5b200ac8c7c3b925\n        /* \"xstake/src/wstf token launch/contracts/token/ERC20/OmniERC20.sol\":4556:4561  value */\n      dup5\n        /* \"xstake/src/wstf token launch/contracts/token/ERC20/OmniERC20.sol\":4531:4562  Approval(owner, spender, value) */\n      mload(0x40)\n      tag_206\n      swap2\n        /* \"#utility.yul\":1379:1404   */\n      dup2\n      mstore\n        /* \"#utility.yul\":1367:1369   */\n      0x20\n        /* \"#utility.yul\":1352:1370   */\n      add\n      swap1\n        /* \"#utility.yul\":1233:1410   */\n      jump\n        /* \"xstake/src/wstf token launch/contracts/token/ERC20/OmniERC20.sol\":4531:4562  Approval(owner, spender, value) */\n    tag_206:\n      mload(0x40)\n      dup1\n      swap2\n      sub\n      swap1\n      log3\n        /* \"xstake/src/wstf token launch/contracts/token/ERC20/OmniERC20.sol\":4147:4579  function _approve(address owner, address spender, uint256 value, bool emitEvent) internal virtual {... */\n      pop\n      pop\n      pop\n      pop\n      jump\t// out\n        /* \"#utility.yul\":14:303   */\n    tag_207:\n        /* \"#utility.yul\":56:59   */\n      0x00\n        /* \"#utility.yul\":94:99   */\n      dup2\n        /* \"#utility.yul\":88:100   */\n      mload\n        /* \"#utility.yul\":121:127   */\n      dup1\n        /* \"#utility.yul\":116:119   */\n      dup5\n        /* \"#utility.yul\":109:128   */\n      mstore\n        /* \"#utility.yul\":177:183   */\n      dup1\n        /* \"#utility.yul\":170:174   */\n      0x20\n        /* \"#utility.yul\":163:168   */\n      dup5\n        /* \"#utility.yul\":159:175   */\n      add\n        /* \"#utility.yul\":152:156   */\n      0x20\n        /* \"#utility.yul\":147:150   */\n      dup7\n        /* \"#utility.yul\":143:157   */\n      add\n        /* \"#utility.yul\":137:184   */\n      mcopy\n        /* \"#utility.yul\":229:230   */\n      0x00\n        /* \"#utility.yul\":222:226   */\n      0x20\n        /* \"#utility.yul\":213:219   */\n      dup3\n        /* \"#utility.yul\":208:211   */\n      dup7\n        /* \"#utility.yul\":204:220   */\n      add\n        /* \"#utility.yul\":200:227   */\n      add\n        /* \"#utility.yul\":193:231   */\n      mstore\n        /* \"#utility.yul\":292:296   */\n      0x20\n        /* \"#utility.yul\":285:287   */\n      0x1f\n        /* \"#utility.yul\":281:288   */\n      not\n        /* \"#utility.yul\":276:278   */\n      0x1f\n        /* \"#utility.yul\":268:274   */\n      dup4\n        /* \"#utility.yul\":264:279   */\n      add\n        /* \"#utility.yul\":260:289   */\n      and\n        /* \"#utility.yul\":255:258   */\n      dup6\n        /* \"#utility.yul\":251:290   */\n      add\n        /* \"#utility.yul\":247:297   */\n      add\n        /* \"#utility.yul\":240:297   */\n      swap2\n      pop\n      pop\n        /* \"#utility.yul\":14:303   */\n      swap3\n      swap2\n      pop\n      pop\n      jump\t// out\n        /* \"#utility.yul\":308:528   */\n    tag_23:\n        /* \"#utility.yul\":457:459   */\n      0x20\n        /* \"#utility.yul\":446:455   */\n      dup2\n        /* \"#utility.yul\":439:460   */\n      mstore\n        /* \"#utility.yul\":420:424   */\n      0x00\n        /* \"#utility.yul\":477:522   */\n      tag_213\n        /* \"#utility.yul\":518:520   */\n      0x20\n        /* \"#utility.yul\":507:516   */\n      dup4\n        /* \"#utility.yul\":503:521   */\n      add\n        /* \"#utility.yul\":495:501   */\n      dup5\n        /* \"#utility.yul\":477:522   */\n      tag_207\n      jump\t// in\n    tag_213:\n        /* \"#utility.yul\":469:522   */\n      swap4\n        /* \"#utility.yul\":308:528   */\n      swap3\n      pop\n      pop\n      pop\n      jump\t// out\n        /* \"#utility.yul\":533:664   */\n    tag_208:\n      sub(shl(0xa0, 0x01), 0x01)\n        /* \"#utility.yul\":608:639   */\n      dup2\n      and\n        /* \"#utility.yul\":598:640   */\n      dup2\n      eq\n        /* \"#utility.yul\":588:658   */\n      tag_215\n      jumpi\n        /* \"#utility.yul\":654:655   */\n      0x00\n        /* \"#utility.yul\":651:652   */\n      dup1\n        /* \"#utility.yul\":644:656   */\n      revert\n        /* \"#utility.yul\":588:658   */\n    tag_215:\n        /* \"#utility.yul\":533:664   */\n      pop\n      jump\t// out\n        /* \"#utility.yul\":669:1036   */\n    tag_27:\n        /* \"#utility.yul\":737:743   */\n      0x00\n        /* \"#utility.yul\":745:751   */\n      dup1\n        /* \"#utility.yul\":798:800   */\n      0x40\n        /* \"#utility.yul\":786:795   */\n      dup4\n        /* \"#utility.yul\":777:784   */\n      dup6\n        /* \"#utility.yul\":773:796   */\n      sub\n        /* \"#utility.yul\":769:801   */\n      slt\n        /* \"#utility.yul\":766:818   */\n      iszero\n      tag_217\n      jumpi\n        /* \"#utility.yul\":814:815   */\n      0x00\n        /* \"#utility.yul\":811:812   */\n      dup1\n        /* \"#utility.yul\":804:816   */\n      revert\n        /* \"#utility.yul\":766:818   */\n    tag_217:\n        /* \"#utility.yul\":853:862   */\n      dup3\n        /* \"#utility.yul\":840:863   */\n      calldataload\n        /* \"#utility.yul\":872:903   */\n      tag_218\n        /* \"#utility.yul\":897:902   */\n      dup2\n        /* \"#utility.yul\":872:903   */\n      tag_208\n      jump\t// in\n    tag_218:\n        /* \"#utility.yul\":922:927   */\n      swap5\n        /* \"#utility.yul\":1000:1002   */\n      0x20\n        /* \"#utility.yul\":985:1003   */\n      swap4\n      swap1\n      swap4\n      add\n        /* \"#utility.yul\":972:1004   */\n      calldataload\n      swap4\n      pop\n      pop\n      pop\n        /* \"#utility.yul\":669:1036   */\n      jump\t// out\n        /* \"#utility.yul\":1415:1923   */\n    tag_39:\n        /* \"#utility.yul\":1492:1498   */\n      0x00\n        /* \"#utility.yul\":1500:1506   */\n      dup1\n        /* \"#utility.yul\":1508:1514   */\n      0x00\n        /* \"#utility.yul\":1561:1563   */\n      0x60\n        /* \"#utility.yul\":1549:1558   */\n      dup5\n        /* \"#utility.yul\":1540:1547   */\n      dup7\n        /* \"#utility.yul\":1536:1559   */\n      sub\n        /* \"#utility.yul\":1532:1564   */\n      slt\n        /* \"#utility.yul\":1529:1581   */\n      iszero\n      tag_222\n      jumpi\n        /* \"#utility.yul\":1577:1578   */\n      0x00\n        /* \"#utility.yul\":1574:1575   */\n      dup1\n        /* \"#utility.yul\":1567:1579   */\n      revert\n        /* \"#utility.yul\":1529:1581   */\n    tag_222:\n        /* \"#utility.yul\":1616:1625   */\n      dup4\n        /* \"#utility.yul\":1603:1626   */\n      calldataload\n        /* \"#utility.yul\":1635:1666   */\n      tag_223\n        /* \"#utility.yul\":1660:1665   */\n      dup2\n        /* \"#utility.yul\":1635:1666   */\n      tag_208\n      jump\t// in\n    tag_223:\n        /* \"#utility.yul\":1685:1690   */\n      swap3\n      pop\n        /* \"#utility.yul\":1742:1744   */\n      0x20\n        /* \"#utility.yul\":1727:1745   */\n      dup5\n      add\n        /* \"#utility.yul\":1714:1746   */\n      calldataload\n        /* \"#utility.yul\":1755:1788   */\n      tag_224\n        /* \"#utility.yul\":1714:1746   */\n      dup2\n        /* \"#utility.yul\":1755:1788   */\n      tag_208\n      jump\t// in\n    tag_224:\n        /* \"#utility.yul\":1415:1923   */\n      swap3\n      swap6\n        /* \"#utility.yul\":1807:1814   */\n      swap3\n      swap5\n      pop\n      pop\n      pop\n        /* \"#utility.yul\":1887:1889   */\n      0x40\n        /* \"#utility.yul\":1872:1890   */\n      swap2\n      swap1\n      swap2\n      add\n        /* \"#utility.yul\":1859:1891   */\n      calldataload\n      swap1\n        /* \"#utility.yul\":1415:1923   */\n      jump\t// out\n        /* \"#utility.yul\":2344:2591   */\n    tag_63:\n        /* \"#utility.yul\":2403:2409   */\n      0x00\n        /* \"#utility.yul\":2456:2458   */\n      0x20\n        /* \"#utility.yul\":2444:2453   */\n      dup3\n        /* \"#utility.yul\":2435:2442   */\n      dup5\n        /* \"#utility.yul\":2431:2454   */\n      sub\n        /* \"#utility.yul\":2427:2459   */\n      slt\n        /* \"#utility.yul\":2424:2476   */\n      iszero\n      tag_228\n      jumpi\n        /* \"#utility.yul\":2472:2473   */\n      0x00\n        /* \"#utility.yul\":2469:2470   */\n      dup1\n        /* \"#utility.yul\":2462:2474   */\n      revert\n        /* \"#utility.yul\":2424:2476   */\n    tag_228:\n        /* \"#utility.yul\":2511:2520   */\n      dup2\n        /* \"#utility.yul\":2498:2521   */\n      calldataload\n        /* \"#utility.yul\":2530:2561   */\n      tag_213\n        /* \"#utility.yul\":2555:2560   */\n      dup2\n        /* \"#utility.yul\":2530:2561   */\n      tag_208\n      jump\t// in\n        /* \"#utility.yul\":2596:2725   */\n    tag_209:\n        /* \"#utility.yul\":2681:2699   */\n      0xffffffffffffffff\n        /* \"#utility.yul\":2674:2679   */\n      dup2\n        /* \"#utility.yul\":2670:2700   */\n      and\n        /* \"#utility.yul\":2663:2668   */\n      dup2\n        /* \"#utility.yul\":2660:2701   */\n      eq\n        /* \"#utility.yul\":2650:2719   */\n      tag_215\n      jumpi\n        /* \"#utility.yul\":2715:2716   */\n      0x00\n        /* \"#utility.yul\":2712:2713   */\n      dup1\n        /* \"#utility.yul\":2705:2717   */\n      revert\n        /* \"#utility.yul\":2730:3378   */\n    tag_81:\n        /* \"#utility.yul\":2815:2821   */\n      0x00\n        /* \"#utility.yul\":2823:2829   */\n      dup1\n        /* \"#utility.yul\":2831:2837   */\n      0x00\n        /* \"#utility.yul\":2839:2845   */\n      dup1\n        /* \"#utility.yul\":2892:2895   */\n      0x80\n        /* \"#utility.yul\":2880:2889   */\n      dup6\n        /* \"#utility.yul\":2871:2878   */\n      dup8\n        /* \"#utility.yul\":2867:2890   */\n      sub\n        /* \"#utility.yul\":2863:2896   */\n      slt\n        /* \"#utility.yul\":2860:2913   */\n      iszero\n      tag_233\n      jumpi\n        /* \"#utility.yul\":2909:2910   */\n      0x00\n        /* \"#utility.yul\":2906:2907   */\n      dup1\n        /* \"#utility.yul\":2899:2911   */\n      revert\n        /* \"#utility.yul\":2860:2913   */\n    tag_233:\n        /* \"#utility.yul\":2948:2957   */\n      dup5\n        /* \"#utility.yul\":2935:2958   */\n      calldataload\n        /* \"#utility.yul\":2967:2997   */\n      tag_234\n        /* \"#utility.yul\":2991:2996   */\n      dup2\n        /* \"#utility.yul\":2967:2997   */\n      tag_209\n      jump\t// in\n    tag_234:\n        /* \"#utility.yul\":3016:3021   */\n      swap4\n      pop\n        /* \"#utility.yul\":3073:3075   */\n      0x20\n        /* \"#utility.yul\":3058:3076   */\n      dup6\n      add\n        /* \"#utility.yul\":3045:3077   */\n      calldataload\n        /* \"#utility.yul\":3086:3119   */\n      tag_235\n        /* \"#utility.yul\":3045:3077   */\n      dup2\n        /* \"#utility.yul\":3086:3119   */\n      tag_208\n      jump\t// in\n    tag_235:\n        /* \"#utility.yul\":3138:3145   */\n      swap3\n      pop\n        /* \"#utility.yul\":3197:3199   */\n      0x40\n        /* \"#utility.yul\":3182:3200   */\n      dup6\n      add\n        /* \"#utility.yul\":3169:3201   */\n      calldataload\n        /* \"#utility.yul\":3210:3243   */\n      tag_236\n        /* \"#utility.yul\":3169:3201   */\n      dup2\n        /* \"#utility.yul\":3210:3243   */\n      tag_208\n      jump\t// in\n    tag_236:\n        /* \"#utility.yul\":2730:3378   */\n      swap4\n      swap7\n      swap3\n      swap6\n      pop\n        /* \"#utility.yul\":3262:3269   */\n      swap3\n      swap4\n        /* \"#utility.yul\":3342:3344   */\n      0x60\n        /* \"#utility.yul\":3327:3345   */\n      add\n        /* \"#utility.yul\":3314:3346   */\n      calldataload\n      swap3\n      pop\n      pop\n        /* \"#utility.yul\":2730:3378   */\n      jump\t// out\n        /* \"#utility.yul\":3383:3771   */\n    tag_86:\n        /* \"#utility.yul\":3451:3457   */\n      0x00\n        /* \"#utility.yul\":3459:3465   */\n      dup1\n        /* \"#utility.yul\":3512:3514   */\n      0x40\n        /* \"#utility.yul\":3500:3509   */\n      dup4\n        /* \"#utility.yul\":3491:3498   */\n      dup6\n        /* \"#utility.yul\":3487:3510   */\n      sub\n        /* \"#utility.yul\":3483:3515   */\n      slt\n        /* \"#utility.yul\":3480:3532   */\n      iszero\n      tag_238\n      jumpi\n        /* \"#utility.yul\":3528:3529   */\n      0x00\n        /* \"#utility.yul\":3525:3526   */\n      dup1\n        /* \"#utility.yul\":3518:3530   */\n      revert\n        /* \"#utility.yul\":3480:3532   */\n    tag_238:\n        /* \"#utility.yul\":3567:3576   */\n      dup3\n        /* \"#utility.yul\":3554:3577   */\n      calldataload\n        /* \"#utility.yul\":3586:3617   */\n      tag_239\n        /* \"#utility.yul\":3611:3616   */\n      dup2\n        /* \"#utility.yul\":3586:3617   */\n      tag_208\n      jump\t// in\n    tag_239:\n        /* \"#utility.yul\":3636:3641   */\n      swap2\n      pop\n        /* \"#utility.yul\":3693:3695   */\n      0x20\n        /* \"#utility.yul\":3678:3696   */\n      dup4\n      add\n        /* \"#utility.yul\":3665:3697   */\n      calldataload\n        /* \"#utility.yul\":3706:3739   */\n      tag_240\n        /* \"#utility.yul\":3665:3697   */\n      dup2\n        /* \"#utility.yul\":3706:3739   */\n      tag_208\n      jump\t// in\n    tag_240:\n        /* \"#utility.yul\":3758:3765   */\n      dup1\n        /* \"#utility.yul\":3748:3765   */\n      swap2\n      pop\n      pop\n        /* \"#utility.yul\":3383:3771   */\n      swap3\n      pop\n      swap3\n      swap1\n      pop\n      jump\t// out\n        /* \"#utility.yul\":3776:4156   */\n    tag_91:\n        /* \"#utility.yul\":3855:3856   */\n      0x01\n        /* \"#utility.yul\":3851:3863   */\n      dup2\n      dup2\n      shr\n      swap1\n        /* \"#utility.yul\":3898:3910   */\n      dup3\n      and\n      dup1\n        /* \"#utility.yul\":3919:3980   */\n      tag_242\n      jumpi\n        /* \"#utility.yul\":3973:3977   */\n      0x7f\n        /* \"#utility.yul\":3965:3971   */\n      dup3\n        /* \"#utility.yul\":3961:3978   */\n      and\n        /* \"#utility.yul\":3951:3978   */\n      swap2\n      pop\n        /* \"#utility.yul\":3919:3980   */\n    tag_242:\n        /* \"#utility.yul\":4026:4028   */\n      0x20\n        /* \"#utility.yul\":4018:4024   */\n      dup3\n        /* \"#utility.yul\":4015:4029   */\n      lt\n        /* \"#utility.yul\":3995:4013   */\n      dup2\n        /* \"#utility.yul\":3992:4030   */\n      sub\n        /* \"#utility.yul\":3989:4150   */\n      tag_243\n      jumpi\n        /* \"#utility.yul\":4072:4082   */\n      0x4e487b71\n        /* \"#utility.yul\":4067:4070   */\n      0xe0\n        /* \"#utility.yul\":4063:4083   */\n      shl\n        /* \"#utility.yul\":4060:4061   */\n      0x00\n        /* \"#utility.yul\":4053:4084   */\n      mstore\n        /* \"#utility.yul\":4107:4111   */\n      0x22\n        /* \"#utility.yul\":4104:4105   */\n      0x04\n        /* \"#utility.yul\":4097:4112   */\n      mstore\n        /* \"#utility.yul\":4135:4139   */\n      0x24\n        /* \"#utility.yul\":4132:4133   */\n      0x00\n        /* \"#utility.yul\":4125:4140   */\n      revert\n        /* \"#utility.yul\":3989:4150   */\n    tag_243:\n      pop\n        /* \"#utility.yul\":3776:4156   */\n      swap2\n      swap1\n      pop\n      jump\t// out\n        /* \"#utility.yul\":4161:4937   */\n    tag_116:\n        /* \"#utility.yul\":4258:4264   */\n      0x00\n        /* \"#utility.yul\":4318:4320   */\n      0x40\n        /* \"#utility.yul\":4306:4315   */\n      dup3\n        /* \"#utility.yul\":4297:4304   */\n      dup5\n        /* \"#utility.yul\":4293:4316   */\n      sub\n        /* \"#utility.yul\":4289:4321   */\n      slt\n        /* \"#utility.yul\":4333:4335   */\n      dup1\n        /* \"#utility.yul\":4330:4352   */\n      iszero\n      tag_245\n      jumpi\n        /* \"#utility.yul\":4348:4349   */\n      0x00\n        /* \"#utility.yul\":4345:4346   */\n      dup1\n        /* \"#utility.yul\":4338:4350   */\n      revert\n        /* \"#utility.yul\":4330:4352   */\n    tag_245:\n      pop\n        /* \"#utility.yul\":4397:4399   */\n      0x40\n        /* \"#utility.yul\":4391:4400   */\n      dup1\n      mload\n      swap1\n        /* \"#utility.yul\":4427:4442   */\n      dup2\n      add\n        /* \"#utility.yul\":4472:4490   */\n      0xffffffffffffffff\n        /* \"#utility.yul\":4457:4491   */\n      dup2\n      gt\n        /* \"#utility.yul\":4493:4515   */\n      dup3\n      dup3\n      lt\n        /* \"#utility.yul\":4454:4516   */\n      or\n        /* \"#utility.yul\":4451:4636   */\n      iszero\n      tag_246\n      jumpi\n        /* \"#utility.yul\":4558:4568   */\n      0x4e487b71\n        /* \"#utility.yul\":4553:4556   */\n      0xe0\n        /* \"#utility.yul\":4549:4569   */\n      shl\n        /* \"#utility.yul\":4546:4547   */\n      0x00\n        /* \"#utility.yul\":4539:4570   */\n      mstore\n        /* \"#utility.yul\":4593:4597   */\n      0x41\n        /* \"#utility.yul\":4590:4591   */\n      0x04\n        /* \"#utility.yul\":4583:4598   */\n      mstore\n        /* \"#utility.yul\":4621:4625   */\n      0x24\n        /* \"#utility.yul\":4618:4619   */\n      0x00\n        /* \"#utility.yul\":4611:4626   */\n      revert\n        /* \"#utility.yul\":4451:4636   */\n    tag_246:\n        /* \"#utility.yul\":4652:4654   */\n      0x40\n        /* \"#utility.yul\":4645:4667   */\n      mstore\n        /* \"#utility.yul\":4689:4705   */\n      dup3\n      mload\n        /* \"#utility.yul\":4714:4744   */\n      tag_247\n        /* \"#utility.yul\":4689:4705   */\n      dup2\n        /* \"#utility.yul\":4714:4744   */\n      tag_209\n      jump\t// in\n    tag_247:\n        /* \"#utility.yul\":4753:4774   */\n      dup2\n      mstore\n        /* \"#utility.yul\":4819:4821   */\n      0x20\n        /* \"#utility.yul\":4804:4822   */\n      dup4\n      add\n        /* \"#utility.yul\":4798:4823   */\n      mload\n        /* \"#utility.yul\":4832:4865   */\n      tag_248\n        /* \"#utility.yul\":4798:4823   */\n      dup2\n        /* \"#utility.yul\":4832:4865   */\n      tag_208\n      jump\t// in\n    tag_248:\n        /* \"#utility.yul\":4893:4895   */\n      0x20\n        /* \"#utility.yul\":4881:4896   */\n      dup3\n      add\n        /* \"#utility.yul\":4874:4906   */\n      mstore\n        /* \"#utility.yul\":4885:4891   */\n      swap4\n        /* \"#utility.yul\":4161:4937   */\n      swap3\n      pop\n      pop\n      pop\n      jump\t// out\n        /* \"#utility.yul\":6649:6926   */\n    tag_172:\n        /* \"#utility.yul\":6716:6722   */\n      0x00\n        /* \"#utility.yul\":6769:6771   */\n      0x20\n        /* \"#utility.yul\":6757:6766   */\n      dup3\n        /* \"#utility.yul\":6748:6755   */\n      dup5\n        /* \"#utility.yul\":6744:6767   */\n      sub\n        /* \"#utility.yul\":6740:6772   */\n      slt\n        /* \"#utility.yul\":6737:6789   */\n      iszero\n      tag_255\n      jumpi\n        /* \"#utility.yul\":6785:6786   */\n      0x00\n        /* \"#utility.yul\":6782:6783   */\n      dup1\n        /* \"#utility.yul\":6775:6787   */\n      revert\n        /* \"#utility.yul\":6737:6789   */\n    tag_255:\n        /* \"#utility.yul\":6817:6826   */\n      dup2\n        /* \"#utility.yul\":6811:6827   */\n      mload\n        /* \"#utility.yul\":6870:6875   */\n      dup1\n        /* \"#utility.yul\":6863:6876   */\n      iszero\n        /* \"#utility.yul\":6856:6877   */\n      iszero\n        /* \"#utility.yul\":6849:6854   */\n      dup2\n        /* \"#utility.yul\":6846:6878   */\n      eq\n        /* \"#utility.yul\":6836:6896   */\n      tag_213\n      jumpi\n        /* \"#utility.yul\":6892:6893   */\n      0x00\n        /* \"#utility.yul\":6889:6890   */\n      dup1\n        /* \"#utility.yul\":6882:6894   */\n      revert\n        /* \"#utility.yul\":6931:7153   */\n    tag_177:\n        /* \"#utility.yul\":6996:7005   */\n      dup1\n      dup3\n      add\n        /* \"#utility.yul\":7017:7027   */\n      dup1\n      dup3\n      gt\n        /* \"#utility.yul\":7014:7147   */\n      iszero\n      tag_96\n      jumpi\n        /* \"#utility.yul\":7069:7079   */\n      0x4e487b71\n        /* \"#utility.yul\":7064:7067   */\n      0xe0\n        /* \"#utility.yul\":7060:7080   */\n      shl\n        /* \"#utility.yul\":7057:7058   */\n      0x00\n        /* \"#utility.yul\":7050:7081   */\n      mstore\n        /* \"#utility.yul\":7104:7108   */\n      0x11\n        /* \"#utility.yul\":7101:7102   */\n      0x04\n        /* \"#utility.yul\":7094:7109   */\n      mstore\n        /* \"#utility.yul\":7132:7136   */\n      0x24\n        /* \"#utility.yul\":7129:7130   */\n      0x00\n        /* \"#utility.yul\":7122:7137   */\n      revert\n        /* \"#utility.yul\":7158:7564   */\n    tag_186:\n        /* \"#utility.yul\":7369:7387   */\n      0xffffffffffffffff\n        /* \"#utility.yul\":7361:7367   */\n      dup5\n        /* \"#utility.yul\":7357:7388   */\n      and\n        /* \"#utility.yul\":7346:7355   */\n      dup2\n        /* \"#utility.yul\":7339:7389   */\n      mstore\n        /* \"#utility.yul\":7425:7427   */\n      0x60\n        /* \"#utility.yul\":7420:7422   */\n      0x20\n        /* \"#utility.yul\":7409:7418   */\n      dup3\n        /* \"#utility.yul\":7405:7423   */\n      add\n        /* \"#utility.yul\":7398:7428   */\n      mstore\n        /* \"#utility.yul\":7320:7324   */\n      0x00\n        /* \"#utility.yul\":7445:7490   */\n      tag_260\n        /* \"#utility.yul\":7486:7488   */\n      0x60\n        /* \"#utility.yul\":7475:7484   */\n      dup4\n        /* \"#utility.yul\":7471:7489   */\n      add\n        /* \"#utility.yul\":7463:7469   */\n      dup6\n        /* \"#utility.yul\":7445:7490   */\n      tag_207\n      jump\t// in\n    tag_260:\n        /* \"#utility.yul\":7437:7490   */\n      swap1\n      pop\n        /* \"#utility.yul\":7538:7556   */\n      0xffffffffffffffff\n        /* \"#utility.yul\":7530:7536   */\n      dup4\n        /* \"#utility.yul\":7526:7557   */\n      and\n        /* \"#utility.yul\":7521:7523   */\n      0x40\n        /* \"#utility.yul\":7510:7519   */\n      dup4\n        /* \"#utility.yul\":7506:7524   */\n      add\n        /* \"#utility.yul\":7499:7558   */\n      mstore\n        /* \"#utility.yul\":7158:7564   */\n      swap5\n      swap4\n      pop\n      pop\n      pop\n      pop\n      jump\t// out\n        /* \"#utility.yul\":7569:7753   */\n    tag_190:\n        /* \"#utility.yul\":7639:7645   */\n      0x00\n        /* \"#utility.yul\":7692:7694   */\n      0x20\n        /* \"#utility.yul\":7680:7689   */\n      dup3\n        /* \"#utility.yul\":7671:7678   */\n      dup5\n        /* \"#utility.yul\":7667:7690   */\n      sub\n        /* \"#utility.yul\":7663:7695   */\n      slt\n        /* \"#utility.yul\":7660:7712   */\n      iszero\n      tag_262\n      jumpi\n        /* \"#utility.yul\":7708:7709   */\n      0x00\n        /* \"#utility.yul\":7705:7706   */\n      dup1\n        /* \"#utility.yul\":7698:7710   */\n      revert\n        /* \"#utility.yul\":7660:7712   */\n    tag_262:\n      pop\n        /* \"#utility.yul\":7731:7747   */\n      mload\n      swap2\n        /* \"#utility.yul\":7569:7753   */\n      swap1\n      pop\n      jump\t// out\n        /* \"#utility.yul\":8111:8695   */\n    tag_196:\n        /* \"#utility.yul\":8374:8392   */\n      0xffffffffffffffff\n        /* \"#utility.yul\":8362:8393   */\n      dup7\n      and\n        /* \"#utility.yul\":8344:8394   */\n      dup2\n      mstore\n        /* \"#utility.yul\":8442:8446   */\n      0xff\n        /* \"#utility.yul\":8430:8447   */\n      dup6\n      and\n        /* \"#utility.yul\":8425:8427   */\n      0x20\n        /* \"#utility.yul\":8410:8428   */\n      dup3\n      add\n        /* \"#utility.yul\":8403:8448   */\n      mstore\n      sub(shl(0xa0, 0x01), 0x01)\n        /* \"#utility.yul\":8484:8516   */\n      dup5\n      and\n        /* \"#utility.yul\":8479:8481   */\n      0x40\n        /* \"#utility.yul\":8464:8482   */\n      dup3\n      add\n        /* \"#utility.yul\":8457:8517   */\n      mstore\n        /* \"#utility.yul\":8504:8507   */\n      0xa0\n        /* \"#utility.yul\":8548:8550   */\n      0x60\n        /* \"#utility.yul\":8533:8551   */\n      dup3\n      add\n        /* \"#utility.yul\":8526:8557   */\n      dup2\n      swap1\n      mstore\n      0x00\n      swap1\n        /* \"#utility.yul\":8574:8620   */\n      tag_265\n      swap1\n        /* \"#utility.yul\":8600:8619   */\n      dup4\n      add\n        /* \"#utility.yul\":8592:8598   */\n      dup6\n        /* \"#utility.yul\":8574:8620   */\n      tag_207\n      jump\t// in\n    tag_265:\n        /* \"#utility.yul\":8566:8620   */\n      swap1\n      pop\n        /* \"#utility.yul\":8669:8687   */\n      0xffffffffffffffff\n        /* \"#utility.yul\":8661:8667   */\n      dup4\n        /* \"#utility.yul\":8657:8688   */\n      and\n        /* \"#utility.yul\":8651:8654   */\n      0x80\n        /* \"#utility.yul\":8640:8649   */\n      dup4\n        /* \"#utility.yul\":8636:8655   */\n      add\n        /* \"#utility.yul\":8629:8689   */\n      mstore\n        /* \"#utility.yul\":8111:8695   */\n      swap7\n      swap6\n      pop\n      pop\n      pop\n      pop\n      pop\n      pop\n      jump\t// out\n\n    auxdata: 0xa26469706673582212200c117be31930a09c16a0d20458dc7ecb44ce2b68fb44af9f81cc4ce2578f186364736f6c634300081a0033\n}\n",
				"bytecode": {
					"linkReferences": {},
					"object": "6080604052600780546001600160a01b03191673cb60a0451831e4865bc49f41f9c67665fc9b75c3179055348015610035575f80fd5b5060405161143d38038061143d83398101604081905261005491610423565b600754859085906001600160a01b0316806001610070826100c6565b6100798161016a565b5060059050610088848261054d565b506006610095838261054d565b505050508015156001036100b2576100ad828461020c565b6100bc565b6100bc308461020c565b5050505050610626565b6001600160a01b0381166101165760405162461bcd60e51b8152602060048201526012602482015271584170703a206e6f207a65726f206f6d6e6960701b60448201526064015b60405180910390fd5b5f80546001600160a01b0319166001600160a01b0383169081179091556040519081527f79162c8d053a07e70cdc1ccc536f0440b571f8508377d2bef51094fadab98f47906020015b60405180910390a150565b61017381610244565b6101bf5760405162461bcd60e51b815260206004820152601860248201527f584170703a20696e76616c696420636f6e66206c6576656c0000000000000000604482015260640161010d565b5f805460ff60a01b1916600160a01b60ff8416908102919091179091556040519081527f8de08a798b4e50b4f351c1eaa91a11530043802be3ffac2df87db0c45a2e84839060200161015f565b6001600160a01b0382166102355760405163ec442f0560e01b81525f600482015260240161010d565b6102405f8383610260565b5050565b5f60ff82166001148061025a575060ff82166004145b92915050565b6001600160a01b03831661028a578060045f82825461027f9190610607565b909155506102fa9050565b6001600160a01b0383165f90815260026020526040902054818110156102dc5760405163391434e360e21b81526001600160a01b0385166004820152602481018290526044810183905260640161010d565b6001600160a01b0384165f9081526002602052604090209082900390555b6001600160a01b03821661031657600480548290039055610334565b6001600160a01b0382165f9081526002602052604090208054820190555b816001600160a01b0316836001600160a01b03167fddf252ad1be2c89b69c2b068fc378daa952ba7f163c4a11628f55a4df523b3ef8360405161037991815260200190565b60405180910390a3505050565b634e487b7160e01b5f52604160045260245ffd5b5f82601f8301126103a9575f80fd5b81516001600160401b038111156103c2576103c2610386565b604051601f8201601f19908116603f011681016001600160401b03811182821017156103f0576103f0610386565b604052818152838201602001851015610407575f80fd5b8160208501602083015e5f918101602001919091529392505050565b5f805f805f60a08688031215610437575f80fd5b85516001600160401b0381111561044c575f80fd5b6104588882890161039a565b602088015190965090506001600160401b03811115610475575f80fd5b6104818882890161039a565b60408801516060890151919650945090506001600160a01b03811681146104a6575f80fd5b608087015190925080151581146104bb575f80fd5b809150509295509295909350565b600181811c908216806104dd57607f821691505b6020821081036104fb57634e487b7160e01b5f52602260045260245ffd5b50919050565b601f82111561054857805f5260205f20601f840160051c810160208510156105265750805b601f840160051c820191505b81811015610545575f8155600101610532565b50505b505050565b81516001600160401b0381111561056657610566610386565b61057a8161057484546104c9565b84610501565b6020601f8211600181146105ac575f83156105955750848201515b5f19600385901b1c1916600184901b178455610545565b5f84815260208120601f198516915b828110156105db57878501518255602094850194600190920191016105bb565b50848210156105f857868401515f19600387901b60f8161c191681555b50505050600190811b01905550565b8082018082111561025a57634e487b7160e01b5f52601160045260245ffd5b610e0a806106335f395ff3fe6080604052600436106100d9575f3560e01c80634a536a061161007c57806395d89b411161005757806395d89b411461025d578063a9059cbb14610271578063bdb3c8e614610290578063dd62ed3e146102a3575f80fd5b80634a536a06146101eb57806370a082311461020a57806374eeb8471461023e575f80fd5b806323b872dd116100b757806323b872dd14610154578063313ce5671461017357806339acf9f11461019457806340c10f19146101ca575f80fd5b806306fdde03146100dd578063095ea7b31461010757806318160ddd14610136575b5f80fd5b3480156100e8575f80fd5b506100f16102e7565b6040516100fe9190610afb565b60405180910390f35b348015610112575f80fd5b50610126610121366004610b2b565b610377565b60405190151581526020016100fe565b348015610141575f80fd5b506004545b6040519081526020016100fe565b34801561015f575f80fd5b5061012661016e366004610b55565b610390565b34801561017e575f80fd5b5060125b60405160ff90911681526020016100fe565b34801561019f575f80fd5b505f546101b2906001600160a01b031681565b6040516001600160a01b0390911681526020016100fe565b3480156101d5575f80fd5b506101e96101e4366004610b2b565b6103b3565b005b3480156101f6575f80fd5b506101e9610205366004610b55565b6103c1565b348015610215575f80fd5b50610146610224366004610b93565b6001600160a01b03165f9081526002602052604090205490565b348015610249575f80fd5b505f5461018290600160a01b900460ff1681565b348015610268575f80fd5b506100f16104fd565b34801561027c575f80fd5b5061012661028b366004610b2b565b61050c565b6101e961029e366004610bc3565b610519565b3480156102ae575f80fd5b506101466102bd366004610c11565b6001600160a01b039182165f90815260036020908152604080832093909416825291909152205490565b6060600580546102f690610c48565b80601f016020809104026020016040519081016040528092919081815260200182805461032290610c48565b801561036d5780601f106103445761010080835404028352916020019161036d565b820191905f5260205f20905b81548152906001019060200180831161035057829003601f168201915b5050505050905090565b5f336103848185856105e0565b60019150505b92915050565b5f3361039d8582856105f2565b6103a885858561066d565b506001949350505050565b6103bd82826106ca565b5050565b5f5460408051631799380760e11b815281516001600160a01b0390931692632f32700e926004808401939192918290030181865afa158015610405573d5f803e3d5ffd5b505050506040513d601f19601f820116820180604052508101906104299190610c80565b8051600180546020909301516001600160a01b031668010000000000000000026001600160e01b031990931667ffffffffffffffff909216919091179190911790556104736106fe565b6104dd5760405162461bcd60e51b815260206004820152603060248201527f4f6d6e6945524332303a204f6e6c792063616c6c61626c65207669612063726f60448201526f73732d636861696e206d65737361676560801b60648201526084015b60405180910390fd5b6104e883838361078c565b5050600180546001600160e01b031916905550565b6060600680546102f690610c48565b5f3361038481858561066d565b3361052581308461066d565b6040513060248201526001600160a01b0384166044820152606481018390525f9060840160408051601f198184030181529190526020810180516001600160e01b0316632529b50360e11b17905290505f610585878784620249f06108b2565b9050803410156105d75760405162461bcd60e51b815260206004820152601b60248201527f4f6d6e6945524332303a20496e73756666696369656e7420666565000000000060448201526064016104d4565b50505050505050565b6105ed83838360016109fb565b505050565b6001600160a01b038381165f908152600360209081526040808320938616835292905220545f198114610667578181101561065957604051637dc7a0d960e11b81526001600160a01b038416600482015260248101829052604481018390526064016104d4565b61066784848484035f6109fb565b50505050565b6001600160a01b03831661069657604051634b637e8f60e11b81525f60048201526024016104d4565b6001600160a01b0382166106bf5760405163ec442f0560e01b81525f60048201526024016104d4565b6105ed83838361078c565b6001600160a01b0382166106f35760405163ec442f0560e01b81525f60048201526024016104d4565b6103bd5f838361078c565b5f805f9054906101000a90046001600160a01b03166001600160a01b03166355e2448e6040518163ffffffff1660e01b8152600401602060405180830381865afa15801561074e573d5f803e3d5ffd5b505050506040513d601f19601f820116820180604052508101906107729190610ceb565b801561078757505f546001600160a01b031633145b905090565b6001600160a01b0383166107b6578060045f8282546107ab9190610d0a565b909155506108269050565b6001600160a01b0383165f90815260026020526040902054818110156108085760405163391434e360e21b81526001600160a01b038516600482015260248101829052604481018390526064016104d4565b6001600160a01b0384165f9081526002602052604090209082900390555b6001600160a01b03821661084257600480548290039055610860565b6001600160a01b0382165f9081526002602052604090208054820190555b816001600160a01b0316836001600160a01b03167fddf252ad1be2c89b69c2b068fc378daa952ba7f163c4a11628f55a4df523b3ef836040516108a591815260200190565b60405180910390a3505050565b5f8054604051632376548f60e21b815282916001600160a01b031690638dd9523c906108e690899088908890600401610d29565b602060405180830381865afa158015610901573d5f803e3d5ffd5b505050506040513d601f19601f820116820180604052508101906109259190610d65565b905080471015806109365750803410155b6109825760405162461bcd60e51b815260206004820152601860248201527f584170703a20696e73756666696369656e742066756e6473000000000000000060448201526064016104d4565b5f5460405163c21dda4f60e01b81526001600160a01b0382169163c21dda4f9184916109c3918b91600160a01b900460ff16908b908b908b90600401610d7c565b5f604051808303818588803b1580156109da575f80fd5b505af11580156109ec573d5f803e3d5ffd5b50939998505050505050505050565b6001600160a01b038416610a245760405163e602df0560e01b81525f60048201526024016104d4565b6001600160a01b038316610a4d57604051634a1406b160e11b81525f60048201526024016104d4565b6001600160a01b038085165f908152600360209081526040808320938716835292905220829055801561066757826001600160a01b0316846001600160a01b03167f8c5be1e5ebec7d5bd14f71427d1e84f3dd0314c0f7b2291e5b200ac8c7c3b92584604051610abf91815260200190565b60405180910390a350505050565b5f81518084528060208401602086015e5f602082860101526020601f19601f83011685010191505092915050565b602081525f610b0d6020830184610acd565b9392505050565b6001600160a01b0381168114610b28575f80fd5b50565b5f8060408385031215610b3c575f80fd5b8235610b4781610b14565b946020939093013593505050565b5f805f60608486031215610b67575f80fd5b8335610b7281610b14565b92506020840135610b8281610b14565b929592945050506040919091013590565b5f60208284031215610ba3575f80fd5b8135610b0d81610b14565b67ffffffffffffffff81168114610b28575f80fd5b5f805f8060808587031215610bd6575f80fd5b8435610be181610bae565b93506020850135610bf181610b14565b92506040850135610c0181610b14565b9396929550929360600135925050565b5f8060408385031215610c22575f80fd5b8235610c2d81610b14565b91506020830135610c3d81610b14565b809150509250929050565b600181811c90821680610c5c57607f821691505b602082108103610c7a57634e487b7160e01b5f52602260045260245ffd5b50919050565b5f6040828403128015610c91575f80fd5b506040805190810167ffffffffffffffff81118282101715610cc157634e487b7160e01b5f52604160045260245ffd5b6040528251610ccf81610bae565b81526020830151610cdf81610b14565b60208201529392505050565b5f60208284031215610cfb575f80fd5b81518015158114610b0d575f80fd5b8082018082111561038a57634e487b7160e01b5f52601160045260245ffd5b67ffffffffffffffff84168152606060208201525f610d4b6060830185610acd565b905067ffffffffffffffff83166040830152949350505050565b5f60208284031215610d75575f80fd5b5051919050565b67ffffffffffffffff8616815260ff851660208201526001600160a01b038416604082015260a0606082018190525f90610db890830185610acd565b905067ffffffffffffffff83166080830152969550505050505056fea26469706673582212200c117be31930a09c16a0d20458dc7ecb44ce2b68fb44af9f81cc4ce2578f186364736f6c634300081a0033",
					"opcodes": "PUSH1 0x80 PUSH1 0x40 MSTORE PUSH1 0x7 DUP1 SLOAD PUSH1 0x1 PUSH1 0x1 PUSH1 0xA0 SHL SUB NOT AND PUSH20 0xCB60A0451831E4865BC49F41F9C67665FC9B75C3 OR SWAP1 SSTORE CALLVALUE DUP1 ISZERO PUSH2 0x35 JUMPI PUSH0 DUP1 REVERT JUMPDEST POP PUSH1 0x40 MLOAD PUSH2 0x143D CODESIZE SUB DUP1 PUSH2 0x143D DUP4 CODECOPY DUP2 ADD PUSH1 0x40 DUP2 SWAP1 MSTORE PUSH2 0x54 SWAP2 PUSH2 0x423 JUMP JUMPDEST PUSH1 0x7 SLOAD DUP6 SWAP1 DUP6 SWAP1 PUSH1 0x1 PUSH1 0x1 PUSH1 0xA0 SHL SUB AND DUP1 PUSH1 0x1 PUSH2 0x70 DUP3 PUSH2 0xC6 JUMP JUMPDEST PUSH2 0x79 DUP2 PUSH2 0x16A JUMP JUMPDEST POP PUSH1 0x5 SWAP1 POP PUSH2 0x88 DUP5 DUP3 PUSH2 0x54D JUMP JUMPDEST POP PUSH1 0x6 PUSH2 0x95 DUP4 DUP3 PUSH2 0x54D JUMP JUMPDEST POP POP POP POP DUP1 ISZERO ISZERO PUSH1 0x1 SUB PUSH2 0xB2 JUMPI PUSH2 0xAD DUP3 DUP5 PUSH2 0x20C JUMP JUMPDEST PUSH2 0xBC JUMP JUMPDEST PUSH2 0xBC ADDRESS DUP5 PUSH2 0x20C JUMP JUMPDEST POP POP POP POP POP PUSH2 0x626 JUMP JUMPDEST PUSH1 0x1 PUSH1 0x1 PUSH1 0xA0 SHL SUB DUP2 AND PUSH2 0x116 JUMPI PUSH1 0x40 MLOAD PUSH3 0x461BCD PUSH1 0xE5 SHL DUP2 MSTORE PUSH1 0x20 PUSH1 0x4 DUP3 ADD MSTORE PUSH1 0x12 PUSH1 0x24 DUP3 ADD MSTORE PUSH18 0x584170703A206E6F207A65726F206F6D6E69 PUSH1 0x70 SHL PUSH1 0x44 DUP3 ADD MSTORE PUSH1 0x64 ADD JUMPDEST PUSH1 0x40 MLOAD DUP1 SWAP2 SUB SWAP1 REVERT JUMPDEST PUSH0 DUP1 SLOAD PUSH1 0x1 PUSH1 0x1 PUSH1 0xA0 SHL SUB NOT AND PUSH1 0x1 PUSH1 0x1 PUSH1 0xA0 SHL SUB DUP4 AND SWAP1 DUP2 OR SWAP1 SWAP2 SSTORE PUSH1 0x40 MLOAD SWAP1 DUP2 MSTORE PUSH32 0x79162C8D053A07E70CDC1CCC536F0440B571F8508377D2BEF51094FADAB98F47 SWAP1 PUSH1 0x20 ADD JUMPDEST PUSH1 0x40 MLOAD DUP1 SWAP2 SUB SWAP1 LOG1 POP JUMP JUMPDEST PUSH2 0x173 DUP2 PUSH2 0x244 JUMP JUMPDEST PUSH2 0x1BF JUMPI PUSH1 0x40 MLOAD PUSH3 0x461BCD PUSH1 0xE5 SHL DUP2 MSTORE PUSH1 0x20 PUSH1 0x4 DUP3 ADD MSTORE PUSH1 0x18 PUSH1 0x24 DUP3 ADD MSTORE PUSH32 0x584170703A20696E76616C696420636F6E66206C6576656C0000000000000000 PUSH1 0x44 DUP3 ADD MSTORE PUSH1 0x64 ADD PUSH2 0x10D JUMP JUMPDEST PUSH0 DUP1 SLOAD PUSH1 0xFF PUSH1 0xA0 SHL NOT AND PUSH1 0x1 PUSH1 0xA0 SHL PUSH1 0xFF DUP5 AND SWAP1 DUP2 MUL SWAP2 SWAP1 SWAP2 OR SWAP1 SWAP2 SSTORE PUSH1 0x40 MLOAD SWAP1 DUP2 MSTORE PUSH32 0x8DE08A798B4E50B4F351C1EAA91A11530043802BE3FFAC2DF87DB0C45A2E8483 SWAP1 PUSH1 0x20 ADD PUSH2 0x15F JUMP JUMPDEST PUSH1 0x1 PUSH1 0x1 PUSH1 0xA0 SHL SUB DUP3 AND PUSH2 0x235 JUMPI PUSH1 0x40 MLOAD PUSH4 0xEC442F05 PUSH1 0xE0 SHL DUP2 MSTORE PUSH0 PUSH1 0x4 DUP3 ADD MSTORE PUSH1 0x24 ADD PUSH2 0x10D JUMP JUMPDEST PUSH2 0x240 PUSH0 DUP4 DUP4 PUSH2 0x260 JUMP JUMPDEST POP POP JUMP JUMPDEST PUSH0 PUSH1 0xFF DUP3 AND PUSH1 0x1 EQ DUP1 PUSH2 0x25A JUMPI POP PUSH1 0xFF DUP3 AND PUSH1 0x4 EQ JUMPDEST SWAP3 SWAP2 POP POP JUMP JUMPDEST PUSH1 0x1 PUSH1 0x1 PUSH1 0xA0 SHL SUB DUP4 AND PUSH2 0x28A JUMPI DUP1 PUSH1 0x4 PUSH0 DUP3 DUP3 SLOAD PUSH2 0x27F SWAP2 SWAP1 PUSH2 0x607 JUMP JUMPDEST SWAP1 SWAP2 SSTORE POP PUSH2 0x2FA SWAP1 POP JUMP JUMPDEST PUSH1 0x1 PUSH1 0x1 PUSH1 0xA0 SHL SUB DUP4 AND PUSH0 SWAP1 DUP2 MSTORE PUSH1 0x2 PUSH1 0x20 MSTORE PUSH1 0x40 SWAP1 KECCAK256 SLOAD DUP2 DUP2 LT ISZERO PUSH2 0x2DC JUMPI PUSH1 0x40 MLOAD PUSH4 0x391434E3 PUSH1 0xE2 SHL DUP2 MSTORE PUSH1 0x1 PUSH1 0x1 PUSH1 0xA0 SHL SUB DUP6 AND PUSH1 0x4 DUP3 ADD MSTORE PUSH1 0x24 DUP2 ADD DUP3 SWAP1 MSTORE PUSH1 0x44 DUP2 ADD DUP4 SWAP1 MSTORE PUSH1 0x64 ADD PUSH2 0x10D JUMP JUMPDEST PUSH1 0x1 PUSH1 0x1 PUSH1 0xA0 SHL SUB DUP5 AND PUSH0 SWAP1 DUP2 MSTORE PUSH1 0x2 PUSH1 0x20 MSTORE PUSH1 0x40 SWAP1 KECCAK256 SWAP1 DUP3 SWAP1 SUB SWAP1 SSTORE JUMPDEST PUSH1 0x1 PUSH1 0x1 PUSH1 0xA0 SHL SUB DUP3 AND PUSH2 0x316 JUMPI PUSH1 0x4 DUP1 SLOAD DUP3 SWAP1 SUB SWAP1 SSTORE PUSH2 0x334 JUMP JUMPDEST PUSH1 0x1 PUSH1 0x1 PUSH1 0xA0 SHL SUB DUP3 AND PUSH0 SWAP1 DUP2 MSTORE PUSH1 0x2 PUSH1 0x20 MSTORE PUSH1 0x40 SWAP1 KECCAK256 DUP1 SLOAD DUP3 ADD SWAP1 SSTORE JUMPDEST DUP2 PUSH1 0x1 PUSH1 0x1 PUSH1 0xA0 SHL SUB AND DUP4 PUSH1 0x1 PUSH1 0x1 PUSH1 0xA0 SHL SUB AND PUSH32 0xDDF252AD1BE2C89B69C2B068FC378DAA952BA7F163C4A11628F55A4DF523B3EF DUP4 PUSH1 0x40 MLOAD PUSH2 0x379 SWAP2 DUP2 MSTORE PUSH1 0x20 ADD SWAP1 JUMP JUMPDEST PUSH1 0x40 MLOAD DUP1 SWAP2 SUB SWAP1 LOG3 POP POP POP JUMP JUMPDEST PUSH4 0x4E487B71 PUSH1 0xE0 SHL PUSH0 MSTORE PUSH1 0x41 PUSH1 0x4 MSTORE PUSH1 0x24 PUSH0 REVERT JUMPDEST PUSH0 DUP3 PUSH1 0x1F DUP4 ADD SLT PUSH2 0x3A9 JUMPI PUSH0 DUP1 REVERT JUMPDEST DUP2 MLOAD PUSH1 0x1 PUSH1 0x1 PUSH1 0x40 SHL SUB DUP2 GT ISZERO PUSH2 0x3C2 JUMPI PUSH2 0x3C2 PUSH2 0x386 JUMP JUMPDEST PUSH1 0x40 MLOAD PUSH1 0x1F DUP3 ADD PUSH1 0x1F NOT SWAP1 DUP2 AND PUSH1 0x3F ADD AND DUP2 ADD PUSH1 0x1 PUSH1 0x1 PUSH1 0x40 SHL SUB DUP2 GT DUP3 DUP3 LT OR ISZERO PUSH2 0x3F0 JUMPI PUSH2 0x3F0 PUSH2 0x386 JUMP JUMPDEST PUSH1 0x40 MSTORE DUP2 DUP2 MSTORE DUP4 DUP3 ADD PUSH1 0x20 ADD DUP6 LT ISZERO PUSH2 0x407 JUMPI PUSH0 DUP1 REVERT JUMPDEST DUP2 PUSH1 0x20 DUP6 ADD PUSH1 0x20 DUP4 ADD MCOPY PUSH0 SWAP2 DUP2 ADD PUSH1 0x20 ADD SWAP2 SWAP1 SWAP2 MSTORE SWAP4 SWAP3 POP POP POP JUMP JUMPDEST PUSH0 DUP1 PUSH0 DUP1 PUSH0 PUSH1 0xA0 DUP7 DUP9 SUB SLT ISZERO PUSH2 0x437 JUMPI PUSH0 DUP1 REVERT JUMPDEST DUP6 MLOAD PUSH1 0x1 PUSH1 0x1 PUSH1 0x40 SHL SUB DUP2 GT ISZERO PUSH2 0x44C JUMPI PUSH0 DUP1 REVERT JUMPDEST PUSH2 0x458 DUP9 DUP3 DUP10 ADD PUSH2 0x39A JUMP JUMPDEST PUSH1 0x20 DUP9 ADD MLOAD SWAP1 SWAP7 POP SWAP1 POP PUSH1 0x1 PUSH1 0x1 PUSH1 0x40 SHL SUB DUP2 GT ISZERO PUSH2 0x475 JUMPI PUSH0 DUP1 REVERT JUMPDEST PUSH2 0x481 DUP9 DUP3 DUP10 ADD PUSH2 0x39A JUMP JUMPDEST PUSH1 0x40 DUP9 ADD MLOAD PUSH1 0x60 DUP10 ADD MLOAD SWAP2 SWAP7 POP SWAP5 POP SWAP1 POP PUSH1 0x1 PUSH1 0x1 PUSH1 0xA0 SHL SUB DUP2 AND DUP2 EQ PUSH2 0x4A6 JUMPI PUSH0 DUP1 REVERT JUMPDEST PUSH1 0x80 DUP8 ADD MLOAD SWAP1 SWAP3 POP DUP1 ISZERO ISZERO DUP2 EQ PUSH2 0x4BB JUMPI PUSH0 DUP1 REVERT JUMPDEST DUP1 SWAP2 POP POP SWAP3 SWAP6 POP SWAP3 SWAP6 SWAP1 SWAP4 POP JUMP JUMPDEST PUSH1 0x1 DUP2 DUP2 SHR SWAP1 DUP3 AND DUP1 PUSH2 0x4DD JUMPI PUSH1 0x7F DUP3 AND SWAP2 POP JUMPDEST PUSH1 0x20 DUP3 LT DUP2 SUB PUSH2 0x4FB JUMPI PUSH4 0x4E487B71 PUSH1 0xE0 SHL PUSH0 MSTORE PUSH1 0x22 PUSH1 0x4 MSTORE PUSH1 0x24 PUSH0 REVERT JUMPDEST POP SWAP2 SWAP1 POP JUMP JUMPDEST PUSH1 0x1F DUP3 GT ISZERO PUSH2 0x548 JUMPI DUP1 PUSH0 MSTORE PUSH1 0x20 PUSH0 KECCAK256 PUSH1 0x1F DUP5 ADD PUSH1 0x5 SHR DUP2 ADD PUSH1 0x20 DUP6 LT ISZERO PUSH2 0x526 JUMPI POP DUP1 JUMPDEST PUSH1 0x1F DUP5 ADD PUSH1 0x5 SHR DUP3 ADD SWAP2 POP JUMPDEST DUP2 DUP2 LT ISZERO PUSH2 0x545 JUMPI PUSH0 DUP2 SSTORE PUSH1 0x1 ADD PUSH2 0x532 JUMP JUMPDEST POP POP JUMPDEST POP POP POP JUMP JUMPDEST DUP2 MLOAD PUSH1 0x1 PUSH1 0x1 PUSH1 0x40 SHL SUB DUP2 GT ISZERO PUSH2 0x566 JUMPI PUSH2 0x566 PUSH2 0x386 JUMP JUMPDEST PUSH2 0x57A DUP2 PUSH2 0x574 DUP5 SLOAD PUSH2 0x4C9 JUMP JUMPDEST DUP5 PUSH2 0x501 JUMP JUMPDEST PUSH1 0x20 PUSH1 0x1F DUP3 GT PUSH1 0x1 DUP2 EQ PUSH2 0x5AC JUMPI PUSH0 DUP4 ISZERO PUSH2 0x595 JUMPI POP DUP5 DUP3 ADD MLOAD JUMPDEST PUSH0 NOT PUSH1 0x3 DUP6 SWAP1 SHL SHR NOT AND PUSH1 0x1 DUP5 SWAP1 SHL OR DUP5 SSTORE PUSH2 0x545 JUMP JUMPDEST PUSH0 DUP5 DUP2 MSTORE PUSH1 0x20 DUP2 KECCAK256 PUSH1 0x1F NOT DUP6 AND SWAP2 JUMPDEST DUP3 DUP2 LT ISZERO PUSH2 0x5DB JUMPI DUP8 DUP6 ADD MLOAD DUP3 SSTORE PUSH1 0x20 SWAP5 DUP6 ADD SWAP5 PUSH1 0x1 SWAP1 SWAP3 ADD SWAP2 ADD PUSH2 0x5BB JUMP JUMPDEST POP DUP5 DUP3 LT ISZERO PUSH2 0x5F8 JUMPI DUP7 DUP5 ADD MLOAD PUSH0 NOT PUSH1 0x3 DUP8 SWAP1 SHL PUSH1 0xF8 AND SHR NOT AND DUP2 SSTORE JUMPDEST POP POP POP POP PUSH1 0x1 SWAP1 DUP2 SHL ADD SWAP1 SSTORE POP JUMP JUMPDEST DUP1 DUP3 ADD DUP1 DUP3 GT ISZERO PUSH2 0x25A JUMPI PUSH4 0x4E487B71 PUSH1 0xE0 SHL PUSH0 MSTORE PUSH1 0x11 PUSH1 0x4 MSTORE PUSH1 0x24 PUSH0 REVERT JUMPDEST PUSH2 0xE0A DUP1 PUSH2 0x633 PUSH0 CODECOPY PUSH0 RETURN INVALID PUSH1 0x80 PUSH1 0x40 MSTORE PUSH1 0x4 CALLDATASIZE LT PUSH2 0xD9 JUMPI PUSH0 CALLDATALOAD PUSH1 0xE0 SHR DUP1 PUSH4 0x4A536A06 GT PUSH2 0x7C JUMPI DUP1 PUSH4 0x95D89B41 GT PUSH2 0x57 JUMPI DUP1 PUSH4 0x95D89B41 EQ PUSH2 0x25D JUMPI DUP1 PUSH4 0xA9059CBB EQ PUSH2 0x271 JUMPI DUP1 PUSH4 0xBDB3C8E6 EQ PUSH2 0x290 JUMPI DUP1 PUSH4 0xDD62ED3E EQ PUSH2 0x2A3 JUMPI PUSH0 DUP1 REVERT JUMPDEST DUP1 PUSH4 0x4A536A06 EQ PUSH2 0x1EB JUMPI DUP1 PUSH4 0x70A08231 EQ PUSH2 0x20A JUMPI DUP1 PUSH4 0x74EEB847 EQ PUSH2 0x23E JUMPI PUSH0 DUP1 REVERT JUMPDEST DUP1 PUSH4 0x23B872DD GT PUSH2 0xB7 JUMPI DUP1 PUSH4 0x23B872DD EQ PUSH2 0x154 JUMPI DUP1 PUSH4 0x313CE567 EQ PUSH2 0x173 JUMPI DUP1 PUSH4 0x39ACF9F1 EQ PUSH2 0x194 JUMPI DUP1 PUSH4 0x40C10F19 EQ PUSH2 0x1CA JUMPI PUSH0 DUP1 REVERT JUMPDEST DUP1 PUSH4 0x6FDDE03 EQ PUSH2 0xDD JUMPI DUP1 PUSH4 0x95EA7B3 EQ PUSH2 0x107 JUMPI DUP1 PUSH4 0x18160DDD EQ PUSH2 0x136 JUMPI JUMPDEST PUSH0 DUP1 REVERT JUMPDEST CALLVALUE DUP1 ISZERO PUSH2 0xE8 JUMPI PUSH0 DUP1 REVERT JUMPDEST POP PUSH2 0xF1 PUSH2 0x2E7 JUMP JUMPDEST PUSH1 0x40 MLOAD PUSH2 0xFE SWAP2 SWAP1 PUSH2 0xAFB JUMP JUMPDEST PUSH1 0x40 MLOAD DUP1 SWAP2 SUB SWAP1 RETURN JUMPDEST CALLVALUE DUP1 ISZERO PUSH2 0x112 JUMPI PUSH0 DUP1 REVERT JUMPDEST POP PUSH2 0x126 PUSH2 0x121 CALLDATASIZE PUSH1 0x4 PUSH2 0xB2B JUMP JUMPDEST PUSH2 0x377 JUMP JUMPDEST PUSH1 0x40 MLOAD SWAP1 ISZERO ISZERO DUP2 MSTORE PUSH1 0x20 ADD PUSH2 0xFE JUMP JUMPDEST CALLVALUE DUP1 ISZERO PUSH2 0x141 JUMPI PUSH0 DUP1 REVERT JUMPDEST POP PUSH1 0x4 SLOAD JUMPDEST PUSH1 0x40 MLOAD SWAP1 DUP2 MSTORE PUSH1 0x20 ADD PUSH2 0xFE JUMP JUMPDEST CALLVALUE DUP1 ISZERO PUSH2 0x15F JUMPI PUSH0 DUP1 REVERT JUMPDEST POP PUSH2 0x126 PUSH2 0x16E CALLDATASIZE PUSH1 0x4 PUSH2 0xB55 JUMP JUMPDEST PUSH2 0x390 JUMP JUMPDEST CALLVALUE DUP1 ISZERO PUSH2 0x17E JUMPI PUSH0 DUP1 REVERT JUMPDEST POP PUSH1 0x12 JUMPDEST PUSH1 0x40 MLOAD PUSH1 0xFF SWAP1 SWAP2 AND DUP2 MSTORE PUSH1 0x20 ADD PUSH2 0xFE JUMP JUMPDEST CALLVALUE DUP1 ISZERO PUSH2 0x19F JUMPI PUSH0 DUP1 REVERT JUMPDEST POP PUSH0 SLOAD PUSH2 0x1B2 SWAP1 PUSH1 0x1 PUSH1 0x1 PUSH1 0xA0 SHL SUB AND DUP2 JUMP JUMPDEST PUSH1 0x40 MLOAD PUSH1 0x1 PUSH1 0x1 PUSH1 0xA0 SHL SUB SWAP1 SWAP2 AND DUP2 MSTORE PUSH1 0x20 ADD PUSH2 0xFE JUMP JUMPDEST CALLVALUE DUP1 ISZERO PUSH2 0x1D5 JUMPI PUSH0 DUP1 REVERT JUMPDEST POP PUSH2 0x1E9 PUSH2 0x1E4 CALLDATASIZE PUSH1 0x4 PUSH2 0xB2B JUMP JUMPDEST PUSH2 0x3B3 JUMP JUMPDEST STOP JUMPDEST CALLVALUE DUP1 ISZERO PUSH2 0x1F6 JUMPI PUSH0 DUP1 REVERT JUMPDEST POP PUSH2 0x1E9 PUSH2 0x205 CALLDATASIZE PUSH1 0x4 PUSH2 0xB55 JUMP JUMPDEST PUSH2 0x3C1 JUMP JUMPDEST CALLVALUE DUP1 ISZERO PUSH2 0x215 JUMPI PUSH0 DUP1 REVERT JUMPDEST POP PUSH2 0x146 PUSH2 0x224 CALLDATASIZE PUSH1 0x4 PUSH2 0xB93 JUMP JUMPDEST PUSH1 0x1 PUSH1 0x1 PUSH1 0xA0 SHL SUB AND PUSH0 SWAP1 DUP2 MSTORE PUSH1 0x2 PUSH1 0x20 MSTORE PUSH1 0x40 SWAP1 KECCAK256 SLOAD SWAP1 JUMP JUMPDEST CALLVALUE DUP1 ISZERO PUSH2 0x249 JUMPI PUSH0 DUP1 REVERT JUMPDEST POP PUSH0 SLOAD PUSH2 0x182 SWAP1 PUSH1 0x1 PUSH1 0xA0 SHL SWAP1 DIV PUSH1 0xFF AND DUP2 JUMP JUMPDEST CALLVALUE DUP1 ISZERO PUSH2 0x268 JUMPI PUSH0 DUP1 REVERT JUMPDEST POP PUSH2 0xF1 PUSH2 0x4FD JUMP JUMPDEST CALLVALUE DUP1 ISZERO PUSH2 0x27C JUMPI PUSH0 DUP1 REVERT JUMPDEST POP PUSH2 0x126 PUSH2 0x28B CALLDATASIZE PUSH1 0x4 PUSH2 0xB2B JUMP JUMPDEST PUSH2 0x50C JUMP JUMPDEST PUSH2 0x1E9 PUSH2 0x29E CALLDATASIZE PUSH1 0x4 PUSH2 0xBC3 JUMP JUMPDEST PUSH2 0x519 JUMP JUMPDEST CALLVALUE DUP1 ISZERO PUSH2 0x2AE JUMPI PUSH0 DUP1 REVERT JUMPDEST POP PUSH2 0x146 PUSH2 0x2BD CALLDATASIZE PUSH1 0x4 PUSH2 0xC11 JUMP JUMPDEST PUSH1 0x1 PUSH1 0x1 PUSH1 0xA0 SHL SUB SWAP2 DUP3 AND PUSH0 SWAP1 DUP2 MSTORE PUSH1 0x3 PUSH1 0x20 SWAP1 DUP2 MSTORE PUSH1 0x40 DUP1 DUP4 KECCAK256 SWAP4 SWAP1 SWAP5 AND DUP3 MSTORE SWAP2 SWAP1 SWAP2 MSTORE KECCAK256 SLOAD SWAP1 JUMP JUMPDEST PUSH1 0x60 PUSH1 0x5 DUP1 SLOAD PUSH2 0x2F6 SWAP1 PUSH2 0xC48 JUMP JUMPDEST DUP1 PUSH1 0x1F ADD PUSH1 0x20 DUP1 SWAP2 DIV MUL PUSH1 0x20 ADD PUSH1 0x40 MLOAD SWAP1 DUP2 ADD PUSH1 0x40 MSTORE DUP1 SWAP3 SWAP2 SWAP1 DUP2 DUP2 MSTORE PUSH1 0x20 ADD DUP3 DUP1 SLOAD PUSH2 0x322 SWAP1 PUSH2 0xC48 JUMP JUMPDEST DUP1 ISZERO PUSH2 0x36D JUMPI DUP1 PUSH1 0x1F LT PUSH2 0x344 JUMPI PUSH2 0x100 DUP1 DUP4 SLOAD DIV MUL DUP4 MSTORE SWAP2 PUSH1 0x20 ADD SWAP2 PUSH2 0x36D JUMP JUMPDEST DUP3 ADD SWAP2 SWAP1 PUSH0 MSTORE PUSH1 0x20 PUSH0 KECCAK256 SWAP1 JUMPDEST DUP2 SLOAD DUP2 MSTORE SWAP1 PUSH1 0x1 ADD SWAP1 PUSH1 0x20 ADD DUP1 DUP4 GT PUSH2 0x350 JUMPI DUP3 SWAP1 SUB PUSH1 0x1F AND DUP3 ADD SWAP2 JUMPDEST POP POP POP POP POP SWAP1 POP SWAP1 JUMP JUMPDEST PUSH0 CALLER PUSH2 0x384 DUP2 DUP6 DUP6 PUSH2 0x5E0 JUMP JUMPDEST PUSH1 0x1 SWAP2 POP POP JUMPDEST SWAP3 SWAP2 POP POP JUMP JUMPDEST PUSH0 CALLER PUSH2 0x39D DUP6 DUP3 DUP6 PUSH2 0x5F2 JUMP JUMPDEST PUSH2 0x3A8 DUP6 DUP6 DUP6 PUSH2 0x66D JUMP JUMPDEST POP PUSH1 0x1 SWAP5 SWAP4 POP POP POP POP JUMP JUMPDEST PUSH2 0x3BD DUP3 DUP3 PUSH2 0x6CA JUMP JUMPDEST POP POP JUMP JUMPDEST PUSH0 SLOAD PUSH1 0x40 DUP1 MLOAD PUSH4 0x17993807 PUSH1 0xE1 SHL DUP2 MSTORE DUP2 MLOAD PUSH1 0x1 PUSH1 0x1 PUSH1 0xA0 SHL SUB SWAP1 SWAP4 AND SWAP3 PUSH4 0x2F32700E SWAP3 PUSH1 0x4 DUP1 DUP5 ADD SWAP4 SWAP2 SWAP3 SWAP2 DUP3 SWAP1 SUB ADD DUP2 DUP7 GAS STATICCALL ISZERO DUP1 ISZERO PUSH2 0x405 JUMPI RETURNDATASIZE PUSH0 DUP1 RETURNDATACOPY RETURNDATASIZE PUSH0 REVERT JUMPDEST POP POP POP POP PUSH1 0x40 MLOAD RETURNDATASIZE PUSH1 0x1F NOT PUSH1 0x1F DUP3 ADD AND DUP3 ADD DUP1 PUSH1 0x40 MSTORE POP DUP2 ADD SWAP1 PUSH2 0x429 SWAP2 SWAP1 PUSH2 0xC80 JUMP JUMPDEST DUP1 MLOAD PUSH1 0x1 DUP1 SLOAD PUSH1 0x20 SWAP1 SWAP4 ADD MLOAD PUSH1 0x1 PUSH1 0x1 PUSH1 0xA0 SHL SUB AND PUSH9 0x10000000000000000 MUL PUSH1 0x1 PUSH1 0x1 PUSH1 0xE0 SHL SUB NOT SWAP1 SWAP4 AND PUSH8 0xFFFFFFFFFFFFFFFF SWAP1 SWAP3 AND SWAP2 SWAP1 SWAP2 OR SWAP2 SWAP1 SWAP2 OR SWAP1 SSTORE PUSH2 0x473 PUSH2 0x6FE JUMP JUMPDEST PUSH2 0x4DD JUMPI PUSH1 0x40 MLOAD PUSH3 0x461BCD PUSH1 0xE5 SHL DUP2 MSTORE PUSH1 0x20 PUSH1 0x4 DUP3 ADD MSTORE PUSH1 0x30 PUSH1 0x24 DUP3 ADD MSTORE PUSH32 0x4F6D6E6945524332303A204F6E6C792063616C6C61626C65207669612063726F PUSH1 0x44 DUP3 ADD MSTORE PUSH16 0x73732D636861696E206D657373616765 PUSH1 0x80 SHL PUSH1 0x64 DUP3 ADD MSTORE PUSH1 0x84 ADD JUMPDEST PUSH1 0x40 MLOAD DUP1 SWAP2 SUB SWAP1 REVERT JUMPDEST PUSH2 0x4E8 DUP4 DUP4 DUP4 PUSH2 0x78C JUMP JUMPDEST POP POP PUSH1 0x1 DUP1 SLOAD PUSH1 0x1 PUSH1 0x1 PUSH1 0xE0 SHL SUB NOT AND SWAP1 SSTORE POP JUMP JUMPDEST PUSH1 0x60 PUSH1 0x6 DUP1 SLOAD PUSH2 0x2F6 SWAP1 PUSH2 0xC48 JUMP JUMPDEST PUSH0 CALLER PUSH2 0x384 DUP2 DUP6 DUP6 PUSH2 0x66D JUMP JUMPDEST CALLER PUSH2 0x525 DUP2 ADDRESS DUP5 PUSH2 0x66D JUMP JUMPDEST PUSH1 0x40 MLOAD ADDRESS PUSH1 0x24 DUP3 ADD MSTORE PUSH1 0x1 PUSH1 0x1 PUSH1 0xA0 SHL SUB DUP5 AND PUSH1 0x44 DUP3 ADD MSTORE PUSH1 0x64 DUP2 ADD DUP4 SWAP1 MSTORE PUSH0 SWAP1 PUSH1 0x84 ADD PUSH1 0x40 DUP1 MLOAD PUSH1 0x1F NOT DUP2 DUP5 SUB ADD DUP2 MSTORE SWAP2 SWAP1 MSTORE PUSH1 0x20 DUP2 ADD DUP1 MLOAD PUSH1 0x1 PUSH1 0x1 PUSH1 0xE0 SHL SUB AND PUSH4 0x2529B503 PUSH1 0xE1 SHL OR SWAP1 MSTORE SWAP1 POP PUSH0 PUSH2 0x585 DUP8 DUP8 DUP5 PUSH3 0x249F0 PUSH2 0x8B2 JUMP JUMPDEST SWAP1 POP DUP1 CALLVALUE LT ISZERO PUSH2 0x5D7 JUMPI PUSH1 0x40 MLOAD PUSH3 0x461BCD PUSH1 0xE5 SHL DUP2 MSTORE PUSH1 0x20 PUSH1 0x4 DUP3 ADD MSTORE PUSH1 0x1B PUSH1 0x24 DUP3 ADD MSTORE PUSH32 0x4F6D6E6945524332303A20496E73756666696369656E74206665650000000000 PUSH1 0x44 DUP3 ADD MSTORE PUSH1 0x64 ADD PUSH2 0x4D4 JUMP JUMPDEST POP POP POP POP POP POP POP JUMP JUMPDEST PUSH2 0x5ED DUP4 DUP4 DUP4 PUSH1 0x1 PUSH2 0x9FB JUMP JUMPDEST POP POP POP JUMP JUMPDEST PUSH1 0x1 PUSH1 0x1 PUSH1 0xA0 SHL SUB DUP4 DUP2 AND PUSH0 SWAP1 DUP2 MSTORE PUSH1 0x3 PUSH1 0x20 SWAP1 DUP2 MSTORE PUSH1 0x40 DUP1 DUP4 KECCAK256 SWAP4 DUP7 AND DUP4 MSTORE SWAP3 SWAP1 MSTORE KECCAK256 SLOAD PUSH0 NOT DUP2 EQ PUSH2 0x667 JUMPI DUP2 DUP2 LT ISZERO PUSH2 0x659 JUMPI PUSH1 0x40 MLOAD PUSH4 0x7DC7A0D9 PUSH1 0xE1 SHL DUP2 MSTORE PUSH1 0x1 PUSH1 0x1 PUSH1 0xA0 SHL SUB DUP5 AND PUSH1 0x4 DUP3 ADD MSTORE PUSH1 0x24 DUP2 ADD DUP3 SWAP1 MSTORE PUSH1 0x44 DUP2 ADD DUP4 SWAP1 MSTORE PUSH1 0x64 ADD PUSH2 0x4D4 JUMP JUMPDEST PUSH2 0x667 DUP5 DUP5 DUP5 DUP5 SUB PUSH0 PUSH2 0x9FB JUMP JUMPDEST POP POP POP POP JUMP JUMPDEST PUSH1 0x1 PUSH1 0x1 PUSH1 0xA0 SHL SUB DUP4 AND PUSH2 0x696 JUMPI PUSH1 0x40 MLOAD PUSH4 0x4B637E8F PUSH1 0xE1 SHL DUP2 MSTORE PUSH0 PUSH1 0x4 DUP3 ADD MSTORE PUSH1 0x24 ADD PUSH2 0x4D4 JUMP JUMPDEST PUSH1 0x1 PUSH1 0x1 PUSH1 0xA0 SHL SUB DUP3 AND PUSH2 0x6BF JUMPI PUSH1 0x40 MLOAD PUSH4 0xEC442F05 PUSH1 0xE0 SHL DUP2 MSTORE PUSH0 PUSH1 0x4 DUP3 ADD MSTORE PUSH1 0x24 ADD PUSH2 0x4D4 JUMP JUMPDEST PUSH2 0x5ED DUP4 DUP4 DUP4 PUSH2 0x78C JUMP JUMPDEST PUSH1 0x1 PUSH1 0x1 PUSH1 0xA0 SHL SUB DUP3 AND PUSH2 0x6F3 JUMPI PUSH1 0x40 MLOAD PUSH4 0xEC442F05 PUSH1 0xE0 SHL DUP2 MSTORE PUSH0 PUSH1 0x4 DUP3 ADD MSTORE PUSH1 0x24 ADD PUSH2 0x4D4 JUMP JUMPDEST PUSH2 0x3BD PUSH0 DUP4 DUP4 PUSH2 0x78C JUMP JUMPDEST PUSH0 DUP1 PUSH0 SWAP1 SLOAD SWAP1 PUSH2 0x100 EXP SWAP1 DIV PUSH1 0x1 PUSH1 0x1 PUSH1 0xA0 SHL SUB AND PUSH1 0x1 PUSH1 0x1 PUSH1 0xA0 SHL SUB AND PUSH4 0x55E2448E PUSH1 0x40 MLOAD DUP2 PUSH4 0xFFFFFFFF AND PUSH1 0xE0 SHL DUP2 MSTORE PUSH1 0x4 ADD PUSH1 0x20 PUSH1 0x40 MLOAD DUP1 DUP4 SUB DUP2 DUP7 GAS STATICCALL ISZERO DUP1 ISZERO PUSH2 0x74E JUMPI RETURNDATASIZE PUSH0 DUP1 RETURNDATACOPY RETURNDATASIZE PUSH0 REVERT JUMPDEST POP POP POP POP PUSH1 0x40 MLOAD RETURNDATASIZE PUSH1 0x1F NOT PUSH1 0x1F DUP3 ADD AND DUP3 ADD DUP1 PUSH1 0x40 MSTORE POP DUP2 ADD SWAP1 PUSH2 0x772 SWAP2 SWAP1 PUSH2 0xCEB JUMP JUMPDEST DUP1 ISZERO PUSH2 0x787 JUMPI POP PUSH0 SLOAD PUSH1 0x1 PUSH1 0x1 PUSH1 0xA0 SHL SUB AND CALLER EQ JUMPDEST SWAP1 POP SWAP1 JUMP JUMPDEST PUSH1 0x1 PUSH1 0x1 PUSH1 0xA0 SHL SUB DUP4 AND PUSH2 0x7B6 JUMPI DUP1 PUSH1 0x4 PUSH0 DUP3 DUP3 SLOAD PUSH2 0x7AB SWAP2 SWAP1 PUSH2 0xD0A JUMP JUMPDEST SWAP1 SWAP2 SSTORE POP PUSH2 0x826 SWAP1 POP JUMP JUMPDEST PUSH1 0x1 PUSH1 0x1 PUSH1 0xA0 SHL SUB DUP4 AND PUSH0 SWAP1 DUP2 MSTORE PUSH1 0x2 PUSH1 0x20 MSTORE PUSH1 0x40 SWAP1 KECCAK256 SLOAD DUP2 DUP2 LT ISZERO PUSH2 0x808 JUMPI PUSH1 0x40 MLOAD PUSH4 0x391434E3 PUSH1 0xE2 SHL DUP2 MSTORE PUSH1 0x1 PUSH1 0x1 PUSH1 0xA0 SHL SUB DUP6 AND PUSH1 0x4 DUP3 ADD MSTORE PUSH1 0x24 DUP2 ADD DUP3 SWAP1 MSTORE PUSH1 0x44 DUP2 ADD DUP4 SWAP1 MSTORE PUSH1 0x64 ADD PUSH2 0x4D4 JUMP JUMPDEST PUSH1 0x1 PUSH1 0x1 PUSH1 0xA0 SHL SUB DUP5 AND PUSH0 SWAP1 DUP2 MSTORE PUSH1 0x2 PUSH1 0x20 MSTORE PUSH1 0x40 SWAP1 KECCAK256 SWAP1 DUP3 SWAP1 SUB SWAP1 SSTORE JUMPDEST PUSH1 0x1 PUSH1 0x1 PUSH1 0xA0 SHL SUB DUP3 AND PUSH2 0x842 JUMPI PUSH1 0x4 DUP1 SLOAD DUP3 SWAP1 SUB SWAP1 SSTORE PUSH2 0x860 JUMP JUMPDEST PUSH1 0x1 PUSH1 0x1 PUSH1 0xA0 SHL SUB DUP3 AND PUSH0 SWAP1 DUP2 MSTORE PUSH1 0x2 PUSH1 0x20 MSTORE PUSH1 0x40 SWAP1 KECCAK256 DUP1 SLOAD DUP3 ADD SWAP1 SSTORE JUMPDEST DUP2 PUSH1 0x1 PUSH1 0x1 PUSH1 0xA0 SHL SUB AND DUP4 PUSH1 0x1 PUSH1 0x1 PUSH1 0xA0 SHL SUB AND PUSH32 0xDDF252AD1BE2C89B69C2B068FC378DAA952BA7F163C4A11628F55A4DF523B3EF DUP4 PUSH1 0x40 MLOAD PUSH2 0x8A5 SWAP2 DUP2 MSTORE PUSH1 0x20 ADD SWAP1 JUMP JUMPDEST PUSH1 0x40 MLOAD DUP1 SWAP2 SUB SWAP1 LOG3 POP POP POP JUMP JUMPDEST PUSH0 DUP1 SLOAD PUSH1 0x40 MLOAD PUSH4 0x2376548F PUSH1 0xE2 SHL DUP2 MSTORE DUP3 SWAP2 PUSH1 0x1 PUSH1 0x1 PUSH1 0xA0 SHL SUB AND SWAP1 PUSH4 0x8DD9523C SWAP1 PUSH2 0x8E6 SWAP1 DUP10 SWAP1 DUP9 SWAP1 DUP9 SWAP1 PUSH1 0x4 ADD PUSH2 0xD29 JUMP JUMPDEST PUSH1 0x20 PUSH1 0x40 MLOAD DUP1 DUP4 SUB DUP2 DUP7 GAS STATICCALL ISZERO DUP1 ISZERO PUSH2 0x901 JUMPI RETURNDATASIZE PUSH0 DUP1 RETURNDATACOPY RETURNDATASIZE PUSH0 REVERT JUMPDEST POP POP POP POP PUSH1 0x40 MLOAD RETURNDATASIZE PUSH1 0x1F NOT PUSH1 0x1F DUP3 ADD AND DUP3 ADD DUP1 PUSH1 0x40 MSTORE POP DUP2 ADD SWAP1 PUSH2 0x925 SWAP2 SWAP1 PUSH2 0xD65 JUMP JUMPDEST SWAP1 POP DUP1 SELFBALANCE LT ISZERO DUP1 PUSH2 0x936 JUMPI POP DUP1 CALLVALUE LT ISZERO JUMPDEST PUSH2 0x982 JUMPI PUSH1 0x40 MLOAD PUSH3 0x461BCD PUSH1 0xE5 SHL DUP2 MSTORE PUSH1 0x20 PUSH1 0x4 DUP3 ADD MSTORE PUSH1 0x18 PUSH1 0x24 DUP3 ADD MSTORE PUSH32 0x584170703A20696E73756666696369656E742066756E64730000000000000000 PUSH1 0x44 DUP3 ADD MSTORE PUSH1 0x64 ADD PUSH2 0x4D4 JUMP JUMPDEST PUSH0 SLOAD PUSH1 0x40 MLOAD PUSH4 0xC21DDA4F PUSH1 0xE0 SHL DUP2 MSTORE PUSH1 0x1 PUSH1 0x1 PUSH1 0xA0 SHL SUB DUP3 AND SWAP2 PUSH4 0xC21DDA4F SWAP2 DUP5 SWAP2 PUSH2 0x9C3 SWAP2 DUP12 SWAP2 PUSH1 0x1 PUSH1 0xA0 SHL SWAP1 DIV PUSH1 0xFF AND SWAP1 DUP12 SWAP1 DUP12 SWAP1 DUP12 SWAP1 PUSH1 0x4 ADD PUSH2 0xD7C JUMP JUMPDEST PUSH0 PUSH1 0x40 MLOAD DUP1 DUP4 SUB DUP2 DUP6 DUP9 DUP1 EXTCODESIZE ISZERO DUP1 ISZERO PUSH2 0x9DA JUMPI PUSH0 DUP1 REVERT JUMPDEST POP GAS CALL ISZERO DUP1 ISZERO PUSH2 0x9EC JUMPI RETURNDATASIZE PUSH0 DUP1 RETURNDATACOPY RETURNDATASIZE PUSH0 REVERT JUMPDEST POP SWAP4 SWAP10 SWAP9 POP POP POP POP POP POP POP POP POP JUMP JUMPDEST PUSH1 0x1 PUSH1 0x1 PUSH1 0xA0 SHL SUB DUP5 AND PUSH2 0xA24 JUMPI PUSH1 0x40 MLOAD PUSH4 0xE602DF05 PUSH1 0xE0 SHL DUP2 MSTORE PUSH0 PUSH1 0x4 DUP3 ADD MSTORE PUSH1 0x24 ADD PUSH2 0x4D4 JUMP JUMPDEST PUSH1 0x1 PUSH1 0x1 PUSH1 0xA0 SHL SUB DUP4 AND PUSH2 0xA4D JUMPI PUSH1 0x40 MLOAD PUSH4 0x4A1406B1 PUSH1 0xE1 SHL DUP2 MSTORE PUSH0 PUSH1 0x4 DUP3 ADD MSTORE PUSH1 0x24 ADD PUSH2 0x4D4 JUMP JUMPDEST PUSH1 0x1 PUSH1 0x1 PUSH1 0xA0 SHL SUB DUP1 DUP6 AND PUSH0 SWAP1 DUP2 MSTORE PUSH1 0x3 PUSH1 0x20 SWAP1 DUP2 MSTORE PUSH1 0x40 DUP1 DUP4 KECCAK256 SWAP4 DUP8 AND DUP4 MSTORE SWAP3 SWAP1 MSTORE KECCAK256 DUP3 SWAP1 SSTORE DUP1 ISZERO PUSH2 0x667 JUMPI DUP3 PUSH1 0x1 PUSH1 0x1 PUSH1 0xA0 SHL SUB AND DUP5 PUSH1 0x1 PUSH1 0x1 PUSH1 0xA0 SHL SUB AND PUSH32 0x8C5BE1E5EBEC7D5BD14F71427D1E84F3DD0314C0F7B2291E5B200AC8C7C3B925 DUP5 PUSH1 0x40 MLOAD PUSH2 0xABF SWAP2 DUP2 MSTORE PUSH1 0x20 ADD SWAP1 JUMP JUMPDEST PUSH1 0x40 MLOAD DUP1 SWAP2 SUB SWAP1 LOG3 POP POP POP POP JUMP JUMPDEST PUSH0 DUP2 MLOAD DUP1 DUP5 MSTORE DUP1 PUSH1 0x20 DUP5 ADD PUSH1 0x20 DUP7 ADD MCOPY PUSH0 PUSH1 0x20 DUP3 DUP7 ADD ADD MSTORE PUSH1 0x20 PUSH1 0x1F NOT PUSH1 0x1F DUP4 ADD AND DUP6 ADD ADD SWAP2 POP POP SWAP3 SWAP2 POP POP JUMP JUMPDEST PUSH1 0x20 DUP2 MSTORE PUSH0 PUSH2 0xB0D PUSH1 0x20 DUP4 ADD DUP5 PUSH2 0xACD JUMP JUMPDEST SWAP4 SWAP3 POP POP POP JUMP JUMPDEST PUSH1 0x1 PUSH1 0x1 PUSH1 0xA0 SHL SUB DUP2 AND DUP2 EQ PUSH2 0xB28 JUMPI PUSH0 DUP1 REVERT JUMPDEST POP JUMP JUMPDEST PUSH0 DUP1 PUSH1 0x40 DUP4 DUP6 SUB SLT ISZERO PUSH2 0xB3C JUMPI PUSH0 DUP1 REVERT JUMPDEST DUP3 CALLDATALOAD PUSH2 0xB47 DUP2 PUSH2 0xB14 JUMP JUMPDEST SWAP5 PUSH1 0x20 SWAP4 SWAP1 SWAP4 ADD CALLDATALOAD SWAP4 POP POP POP JUMP JUMPDEST PUSH0 DUP1 PUSH0 PUSH1 0x60 DUP5 DUP7 SUB SLT ISZERO PUSH2 0xB67 JUMPI PUSH0 DUP1 REVERT JUMPDEST DUP4 CALLDATALOAD PUSH2 0xB72 DUP2 PUSH2 0xB14 JUMP JUMPDEST SWAP3 POP PUSH1 0x20 DUP5 ADD CALLDATALOAD PUSH2 0xB82 DUP2 PUSH2 0xB14 JUMP JUMPDEST SWAP3 SWAP6 SWAP3 SWAP5 POP POP POP PUSH1 0x40 SWAP2 SWAP1 SWAP2 ADD CALLDATALOAD SWAP1 JUMP JUMPDEST PUSH0 PUSH1 0x20 DUP3 DUP5 SUB SLT ISZERO PUSH2 0xBA3 JUMPI PUSH0 DUP1 REVERT JUMPDEST DUP2 CALLDATALOAD PUSH2 0xB0D DUP2 PUSH2 0xB14 JUMP JUMPDEST PUSH8 0xFFFFFFFFFFFFFFFF DUP2 AND DUP2 EQ PUSH2 0xB28 JUMPI PUSH0 DUP1 REVERT JUMPDEST PUSH0 DUP1 PUSH0 DUP1 PUSH1 0x80 DUP6 DUP8 SUB SLT ISZERO PUSH2 0xBD6 JUMPI PUSH0 DUP1 REVERT JUMPDEST DUP5 CALLDATALOAD PUSH2 0xBE1 DUP2 PUSH2 0xBAE JUMP JUMPDEST SWAP4 POP PUSH1 0x20 DUP6 ADD CALLDATALOAD PUSH2 0xBF1 DUP2 PUSH2 0xB14 JUMP JUMPDEST SWAP3 POP PUSH1 0x40 DUP6 ADD CALLDATALOAD PUSH2 0xC01 DUP2 PUSH2 0xB14 JUMP JUMPDEST SWAP4 SWAP7 SWAP3 SWAP6 POP SWAP3 SWAP4 PUSH1 0x60 ADD CALLDATALOAD SWAP3 POP POP JUMP JUMPDEST PUSH0 DUP1 PUSH1 0x40 DUP4 DUP6 SUB SLT ISZERO PUSH2 0xC22 JUMPI PUSH0 DUP1 REVERT JUMPDEST DUP3 CALLDATALOAD PUSH2 0xC2D DUP2 PUSH2 0xB14 JUMP JUMPDEST SWAP2 POP PUSH1 0x20 DUP4 ADD CALLDATALOAD PUSH2 0xC3D DUP2 PUSH2 0xB14 JUMP JUMPDEST DUP1 SWAP2 POP POP SWAP3 POP SWAP3 SWAP1 POP JUMP JUMPDEST PUSH1 0x1 DUP2 DUP2 SHR SWAP1 DUP3 AND DUP1 PUSH2 0xC5C JUMPI PUSH1 0x7F DUP3 AND SWAP2 POP JUMPDEST PUSH1 0x20 DUP3 LT DUP2 SUB PUSH2 0xC7A JUMPI PUSH4 0x4E487B71 PUSH1 0xE0 SHL PUSH0 MSTORE PUSH1 0x22 PUSH1 0x4 MSTORE PUSH1 0x24 PUSH0 REVERT JUMPDEST POP SWAP2 SWAP1 POP JUMP JUMPDEST PUSH0 PUSH1 0x40 DUP3 DUP5 SUB SLT DUP1 ISZERO PUSH2 0xC91 JUMPI PUSH0 DUP1 REVERT JUMPDEST POP PUSH1 0x40 DUP1 MLOAD SWAP1 DUP2 ADD PUSH8 0xFFFFFFFFFFFFFFFF DUP2 GT DUP3 DUP3 LT OR ISZERO PUSH2 0xCC1 JUMPI PUSH4 0x4E487B71 PUSH1 0xE0 SHL PUSH0 MSTORE PUSH1 0x41 PUSH1 0x4 MSTORE PUSH1 0x24 PUSH0 REVERT JUMPDEST PUSH1 0x40 MSTORE DUP3 MLOAD PUSH2 0xCCF DUP2 PUSH2 0xBAE JUMP JUMPDEST DUP2 MSTORE PUSH1 0x20 DUP4 ADD MLOAD PUSH2 0xCDF DUP2 PUSH2 0xB14 JUMP JUMPDEST PUSH1 0x20 DUP3 ADD MSTORE SWAP4 SWAP3 POP POP POP JUMP JUMPDEST PUSH0 PUSH1 0x20 DUP3 DUP5 SUB SLT ISZERO PUSH2 0xCFB JUMPI PUSH0 DUP1 REVERT JUMPDEST DUP2 MLOAD DUP1 ISZERO ISZERO DUP2 EQ PUSH2 0xB0D JUMPI PUSH0 DUP1 REVERT JUMPDEST DUP1 DUP3 ADD DUP1 DUP3 GT ISZERO PUSH2 0x38A JUMPI PUSH4 0x4E487B71 PUSH1 0xE0 SHL PUSH0 MSTORE PUSH1 0x11 PUSH1 0x4 MSTORE PUSH1 0x24 PUSH0 REVERT JUMPDEST PUSH8 0xFFFFFFFFFFFFFFFF DUP5 AND DUP2 MSTORE PUSH1 0x60 PUSH1 0x20 DUP3 ADD MSTORE PUSH0 PUSH2 0xD4B PUSH1 0x60 DUP4 ADD DUP6 PUSH2 0xACD JUMP JUMPDEST SWAP1 POP PUSH8 0xFFFFFFFFFFFFFFFF DUP4 AND PUSH1 0x40 DUP4 ADD MSTORE SWAP5 SWAP4 POP POP POP POP JUMP JUMPDEST PUSH0 PUSH1 0x20 DUP3 DUP5 SUB SLT ISZERO PUSH2 0xD75 JUMPI PUSH0 DUP1 REVERT JUMPDEST POP MLOAD SWAP2 SWAP1 POP JUMP JUMPDEST PUSH8 0xFFFFFFFFFFFFFFFF DUP7 AND DUP2 MSTORE PUSH1 0xFF DUP6 AND PUSH1 0x20 DUP3 ADD MSTORE PUSH1 0x1 PUSH1 0x1 PUSH1 0xA0 SHL SUB DUP5 AND PUSH1 0x40 DUP3 ADD MSTORE PUSH1 0xA0 PUSH1 0x60 DUP3 ADD DUP2 SWAP1 MSTORE PUSH0 SWAP1 PUSH2 0xDB8 SWAP1 DUP4 ADD DUP6 PUSH2 0xACD JUMP JUMPDEST SWAP1 POP PUSH8 0xFFFFFFFFFFFFFFFF DUP4 AND PUSH1 0x80 DUP4 ADD MSTORE SWAP7 SWAP6 POP POP POP POP POP POP JUMP INVALID LOG2 PUSH5 0x6970667358 0x22 SLT KECCAK256 0xC GT PUSH28 0xE31930A09C16A0D20458DC7ECB44CE2B68FB44AF9F81CC4CE2578F18 PUSH4 0x64736F6C PUSH4 0x4300081A STOP CALLER "
				},
				"gasEstimates": {
					"creation": {
						"codeDepositCost": "718800",
						"executionCost": "infinite",
						"totalCost": "infinite"
					},
					"external": {
						"allowance(address,address)": "infinite",
						"approve(address,uint256)": "24752",
						"balanceOf(address)": "2573",
						"decimals()": "234",
						"defaultConfLevel()": "2395",
						"mint(address,uint256)": "infinite",
						"name()": "infinite",
						"omni()": "2402",
						"receiveTransfer(address,address,uint256)": "infinite",
						"symbol()": "infinite",
						"totalSupply()": "2348",
						"transfer(address,uint256)": "51245",
						"transfer(uint64,address,address,uint256)": "infinite",
						"transferFrom(address,address,uint256)": "infinite"
					},
					"internal": {
						"_mint(address,uint256)": "infinite"
					}
				},
				"methodIdentifiers": {
					"allowance(address,address)": "dd62ed3e",
					"approve(address,uint256)": "095ea7b3",
					"balanceOf(address)": "70a08231",
					"decimals()": "313ce567",
					"defaultConfLevel()": "74eeb847",
					"mint(address,uint256)": "40c10f19",
					"name()": "06fdde03",
					"omni()": "39acf9f1",
					"receiveTransfer(address,address,uint256)": "4a536a06",
					"symbol()": "95d89b41",
					"totalSupply()": "18160ddd",
					"transfer(address,uint256)": "a9059cbb",
					"transfer(uint64,address,address,uint256)": "bdb3c8e6",
					"transferFrom(address,address,uint256)": "23b872dd"
				}
			},
			"storageLayout": {
				"storage": [
					{
						"astId": 349,
						"contract": "xstake/src/wstf token launch/contracts/token/ERC20/implementation.sol:MyOmniToken",
						"label": "omni",
						"offset": 0,
						"slot": "0",
						"type": "t_contract(IOmniPortal)175"
					},
					{
						"astId": 352,
						"contract": "xstake/src/wstf token launch/contracts/token/ERC20/implementation.sol:MyOmniToken",
						"label": "defaultConfLevel",
						"offset": 20,
						"slot": "0",
						"type": "t_uint8"
					},
					{
						"astId": 356,
						"contract": "xstake/src/wstf token launch/contracts/token/ERC20/implementation.sol:MyOmniToken",
						"label": "xmsg",
						"offset": 0,
						"slot": "1",
						"type": "t_struct(MsgContext)245_storage"
					},
					{
						"astId": 824,
						"contract": "xstake/src/wstf token launch/contracts/token/ERC20/implementation.sol:MyOmniToken",
						"label": "_balances",
						"offset": 0,
						"slot": "2",
						"type": "t_mapping(t_address,t_uint256)"
					},
					{
						"astId": 830,
						"contract": "xstake/src/wstf token launch/contracts/token/ERC20/implementation.sol:MyOmniToken",
						"label": "_allowances",
						"offset": 0,
						"slot": "3",
						"type": "t_mapping(t_address,t_mapping(t_address,t_uint256))"
					},
					{
						"astId": 832,
						"contract": "xstake/src/wstf token launch/contracts/token/ERC20/implementation.sol:MyOmniToken",
						"label": "_totalSupply",
						"offset": 0,
						"slot": "4",
						"type": "t_uint256"
					},
					{
						"astId": 834,
						"contract": "xstake/src/wstf token launch/contracts/token/ERC20/implementation.sol:MyOmniToken",
						"label": "_name",
						"offset": 0,
						"slot": "5",
						"type": "t_string_storage"
					},
					{
						"astId": 836,
						"contract": "xstake/src/wstf token launch/contracts/token/ERC20/implementation.sol:MyOmniToken",
						"label": "_symbol",
						"offset": 0,
						"slot": "6",
						"type": "t_string_storage"
					},
					{
						"astId": 1367,
						"contract": "xstake/src/wstf token launch/contracts/token/ERC20/implementation.sol:MyOmniToken",
						"label": "omniPortal",
						"offset": 0,
						"slot": "7",
						"type": "t_address"
					}
				],
				"types": {
					"t_address": {
						"encoding": "inplace",
						"label": "address",
						"numberOfBytes": "20"
					},
					"t_contract(IOmniPortal)175": {
						"encoding": "inplace",
						"label": "contract IOmniPortal",
						"numberOfBytes": "20"
					},
					"t_mapping(t_address,t_mapping(t_address,t_uint256))": {
						"encoding": "mapping",
						"key": "t_address",
						"label": "mapping(address => mapping(address => uint256))",
						"numberOfBytes": "32",
						"value": "t_mapping(t_address,t_uint256)"
					},
					"t_mapping(t_address,t_uint256)": {
						"encoding": "mapping",
						"key": "t_address",
						"label": "mapping(address => uint256)",
						"numberOfBytes": "32",
						"value": "t_uint256"
					},
					"t_string_storage": {
						"encoding": "bytes",
						"label": "string",
						"numberOfBytes": "32"
					},
					"t_struct(MsgContext)245_storage": {
						"encoding": "inplace",
						"label": "struct XTypes.MsgContext",
						"members": [
							{
								"astId": 242,
								"contract": "xstake/src/wstf token launch/contracts/token/ERC20/implementation.sol:MyOmniToken",
								"label": "sourceChainId",
								"offset": 0,
								"slot": "0",
								"type": "t_uint64"
							},
							{
								"astId": 244,
								"contract": "xstake/src/wstf token launch/contracts/token/ERC20/implementation.sol:MyOmniToken",
								"label": "sender",
								"offset": 8,
								"slot": "0",
								"type": "t_address"
							}
						],
						"numberOfBytes": "32"
					},
					"t_uint256": {
						"encoding": "inplace",
						"label": "uint256",
						"numberOfBytes": "32"
					},
					"t_uint64": {
						"encoding": "inplace",
						"label": "uint64",
						"numberOfBytes": "8"
					},
					"t_uint8": {
						"encoding": "inplace",
						"label": "uint8",
						"numberOfBytes": "1"
					}
				}
			},
			"userdoc": {
				"events": {
					"DefaultConfLevelSet(uint8)": {
						"notice": "Emitted when the default confirmation level is set"
					},
					"OmniPortalSet(address)": {
						"notice": "Emitted when the OmniPortal contract address is set"
					}
				},
				"kind": "user",
				"methods": {
					"defaultConfLevel()": {
						"notice": "Default confirmation level for xcalls"
					},
					"omni()": {
						"notice": "The OmniPortal contract"
					}
				},
				"version": 1
			}
		}
	}
}