{
	"contract/dex/pool.sol": {
		"Pool": {
			"abi": [
				{
					"inputs": [
						{
							"internalType": "address",
							"name": "_tokenA",
							"type": "address"
						},
						{
							"internalType": "address",
							"name": "_tokenB",
							"type": "address"
						},
						{
							"internalType": "address",
							"name": "_admin",
							"type": "address"
						}
					],
					"stateMutability": "nonpayable",
					"type": "constructor"
				},
				{
					"anonymous": false,
					"inputs": [
						{
							"indexed": true,
							"internalType": "address",
							"name": "provider",
							"type": "address"
						},
						{
							"indexed": false,
							"internalType": "uint256",
							"name": "amountA",
							"type": "uint256"
						},
						{
							"indexed": false,
							"internalType": "uint256",
							"name": "amountB",
							"type": "uint256"
						},
						{
							"indexed": false,
							"internalType": "uint256",
							"name": "liquidityTokens",
							"type": "uint256"
						}
					],
					"name": "LiquidityProvided",
					"type": "event"
				},
				{
					"anonymous": false,
					"inputs": [
						{
							"indexed": true,
							"internalType": "address",
							"name": "provider",
							"type": "address"
						},
						{
							"indexed": false,
							"internalType": "uint256",
							"name": "amountA",
							"type": "uint256"
						},
						{
							"indexed": false,
							"internalType": "uint256",
							"name": "amountB",
							"type": "uint256"
						},
						{
							"indexed": false,
							"internalType": "uint256",
							"name": "liquidityTokens",
							"type": "uint256"
						}
					],
					"name": "LiquidityRemoved",
					"type": "event"
				},
				{
					"anonymous": false,
					"inputs": [
						{
							"indexed": true,
							"internalType": "address",
							"name": "swapper",
							"type": "address"
						},
						{
							"indexed": false,
							"internalType": "address",
							"name": "inputToken",
							"type": "address"
						},
						{
							"indexed": false,
							"internalType": "uint256",
							"name": "inputAmount",
							"type": "uint256"
						},
						{
							"indexed": false,
							"internalType": "uint256",
							"name": "outputAmount",
							"type": "uint256"
						}
					],
					"name": "Swap",
					"type": "event"
				},
				{
					"inputs": [],
					"name": "admin",
					"outputs": [
						{
							"internalType": "address",
							"name": "",
							"type": "address"
						}
					],
					"stateMutability": "view",
					"type": "function"
				},
				{
					"inputs": [],
					"name": "getReserves",
					"outputs": [
						{
							"internalType": "address",
							"name": "_tokenA",
							"type": "address"
						},
						{
							"internalType": "address",
							"name": "_tokenB",
							"type": "address"
						},
						{
							"internalType": "uint256",
							"name": "_reserveA",
							"type": "uint256"
						},
						{
							"internalType": "uint256",
							"name": "_reserveB",
							"type": "uint256"
						}
					],
					"stateMutability": "view",
					"type": "function"
				},
				{
					"inputs": [
						{
							"internalType": "uint256",
							"name": "inputAmount",
							"type": "uint256"
						},
						{
							"internalType": "address",
							"name": "inputToken",
							"type": "address"
						}
					],
					"name": "getSwapAmount",
					"outputs": [
						{
							"internalType": "uint256",
							"name": "",
							"type": "uint256"
						}
					],
					"stateMutability": "view",
					"type": "function"
				},
				{
					"inputs": [
						{
							"internalType": "address",
							"name": "",
							"type": "address"
						}
					],
					"name": "liquidity",
					"outputs": [
						{
							"internalType": "uint256",
							"name": "",
							"type": "uint256"
						}
					],
					"stateMutability": "view",
					"type": "function"
				},
				{
					"inputs": [
						{
							"internalType": "uint256",
							"name": "amountA",
							"type": "uint256"
						},
						{
							"internalType": "uint256",
							"name": "amountB",
							"type": "uint256"
						}
					],
					"name": "provideLiquidity",
					"outputs": [
						{
							"internalType": "uint256",
							"name": "liquidityMinted",
							"type": "uint256"
						}
					],
					"stateMutability": "nonpayable",
					"type": "function"
				},
				{
					"inputs": [
						{
							"internalType": "uint256",
							"name": "liquidityAmount",
							"type": "uint256"
						}
					],
					"name": "removeLiquidity",
					"outputs": [
						{
							"internalType": "uint256",
							"name": "amountA",
							"type": "uint256"
						},
						{
							"internalType": "uint256",
							"name": "amountB",
							"type": "uint256"
						}
					],
					"stateMutability": "nonpayable",
					"type": "function"
				},
				{
					"inputs": [],
					"name": "reserveA",
					"outputs": [
						{
							"internalType": "uint256",
							"name": "",
							"type": "uint256"
						}
					],
					"stateMutability": "view",
					"type": "function"
				},
				{
					"inputs": [],
					"name": "reserveB",
					"outputs": [
						{
							"internalType": "uint256",
							"name": "",
							"type": "uint256"
						}
					],
					"stateMutability": "view",
					"type": "function"
				},
				{
					"inputs": [
						{
							"internalType": "address",
							"name": "inputToken",
							"type": "address"
						},
						{
							"internalType": "uint256",
							"name": "inputAmount",
							"type": "uint256"
						},
						{
							"internalType": "address",
							"name": "recipient",
							"type": "address"
						},
						{
							"internalType": "uint256",
							"name": "minAmount",
							"type": "uint256"
						}
					],
					"name": "swap",
					"outputs": [
						{
							"internalType": "uint256",
							"name": "outputAmount",
							"type": "uint256"
						}
					],
					"stateMutability": "nonpayable",
					"type": "function"
				},
				{
					"inputs": [],
					"name": "tokenA",
					"outputs": [
						{
							"internalType": "contract IERC20",
							"name": "",
							"type": "address"
						}
					],
					"stateMutability": "view",
					"type": "function"
				},
				{
					"inputs": [],
					"name": "tokenB",
					"outputs": [
						{
							"internalType": "contract IERC20",
							"name": "",
							"type": "address"
						}
					],
					"stateMutability": "view",
					"type": "function"
				},
				{
					"inputs": [],
					"name": "totalLiquidity",
					"outputs": [
						{
							"internalType": "uint256",
							"name": "",
							"type": "uint256"
						}
					],
					"stateMutability": "view",
					"type": "function"
				}
			],
			"devdoc": {
				"kind": "dev",
				"methods": {},
				"version": 1
			},
			"evm": {
				"assembly": "    /* \"contract/dex/pool.sol\":123:5182  contract Pool  {... */\n  mstore(0x40, 0x80)\n    /* \"contract/dex/pool.sol\":699:861  constructor(address _tokenA, address _tokenB, address _admin)  {... */\n  callvalue\n  dup1\n  iszero\n  tag_1\n  jumpi\n  0x00\n  dup1\n  revert\ntag_1:\n  pop\n  mload(0x40)\n  sub(codesize, bytecodeSize)\n  dup1\n  bytecodeSize\n  dup4\n  codecopy\n  dup2\n  add\n  0x40\n  dup2\n  swap1\n  mstore\n  tag_2\n  swap2\n  tag_3\n  jump\t// in\ntag_2:\n    /* \"contract/dex/pool.sol\":772:778  tokenA */\n  0x00\n    /* \"contract/dex/pool.sol\":772:796  tokenA = IERC20(_tokenA) */\n  dup1\n  sload\n  sub(shl(0xa0, 0x01), 0x01)\n  swap5\n  dup6\n  and\n  not(sub(shl(0xa0, 0x01), 0x01))\n  swap2\n  dup3\n  and\n  or\n  swap1\n  swap2\n  sstore\n  0x01\n    /* \"contract/dex/pool.sol\":806:830  tokenB = IERC20(_tokenB) */\n  dup1\n  sload\n  swap4\n  dup6\n  and\n  swap4\n  dup3\n  and\n  swap4\n  swap1\n  swap4\n  or\n  swap1\n  swap3\n  sstore\n    /* \"contract/dex/pool.sol\":840:845  admin */\n  0x06\n    /* \"contract/dex/pool.sol\":840:854  admin = _admin */\n  dup1\n  sload\n  swap2\n  swap1\n  swap4\n  and\n  swap2\n  and\n  or\n  swap1\n  sstore\n    /* \"contract/dex/pool.sol\":123:5182  contract Pool  {... */\n  jump(tag_8)\n    /* \"#utility.yul\":14:191   */\ntag_7:\n    /* \"#utility.yul\":93:106   */\n  dup1\n  mload\n  sub(shl(0xa0, 0x01), 0x01)\n    /* \"#utility.yul\":135:166   */\n  dup2\n  and\n    /* \"#utility.yul\":125:167   */\n  dup2\n  eq\n    /* \"#utility.yul\":115:185   */\n  tag_10\n  jumpi\n    /* \"#utility.yul\":181:182   */\n  0x00\n    /* \"#utility.yul\":178:179   */\n  dup1\n    /* \"#utility.yul\":171:183   */\n  revert\n    /* \"#utility.yul\":115:185   */\ntag_10:\n    /* \"#utility.yul\":14:191   */\n  swap2\n  swap1\n  pop\n  jump\t// out\n    /* \"#utility.yul\":196:574   */\ntag_3:\n    /* \"#utility.yul\":284:290   */\n  0x00\n    /* \"#utility.yul\":292:298   */\n  dup1\n    /* \"#utility.yul\":300:306   */\n  0x00\n    /* \"#utility.yul\":353:355   */\n  0x60\n    /* \"#utility.yul\":341:350   */\n  dup5\n    /* \"#utility.yul\":332:339   */\n  dup7\n    /* \"#utility.yul\":328:351   */\n  sub\n    /* \"#utility.yul\":324:356   */\n  slt\n    /* \"#utility.yul\":321:373   */\n  iszero\n  tag_12\n  jumpi\n    /* \"#utility.yul\":369:370   */\n  0x00\n    /* \"#utility.yul\":366:367   */\n  dup1\n    /* \"#utility.yul\":359:371   */\n  revert\n    /* \"#utility.yul\":321:373   */\ntag_12:\n    /* \"#utility.yul\":392:432   */\n  tag_13\n    /* \"#utility.yul\":422:431   */\n  dup5\n    /* \"#utility.yul\":392:432   */\n  tag_7\n  jump\t// in\ntag_13:\n    /* \"#utility.yul\":382:432   */\n  swap3\n  pop\n    /* \"#utility.yul\":451:500   */\n  tag_14\n    /* \"#utility.yul\":496:498   */\n  0x20\n    /* \"#utility.yul\":485:494   */\n  dup6\n    /* \"#utility.yul\":481:499   */\n  add\n    /* \"#utility.yul\":451:500   */\n  tag_7\n  jump\t// in\ntag_14:\n    /* \"#utility.yul\":441:500   */\n  swap2\n  pop\n    /* \"#utility.yul\":519:568   */\n  tag_15\n    /* \"#utility.yul\":564:566   */\n  0x40\n    /* \"#utility.yul\":553:562   */\n  dup6\n    /* \"#utility.yul\":549:567   */\n  add\n    /* \"#utility.yul\":519:568   */\n  tag_7\n  jump\t// in\ntag_15:\n    /* \"#utility.yul\":509:568   */\n  swap1\n  pop\n    /* \"#utility.yul\":196:574   */\n  swap3\n  pop\n  swap3\n  pop\n  swap3\n  jump\t// out\ntag_8:\n    /* \"contract/dex/pool.sol\":123:5182  contract Pool  {... */\n  dataSize(sub_0)\n  dup1\n  dataOffset(sub_0)\n  0x00\n  codecopy\n  0x00\n  return\nstop\n\nsub_0: assembly {\n        /* \"contract/dex/pool.sol\":123:5182  contract Pool  {... */\n      mstore(0x40, 0x80)\n      callvalue\n      dup1\n      iszero\n      tag_1\n      jumpi\n      0x00\n      dup1\n      revert\n    tag_1:\n      pop\n      jumpi(tag_2, lt(calldatasize, 0x04))\n      shr(0xe0, calldataload(0x00))\n      dup1\n      0x7a16af7f\n      gt\n      tag_15\n      jumpi\n      dup1\n      0x7a16af7f\n      eq\n      tag_9\n      jumpi\n      dup1\n      0x8a0ccd56\n      eq\n      tag_10\n      jumpi\n      dup1\n      0x9c8f9f23\n      eq\n      tag_11\n      jumpi\n      dup1\n      0xb8c876b1\n      eq\n      tag_12\n      jumpi\n      dup1\n      0xdc5fa6c5\n      eq\n      tag_13\n      jumpi\n      dup1\n      0xf851a440\n      eq\n      tag_14\n      jumpi\n      0x00\n      dup1\n      revert\n    tag_15:\n      dup1\n      0x0902f1ac\n      eq\n      tag_3\n      jumpi\n      dup1\n      0x0fc63d10\n      eq\n      tag_4\n      jumpi\n      dup1\n      0x15770f92\n      eq\n      tag_5\n      jumpi\n      dup1\n      0x19e36f3b\n      eq\n      tag_6\n      jumpi\n      dup1\n      0x571a0ccf\n      eq\n      tag_7\n      jumpi\n      dup1\n      0x5f64b55b\n      eq\n      tag_8\n      jumpi\n    tag_2:\n      0x00\n      dup1\n      revert\n        /* \"contract/dex/pool.sol\":4933:5179  function getReserves() ... */\n    tag_3:\n        /* \"contract/dex/pool.sol\":5003:5018  address _tokenA */\n      0x00\n        /* \"contract/dex/pool.sol\":5131:5137  tokenA */\n      sload\n      0x01\n        /* \"contract/dex/pool.sol\":5148:5154  tokenB */\n      sload\n        /* \"contract/dex/pool.sol\":5157:5165  reserveA */\n      sload(0x02)\n        /* \"contract/dex/pool.sol\":5167:5175  reserveB */\n      sload(0x03)\n        /* \"contract/dex/pool.sol\":4933:5179  function getReserves() ... */\n      0x40\n      dup1\n      mload\n      sub(shl(0xa0, 0x01), 0x01)\n        /* \"contract/dex/pool.sol\":5131:5137  tokenA */\n      swap6\n      dup7\n      and\n        /* \"#utility.yul\":245:296   */\n      dup2\n      mstore\n        /* \"contract/dex/pool.sol\":5148:5154  tokenB */\n      swap5\n      swap1\n      swap4\n      and\n        /* \"#utility.yul\":327:329   */\n      0x20\n        /* \"#utility.yul\":312:330   */\n      dup6\n      add\n        /* \"#utility.yul\":305:365   */\n      mstore\n        /* \"#utility.yul\":381:399   */\n      swap2\n      dup4\n      add\n        /* \"#utility.yul\":374:408   */\n      mstore\n        /* \"#utility.yul\":439:441   */\n      0x60\n        /* \"#utility.yul\":424:442   */\n      dup3\n      add\n        /* \"#utility.yul\":417:451   */\n      mstore\n        /* \"#utility.yul\":232:235   */\n      0x80\n        /* \"#utility.yul\":217:236   */\n      add\n        /* \"contract/dex/pool.sol\":4933:5179  function getReserves() ... */\n    tag_18:\n      mload(0x40)\n      dup1\n      swap2\n      sub\n      swap1\n      return\n        /* \"contract/dex/pool.sol\":144:164  IERC20 public tokenA */\n    tag_4:\n      sload(0x00)\n      tag_20\n      swap1\n      sub(shl(0xa0, 0x01), 0x01)\n      and\n      dup2\n      jump\n    tag_20:\n      mload(0x40)\n      sub(shl(0xa0, 0x01), 0x01)\n        /* \"#utility.yul\":639:671   */\n      swap1\n      swap2\n      and\n        /* \"#utility.yul\":621:672   */\n      dup2\n      mstore\n        /* \"#utility.yul\":609:611   */\n      0x20\n        /* \"#utility.yul\":594:612   */\n      add\n        /* \"contract/dex/pool.sol\":144:164  IERC20 public tokenA */\n      tag_18\n        /* \"#utility.yul\":462:678   */\n      jump\n        /* \"contract/dex/pool.sol\":256:285  uint256 public totalLiquidity */\n    tag_5:\n      tag_24\n      sload(0x04)\n      dup2\n      jump\n    tag_24:\n      mload(0x40)\n        /* \"#utility.yul\":829:854   */\n      swap1\n      dup2\n      mstore\n        /* \"#utility.yul\":817:819   */\n      0x20\n        /* \"#utility.yul\":802:820   */\n      add\n        /* \"contract/dex/pool.sol\":256:285  uint256 public totalLiquidity */\n      tag_18\n        /* \"#utility.yul\":683:860   */\n      jump\n        /* \"contract/dex/pool.sol\":226:249  uint256 public reserveB */\n    tag_6:\n      tag_24\n      sload(0x03)\n      dup2\n      jump\n        /* \"contract/dex/pool.sol\":4237:4889  function getSwapAmount(uint256 inputAmount, address inputToken) public view returns (uint256) {... */\n    tag_7:\n      tag_24\n      tag_32\n      calldatasize\n      0x04\n      tag_33\n      jump\t// in\n    tag_32:\n      tag_34\n      jump\t// in\n        /* \"contract/dex/pool.sol\":170:190  IERC20 public tokenB */\n    tag_8:\n      sload(0x01)\n      tag_20\n      swap1\n      sub(shl(0xa0, 0x01), 0x01)\n      and\n      dup2\n      jump\n        /* \"contract/dex/pool.sol\":928:1724  function provideLiquidity(uint256 amountA, uint256 amountB) external returns (uint256 liquidityMinted) {... */\n    tag_9:\n      tag_24\n      tag_40\n      calldatasize\n      0x04\n      tag_41\n      jump\t// in\n    tag_40:\n      tag_42\n      jump\t// in\n        /* \"contract/dex/pool.sol\":2452:4231  function swap(address inputToken, uint256 inputAmount, address recipient, uint256 minAmount) public returns (uint256 outputAmount) {... */\n    tag_10:\n      tag_24\n      tag_45\n      calldatasize\n      0x04\n      tag_46\n      jump\t// in\n    tag_45:\n      tag_47\n      jump\t// in\n        /* \"contract/dex/pool.sol\":1799:2448  function removeLiquidity(uint256 liquidityAmount) external returns (uint256 amountA, uint256 amountB) {... */\n    tag_11:\n      tag_49\n      tag_50\n      calldatasize\n      0x04\n      tag_51\n      jump\t// in\n    tag_50:\n      tag_52\n      jump\t// in\n    tag_49:\n      0x40\n      dup1\n      mload\n        /* \"#utility.yul\":2604:2629   */\n      swap3\n      dup4\n      mstore\n        /* \"#utility.yul\":2660:2662   */\n      0x20\n        /* \"#utility.yul\":2645:2663   */\n      dup4\n      add\n        /* \"#utility.yul\":2638:2672   */\n      swap2\n      swap1\n      swap2\n      mstore\n        /* \"#utility.yul\":2577:2595   */\n      add\n        /* \"contract/dex/pool.sol\":1799:2448  function removeLiquidity(uint256 liquidityAmount) external returns (uint256 amountA, uint256 amountB) {... */\n      tag_18\n        /* \"#utility.yul\":2430:2678   */\n      jump\n        /* \"contract/dex/pool.sol\":291:335  mapping(address => uint256) public liquidity */\n    tag_12:\n      tag_24\n      tag_56\n      calldatasize\n      0x04\n      tag_57\n      jump\t// in\n    tag_56:\n      mstore(0x20, 0x05)\n      0x00\n      swap1\n      dup2\n      mstore\n      0x40\n      swap1\n      keccak256\n      sload\n      dup2\n      jump\n        /* \"contract/dex/pool.sol\":197:220  uint256 public reserveA */\n    tag_13:\n      tag_24\n      sload(0x02)\n      dup2\n      jump\n        /* \"contract/dex/pool.sol\":341:361  address public admin */\n    tag_14:\n      sload(0x06)\n      tag_20\n      swap1\n      sub(shl(0xa0, 0x01), 0x01)\n      and\n      dup2\n      jump\n        /* \"contract/dex/pool.sol\":4237:4889  function getSwapAmount(uint256 inputAmount, address inputToken) public view returns (uint256) {... */\n    tag_34:\n        /* \"contract/dex/pool.sol\":4322:4329  uint256 */\n      0x00\n        /* \"contract/dex/pool.sol\":4417:4423  tokenA */\n      dup1\n      sload\n        /* \"contract/dex/pool.sol\":4322:4329  uint256 */\n      dup2\n      swap1\n      dup2\n      swap1\n      sub(shl(0xa0, 0x01), 0x01)\n        /* \"contract/dex/pool.sol\":4417:4423  tokenA */\n      swap1\n      dup2\n      and\n        /* \"contract/dex/pool.sol\":4395:4424  inputToken == address(tokenA) */\n      swap1\n      dup6\n      and\n      sub\n        /* \"contract/dex/pool.sol\":4391:4580  if (inputToken == address(tokenA)) {... */\n      tag_69\n      jumpi\n      pop\n      pop\n        /* \"contract/dex/pool.sol\":4451:4459  reserveA */\n      sload(0x02)\n        /* \"contract/dex/pool.sol\":4485:4493  reserveB */\n      sload(0x03)\n        /* \"contract/dex/pool.sol\":4391:4580  if (inputToken == address(tokenA)) {... */\n      jump(tag_70)\n    tag_69:\n      pop\n      pop\n        /* \"contract/dex/pool.sol\":4531:4539  reserveB */\n      sload(0x03)\n        /* \"contract/dex/pool.sol\":4565:4573  reserveA */\n      sload(0x02)\n        /* \"contract/dex/pool.sol\":4391:4580  if (inputToken == address(tokenA)) {... */\n    tag_70:\n        /* \"contract/dex/pool.sol\":4683:4694  inputAmount */\n      dup5\n        /* \"contract/dex/pool.sol\":4654:4680  uint256 inputAmountWithFee */\n      0x00\n        /* \"contract/dex/pool.sol\":4737:4771  inputAmountWithFee * outputReserve */\n      tag_71\n        /* \"contract/dex/pool.sol\":4758:4771  outputReserve */\n      dup4\n        /* \"contract/dex/pool.sol\":4683:4694  inputAmount */\n      dup4\n        /* \"contract/dex/pool.sol\":4737:4771  inputAmountWithFee * outputReserve */\n      tag_72\n      jump\t// in\n    tag_71:\n        /* \"contract/dex/pool.sol\":4717:4771  uint256 numerator = inputAmountWithFee * outputReserve */\n      swap1\n      pop\n        /* \"contract/dex/pool.sol\":4777:4796  uint256 denominator */\n      0x00\n        /* \"contract/dex/pool.sol\":4823:4841  inputAmountWithFee */\n      dup3\n        /* \"contract/dex/pool.sol\":4800:4819  inputReserve * 1000 */\n      tag_73\n        /* \"contract/dex/pool.sol\":4800:4812  inputReserve */\n      dup7\n        /* \"contract/dex/pool.sol\":4815:4819  1000 */\n      0x03e8\n        /* \"contract/dex/pool.sol\":4800:4819  inputReserve * 1000 */\n      tag_72\n      jump\t// in\n    tag_73:\n        /* \"contract/dex/pool.sol\":4799:4841  (inputReserve * 1000) + inputAmountWithFee */\n      tag_74\n      swap2\n      swap1\n      tag_75\n      jump\t// in\n    tag_74:\n        /* \"contract/dex/pool.sol\":4777:4841  uint256 denominator = (inputReserve * 1000) + inputAmountWithFee */\n      swap1\n      pop\n        /* \"contract/dex/pool.sol\":4859:4882  numerator / denominator */\n      tag_76\n        /* \"contract/dex/pool.sol\":4777:4841  uint256 denominator = (inputReserve * 1000) + inputAmountWithFee */\n      dup2\n        /* \"contract/dex/pool.sol\":4859:4868  numerator */\n      dup4\n        /* \"contract/dex/pool.sol\":4859:4882  numerator / denominator */\n      tag_77\n      jump\t// in\n    tag_76:\n        /* \"contract/dex/pool.sol\":4852:4882  return numerator / denominator */\n      swap6\n      pop\n      pop\n      pop\n      pop\n      pop\n      pop\n        /* \"contract/dex/pool.sol\":4237:4889  function getSwapAmount(uint256 inputAmount, address inputToken) public view returns (uint256) {... */\n    tag_68:\n      swap3\n      swap2\n      pop\n      pop\n      jump\t// out\n        /* \"contract/dex/pool.sol\":928:1724  function provideLiquidity(uint256 amountA, uint256 amountB) external returns (uint256 liquidityMinted) {... */\n    tag_42:\n        /* \"contract/dex/pool.sol\":1006:1029  uint256 liquidityMinted */\n      0x00\n        /* \"contract/dex/pool.sol\":1059:1060  0 */\n      dup1\n        /* \"contract/dex/pool.sol\":1049:1056  amountA */\n      dup4\n        /* \"contract/dex/pool.sol\":1049:1060  amountA > 0 */\n      gt\n        /* \"contract/dex/pool.sol\":1049:1075  amountA > 0 && amountB > 0 */\n      dup1\n      iszero\n      tag_79\n      jumpi\n      pop\n        /* \"contract/dex/pool.sol\":1074:1075  0 */\n      0x00\n        /* \"contract/dex/pool.sol\":1064:1071  amountB */\n      dup3\n        /* \"contract/dex/pool.sol\":1064:1075  amountB > 0 */\n      gt\n        /* \"contract/dex/pool.sol\":1049:1075  amountA > 0 && amountB > 0 */\n    tag_79:\n        /* \"contract/dex/pool.sol\":1041:1110  require(amountA > 0 && amountB > 0, \"Amounts must be greater than 0\") */\n      tag_80\n      jumpi\n      mload(0x40)\n      shl(0xe5, 0x461bcd)\n      dup2\n      mstore\n        /* \"#utility.yul\":3941:3943   */\n      0x20\n        /* \"contract/dex/pool.sol\":1041:1110  require(amountA > 0 && amountB > 0, \"Amounts must be greater than 0\") */\n      0x04\n      dup3\n      add\n        /* \"#utility.yul\":3923:3944   */\n      mstore\n        /* \"#utility.yul\":3980:3982   */\n      0x1e\n        /* \"#utility.yul\":3960:3978   */\n      0x24\n      dup3\n      add\n        /* \"#utility.yul\":3953:3983   */\n      mstore\n        /* \"#utility.yul\":4019:4051   */\n      0x416d6f756e7473206d7573742062652067726561746572207468616e20300000\n        /* \"#utility.yul\":3999:4017   */\n      0x44\n      dup3\n      add\n        /* \"#utility.yul\":3992:4052   */\n      mstore\n        /* \"#utility.yul\":4069:4087   */\n      0x64\n      add\n        /* \"contract/dex/pool.sol\":1041:1110  require(amountA > 0 && amountB > 0, \"Amounts must be greater than 0\") */\n    tag_81:\n      mload(0x40)\n      dup1\n      swap2\n      sub\n      swap1\n      revert\n    tag_80:\n        /* \"contract/dex/pool.sol\":1164:1170  tokenA */\n      sload(0x00)\n        /* \"contract/dex/pool.sol\":1164:1219  tokenA.transferFrom(msg.sender, address(this), amountA) */\n      mload(0x40)\n      shl(0xe0, 0x23b872dd)\n      dup2\n      mstore\n        /* \"contract/dex/pool.sol\":1184:1194  msg.sender */\n      caller\n        /* \"contract/dex/pool.sol\":1164:1219  tokenA.transferFrom(msg.sender, address(this), amountA) */\n      0x04\n      dup3\n      add\n        /* \"#utility.yul\":4300:4351   */\n      mstore\n        /* \"contract/dex/pool.sol\":1204:1208  this */\n      address\n        /* \"#utility.yul\":4367:4385   */\n      0x24\n      dup3\n      add\n        /* \"#utility.yul\":4360:4420   */\n      mstore\n        /* \"#utility.yul\":4436:4454   */\n      0x44\n      dup2\n      add\n        /* \"#utility.yul\":4429:4463   */\n      dup6\n      swap1\n      mstore\n      sub(shl(0xa0, 0x01), 0x01)\n        /* \"contract/dex/pool.sol\":1164:1170  tokenA */\n      swap1\n      swap2\n      and\n      swap1\n        /* \"contract/dex/pool.sol\":1164:1183  tokenA.transferFrom */\n      0x23b872dd\n      swap1\n        /* \"#utility.yul\":4273:4291   */\n      0x64\n      add\n        /* \"contract/dex/pool.sol\":1164:1219  tokenA.transferFrom(msg.sender, address(this), amountA) */\n      0x20\n      mload(0x40)\n      dup1\n      dup4\n      sub\n      dup2\n      0x00\n      dup8\n      gas\n      call\n      iszero\n      dup1\n      iszero\n      tag_86\n      jumpi\n      returndatasize\n      0x00\n      dup1\n      returndatacopy\n      revert(0x00, returndatasize)\n    tag_86:\n      pop\n      pop\n      pop\n      pop\n      mload(0x40)\n      returndatasize\n      not(0x1f)\n      0x1f\n      dup3\n      add\n      and\n      dup3\n      add\n      dup1\n      0x40\n      mstore\n      pop\n      dup2\n      add\n      swap1\n      tag_87\n      swap2\n      swap1\n      tag_88\n      jump\t// in\n    tag_87:\n      pop\n        /* \"contract/dex/pool.sol\":1229:1235  tokenB */\n      sload(0x01)\n        /* \"contract/dex/pool.sol\":1229:1284  tokenB.transferFrom(msg.sender, address(this), amountB) */\n      mload(0x40)\n      shl(0xe0, 0x23b872dd)\n      dup2\n      mstore\n        /* \"contract/dex/pool.sol\":1249:1259  msg.sender */\n      caller\n        /* \"contract/dex/pool.sol\":1229:1284  tokenB.transferFrom(msg.sender, address(this), amountB) */\n      0x04\n      dup3\n      add\n        /* \"#utility.yul\":4300:4351   */\n      mstore\n        /* \"contract/dex/pool.sol\":1269:1273  this */\n      address\n        /* \"#utility.yul\":4367:4385   */\n      0x24\n      dup3\n      add\n        /* \"#utility.yul\":4360:4420   */\n      mstore\n        /* \"#utility.yul\":4436:4454   */\n      0x44\n      dup2\n      add\n        /* \"#utility.yul\":4429:4463   */\n      dup5\n      swap1\n      mstore\n      sub(shl(0xa0, 0x01), 0x01)\n        /* \"contract/dex/pool.sol\":1229:1235  tokenB */\n      swap1\n      swap2\n      and\n      swap1\n        /* \"contract/dex/pool.sol\":1229:1248  tokenB.transferFrom */\n      0x23b872dd\n      swap1\n        /* \"#utility.yul\":4273:4291   */\n      0x64\n      add\n        /* \"contract/dex/pool.sol\":1229:1284  tokenB.transferFrom(msg.sender, address(this), amountB) */\n      0x20\n      mload(0x40)\n      dup1\n      dup4\n      sub\n      dup2\n      0x00\n      dup8\n      gas\n      call\n      iszero\n      dup1\n      iszero\n      tag_91\n      jumpi\n      returndatasize\n      0x00\n      dup1\n      returndatacopy\n      revert(0x00, returndatasize)\n    tag_91:\n      pop\n      pop\n      pop\n      pop\n      mload(0x40)\n      returndatasize\n      not(0x1f)\n      0x1f\n      dup3\n      add\n      and\n      dup3\n      add\n      dup1\n      0x40\n      mstore\n      pop\n      dup2\n      add\n      swap1\n      tag_92\n      swap2\n      swap1\n      tag_88\n      jump\t// in\n    tag_92:\n      pop\n        /* \"contract/dex/pool.sol\":1299:1313  totalLiquidity */\n      sload(0x04)\n        /* \"contract/dex/pool.sol\":1317:1318  0 */\n      0x00\n        /* \"contract/dex/pool.sol\":1299:1318  totalLiquidity == 0 */\n      sub\n        /* \"contract/dex/pool.sol\":1295:1486  if (totalLiquidity == 0) {... */\n      tag_93\n      jumpi\n      pop\n        /* \"contract/dex/pool.sol\":1352:1359  amountA */\n      dup2\n        /* \"contract/dex/pool.sol\":1295:1486  if (totalLiquidity == 0) {... */\n      jump(tag_94)\n    tag_93:\n        /* \"contract/dex/pool.sol\":1467:1475  reserveA */\n      sload(0x02)\n        /* \"contract/dex/pool.sol\":1449:1463  totalLiquidity */\n      sload(0x04)\n        /* \"contract/dex/pool.sol\":1439:1463  amountA * totalLiquidity */\n      tag_95\n      swap1\n        /* \"contract/dex/pool.sol\":1439:1446  amountA */\n      dup6\n        /* \"contract/dex/pool.sol\":1439:1463  amountA * totalLiquidity */\n      tag_72\n      jump\t// in\n    tag_95:\n        /* \"contract/dex/pool.sol\":1438:1475  (amountA * totalLiquidity) / reserveA */\n      tag_96\n      swap2\n      swap1\n      tag_77\n      jump\t// in\n    tag_96:\n        /* \"contract/dex/pool.sol\":1420:1475  liquidityMinted = (amountA * totalLiquidity) / reserveA */\n      swap1\n      pop\n        /* \"contract/dex/pool.sol\":1295:1486  if (totalLiquidity == 0) {... */\n    tag_94:\n        /* \"contract/dex/pool.sol\":1508:1515  amountA */\n      dup3\n        /* \"contract/dex/pool.sol\":1496:1504  reserveA */\n      0x02\n      0x00\n        /* \"contract/dex/pool.sol\":1496:1515  reserveA += amountA */\n      dup3\n      dup3\n      sload\n      tag_97\n      swap2\n      swap1\n      tag_75\n      jump\t// in\n    tag_97:\n      swap3\n      pop\n      pop\n      dup2\n      swap1\n      sstore\n      pop\n        /* \"contract/dex/pool.sol\":1537:1544  amountB */\n      dup2\n        /* \"contract/dex/pool.sol\":1525:1533  reserveB */\n      0x03\n      0x00\n        /* \"contract/dex/pool.sol\":1525:1544  reserveB += amountB */\n      dup3\n      dup3\n      sload\n      tag_98\n      swap2\n      swap1\n      tag_75\n      jump\t// in\n    tag_98:\n      swap3\n      pop\n      pop\n      dup2\n      swap1\n      sstore\n      pop\n        /* \"contract/dex/pool.sol\":1572:1587  liquidityMinted */\n      dup1\n        /* \"contract/dex/pool.sol\":1554:1568  totalLiquidity */\n      0x04\n      0x00\n        /* \"contract/dex/pool.sol\":1554:1587  totalLiquidity += liquidityMinted */\n      dup3\n      dup3\n      sload\n      tag_99\n      swap2\n      swap1\n      tag_75\n      jump\t// in\n    tag_99:\n      swap1\n      swap2\n      sstore\n      pop\n      pop\n        /* \"contract/dex/pool.sol\":1607:1617  msg.sender */\n      caller\n        /* \"contract/dex/pool.sol\":1597:1618  liquidity[msg.sender] */\n      0x00\n      swap1\n      dup2\n      mstore\n        /* \"contract/dex/pool.sol\":1597:1606  liquidity */\n      0x05\n        /* \"contract/dex/pool.sol\":1597:1618  liquidity[msg.sender] */\n      0x20\n      mstore\n      0x40\n      dup2\n      keccak256\n        /* \"contract/dex/pool.sol\":1597:1637  liquidity[msg.sender] += liquidityMinted */\n      dup1\n      sload\n        /* \"contract/dex/pool.sol\":1622:1637  liquidityMinted */\n      dup4\n      swap3\n        /* \"contract/dex/pool.sol\":1597:1618  liquidity[msg.sender] */\n      swap1\n        /* \"contract/dex/pool.sol\":1597:1637  liquidity[msg.sender] += liquidityMinted */\n      tag_100\n      swap1\n        /* \"contract/dex/pool.sol\":1622:1637  liquidityMinted */\n      dup5\n      swap1\n        /* \"contract/dex/pool.sol\":1597:1637  liquidity[msg.sender] += liquidityMinted */\n      tag_75\n      jump\t// in\n    tag_100:\n      swap1\n      swap2\n      sstore\n      pop\n      pop\n        /* \"contract/dex/pool.sol\":1653:1717  LiquidityProvided(msg.sender, amountA, amountB, liquidityMinted) */\n      0x40\n      dup1\n      mload\n        /* \"#utility.yul\":4958:4983   */\n      dup5\n      dup2\n      mstore\n        /* \"#utility.yul\":5014:5016   */\n      0x20\n        /* \"#utility.yul\":4999:5017   */\n      dup2\n      add\n        /* \"#utility.yul\":4992:5026   */\n      dup5\n      swap1\n      mstore\n        /* \"#utility.yul\":5042:5060   */\n      swap1\n      dup2\n      add\n        /* \"#utility.yul\":5035:5069   */\n      dup3\n      swap1\n      mstore\n        /* \"contract/dex/pool.sol\":1671:1681  msg.sender */\n      caller\n      swap1\n        /* \"contract/dex/pool.sol\":1653:1717  LiquidityProvided(msg.sender, amountA, amountB, liquidityMinted) */\n      0x3bca7014f4c0ccc8016338c79f4c00e82068dbadaf4f01ca5449040fdd39f500\n      swap1\n        /* \"#utility.yul\":4946:4948   */\n      0x60\n        /* \"#utility.yul\":4931:4949   */\n      add\n        /* \"contract/dex/pool.sol\":1653:1717  LiquidityProvided(msg.sender, amountA, amountB, liquidityMinted) */\n      mload(0x40)\n      dup1\n      swap2\n      sub\n      swap1\n      log2\n        /* \"contract/dex/pool.sol\":928:1724  function provideLiquidity(uint256 amountA, uint256 amountB) external returns (uint256 liquidityMinted) {... */\n      swap3\n      swap2\n      pop\n      pop\n      jump\t// out\n        /* \"contract/dex/pool.sol\":2452:4231  function swap(address inputToken, uint256 inputAmount, address recipient, uint256 minAmount) public returns (uint256 outputAmount) {... */\n    tag_47:\n        /* \"contract/dex/pool.sol\":2561:2581  uint256 outputAmount */\n      0x00\n        /* \"contract/dex/pool.sol\":2611:2612  0 */\n      dup1\n        /* \"contract/dex/pool.sol\":2597:2608  inputAmount */\n      dup5\n        /* \"contract/dex/pool.sol\":2597:2612  inputAmount > 0 */\n      gt\n        /* \"contract/dex/pool.sol\":2589:2652  require(inputAmount > 0, \"Input amount must be greater than 0\") */\n      tag_104\n      jumpi\n      mload(0x40)\n      shl(0xe5, 0x461bcd)\n      dup2\n      mstore\n        /* \"#utility.yul\":5282:5284   */\n      0x20\n        /* \"contract/dex/pool.sol\":2589:2652  require(inputAmount > 0, \"Input amount must be greater than 0\") */\n      0x04\n      dup3\n      add\n        /* \"#utility.yul\":5264:5285   */\n      mstore\n        /* \"#utility.yul\":5321:5323   */\n      0x23\n        /* \"#utility.yul\":5301:5319   */\n      0x24\n      dup3\n      add\n        /* \"#utility.yul\":5294:5324   */\n      mstore\n        /* \"#utility.yul\":5360:5394   */\n      0x496e70757420616d6f756e74206d757374206265206772656174657220746861\n        /* \"#utility.yul\":5340:5358   */\n      0x44\n      dup3\n      add\n        /* \"#utility.yul\":5333:5395   */\n      mstore\n      shl(0xec, 0x06e203)\n        /* \"#utility.yul\":5411:5429   */\n      0x64\n      dup3\n      add\n        /* \"#utility.yul\":5404:5437   */\n      mstore\n        /* \"#utility.yul\":5454:5473   */\n      0x84\n      add\n        /* \"contract/dex/pool.sol\":2589:2652  require(inputAmount > 0, \"Input amount must be greater than 0\") */\n      tag_81\n        /* \"#utility.yul\":5080:5479   */\n      jump\n        /* \"contract/dex/pool.sol\":2589:2652  require(inputAmount > 0, \"Input amount must be greater than 0\") */\n    tag_104:\n        /* \"contract/dex/pool.sol\":2688:2694  tokenA */\n      sload(0x00)\n      sub(shl(0xa0, 0x01), 0x01)\n        /* \"contract/dex/pool.sol\":2666:2695  inputToken == address(tokenA) */\n      dup7\n      dup2\n      and\n        /* \"contract/dex/pool.sol\":2688:2694  tokenA */\n      swap2\n      and\n        /* \"contract/dex/pool.sol\":2666:2695  inputToken == address(tokenA) */\n      eq\n      dup1\n        /* \"contract/dex/pool.sol\":2666:2728  inputToken == address(tokenA) || inputToken == address(tokenB) */\n      tag_107\n      jumpi\n      pop\n        /* \"contract/dex/pool.sol\":2721:2727  tokenB */\n      sload(0x01)\n      sub(shl(0xa0, 0x01), 0x01)\n        /* \"contract/dex/pool.sol\":2699:2728  inputToken == address(tokenB) */\n      dup7\n      dup2\n      and\n        /* \"contract/dex/pool.sol\":2721:2727  tokenB */\n      swap2\n      and\n        /* \"contract/dex/pool.sol\":2699:2728  inputToken == address(tokenB) */\n      eq\n        /* \"contract/dex/pool.sol\":2666:2728  inputToken == address(tokenA) || inputToken == address(tokenB) */\n    tag_107:\n        /* \"contract/dex/pool.sol\":2658:2746  require(inputToken == address(tokenA) || inputToken == address(tokenB), \"Invalid token\") */\n      tag_108\n      jumpi\n      mload(0x40)\n      shl(0xe5, 0x461bcd)\n      dup2\n      mstore\n        /* \"#utility.yul\":5686:5688   */\n      0x20\n        /* \"contract/dex/pool.sol\":2658:2746  require(inputToken == address(tokenA) || inputToken == address(tokenB), \"Invalid token\") */\n      0x04\n      dup3\n      add\n        /* \"#utility.yul\":5668:5689   */\n      mstore\n        /* \"#utility.yul\":5725:5727   */\n      0x0d\n        /* \"#utility.yul\":5705:5723   */\n      0x24\n      dup3\n      add\n        /* \"#utility.yul\":5698:5728   */\n      mstore\n      shl(0x99, 0x24b73b30b634b2103a37b5b2b7)\n        /* \"#utility.yul\":5744:5762   */\n      0x44\n      dup3\n      add\n        /* \"#utility.yul\":5737:5780   */\n      mstore\n        /* \"#utility.yul\":5797:5815   */\n      0x64\n      add\n        /* \"contract/dex/pool.sol\":2658:2746  require(inputToken == address(tokenA) || inputToken == address(tokenB), \"Invalid token\") */\n      tag_81\n        /* \"#utility.yul\":5484:5821   */\n      jump\n        /* \"contract/dex/pool.sol\":2658:2746  require(inputToken == address(tokenA) || inputToken == address(tokenB), \"Invalid token\") */\n    tag_108:\n      sub(shl(0xa0, 0x01), 0x01)\n        /* \"contract/dex/pool.sol\":2760:2783  recipient != address(0) */\n      dup4\n      and\n        /* \"contract/dex/pool.sol\":2752:2828  require(recipient != address(0), \"Recipient address cannot be zero address\") */\n      tag_111\n      jumpi\n      mload(0x40)\n      shl(0xe5, 0x461bcd)\n      dup2\n      mstore\n        /* \"#utility.yul\":6028:6030   */\n      0x20\n        /* \"contract/dex/pool.sol\":2752:2828  require(recipient != address(0), \"Recipient address cannot be zero address\") */\n      0x04\n      dup3\n      add\n        /* \"#utility.yul\":6010:6031   */\n      mstore\n        /* \"#utility.yul\":6067:6069   */\n      0x28\n        /* \"#utility.yul\":6047:6065   */\n      0x24\n      dup3\n      add\n        /* \"#utility.yul\":6040:6070   */\n      mstore\n        /* \"#utility.yul\":6106:6140   */\n      0x526563697069656e7420616464726573732063616e6e6f74206265207a65726f\n        /* \"#utility.yul\":6086:6104   */\n      0x44\n      dup3\n      add\n        /* \"#utility.yul\":6079:6141   */\n      mstore\n      shl(0xc0, 0x2061646472657373)\n        /* \"#utility.yul\":6157:6175   */\n      0x64\n      dup3\n      add\n        /* \"#utility.yul\":6150:6188   */\n      mstore\n        /* \"#utility.yul\":6205:6224   */\n      0x84\n      add\n        /* \"contract/dex/pool.sol\":2752:2828  require(recipient != address(0), \"Recipient address cannot be zero address\") */\n      tag_81\n        /* \"#utility.yul\":5826:6230   */\n      jump\n        /* \"contract/dex/pool.sol\":2752:2828  require(recipient != address(0), \"Recipient address cannot be zero address\") */\n    tag_111:\n        /* \"contract/dex/pool.sol\":2835:2906  IERC20(inputToken).transferFrom(msg.sender, address(this), inputAmount) */\n      mload(0x40)\n      shl(0xe0, 0x23b872dd)\n      dup2\n      mstore\n        /* \"contract/dex/pool.sol\":2867:2877  msg.sender */\n      caller\n        /* \"contract/dex/pool.sol\":2835:2906  IERC20(inputToken).transferFrom(msg.sender, address(this), inputAmount) */\n      0x04\n      dup3\n      add\n        /* \"#utility.yul\":4300:4351   */\n      mstore\n        /* \"contract/dex/pool.sol\":2887:2891  this */\n      address\n        /* \"#utility.yul\":4367:4385   */\n      0x24\n      dup3\n      add\n        /* \"#utility.yul\":4360:4420   */\n      mstore\n        /* \"#utility.yul\":4436:4454   */\n      0x44\n      dup2\n      add\n        /* \"#utility.yul\":4429:4463   */\n      dup6\n      swap1\n      mstore\n      sub(shl(0xa0, 0x01), 0x01)\n        /* \"contract/dex/pool.sol\":2835:2866  IERC20(inputToken).transferFrom */\n      dup7\n      and\n      swap1\n      0x23b872dd\n      swap1\n        /* \"#utility.yul\":4273:4291   */\n      0x64\n      add\n        /* \"contract/dex/pool.sol\":2835:2906  IERC20(inputToken).transferFrom(msg.sender, address(this), inputAmount) */\n      0x20\n      mload(0x40)\n      dup1\n      dup4\n      sub\n      dup2\n      0x00\n      dup8\n      gas\n      call\n      iszero\n      dup1\n      iszero\n      tag_116\n      jumpi\n      returndatasize\n      0x00\n      dup1\n      returndatacopy\n      revert(0x00, returndatasize)\n    tag_116:\n      pop\n      pop\n      pop\n      pop\n      mload(0x40)\n      returndatasize\n      not(0x1f)\n      0x1f\n      dup3\n      add\n      and\n      dup3\n      add\n      dup1\n      0x40\n      mstore\n      pop\n      dup2\n      add\n      swap1\n      tag_117\n      swap2\n      swap1\n      tag_88\n      jump\t// in\n    tag_117:\n      pop\n        /* \"contract/dex/pool.sol\":2913:2924  uint256 fee */\n      0x00\n        /* \"contract/dex/pool.sol\":2947:2951  1000 */\n      0x03e8\n        /* \"contract/dex/pool.sol\":2928:2943  inputAmount * 3 */\n      tag_118\n        /* \"contract/dex/pool.sol\":2928:2939  inputAmount */\n      dup7\n        /* \"contract/dex/pool.sol\":2942:2943  3 */\n      0x03\n        /* \"contract/dex/pool.sol\":2928:2943  inputAmount * 3 */\n      tag_72\n      jump\t// in\n    tag_118:\n        /* \"contract/dex/pool.sol\":2927:2951  (inputAmount * 3) / 1000 */\n      tag_119\n      swap2\n      swap1\n      tag_77\n      jump\t// in\n    tag_119:\n        /* \"contract/dex/pool.sol\":2913:2951  uint256 fee = (inputAmount * 3) / 1000 */\n      swap1\n      pop\n        /* \"contract/dex/pool.sol\":2969:2996  uint256 inputAmountAfterFee */\n      0x00\n        /* \"contract/dex/pool.sol\":2999:3016  inputAmount - fee */\n      tag_120\n        /* \"contract/dex/pool.sol\":2913:2951  uint256 fee = (inputAmount * 3) / 1000 */\n      dup3\n        /* \"contract/dex/pool.sol\":2999:3010  inputAmount */\n      dup8\n        /* \"contract/dex/pool.sol\":2999:3016  inputAmount - fee */\n      tag_121\n      jump\t// in\n    tag_120:\n        /* \"contract/dex/pool.sol\":3049:3055  tokenA */\n      sload(0x00)\n        /* \"contract/dex/pool.sol\":2969:3016  uint256 inputAmountAfterFee = inputAmount - fee */\n      swap1\n      swap2\n      pop\n      sub(shl(0xa0, 0x01), 0x01)\n        /* \"contract/dex/pool.sol\":3049:3055  tokenA */\n      swap1\n      dup2\n      and\n        /* \"contract/dex/pool.sol\":3027:3056  inputToken == address(tokenA) */\n      swap1\n      dup9\n      and\n      sub\n        /* \"contract/dex/pool.sol\":3023:4162  if (inputToken == address(tokenA)) {... */\n      tag_122\n      jumpi\n        /* \"contract/dex/pool.sol\":3102:3123  uint256 outputAmountB */\n      0x00\n        /* \"contract/dex/pool.sol\":3126:3172  getSwapAmount(inputAmountAfterFee, inputToken) */\n      tag_123\n        /* \"contract/dex/pool.sol\":3140:3159  inputAmountAfterFee */\n      dup3\n        /* \"contract/dex/pool.sol\":3161:3171  inputToken */\n      dup10\n        /* \"contract/dex/pool.sol\":3126:3139  getSwapAmount */\n      tag_34\n        /* \"contract/dex/pool.sol\":3126:3172  getSwapAmount(inputAmountAfterFee, inputToken) */\n      jump\t// in\n    tag_123:\n        /* \"contract/dex/pool.sol\":3102:3172  uint256 outputAmountB = getSwapAmount(inputAmountAfterFee, inputToken) */\n      swap1\n      pop\n        /* \"contract/dex/pool.sol\":3207:3216  minAmount */\n      dup5\n        /* \"contract/dex/pool.sol\":3190:3203  outputAmountB */\n      dup2\n        /* \"contract/dex/pool.sol\":3190:3216  outputAmountB >= minAmount */\n      lt\n      iszero\n        /* \"contract/dex/pool.sol\":3182:3271  require(outputAmountB >= minAmount, \"Receiving amount less than minimum required amount\") */\n      tag_124\n      jumpi\n      mload(0x40)\n      shl(0xe5, 0x461bcd)\n      dup2\n      mstore\n      0x04\n      add\n      tag_81\n      swap1\n      tag_126\n      jump\t// in\n    tag_124:\n        /* \"contract/dex/pool.sol\":3294:3313  inputAmountAfterFee */\n      dup2\n        /* \"contract/dex/pool.sol\":3282:3290  reserveA */\n      0x02\n      0x00\n        /* \"contract/dex/pool.sol\":3282:3313  reserveA += inputAmountAfterFee */\n      dup3\n      dup3\n      sload\n      tag_127\n      swap2\n      swap1\n      tag_75\n      jump\t// in\n    tag_127:\n      swap3\n      pop\n      pop\n      dup2\n      swap1\n      sstore\n      pop\n        /* \"contract/dex/pool.sol\":3386:3399  outputAmountB */\n      dup1\n        /* \"contract/dex/pool.sol\":3374:3382  reserveB */\n      0x03\n      0x00\n        /* \"contract/dex/pool.sol\":3374:3399  reserveB -= outputAmountB */\n      dup3\n      dup3\n      sload\n      tag_128\n      swap2\n      swap1\n      tag_121\n      jump\t// in\n    tag_128:\n      swap1\n      swap2\n      sstore\n      pop\n      pop\n        /* \"contract/dex/pool.sol\":3449:3455  tokenB */\n      sload(0x01)\n        /* \"contract/dex/pool.sol\":3449:3490  tokenB.transfer(recipient, outputAmountB) */\n      mload(0x40)\n      shl(0xe0, 0xa9059cbb)\n      dup2\n      mstore\n      sub(shl(0xa0, 0x01), 0x01)\n        /* \"#utility.yul\":6979:7011   */\n      dup9\n      dup2\n      and\n        /* \"contract/dex/pool.sol\":3449:3490  tokenB.transfer(recipient, outputAmountB) */\n      0x04\n      dup4\n      add\n        /* \"#utility.yul\":6961:7012   */\n      mstore\n        /* \"#utility.yul\":7028:7046   */\n      0x24\n      dup3\n      add\n        /* \"#utility.yul\":7021:7055   */\n      dup5\n      swap1\n      mstore\n        /* \"contract/dex/pool.sol\":3449:3455  tokenB */\n      swap1\n      swap2\n      and\n      swap1\n        /* \"contract/dex/pool.sol\":3449:3464  tokenB.transfer */\n      0xa9059cbb\n      swap1\n        /* \"#utility.yul\":6934:6952   */\n      0x44\n      add\n        /* \"contract/dex/pool.sol\":3449:3490  tokenB.transfer(recipient, outputAmountB) */\n      0x20\n      mload(0x40)\n      dup1\n      dup4\n      sub\n      dup2\n      0x00\n      dup8\n      gas\n      call\n      iszero\n      dup1\n      iszero\n      tag_132\n      jumpi\n      returndatasize\n      0x00\n      dup1\n      returndatacopy\n      revert(0x00, returndatasize)\n    tag_132:\n      pop\n      pop\n      pop\n      pop\n      mload(0x40)\n      returndatasize\n      not(0x1f)\n      0x1f\n      dup3\n      add\n      and\n      dup3\n      add\n      dup1\n      0x40\n      mstore\n      pop\n      dup2\n      add\n      swap1\n      tag_133\n      swap2\n      swap1\n      tag_88\n      jump\t// in\n    tag_133:\n      pop\n        /* \"contract/dex/pool.sol\":3515:3528  outputAmountB */\n      dup1\n        /* \"contract/dex/pool.sol\":3500:3528  outputAmount = outputAmountB */\n      swap4\n      pop\n        /* \"contract/dex/pool.sol\":3550:3553  fee */\n      dup3\n        /* \"contract/dex/pool.sol\":3538:3546  reserveA */\n      0x02\n      0x00\n        /* \"contract/dex/pool.sol\":3538:3553  reserveA += fee */\n      dup3\n      dup3\n      sload\n      tag_134\n      swap2\n      swap1\n      tag_75\n      jump\t// in\n    tag_134:\n      swap1\n      swap2\n      sstore\n      pop\n        /* \"contract/dex/pool.sol\":3023:4162  if (inputToken == address(tokenA)) {... */\n      tag_135\n      swap2\n      pop\n      pop\n      jump\n    tag_122:\n        /* \"contract/dex/pool.sol\":3657:3678  uint256 outputAmountA */\n      0x00\n        /* \"contract/dex/pool.sol\":3681:3727  getSwapAmount(inputAmountAfterFee, inputToken) */\n      tag_136\n        /* \"contract/dex/pool.sol\":3695:3714  inputAmountAfterFee */\n      dup3\n        /* \"contract/dex/pool.sol\":3716:3726  inputToken */\n      dup10\n        /* \"contract/dex/pool.sol\":3681:3694  getSwapAmount */\n      tag_34\n        /* \"contract/dex/pool.sol\":3681:3727  getSwapAmount(inputAmountAfterFee, inputToken) */\n      jump\t// in\n    tag_136:\n        /* \"contract/dex/pool.sol\":3657:3727  uint256 outputAmountA = getSwapAmount(inputAmountAfterFee, inputToken) */\n      swap1\n      pop\n        /* \"contract/dex/pool.sol\":3762:3771  minAmount */\n      dup5\n        /* \"contract/dex/pool.sol\":3745:3758  outputAmountA */\n      dup2\n        /* \"contract/dex/pool.sol\":3745:3771  outputAmountA >= minAmount */\n      lt\n      iszero\n        /* \"contract/dex/pool.sol\":3737:3826  require(outputAmountA >= minAmount, \"Receiving amount less than minimum required amount\") */\n      tag_137\n      jumpi\n      mload(0x40)\n      shl(0xe5, 0x461bcd)\n      dup2\n      mstore\n      0x04\n      add\n      tag_81\n      swap1\n      tag_126\n      jump\t// in\n    tag_137:\n        /* \"contract/dex/pool.sol\":3849:3868  inputAmountAfterFee */\n      dup2\n        /* \"contract/dex/pool.sol\":3837:3845  reserveB */\n      0x03\n      0x00\n        /* \"contract/dex/pool.sol\":3837:3868  reserveB += inputAmountAfterFee */\n      dup3\n      dup3\n      sload\n      tag_139\n      swap2\n      swap1\n      tag_75\n      jump\t// in\n    tag_139:\n      swap3\n      pop\n      pop\n      dup2\n      swap1\n      sstore\n      pop\n        /* \"contract/dex/pool.sol\":3941:3954  outputAmountA */\n      dup1\n        /* \"contract/dex/pool.sol\":3929:3937  reserveA */\n      0x02\n      0x00\n        /* \"contract/dex/pool.sol\":3929:3954  reserveA -= outputAmountA */\n      dup3\n      dup3\n      sload\n      tag_140\n      swap2\n      swap1\n      tag_121\n      jump\t// in\n    tag_140:\n      swap1\n      swap2\n      sstore\n      pop\n      pop\n        /* \"contract/dex/pool.sol\":4004:4010  tokenA */\n      sload(0x00)\n        /* \"contract/dex/pool.sol\":4004:4045  tokenA.transfer(recipient, outputAmountA) */\n      mload(0x40)\n      shl(0xe0, 0xa9059cbb)\n      dup2\n      mstore\n      sub(shl(0xa0, 0x01), 0x01)\n        /* \"#utility.yul\":6979:7011   */\n      dup9\n      dup2\n      and\n        /* \"contract/dex/pool.sol\":4004:4045  tokenA.transfer(recipient, outputAmountA) */\n      0x04\n      dup4\n      add\n        /* \"#utility.yul\":6961:7012   */\n      mstore\n        /* \"#utility.yul\":7028:7046   */\n      0x24\n      dup3\n      add\n        /* \"#utility.yul\":7021:7055   */\n      dup5\n      swap1\n      mstore\n        /* \"contract/dex/pool.sol\":4004:4010  tokenA */\n      swap1\n      swap2\n      and\n      swap1\n        /* \"contract/dex/pool.sol\":4004:4019  tokenA.transfer */\n      0xa9059cbb\n      swap1\n        /* \"#utility.yul\":6934:6952   */\n      0x44\n      add\n        /* \"contract/dex/pool.sol\":4004:4045  tokenA.transfer(recipient, outputAmountA) */\n      0x20\n      mload(0x40)\n      dup1\n      dup4\n      sub\n      dup2\n      0x00\n      dup8\n      gas\n      call\n      iszero\n      dup1\n      iszero\n      tag_143\n      jumpi\n      returndatasize\n      0x00\n      dup1\n      returndatacopy\n      revert(0x00, returndatasize)\n    tag_143:\n      pop\n      pop\n      pop\n      pop\n      mload(0x40)\n      returndatasize\n      not(0x1f)\n      0x1f\n      dup3\n      add\n      and\n      dup3\n      add\n      dup1\n      0x40\n      mstore\n      pop\n      dup2\n      add\n      swap1\n      tag_144\n      swap2\n      swap1\n      tag_88\n      jump\t// in\n    tag_144:\n      pop\n        /* \"contract/dex/pool.sol\":4070:4083  outputAmountA */\n      dup1\n        /* \"contract/dex/pool.sol\":4055:4083  outputAmount = outputAmountA */\n      swap4\n      pop\n        /* \"contract/dex/pool.sol\":4105:4108  fee */\n      dup3\n        /* \"contract/dex/pool.sol\":4093:4101  reserveB */\n      0x03\n      0x00\n        /* \"contract/dex/pool.sol\":4093:4108  reserveB += fee */\n      dup3\n      dup3\n      sload\n      tag_145\n      swap2\n      swap1\n      tag_75\n      jump\t// in\n    tag_145:\n      swap1\n      swap2\n      sstore\n      pop\n      pop\n      pop\n        /* \"contract/dex/pool.sol\":3023:4162  if (inputToken == address(tokenA)) {... */\n    tag_135:\n        /* \"contract/dex/pool.sol\":4173:4228  Swap(msg.sender, inputToken, inputAmount, outputAmount) */\n      0x40\n      dup1\n      mload\n      sub(shl(0xa0, 0x01), 0x01)\n        /* \"#utility.yul\":7286:7318   */\n      dup10\n      and\n        /* \"#utility.yul\":7268:7319   */\n      dup2\n      mstore\n        /* \"#utility.yul\":7350:7352   */\n      0x20\n        /* \"#utility.yul\":7335:7353   */\n      dup2\n      add\n        /* \"#utility.yul\":7328:7362   */\n      dup9\n      swap1\n      mstore\n        /* \"#utility.yul\":7378:7396   */\n      swap1\n      dup2\n      add\n        /* \"#utility.yul\":7371:7405   */\n      dup5\n      swap1\n      mstore\n        /* \"contract/dex/pool.sol\":4178:4188  msg.sender */\n      caller\n      swap1\n        /* \"contract/dex/pool.sol\":4173:4228  Swap(msg.sender, inputToken, inputAmount, outputAmount) */\n      0xfa2dda1cc1b86e41239702756b13effbc1a092b5c57e3ad320fbe4f3b13fe235\n      swap1\n        /* \"#utility.yul\":7256:7258   */\n      0x60\n        /* \"#utility.yul\":7241:7259   */\n      add\n        /* \"contract/dex/pool.sol\":4173:4228  Swap(msg.sender, inputToken, inputAmount, outputAmount) */\n      mload(0x40)\n      dup1\n      swap2\n      sub\n      swap1\n      log2\n        /* \"contract/dex/pool.sol\":2583:4231  {... */\n      pop\n      pop\n        /* \"contract/dex/pool.sol\":2452:4231  function swap(address inputToken, uint256 inputAmount, address recipient, uint256 minAmount) public returns (uint256 outputAmount) {... */\n      swap5\n      swap4\n      pop\n      pop\n      pop\n      pop\n      jump\t// out\n        /* \"contract/dex/pool.sol\":1799:2448  function removeLiquidity(uint256 liquidityAmount) external returns (uint256 amountA, uint256 amountB) {... */\n    tag_52:\n        /* \"contract/dex/pool.sol\":1929:1939  msg.sender */\n      caller\n        /* \"contract/dex/pool.sol\":1867:1882  uint256 amountA */\n      0x00\n        /* \"contract/dex/pool.sol\":1919:1940  liquidity[msg.sender] */\n      swap1\n      dup2\n      mstore\n        /* \"contract/dex/pool.sol\":1919:1928  liquidity */\n      0x05\n        /* \"contract/dex/pool.sol\":1919:1940  liquidity[msg.sender] */\n      0x20\n      mstore\n      0x40\n      dup2\n      keccak256\n      sload\n        /* \"contract/dex/pool.sol\":1867:1882  uint256 amountA */\n      dup2\n      swap1\n        /* \"contract/dex/pool.sol\":1919:1959  liquidity[msg.sender] >= liquidityAmount */\n      dup4\n      gt\n      iszero\n        /* \"contract/dex/pool.sol\":1911:1986  require(liquidity[msg.sender] >= liquidityAmount, \"Insufficient liquidity\") */\n      tag_149\n      jumpi\n      mload(0x40)\n      shl(0xe5, 0x461bcd)\n      dup2\n      mstore\n        /* \"#utility.yul\":7618:7620   */\n      0x20\n        /* \"contract/dex/pool.sol\":1911:1986  require(liquidity[msg.sender] >= liquidityAmount, \"Insufficient liquidity\") */\n      0x04\n      dup3\n      add\n        /* \"#utility.yul\":7600:7621   */\n      mstore\n        /* \"#utility.yul\":7657:7659   */\n      0x16\n        /* \"#utility.yul\":7637:7655   */\n      0x24\n      dup3\n      add\n        /* \"#utility.yul\":7630:7660   */\n      mstore\n      shl(0x50, 0x496e73756666696369656e74206c6971756964697479)\n        /* \"#utility.yul\":7676:7694   */\n      0x44\n      dup3\n      add\n        /* \"#utility.yul\":7669:7721   */\n      mstore\n        /* \"#utility.yul\":7738:7756   */\n      0x64\n      add\n        /* \"contract/dex/pool.sol\":1911:1986  require(liquidity[msg.sender] >= liquidityAmount, \"Insufficient liquidity\") */\n      tag_81\n        /* \"#utility.yul\":7416:7762   */\n      jump\n        /* \"contract/dex/pool.sol\":1911:1986  require(liquidity[msg.sender] >= liquidityAmount, \"Insufficient liquidity\") */\n    tag_149:\n        /* \"contract/dex/pool.sol\":2038:2052  totalLiquidity */\n      sload(0x04)\n        /* \"contract/dex/pool.sol\":2026:2034  reserveA */\n      sload(0x02)\n        /* \"contract/dex/pool.sol\":2008:2034  liquidityAmount * reserveA */\n      tag_152\n      swap1\n        /* \"contract/dex/pool.sol\":2008:2023  liquidityAmount */\n      dup6\n        /* \"contract/dex/pool.sol\":2008:2034  liquidityAmount * reserveA */\n      tag_72\n      jump\t// in\n    tag_152:\n        /* \"contract/dex/pool.sol\":2007:2052  (liquidityAmount * reserveA) / totalLiquidity */\n      tag_153\n      swap2\n      swap1\n      tag_77\n      jump\t// in\n    tag_153:\n        /* \"contract/dex/pool.sol\":1997:2052  amountA = (liquidityAmount * reserveA) / totalLiquidity */\n      swap2\n      pop\n        /* \"contract/dex/pool.sol\":2103:2117  totalLiquidity */\n      sload(0x04)\n        /* \"contract/dex/pool.sol\":2091:2099  reserveB */\n      sload(0x03)\n        /* \"contract/dex/pool.sol\":2073:2088  liquidityAmount */\n      dup5\n        /* \"contract/dex/pool.sol\":2073:2099  liquidityAmount * reserveB */\n      tag_154\n      swap2\n      swap1\n      tag_72\n      jump\t// in\n    tag_154:\n        /* \"contract/dex/pool.sol\":2072:2117  (liquidityAmount * reserveB) / totalLiquidity */\n      tag_155\n      swap2\n      swap1\n      tag_77\n      jump\t// in\n    tag_155:\n        /* \"contract/dex/pool.sol\":2062:2117  amountB = (liquidityAmount * reserveB) / totalLiquidity */\n      swap1\n      pop\n        /* \"contract/dex/pool.sol\":2140:2147  amountA */\n      dup2\n        /* \"contract/dex/pool.sol\":2128:2136  reserveA */\n      0x02\n      0x00\n        /* \"contract/dex/pool.sol\":2128:2147  reserveA -= amountA */\n      dup3\n      dup3\n      sload\n      tag_156\n      swap2\n      swap1\n      tag_121\n      jump\t// in\n    tag_156:\n      swap3\n      pop\n      pop\n      dup2\n      swap1\n      sstore\n      pop\n        /* \"contract/dex/pool.sol\":2169:2176  amountB */\n      dup1\n        /* \"contract/dex/pool.sol\":2157:2165  reserveB */\n      0x03\n      0x00\n        /* \"contract/dex/pool.sol\":2157:2176  reserveB -= amountB */\n      dup3\n      dup3\n      sload\n      tag_157\n      swap2\n      swap1\n      tag_121\n      jump\t// in\n    tag_157:\n      swap3\n      pop\n      pop\n      dup2\n      swap1\n      sstore\n      pop\n        /* \"contract/dex/pool.sol\":2204:2219  liquidityAmount */\n      dup3\n        /* \"contract/dex/pool.sol\":2186:2200  totalLiquidity */\n      0x04\n      0x00\n        /* \"contract/dex/pool.sol\":2186:2219  totalLiquidity -= liquidityAmount */\n      dup3\n      dup3\n      sload\n      tag_158\n      swap2\n      swap1\n      tag_121\n      jump\t// in\n    tag_158:\n      swap1\n      swap2\n      sstore\n      pop\n      pop\n        /* \"contract/dex/pool.sol\":2239:2249  msg.sender */\n      caller\n        /* \"contract/dex/pool.sol\":2229:2250  liquidity[msg.sender] */\n      0x00\n      swap1\n      dup2\n      mstore\n        /* \"contract/dex/pool.sol\":2229:2238  liquidity */\n      0x05\n        /* \"contract/dex/pool.sol\":2229:2250  liquidity[msg.sender] */\n      0x20\n      mstore\n      0x40\n      dup2\n      keccak256\n        /* \"contract/dex/pool.sol\":2229:2269  liquidity[msg.sender] -= liquidityAmount */\n      dup1\n      sload\n        /* \"contract/dex/pool.sol\":2254:2269  liquidityAmount */\n      dup6\n      swap3\n        /* \"contract/dex/pool.sol\":2229:2250  liquidity[msg.sender] */\n      swap1\n        /* \"contract/dex/pool.sol\":2229:2269  liquidity[msg.sender] -= liquidityAmount */\n      tag_159\n      swap1\n        /* \"contract/dex/pool.sol\":2254:2269  liquidityAmount */\n      dup5\n      swap1\n        /* \"contract/dex/pool.sol\":2229:2269  liquidity[msg.sender] -= liquidityAmount */\n      tag_121\n      jump\t// in\n    tag_159:\n      swap1\n      swap2\n      sstore\n      pop\n      pop\n        /* \"contract/dex/pool.sol\":2280:2286  tokenA */\n      sload(0x00)\n        /* \"contract/dex/pool.sol\":2280:2316  tokenA.transfer(msg.sender, amountA) */\n      mload(0x40)\n      shl(0xe0, 0xa9059cbb)\n      dup2\n      mstore\n        /* \"contract/dex/pool.sol\":2296:2306  msg.sender */\n      caller\n        /* \"contract/dex/pool.sol\":2280:2316  tokenA.transfer(msg.sender, amountA) */\n      0x04\n      dup3\n      add\n        /* \"#utility.yul\":6961:7012   */\n      mstore\n        /* \"#utility.yul\":7028:7046   */\n      0x24\n      dup2\n      add\n        /* \"#utility.yul\":7021:7055   */\n      dup5\n      swap1\n      mstore\n      sub(shl(0xa0, 0x01), 0x01)\n        /* \"contract/dex/pool.sol\":2280:2286  tokenA */\n      swap1\n      swap2\n      and\n      swap1\n        /* \"contract/dex/pool.sol\":2280:2295  tokenA.transfer */\n      0xa9059cbb\n      swap1\n        /* \"#utility.yul\":6934:6952   */\n      0x44\n      add\n        /* \"contract/dex/pool.sol\":2280:2316  tokenA.transfer(msg.sender, amountA) */\n      0x20\n      mload(0x40)\n      dup1\n      dup4\n      sub\n      dup2\n      0x00\n      dup8\n      gas\n      call\n      iszero\n      dup1\n      iszero\n      tag_162\n      jumpi\n      returndatasize\n      0x00\n      dup1\n      returndatacopy\n      revert(0x00, returndatasize)\n    tag_162:\n      pop\n      pop\n      pop\n      pop\n      mload(0x40)\n      returndatasize\n      not(0x1f)\n      0x1f\n      dup3\n      add\n      and\n      dup3\n      add\n      dup1\n      0x40\n      mstore\n      pop\n      dup2\n      add\n      swap1\n      tag_163\n      swap2\n      swap1\n      tag_88\n      jump\t// in\n    tag_163:\n      pop\n        /* \"contract/dex/pool.sol\":2326:2332  tokenB */\n      sload(0x01)\n        /* \"contract/dex/pool.sol\":2326:2362  tokenB.transfer(msg.sender, amountB) */\n      mload(0x40)\n      shl(0xe0, 0xa9059cbb)\n      dup2\n      mstore\n        /* \"contract/dex/pool.sol\":2342:2352  msg.sender */\n      caller\n        /* \"contract/dex/pool.sol\":2326:2362  tokenB.transfer(msg.sender, amountB) */\n      0x04\n      dup3\n      add\n        /* \"#utility.yul\":6961:7012   */\n      mstore\n        /* \"#utility.yul\":7028:7046   */\n      0x24\n      dup2\n      add\n        /* \"#utility.yul\":7021:7055   */\n      dup4\n      swap1\n      mstore\n      sub(shl(0xa0, 0x01), 0x01)\n        /* \"contract/dex/pool.sol\":2326:2332  tokenB */\n      swap1\n      swap2\n      and\n      swap1\n        /* \"contract/dex/pool.sol\":2326:2341  tokenB.transfer */\n      0xa9059cbb\n      swap1\n        /* \"#utility.yul\":6934:6952   */\n      0x44\n      add\n        /* \"contract/dex/pool.sol\":2326:2362  tokenB.transfer(msg.sender, amountB) */\n      0x20\n      mload(0x40)\n      dup1\n      dup4\n      sub\n      dup2\n      0x00\n      dup8\n      gas\n      call\n      iszero\n      dup1\n      iszero\n      tag_166\n      jumpi\n      returndatasize\n      0x00\n      dup1\n      returndatacopy\n      revert(0x00, returndatasize)\n    tag_166:\n      pop\n      pop\n      pop\n      pop\n      mload(0x40)\n      returndatasize\n      not(0x1f)\n      0x1f\n      dup3\n      add\n      and\n      dup3\n      add\n      dup1\n      0x40\n      mstore\n      pop\n      dup2\n      add\n      swap1\n      tag_167\n      swap2\n      swap1\n      tag_88\n      jump\t// in\n    tag_167:\n      pop\n        /* \"contract/dex/pool.sol\":2378:2441  LiquidityRemoved(msg.sender, amountA, amountB, liquidityAmount) */\n      0x40\n      dup1\n      mload\n        /* \"#utility.yul\":4958:4983   */\n      dup4\n      dup2\n      mstore\n        /* \"#utility.yul\":5014:5016   */\n      0x20\n        /* \"#utility.yul\":4999:5017   */\n      dup2\n      add\n        /* \"#utility.yul\":4992:5026   */\n      dup4\n      swap1\n      mstore\n        /* \"#utility.yul\":5042:5060   */\n      swap1\n      dup2\n      add\n        /* \"#utility.yul\":5035:5069   */\n      dup5\n      swap1\n      mstore\n        /* \"contract/dex/pool.sol\":2395:2405  msg.sender */\n      caller\n      swap1\n        /* \"contract/dex/pool.sol\":2378:2441  LiquidityRemoved(msg.sender, amountA, amountB, liquidityAmount) */\n      0x1dc8bb69df2b8e91fbdcbfcf93d951b3f0000f085a95fe3f7946d6161439245d\n      swap1\n        /* \"#utility.yul\":4946:4948   */\n      0x60\n        /* \"#utility.yul\":4931:4949   */\n      add\n        /* \"contract/dex/pool.sol\":2378:2441  LiquidityRemoved(msg.sender, amountA, amountB, liquidityAmount) */\n      mload(0x40)\n      dup1\n      swap2\n      sub\n      swap1\n      log2\n        /* \"contract/dex/pool.sol\":1799:2448  function removeLiquidity(uint256 liquidityAmount) external returns (uint256 amountA, uint256 amountB) {... */\n      swap2\n      pop\n      swap2\n      jump\t// out\n        /* \"#utility.yul\":865:1038   */\n    tag_169:\n        /* \"#utility.yul\":933:953   */\n      dup1\n      calldataload\n      sub(shl(0xa0, 0x01), 0x01)\n        /* \"#utility.yul\":982:1013   */\n      dup2\n      and\n        /* \"#utility.yul\":972:1014   */\n      dup2\n      eq\n        /* \"#utility.yul\":962:1032   */\n      tag_176\n      jumpi\n        /* \"#utility.yul\":1028:1029   */\n      0x00\n        /* \"#utility.yul\":1025:1026   */\n      dup1\n        /* \"#utility.yul\":1018:1030   */\n      revert\n        /* \"#utility.yul\":962:1032   */\n    tag_176:\n        /* \"#utility.yul\":865:1038   */\n      swap2\n      swap1\n      pop\n      jump\t// out\n        /* \"#utility.yul\":1043:1343   */\n    tag_33:\n        /* \"#utility.yul\":1111:1117   */\n      0x00\n        /* \"#utility.yul\":1119:1125   */\n      dup1\n        /* \"#utility.yul\":1172:1174   */\n      0x40\n        /* \"#utility.yul\":1160:1169   */\n      dup4\n        /* \"#utility.yul\":1151:1158   */\n      dup6\n        /* \"#utility.yul\":1147:1170   */\n      sub\n        /* \"#utility.yul\":1143:1175   */\n      slt\n        /* \"#utility.yul\":1140:1192   */\n      iszero\n      tag_178\n      jumpi\n        /* \"#utility.yul\":1188:1189   */\n      0x00\n        /* \"#utility.yul\":1185:1186   */\n      dup1\n        /* \"#utility.yul\":1178:1190   */\n      revert\n        /* \"#utility.yul\":1140:1192   */\n    tag_178:\n        /* \"#utility.yul\":1233:1256   */\n      dup3\n      calldataload\n      swap2\n      pop\n        /* \"#utility.yul\":1299:1337   */\n      tag_179\n        /* \"#utility.yul\":1333:1335   */\n      0x20\n        /* \"#utility.yul\":1318:1336   */\n      dup5\n      add\n        /* \"#utility.yul\":1299:1337   */\n      tag_169\n      jump\t// in\n    tag_179:\n        /* \"#utility.yul\":1289:1337   */\n      swap1\n      pop\n        /* \"#utility.yul\":1043:1343   */\n      swap3\n      pop\n      swap3\n      swap1\n      pop\n      jump\t// out\n        /* \"#utility.yul\":1348:1694   */\n    tag_41:\n        /* \"#utility.yul\":1416:1422   */\n      0x00\n        /* \"#utility.yul\":1424:1430   */\n      dup1\n        /* \"#utility.yul\":1477:1479   */\n      0x40\n        /* \"#utility.yul\":1465:1474   */\n      dup4\n        /* \"#utility.yul\":1456:1463   */\n      dup6\n        /* \"#utility.yul\":1452:1475   */\n      sub\n        /* \"#utility.yul\":1448:1480   */\n      slt\n        /* \"#utility.yul\":1445:1497   */\n      iszero\n      tag_181\n      jumpi\n        /* \"#utility.yul\":1493:1494   */\n      0x00\n        /* \"#utility.yul\":1490:1491   */\n      dup1\n        /* \"#utility.yul\":1483:1495   */\n      revert\n        /* \"#utility.yul\":1445:1497   */\n    tag_181:\n      pop\n      pop\n        /* \"#utility.yul\":1538:1561   */\n      dup1\n      calldataload\n      swap3\n        /* \"#utility.yul\":1658:1660   */\n      0x20\n        /* \"#utility.yul\":1643:1661   */\n      swap1\n      swap2\n      add\n        /* \"#utility.yul\":1630:1662   */\n      calldataload\n      swap2\n      pop\n        /* \"#utility.yul\":1348:1694   */\n      jump\t// out\n        /* \"#utility.yul\":1699:2194   */\n    tag_46:\n        /* \"#utility.yul\":1785:1791   */\n      0x00\n        /* \"#utility.yul\":1793:1799   */\n      dup1\n        /* \"#utility.yul\":1801:1807   */\n      0x00\n        /* \"#utility.yul\":1809:1815   */\n      dup1\n        /* \"#utility.yul\":1862:1865   */\n      0x80\n        /* \"#utility.yul\":1850:1859   */\n      dup6\n        /* \"#utility.yul\":1841:1848   */\n      dup8\n        /* \"#utility.yul\":1837:1860   */\n      sub\n        /* \"#utility.yul\":1833:1866   */\n      slt\n        /* \"#utility.yul\":1830:1883   */\n      iszero\n      tag_183\n      jumpi\n        /* \"#utility.yul\":1879:1880   */\n      0x00\n        /* \"#utility.yul\":1876:1877   */\n      dup1\n        /* \"#utility.yul\":1869:1881   */\n      revert\n        /* \"#utility.yul\":1830:1883   */\n    tag_183:\n        /* \"#utility.yul\":1902:1931   */\n      tag_184\n        /* \"#utility.yul\":1921:1930   */\n      dup6\n        /* \"#utility.yul\":1902:1931   */\n      tag_169\n      jump\t// in\n    tag_184:\n        /* \"#utility.yul\":1892:1931   */\n      swap4\n      pop\n        /* \"#utility.yul\":2000:2002   */\n      0x20\n        /* \"#utility.yul\":1985:2003   */\n      dup6\n      add\n        /* \"#utility.yul\":1972:2004   */\n      calldataload\n      swap3\n      pop\n        /* \"#utility.yul\":2047:2085   */\n      tag_185\n        /* \"#utility.yul\":2081:2083   */\n      0x40\n        /* \"#utility.yul\":2066:2084   */\n      dup7\n      add\n        /* \"#utility.yul\":2047:2085   */\n      tag_169\n      jump\t// in\n    tag_185:\n        /* \"#utility.yul\":1699:2194   */\n      swap4\n      swap7\n      swap3\n      swap6\n      pop\n        /* \"#utility.yul\":2037:2085   */\n      swap3\n      swap4\n        /* \"#utility.yul\":2158:2160   */\n      0x60\n        /* \"#utility.yul\":2143:2161   */\n      add\n        /* \"#utility.yul\":2130:2162   */\n      calldataload\n      swap3\n      pop\n      pop\n        /* \"#utility.yul\":1699:2194   */\n      jump\t// out\n        /* \"#utility.yul\":2199:2425   */\n    tag_51:\n        /* \"#utility.yul\":2258:2264   */\n      0x00\n        /* \"#utility.yul\":2311:2313   */\n      0x20\n        /* \"#utility.yul\":2299:2308   */\n      dup3\n        /* \"#utility.yul\":2290:2297   */\n      dup5\n        /* \"#utility.yul\":2286:2309   */\n      sub\n        /* \"#utility.yul\":2282:2314   */\n      slt\n        /* \"#utility.yul\":2279:2331   */\n      iszero\n      tag_187\n      jumpi\n        /* \"#utility.yul\":2327:2328   */\n      0x00\n        /* \"#utility.yul\":2324:2325   */\n      dup1\n        /* \"#utility.yul\":2317:2329   */\n      revert\n        /* \"#utility.yul\":2279:2331   */\n    tag_187:\n      pop\n        /* \"#utility.yul\":2372:2395   */\n      calldataload\n      swap2\n        /* \"#utility.yul\":2199:2425   */\n      swap1\n      pop\n      jump\t// out\n        /* \"#utility.yul\":2683:2869   */\n    tag_57:\n        /* \"#utility.yul\":2742:2748   */\n      0x00\n        /* \"#utility.yul\":2795:2797   */\n      0x20\n        /* \"#utility.yul\":2783:2792   */\n      dup3\n        /* \"#utility.yul\":2774:2781   */\n      dup5\n        /* \"#utility.yul\":2770:2793   */\n      sub\n        /* \"#utility.yul\":2766:2798   */\n      slt\n        /* \"#utility.yul\":2763:2815   */\n      iszero\n      tag_190\n      jumpi\n        /* \"#utility.yul\":2811:2812   */\n      0x00\n        /* \"#utility.yul\":2808:2809   */\n      dup1\n        /* \"#utility.yul\":2801:2813   */\n      revert\n        /* \"#utility.yul\":2763:2815   */\n    tag_190:\n        /* \"#utility.yul\":2834:2863   */\n      tag_191\n        /* \"#utility.yul\":2853:2862   */\n      dup3\n        /* \"#utility.yul\":2834:2863   */\n      tag_169\n      jump\t// in\n    tag_191:\n        /* \"#utility.yul\":2824:2863   */\n      swap4\n        /* \"#utility.yul\":2683:2869   */\n      swap3\n      pop\n      pop\n      pop\n      jump\t// out\n        /* \"#utility.yul\":3082:3209   */\n    tag_170:\n        /* \"#utility.yul\":3143:3153   */\n      0x4e487b71\n        /* \"#utility.yul\":3138:3141   */\n      0xe0\n        /* \"#utility.yul\":3134:3154   */\n      shl\n        /* \"#utility.yul\":3131:3132   */\n      0x00\n        /* \"#utility.yul\":3124:3155   */\n      mstore\n        /* \"#utility.yul\":3174:3178   */\n      0x11\n        /* \"#utility.yul\":3171:3172   */\n      0x04\n        /* \"#utility.yul\":3164:3179   */\n      mstore\n        /* \"#utility.yul\":3198:3202   */\n      0x24\n        /* \"#utility.yul\":3195:3196   */\n      0x00\n        /* \"#utility.yul\":3188:3203   */\n      revert\n        /* \"#utility.yul\":3214:3382   */\n    tag_72:\n        /* \"#utility.yul\":3287:3296   */\n      dup1\n      dup3\n      mul\n        /* \"#utility.yul\":3318:3327   */\n      dup2\n      iszero\n        /* \"#utility.yul\":3335:3350   */\n      dup3\n      dup3\n      div\n        /* \"#utility.yul\":3329:3351   */\n      dup5\n      eq\n        /* \"#utility.yul\":3315:3352   */\n      or\n        /* \"#utility.yul\":3305:3376   */\n      tag_68\n      jumpi\n        /* \"#utility.yul\":3356:3374   */\n      tag_68\n      tag_170\n      jump\t// in\n        /* \"#utility.yul\":3387:3512   */\n    tag_75:\n        /* \"#utility.yul\":3452:3461   */\n      dup1\n      dup3\n      add\n        /* \"#utility.yul\":3473:3483   */\n      dup1\n      dup3\n      gt\n        /* \"#utility.yul\":3470:3506   */\n      iszero\n      tag_68\n      jumpi\n        /* \"#utility.yul\":3486:3504   */\n      tag_68\n      tag_170\n      jump\t// in\n        /* \"#utility.yul\":3517:3734   */\n    tag_77:\n        /* \"#utility.yul\":3557:3558   */\n      0x00\n        /* \"#utility.yul\":3583:3584   */\n      dup3\n        /* \"#utility.yul\":3573:3705   */\n      tag_201\n      jumpi\n        /* \"#utility.yul\":3627:3637   */\n      0x4e487b71\n        /* \"#utility.yul\":3622:3625   */\n      0xe0\n        /* \"#utility.yul\":3618:3638   */\n      shl\n        /* \"#utility.yul\":3615:3616   */\n      0x00\n        /* \"#utility.yul\":3608:3639   */\n      mstore\n        /* \"#utility.yul\":3662:3666   */\n      0x12\n        /* \"#utility.yul\":3659:3660   */\n      0x04\n        /* \"#utility.yul\":3652:3667   */\n      mstore\n        /* \"#utility.yul\":3690:3694   */\n      0x24\n        /* \"#utility.yul\":3687:3688   */\n      0x00\n        /* \"#utility.yul\":3680:3695   */\n      revert\n        /* \"#utility.yul\":3573:3705   */\n    tag_201:\n      pop\n        /* \"#utility.yul\":3719:3728   */\n      div\n      swap1\n        /* \"#utility.yul\":3517:3734   */\n      jump\t// out\n        /* \"#utility.yul\":4474:4751   */\n    tag_88:\n        /* \"#utility.yul\":4541:4547   */\n      0x00\n        /* \"#utility.yul\":4594:4596   */\n      0x20\n        /* \"#utility.yul\":4582:4591   */\n      dup3\n        /* \"#utility.yul\":4573:4580   */\n      dup5\n        /* \"#utility.yul\":4569:4592   */\n      sub\n        /* \"#utility.yul\":4565:4597   */\n      slt\n        /* \"#utility.yul\":4562:4614   */\n      iszero\n      tag_205\n      jumpi\n        /* \"#utility.yul\":4610:4611   */\n      0x00\n        /* \"#utility.yul\":4607:4608   */\n      dup1\n        /* \"#utility.yul\":4600:4612   */\n      revert\n        /* \"#utility.yul\":4562:4614   */\n    tag_205:\n        /* \"#utility.yul\":4642:4651   */\n      dup2\n        /* \"#utility.yul\":4636:4652   */\n      mload\n        /* \"#utility.yul\":4695:4700   */\n      dup1\n        /* \"#utility.yul\":4688:4701   */\n      iszero\n        /* \"#utility.yul\":4681:4702   */\n      iszero\n        /* \"#utility.yul\":4674:4679   */\n      dup2\n        /* \"#utility.yul\":4671:4703   */\n      eq\n        /* \"#utility.yul\":4661:4721   */\n      tag_191\n      jumpi\n        /* \"#utility.yul\":4717:4718   */\n      0x00\n        /* \"#utility.yul\":4714:4715   */\n      dup1\n        /* \"#utility.yul\":4707:4719   */\n      revert\n        /* \"#utility.yul\":6235:6363   */\n    tag_121:\n        /* \"#utility.yul\":6302:6311   */\n      dup2\n      dup2\n      sub\n        /* \"#utility.yul\":6323:6334   */\n      dup2\n      dup2\n      gt\n        /* \"#utility.yul\":6320:6357   */\n      iszero\n      tag_68\n      jumpi\n        /* \"#utility.yul\":6337:6355   */\n      tag_68\n      tag_170\n      jump\t// in\n        /* \"#utility.yul\":6368:6782   */\n    tag_126:\n        /* \"#utility.yul\":6570:6572   */\n      0x20\n        /* \"#utility.yul\":6552:6573   */\n      dup1\n      dup3\n      mstore\n        /* \"#utility.yul\":6609:6611   */\n      0x32\n        /* \"#utility.yul\":6589:6607   */\n      swap1\n      dup3\n      add\n        /* \"#utility.yul\":6582:6612   */\n      mstore\n        /* \"#utility.yul\":6648:6682   */\n      0x526563656976696e6720616d6f756e74206c657373207468616e206d696e696d\n        /* \"#utility.yul\":6643:6645   */\n      0x40\n        /* \"#utility.yul\":6628:6646   */\n      dup3\n      add\n        /* \"#utility.yul\":6621:6683   */\n      mstore\n      shl(0x72, 0x1d5b481c995c5d5a5c995908185b5bdd5b9d)\n        /* \"#utility.yul\":6714:6716   */\n      0x60\n        /* \"#utility.yul\":6699:6717   */\n      dup3\n      add\n        /* \"#utility.yul\":6692:6740   */\n      mstore\n        /* \"#utility.yul\":6772:6775   */\n      0x80\n        /* \"#utility.yul\":6757:6776   */\n      add\n      swap1\n        /* \"#utility.yul\":6368:6782   */\n      jump\t// out\n\n    auxdata: 0xa26469706673582212208bb5e3be964de9c3271a5be29397a333bcf936038cd42393c8229cfcb42f90dc64736f6c634300081a0033\n}\n",
				"bytecode": {
					"linkReferences": {},
					"object": "6080604052348015600f57600080fd5b50604051610dd1380380610dd1833981016040819052602c916088565b600080546001600160a01b039485166001600160a01b03199182161790915560018054938516938216939093179092556006805491909316911617905560c4565b80516001600160a01b0381168114608357600080fd5b919050565b600080600060608486031215609c57600080fd5b60a384606d565b925060af60208501606d565b915060bb60408501606d565b90509250925092565b610cfe806100d36000396000f3fe608060405234801561001057600080fd5b50600436106100b45760003560e01c80637a16af7f116100715780637a16af7f146101665780638a0ccd56146101795780639c8f9f231461018c578063b8c876b1146101b4578063dc5fa6c5146101d4578063f851a440146101dd57600080fd5b80630902f1ac146100b95780630fc63d10146100f557806315770f921461012057806319e36f3b14610137578063571a0ccf146101405780635f64b55b14610153575b600080fd5b600054600154600254600354604080516001600160a01b0395861681529490931660208501529183015260608201526080015b60405180910390f35b600054610108906001600160a01b031681565b6040516001600160a01b0390911681526020016100ec565b61012960045481565b6040519081526020016100ec565b61012960035481565b61012961014e366004610b12565b6101f0565b600154610108906001600160a01b031681565b610129610174366004610b3e565b610263565b610129610187366004610b60565b6104a1565b61019f61019a366004610ba4565b6108c2565b604080519283526020830191909152016100ec565b6101296101c2366004610bbd565b60056020526000908152604090205481565b61012960025481565b600654610108906001600160a01b031681565b60008054819081906001600160a01b0390811690851603610218575050600254600354610221565b50506003546002545b84600061022e8383610bf5565b905060008261023f866103e8610bf5565b6102499190610c0c565b90506102558183610c1f565b955050505050505b92915050565b600080831180156102745750600082115b6102c55760405162461bcd60e51b815260206004820152601e60248201527f416d6f756e7473206d7573742062652067726561746572207468616e2030000060448201526064015b60405180910390fd5b6000546040516323b872dd60e01b8152336004820152306024820152604481018590526001600160a01b03909116906323b872dd906064016020604051808303816000875af115801561031c573d6000803e3d6000fd5b505050506040513d601f19601f820116820180604052508101906103409190610c41565b506001546040516323b872dd60e01b8152336004820152306024820152604481018490526001600160a01b03909116906323b872dd906064016020604051808303816000875af1158015610398573d6000803e3d6000fd5b505050506040513d601f19601f820116820180604052508101906103bc9190610c41565b506004546000036103ce5750816103eb565b6002546004546103de9085610bf5565b6103e89190610c1f565b90505b82600260008282546103fd9190610c0c565b9250508190555081600360008282546104169190610c0c565b92505081905550806004600082825461042f9190610c0c565b90915550503360009081526005602052604081208054839290610453908490610c0c565b9091555050604080518481526020810184905290810182905233907f3bca7014f4c0ccc8016338c79f4c00e82068dbadaf4f01ca5449040fdd39f5009060600160405180910390a292915050565b60008084116104fe5760405162461bcd60e51b815260206004820152602360248201527f496e70757420616d6f756e74206d75737420626520677265617465722074686160448201526206e20360ec1b60648201526084016102bc565b6000546001600160a01b038681169116148061052757506001546001600160a01b038681169116145b6105635760405162461bcd60e51b815260206004820152600d60248201526c24b73b30b634b2103a37b5b2b760991b60448201526064016102bc565b6001600160a01b0383166105ca5760405162461bcd60e51b815260206004820152602860248201527f526563697069656e7420616464726573732063616e6e6f74206265207a65726f604482015267206164647265737360c01b60648201526084016102bc565b6040516323b872dd60e01b8152336004820152306024820152604481018590526001600160a01b038616906323b872dd906064016020604051808303816000875af115801561061d573d6000803e3d6000fd5b505050506040513d601f19601f820116820180604052508101906106419190610c41565b5060006103e8610652866003610bf5565b61065c9190610c1f565b9050600061066a8287610c63565b6000549091506001600160a01b039081169088160361077a57600061068f82896101f0565b9050848110156106b15760405162461bcd60e51b81526004016102bc90610c76565b81600260008282546106c39190610c0c565b9250508190555080600360008282546106dc9190610c63565b909155505060015460405163a9059cbb60e01b81526001600160a01b038881166004830152602482018490529091169063a9059cbb906044016020604051808303816000875af1158015610734573d6000803e3d6000fd5b505050506040513d601f19601f820116820180604052508101906107589190610c41565b50809350826002600082825461076e9190610c0c565b9091555061086c915050565b600061078682896101f0565b9050848110156107a85760405162461bcd60e51b81526004016102bc90610c76565b81600360008282546107ba9190610c0c565b9250508190555080600260008282546107d39190610c63565b909155505060005460405163a9059cbb60e01b81526001600160a01b038881166004830152602482018490529091169063a9059cbb906044016020604051808303816000875af115801561082b573d6000803e3d6000fd5b505050506040513d601f19601f8201168201806040525081019061084f9190610c41565b5080935082600360008282546108659190610c0c565b9091555050505b604080516001600160a01b03891681526020810188905290810184905233907ffa2dda1cc1b86e41239702756b13effbc1a092b5c57e3ad320fbe4f3b13fe2359060600160405180910390a25050949350505050565b33600090815260056020526040812054819083111561091c5760405162461bcd60e51b8152602060048201526016602482015275496e73756666696369656e74206c697175696469747960501b60448201526064016102bc565b60045460025461092c9085610bf5565b6109369190610c1f565b9150600454600354846109499190610bf5565b6109539190610c1f565b905081600260008282546109679190610c63565b9250508190555080600360008282546109809190610c63565b9250508190555082600460008282546109999190610c63565b909155505033600090815260056020526040812080548592906109bd908490610c63565b909155505060005460405163a9059cbb60e01b8152336004820152602481018490526001600160a01b039091169063a9059cbb906044016020604051808303816000875af1158015610a13573d6000803e3d6000fd5b505050506040513d601f19601f82011682018060405250810190610a379190610c41565b5060015460405163a9059cbb60e01b8152336004820152602481018390526001600160a01b039091169063a9059cbb906044016020604051808303816000875af1158015610a89573d6000803e3d6000fd5b505050506040513d601f19601f82011682018060405250810190610aad9190610c41565b50604080518381526020810183905290810184905233907f1dc8bb69df2b8e91fbdcbfcf93d951b3f0000f085a95fe3f7946d6161439245d9060600160405180910390a2915091565b80356001600160a01b0381168114610b0d57600080fd5b919050565b60008060408385031215610b2557600080fd5b82359150610b3560208401610af6565b90509250929050565b60008060408385031215610b5157600080fd5b50508035926020909101359150565b60008060008060808587031215610b7657600080fd5b610b7f85610af6565b935060208501359250610b9460408601610af6565b9396929550929360600135925050565b600060208284031215610bb657600080fd5b5035919050565b600060208284031215610bcf57600080fd5b610bd882610af6565b9392505050565b634e487b7160e01b600052601160045260246000fd5b808202811582820484141761025d5761025d610bdf565b8082018082111561025d5761025d610bdf565b600082610c3c57634e487b7160e01b600052601260045260246000fd5b500490565b600060208284031215610c5357600080fd5b81518015158114610bd857600080fd5b8181038181111561025d5761025d610bdf565b60208082526032908201527f526563656976696e6720616d6f756e74206c657373207468616e206d696e696d6040820152711d5b481c995c5d5a5c995908185b5bdd5b9d60721b60608201526080019056fea26469706673582212208bb5e3be964de9c3271a5be29397a333bcf936038cd42393c8229cfcb42f90dc64736f6c634300081a0033",
					"opcodes": "PUSH1 0x80 PUSH1 0x40 MSTORE CALLVALUE DUP1 ISZERO PUSH1 0xF JUMPI PUSH1 0x0 DUP1 REVERT JUMPDEST POP PUSH1 0x40 MLOAD PUSH2 0xDD1 CODESIZE SUB DUP1 PUSH2 0xDD1 DUP4 CODECOPY DUP2 ADD PUSH1 0x40 DUP2 SWAP1 MSTORE PUSH1 0x2C SWAP2 PUSH1 0x88 JUMP JUMPDEST PUSH1 0x0 DUP1 SLOAD PUSH1 0x1 PUSH1 0x1 PUSH1 0xA0 SHL SUB SWAP5 DUP6 AND PUSH1 0x1 PUSH1 0x1 PUSH1 0xA0 SHL SUB NOT SWAP2 DUP3 AND OR SWAP1 SWAP2 SSTORE PUSH1 0x1 DUP1 SLOAD SWAP4 DUP6 AND SWAP4 DUP3 AND SWAP4 SWAP1 SWAP4 OR SWAP1 SWAP3 SSTORE PUSH1 0x6 DUP1 SLOAD SWAP2 SWAP1 SWAP4 AND SWAP2 AND OR SWAP1 SSTORE PUSH1 0xC4 JUMP JUMPDEST DUP1 MLOAD PUSH1 0x1 PUSH1 0x1 PUSH1 0xA0 SHL SUB DUP2 AND DUP2 EQ PUSH1 0x83 JUMPI PUSH1 0x0 DUP1 REVERT JUMPDEST SWAP2 SWAP1 POP JUMP JUMPDEST PUSH1 0x0 DUP1 PUSH1 0x0 PUSH1 0x60 DUP5 DUP7 SUB SLT ISZERO PUSH1 0x9C JUMPI PUSH1 0x0 DUP1 REVERT JUMPDEST PUSH1 0xA3 DUP5 PUSH1 0x6D JUMP JUMPDEST SWAP3 POP PUSH1 0xAF PUSH1 0x20 DUP6 ADD PUSH1 0x6D JUMP JUMPDEST SWAP2 POP PUSH1 0xBB PUSH1 0x40 DUP6 ADD PUSH1 0x6D JUMP JUMPDEST SWAP1 POP SWAP3 POP SWAP3 POP SWAP3 JUMP JUMPDEST PUSH2 0xCFE DUP1 PUSH2 0xD3 PUSH1 0x0 CODECOPY PUSH1 0x0 RETURN INVALID PUSH1 0x80 PUSH1 0x40 MSTORE CALLVALUE DUP1 ISZERO PUSH2 0x10 JUMPI PUSH1 0x0 DUP1 REVERT JUMPDEST POP PUSH1 0x4 CALLDATASIZE LT PUSH2 0xB4 JUMPI PUSH1 0x0 CALLDATALOAD PUSH1 0xE0 SHR DUP1 PUSH4 0x7A16AF7F GT PUSH2 0x71 JUMPI DUP1 PUSH4 0x7A16AF7F EQ PUSH2 0x166 JUMPI DUP1 PUSH4 0x8A0CCD56 EQ PUSH2 0x179 JUMPI DUP1 PUSH4 0x9C8F9F23 EQ PUSH2 0x18C JUMPI DUP1 PUSH4 0xB8C876B1 EQ PUSH2 0x1B4 JUMPI DUP1 PUSH4 0xDC5FA6C5 EQ PUSH2 0x1D4 JUMPI DUP1 PUSH4 0xF851A440 EQ PUSH2 0x1DD JUMPI PUSH1 0x0 DUP1 REVERT JUMPDEST DUP1 PUSH4 0x902F1AC EQ PUSH2 0xB9 JUMPI DUP1 PUSH4 0xFC63D10 EQ PUSH2 0xF5 JUMPI DUP1 PUSH4 0x15770F92 EQ PUSH2 0x120 JUMPI DUP1 PUSH4 0x19E36F3B EQ PUSH2 0x137 JUMPI DUP1 PUSH4 0x571A0CCF EQ PUSH2 0x140 JUMPI DUP1 PUSH4 0x5F64B55B EQ PUSH2 0x153 JUMPI JUMPDEST PUSH1 0x0 DUP1 REVERT JUMPDEST PUSH1 0x0 SLOAD PUSH1 0x1 SLOAD PUSH1 0x2 SLOAD PUSH1 0x3 SLOAD PUSH1 0x40 DUP1 MLOAD PUSH1 0x1 PUSH1 0x1 PUSH1 0xA0 SHL SUB SWAP6 DUP7 AND DUP2 MSTORE SWAP5 SWAP1 SWAP4 AND PUSH1 0x20 DUP6 ADD MSTORE SWAP2 DUP4 ADD MSTORE PUSH1 0x60 DUP3 ADD MSTORE PUSH1 0x80 ADD JUMPDEST PUSH1 0x40 MLOAD DUP1 SWAP2 SUB SWAP1 RETURN JUMPDEST PUSH1 0x0 SLOAD PUSH2 0x108 SWAP1 PUSH1 0x1 PUSH1 0x1 PUSH1 0xA0 SHL SUB AND DUP2 JUMP JUMPDEST PUSH1 0x40 MLOAD PUSH1 0x1 PUSH1 0x1 PUSH1 0xA0 SHL SUB SWAP1 SWAP2 AND DUP2 MSTORE PUSH1 0x20 ADD PUSH2 0xEC JUMP JUMPDEST PUSH2 0x129 PUSH1 0x4 SLOAD DUP2 JUMP JUMPDEST PUSH1 0x40 MLOAD SWAP1 DUP2 MSTORE PUSH1 0x20 ADD PUSH2 0xEC JUMP JUMPDEST PUSH2 0x129 PUSH1 0x3 SLOAD DUP2 JUMP JUMPDEST PUSH2 0x129 PUSH2 0x14E CALLDATASIZE PUSH1 0x4 PUSH2 0xB12 JUMP JUMPDEST PUSH2 0x1F0 JUMP JUMPDEST PUSH1 0x1 SLOAD PUSH2 0x108 SWAP1 PUSH1 0x1 PUSH1 0x1 PUSH1 0xA0 SHL SUB AND DUP2 JUMP JUMPDEST PUSH2 0x129 PUSH2 0x174 CALLDATASIZE PUSH1 0x4 PUSH2 0xB3E JUMP JUMPDEST PUSH2 0x263 JUMP JUMPDEST PUSH2 0x129 PUSH2 0x187 CALLDATASIZE PUSH1 0x4 PUSH2 0xB60 JUMP JUMPDEST PUSH2 0x4A1 JUMP JUMPDEST PUSH2 0x19F PUSH2 0x19A CALLDATASIZE PUSH1 0x4 PUSH2 0xBA4 JUMP JUMPDEST PUSH2 0x8C2 JUMP JUMPDEST PUSH1 0x40 DUP1 MLOAD SWAP3 DUP4 MSTORE PUSH1 0x20 DUP4 ADD SWAP2 SWAP1 SWAP2 MSTORE ADD PUSH2 0xEC JUMP JUMPDEST PUSH2 0x129 PUSH2 0x1C2 CALLDATASIZE PUSH1 0x4 PUSH2 0xBBD JUMP JUMPDEST PUSH1 0x5 PUSH1 0x20 MSTORE PUSH1 0x0 SWAP1 DUP2 MSTORE PUSH1 0x40 SWAP1 KECCAK256 SLOAD DUP2 JUMP JUMPDEST PUSH2 0x129 PUSH1 0x2 SLOAD DUP2 JUMP JUMPDEST PUSH1 0x6 SLOAD PUSH2 0x108 SWAP1 PUSH1 0x1 PUSH1 0x1 PUSH1 0xA0 SHL SUB AND DUP2 JUMP JUMPDEST PUSH1 0x0 DUP1 SLOAD DUP2 SWAP1 DUP2 SWAP1 PUSH1 0x1 PUSH1 0x1 PUSH1 0xA0 SHL SUB SWAP1 DUP2 AND SWAP1 DUP6 AND SUB PUSH2 0x218 JUMPI POP POP PUSH1 0x2 SLOAD PUSH1 0x3 SLOAD PUSH2 0x221 JUMP JUMPDEST POP POP PUSH1 0x3 SLOAD PUSH1 0x2 SLOAD JUMPDEST DUP5 PUSH1 0x0 PUSH2 0x22E DUP4 DUP4 PUSH2 0xBF5 JUMP JUMPDEST SWAP1 POP PUSH1 0x0 DUP3 PUSH2 0x23F DUP7 PUSH2 0x3E8 PUSH2 0xBF5 JUMP JUMPDEST PUSH2 0x249 SWAP2 SWAP1 PUSH2 0xC0C JUMP JUMPDEST SWAP1 POP PUSH2 0x255 DUP2 DUP4 PUSH2 0xC1F JUMP JUMPDEST SWAP6 POP POP POP POP POP POP JUMPDEST SWAP3 SWAP2 POP POP JUMP JUMPDEST PUSH1 0x0 DUP1 DUP4 GT DUP1 ISZERO PUSH2 0x274 JUMPI POP PUSH1 0x0 DUP3 GT JUMPDEST PUSH2 0x2C5 JUMPI PUSH1 0x40 MLOAD PUSH3 0x461BCD PUSH1 0xE5 SHL DUP2 MSTORE PUSH1 0x20 PUSH1 0x4 DUP3 ADD MSTORE PUSH1 0x1E PUSH1 0x24 DUP3 ADD MSTORE PUSH32 0x416D6F756E7473206D7573742062652067726561746572207468616E20300000 PUSH1 0x44 DUP3 ADD MSTORE PUSH1 0x64 ADD JUMPDEST PUSH1 0x40 MLOAD DUP1 SWAP2 SUB SWAP1 REVERT JUMPDEST PUSH1 0x0 SLOAD PUSH1 0x40 MLOAD PUSH4 0x23B872DD PUSH1 0xE0 SHL DUP2 MSTORE CALLER PUSH1 0x4 DUP3 ADD MSTORE ADDRESS PUSH1 0x24 DUP3 ADD MSTORE PUSH1 0x44 DUP2 ADD DUP6 SWAP1 MSTORE PUSH1 0x1 PUSH1 0x1 PUSH1 0xA0 SHL SUB SWAP1 SWAP2 AND SWAP1 PUSH4 0x23B872DD SWAP1 PUSH1 0x64 ADD PUSH1 0x20 PUSH1 0x40 MLOAD DUP1 DUP4 SUB DUP2 PUSH1 0x0 DUP8 GAS CALL ISZERO DUP1 ISZERO PUSH2 0x31C JUMPI RETURNDATASIZE PUSH1 0x0 DUP1 RETURNDATACOPY RETURNDATASIZE PUSH1 0x0 REVERT JUMPDEST POP POP POP POP PUSH1 0x40 MLOAD RETURNDATASIZE PUSH1 0x1F NOT PUSH1 0x1F DUP3 ADD AND DUP3 ADD DUP1 PUSH1 0x40 MSTORE POP DUP2 ADD SWAP1 PUSH2 0x340 SWAP2 SWAP1 PUSH2 0xC41 JUMP JUMPDEST POP PUSH1 0x1 SLOAD PUSH1 0x40 MLOAD PUSH4 0x23B872DD PUSH1 0xE0 SHL DUP2 MSTORE CALLER PUSH1 0x4 DUP3 ADD MSTORE ADDRESS PUSH1 0x24 DUP3 ADD MSTORE PUSH1 0x44 DUP2 ADD DUP5 SWAP1 MSTORE PUSH1 0x1 PUSH1 0x1 PUSH1 0xA0 SHL SUB SWAP1 SWAP2 AND SWAP1 PUSH4 0x23B872DD SWAP1 PUSH1 0x64 ADD PUSH1 0x20 PUSH1 0x40 MLOAD DUP1 DUP4 SUB DUP2 PUSH1 0x0 DUP8 GAS CALL ISZERO DUP1 ISZERO PUSH2 0x398 JUMPI RETURNDATASIZE PUSH1 0x0 DUP1 RETURNDATACOPY RETURNDATASIZE PUSH1 0x0 REVERT JUMPDEST POP POP POP POP PUSH1 0x40 MLOAD RETURNDATASIZE PUSH1 0x1F NOT PUSH1 0x1F DUP3 ADD AND DUP3 ADD DUP1 PUSH1 0x40 MSTORE POP DUP2 ADD SWAP1 PUSH2 0x3BC SWAP2 SWAP1 PUSH2 0xC41 JUMP JUMPDEST POP PUSH1 0x4 SLOAD PUSH1 0x0 SUB PUSH2 0x3CE JUMPI POP DUP2 PUSH2 0x3EB JUMP JUMPDEST PUSH1 0x2 SLOAD PUSH1 0x4 SLOAD PUSH2 0x3DE SWAP1 DUP6 PUSH2 0xBF5 JUMP JUMPDEST PUSH2 0x3E8 SWAP2 SWAP1 PUSH2 0xC1F JUMP JUMPDEST SWAP1 POP JUMPDEST DUP3 PUSH1 0x2 PUSH1 0x0 DUP3 DUP3 SLOAD PUSH2 0x3FD SWAP2 SWAP1 PUSH2 0xC0C JUMP JUMPDEST SWAP3 POP POP DUP2 SWAP1 SSTORE POP DUP2 PUSH1 0x3 PUSH1 0x0 DUP3 DUP3 SLOAD PUSH2 0x416 SWAP2 SWAP1 PUSH2 0xC0C JUMP JUMPDEST SWAP3 POP POP DUP2 SWAP1 SSTORE POP DUP1 PUSH1 0x4 PUSH1 0x0 DUP3 DUP3 SLOAD PUSH2 0x42F SWAP2 SWAP1 PUSH2 0xC0C JUMP JUMPDEST SWAP1 SWAP2 SSTORE POP POP CALLER PUSH1 0x0 SWAP1 DUP2 MSTORE PUSH1 0x5 PUSH1 0x20 MSTORE PUSH1 0x40 DUP2 KECCAK256 DUP1 SLOAD DUP4 SWAP3 SWAP1 PUSH2 0x453 SWAP1 DUP5 SWAP1 PUSH2 0xC0C JUMP JUMPDEST SWAP1 SWAP2 SSTORE POP POP PUSH1 0x40 DUP1 MLOAD DUP5 DUP2 MSTORE PUSH1 0x20 DUP2 ADD DUP5 SWAP1 MSTORE SWAP1 DUP2 ADD DUP3 SWAP1 MSTORE CALLER SWAP1 PUSH32 0x3BCA7014F4C0CCC8016338C79F4C00E82068DBADAF4F01CA5449040FDD39F500 SWAP1 PUSH1 0x60 ADD PUSH1 0x40 MLOAD DUP1 SWAP2 SUB SWAP1 LOG2 SWAP3 SWAP2 POP POP JUMP JUMPDEST PUSH1 0x0 DUP1 DUP5 GT PUSH2 0x4FE JUMPI PUSH1 0x40 MLOAD PUSH3 0x461BCD PUSH1 0xE5 SHL DUP2 MSTORE PUSH1 0x20 PUSH1 0x4 DUP3 ADD MSTORE PUSH1 0x23 PUSH1 0x24 DUP3 ADD MSTORE PUSH32 0x496E70757420616D6F756E74206D757374206265206772656174657220746861 PUSH1 0x44 DUP3 ADD MSTORE PUSH3 0x6E203 PUSH1 0xEC SHL PUSH1 0x64 DUP3 ADD MSTORE PUSH1 0x84 ADD PUSH2 0x2BC JUMP JUMPDEST PUSH1 0x0 SLOAD PUSH1 0x1 PUSH1 0x1 PUSH1 0xA0 SHL SUB DUP7 DUP2 AND SWAP2 AND EQ DUP1 PUSH2 0x527 JUMPI POP PUSH1 0x1 SLOAD PUSH1 0x1 PUSH1 0x1 PUSH1 0xA0 SHL SUB DUP7 DUP2 AND SWAP2 AND EQ JUMPDEST PUSH2 0x563 JUMPI PUSH1 0x40 MLOAD PUSH3 0x461BCD PUSH1 0xE5 SHL DUP2 MSTORE PUSH1 0x20 PUSH1 0x4 DUP3 ADD MSTORE PUSH1 0xD PUSH1 0x24 DUP3 ADD MSTORE PUSH13 0x24B73B30B634B2103A37B5B2B7 PUSH1 0x99 SHL PUSH1 0x44 DUP3 ADD MSTORE PUSH1 0x64 ADD PUSH2 0x2BC JUMP JUMPDEST PUSH1 0x1 PUSH1 0x1 PUSH1 0xA0 SHL SUB DUP4 AND PUSH2 0x5CA JUMPI PUSH1 0x40 MLOAD PUSH3 0x461BCD PUSH1 0xE5 SHL DUP2 MSTORE PUSH1 0x20 PUSH1 0x4 DUP3 ADD MSTORE PUSH1 0x28 PUSH1 0x24 DUP3 ADD MSTORE PUSH32 0x526563697069656E7420616464726573732063616E6E6F74206265207A65726F PUSH1 0x44 DUP3 ADD MSTORE PUSH8 0x2061646472657373 PUSH1 0xC0 SHL PUSH1 0x64 DUP3 ADD MSTORE PUSH1 0x84 ADD PUSH2 0x2BC JUMP JUMPDEST PUSH1 0x40 MLOAD PUSH4 0x23B872DD PUSH1 0xE0 SHL DUP2 MSTORE CALLER PUSH1 0x4 DUP3 ADD MSTORE ADDRESS PUSH1 0x24 DUP3 ADD MSTORE PUSH1 0x44 DUP2 ADD DUP6 SWAP1 MSTORE PUSH1 0x1 PUSH1 0x1 PUSH1 0xA0 SHL SUB DUP7 AND SWAP1 PUSH4 0x23B872DD SWAP1 PUSH1 0x64 ADD PUSH1 0x20 PUSH1 0x40 MLOAD DUP1 DUP4 SUB DUP2 PUSH1 0x0 DUP8 GAS CALL ISZERO DUP1 ISZERO PUSH2 0x61D JUMPI RETURNDATASIZE PUSH1 0x0 DUP1 RETURNDATACOPY RETURNDATASIZE PUSH1 0x0 REVERT JUMPDEST POP POP POP POP PUSH1 0x40 MLOAD RETURNDATASIZE PUSH1 0x1F NOT PUSH1 0x1F DUP3 ADD AND DUP3 ADD DUP1 PUSH1 0x40 MSTORE POP DUP2 ADD SWAP1 PUSH2 0x641 SWAP2 SWAP1 PUSH2 0xC41 JUMP JUMPDEST POP PUSH1 0x0 PUSH2 0x3E8 PUSH2 0x652 DUP7 PUSH1 0x3 PUSH2 0xBF5 JUMP JUMPDEST PUSH2 0x65C SWAP2 SWAP1 PUSH2 0xC1F JUMP JUMPDEST SWAP1 POP PUSH1 0x0 PUSH2 0x66A DUP3 DUP8 PUSH2 0xC63 JUMP JUMPDEST PUSH1 0x0 SLOAD SWAP1 SWAP2 POP PUSH1 0x1 PUSH1 0x1 PUSH1 0xA0 SHL SUB SWAP1 DUP2 AND SWAP1 DUP9 AND SUB PUSH2 0x77A JUMPI PUSH1 0x0 PUSH2 0x68F DUP3 DUP10 PUSH2 0x1F0 JUMP JUMPDEST SWAP1 POP DUP5 DUP2 LT ISZERO PUSH2 0x6B1 JUMPI PUSH1 0x40 MLOAD PUSH3 0x461BCD PUSH1 0xE5 SHL DUP2 MSTORE PUSH1 0x4 ADD PUSH2 0x2BC SWAP1 PUSH2 0xC76 JUMP JUMPDEST DUP2 PUSH1 0x2 PUSH1 0x0 DUP3 DUP3 SLOAD PUSH2 0x6C3 SWAP2 SWAP1 PUSH2 0xC0C JUMP JUMPDEST SWAP3 POP POP DUP2 SWAP1 SSTORE POP DUP1 PUSH1 0x3 PUSH1 0x0 DUP3 DUP3 SLOAD PUSH2 0x6DC SWAP2 SWAP1 PUSH2 0xC63 JUMP JUMPDEST SWAP1 SWAP2 SSTORE POP POP PUSH1 0x1 SLOAD PUSH1 0x40 MLOAD PUSH4 0xA9059CBB PUSH1 0xE0 SHL DUP2 MSTORE PUSH1 0x1 PUSH1 0x1 PUSH1 0xA0 SHL SUB DUP9 DUP2 AND PUSH1 0x4 DUP4 ADD MSTORE PUSH1 0x24 DUP3 ADD DUP5 SWAP1 MSTORE SWAP1 SWAP2 AND SWAP1 PUSH4 0xA9059CBB SWAP1 PUSH1 0x44 ADD PUSH1 0x20 PUSH1 0x40 MLOAD DUP1 DUP4 SUB DUP2 PUSH1 0x0 DUP8 GAS CALL ISZERO DUP1 ISZERO PUSH2 0x734 JUMPI RETURNDATASIZE PUSH1 0x0 DUP1 RETURNDATACOPY RETURNDATASIZE PUSH1 0x0 REVERT JUMPDEST POP POP POP POP PUSH1 0x40 MLOAD RETURNDATASIZE PUSH1 0x1F NOT PUSH1 0x1F DUP3 ADD AND DUP3 ADD DUP1 PUSH1 0x40 MSTORE POP DUP2 ADD SWAP1 PUSH2 0x758 SWAP2 SWAP1 PUSH2 0xC41 JUMP JUMPDEST POP DUP1 SWAP4 POP DUP3 PUSH1 0x2 PUSH1 0x0 DUP3 DUP3 SLOAD PUSH2 0x76E SWAP2 SWAP1 PUSH2 0xC0C JUMP JUMPDEST SWAP1 SWAP2 SSTORE POP PUSH2 0x86C SWAP2 POP POP JUMP JUMPDEST PUSH1 0x0 PUSH2 0x786 DUP3 DUP10 PUSH2 0x1F0 JUMP JUMPDEST SWAP1 POP DUP5 DUP2 LT ISZERO PUSH2 0x7A8 JUMPI PUSH1 0x40 MLOAD PUSH3 0x461BCD PUSH1 0xE5 SHL DUP2 MSTORE PUSH1 0x4 ADD PUSH2 0x2BC SWAP1 PUSH2 0xC76 JUMP JUMPDEST DUP2 PUSH1 0x3 PUSH1 0x0 DUP3 DUP3 SLOAD PUSH2 0x7BA SWAP2 SWAP1 PUSH2 0xC0C JUMP JUMPDEST SWAP3 POP POP DUP2 SWAP1 SSTORE POP DUP1 PUSH1 0x2 PUSH1 0x0 DUP3 DUP3 SLOAD PUSH2 0x7D3 SWAP2 SWAP1 PUSH2 0xC63 JUMP JUMPDEST SWAP1 SWAP2 SSTORE POP POP PUSH1 0x0 SLOAD PUSH1 0x40 MLOAD PUSH4 0xA9059CBB PUSH1 0xE0 SHL DUP2 MSTORE PUSH1 0x1 PUSH1 0x1 PUSH1 0xA0 SHL SUB DUP9 DUP2 AND PUSH1 0x4 DUP4 ADD MSTORE PUSH1 0x24 DUP3 ADD DUP5 SWAP1 MSTORE SWAP1 SWAP2 AND SWAP1 PUSH4 0xA9059CBB SWAP1 PUSH1 0x44 ADD PUSH1 0x20 PUSH1 0x40 MLOAD DUP1 DUP4 SUB DUP2 PUSH1 0x0 DUP8 GAS CALL ISZERO DUP1 ISZERO PUSH2 0x82B JUMPI RETURNDATASIZE PUSH1 0x0 DUP1 RETURNDATACOPY RETURNDATASIZE PUSH1 0x0 REVERT JUMPDEST POP POP POP POP PUSH1 0x40 MLOAD RETURNDATASIZE PUSH1 0x1F NOT PUSH1 0x1F DUP3 ADD AND DUP3 ADD DUP1 PUSH1 0x40 MSTORE POP DUP2 ADD SWAP1 PUSH2 0x84F SWAP2 SWAP1 PUSH2 0xC41 JUMP JUMPDEST POP DUP1 SWAP4 POP DUP3 PUSH1 0x3 PUSH1 0x0 DUP3 DUP3 SLOAD PUSH2 0x865 SWAP2 SWAP1 PUSH2 0xC0C JUMP JUMPDEST SWAP1 SWAP2 SSTORE POP POP POP JUMPDEST PUSH1 0x40 DUP1 MLOAD PUSH1 0x1 PUSH1 0x1 PUSH1 0xA0 SHL SUB DUP10 AND DUP2 MSTORE PUSH1 0x20 DUP2 ADD DUP9 SWAP1 MSTORE SWAP1 DUP2 ADD DUP5 SWAP1 MSTORE CALLER SWAP1 PUSH32 0xFA2DDA1CC1B86E41239702756B13EFFBC1A092B5C57E3AD320FBE4F3B13FE235 SWAP1 PUSH1 0x60 ADD PUSH1 0x40 MLOAD DUP1 SWAP2 SUB SWAP1 LOG2 POP POP SWAP5 SWAP4 POP POP POP POP JUMP JUMPDEST CALLER PUSH1 0x0 SWAP1 DUP2 MSTORE PUSH1 0x5 PUSH1 0x20 MSTORE PUSH1 0x40 DUP2 KECCAK256 SLOAD DUP2 SWAP1 DUP4 GT ISZERO PUSH2 0x91C JUMPI PUSH1 0x40 MLOAD PUSH3 0x461BCD PUSH1 0xE5 SHL DUP2 MSTORE PUSH1 0x20 PUSH1 0x4 DUP3 ADD MSTORE PUSH1 0x16 PUSH1 0x24 DUP3 ADD MSTORE PUSH22 0x496E73756666696369656E74206C6971756964697479 PUSH1 0x50 SHL PUSH1 0x44 DUP3 ADD MSTORE PUSH1 0x64 ADD PUSH2 0x2BC JUMP JUMPDEST PUSH1 0x4 SLOAD PUSH1 0x2 SLOAD PUSH2 0x92C SWAP1 DUP6 PUSH2 0xBF5 JUMP JUMPDEST PUSH2 0x936 SWAP2 SWAP1 PUSH2 0xC1F JUMP JUMPDEST SWAP2 POP PUSH1 0x4 SLOAD PUSH1 0x3 SLOAD DUP5 PUSH2 0x949 SWAP2 SWAP1 PUSH2 0xBF5 JUMP JUMPDEST PUSH2 0x953 SWAP2 SWAP1 PUSH2 0xC1F JUMP JUMPDEST SWAP1 POP DUP2 PUSH1 0x2 PUSH1 0x0 DUP3 DUP3 SLOAD PUSH2 0x967 SWAP2 SWAP1 PUSH2 0xC63 JUMP JUMPDEST SWAP3 POP POP DUP2 SWAP1 SSTORE POP DUP1 PUSH1 0x3 PUSH1 0x0 DUP3 DUP3 SLOAD PUSH2 0x980 SWAP2 SWAP1 PUSH2 0xC63 JUMP JUMPDEST SWAP3 POP POP DUP2 SWAP1 SSTORE POP DUP3 PUSH1 0x4 PUSH1 0x0 DUP3 DUP3 SLOAD PUSH2 0x999 SWAP2 SWAP1 PUSH2 0xC63 JUMP JUMPDEST SWAP1 SWAP2 SSTORE POP POP CALLER PUSH1 0x0 SWAP1 DUP2 MSTORE PUSH1 0x5 PUSH1 0x20 MSTORE PUSH1 0x40 DUP2 KECCAK256 DUP1 SLOAD DUP6 SWAP3 SWAP1 PUSH2 0x9BD SWAP1 DUP5 SWAP1 PUSH2 0xC63 JUMP JUMPDEST SWAP1 SWAP2 SSTORE POP POP PUSH1 0x0 SLOAD PUSH1 0x40 MLOAD PUSH4 0xA9059CBB PUSH1 0xE0 SHL DUP2 MSTORE CALLER PUSH1 0x4 DUP3 ADD MSTORE PUSH1 0x24 DUP2 ADD DUP5 SWAP1 MSTORE PUSH1 0x1 PUSH1 0x1 PUSH1 0xA0 SHL SUB SWAP1 SWAP2 AND SWAP1 PUSH4 0xA9059CBB SWAP1 PUSH1 0x44 ADD PUSH1 0x20 PUSH1 0x40 MLOAD DUP1 DUP4 SUB DUP2 PUSH1 0x0 DUP8 GAS CALL ISZERO DUP1 ISZERO PUSH2 0xA13 JUMPI RETURNDATASIZE PUSH1 0x0 DUP1 RETURNDATACOPY RETURNDATASIZE PUSH1 0x0 REVERT JUMPDEST POP POP POP POP PUSH1 0x40 MLOAD RETURNDATASIZE PUSH1 0x1F NOT PUSH1 0x1F DUP3 ADD AND DUP3 ADD DUP1 PUSH1 0x40 MSTORE POP DUP2 ADD SWAP1 PUSH2 0xA37 SWAP2 SWAP1 PUSH2 0xC41 JUMP JUMPDEST POP PUSH1 0x1 SLOAD PUSH1 0x40 MLOAD PUSH4 0xA9059CBB PUSH1 0xE0 SHL DUP2 MSTORE CALLER PUSH1 0x4 DUP3 ADD MSTORE PUSH1 0x24 DUP2 ADD DUP4 SWAP1 MSTORE PUSH1 0x1 PUSH1 0x1 PUSH1 0xA0 SHL SUB SWAP1 SWAP2 AND SWAP1 PUSH4 0xA9059CBB SWAP1 PUSH1 0x44 ADD PUSH1 0x20 PUSH1 0x40 MLOAD DUP1 DUP4 SUB DUP2 PUSH1 0x0 DUP8 GAS CALL ISZERO DUP1 ISZERO PUSH2 0xA89 JUMPI RETURNDATASIZE PUSH1 0x0 DUP1 RETURNDATACOPY RETURNDATASIZE PUSH1 0x0 REVERT JUMPDEST POP POP POP POP PUSH1 0x40 MLOAD RETURNDATASIZE PUSH1 0x1F NOT PUSH1 0x1F DUP3 ADD AND DUP3 ADD DUP1 PUSH1 0x40 MSTORE POP DUP2 ADD SWAP1 PUSH2 0xAAD SWAP2 SWAP1 PUSH2 0xC41 JUMP JUMPDEST POP PUSH1 0x40 DUP1 MLOAD DUP4 DUP2 MSTORE PUSH1 0x20 DUP2 ADD DUP4 SWAP1 MSTORE SWAP1 DUP2 ADD DUP5 SWAP1 MSTORE CALLER SWAP1 PUSH32 0x1DC8BB69DF2B8E91FBDCBFCF93D951B3F0000F085A95FE3F7946D6161439245D SWAP1 PUSH1 0x60 ADD PUSH1 0x40 MLOAD DUP1 SWAP2 SUB SWAP1 LOG2 SWAP2 POP SWAP2 JUMP JUMPDEST DUP1 CALLDATALOAD PUSH1 0x1 PUSH1 0x1 PUSH1 0xA0 SHL SUB DUP2 AND DUP2 EQ PUSH2 0xB0D JUMPI PUSH1 0x0 DUP1 REVERT JUMPDEST SWAP2 SWAP1 POP JUMP JUMPDEST PUSH1 0x0 DUP1 PUSH1 0x40 DUP4 DUP6 SUB SLT ISZERO PUSH2 0xB25 JUMPI PUSH1 0x0 DUP1 REVERT JUMPDEST DUP3 CALLDATALOAD SWAP2 POP PUSH2 0xB35 PUSH1 0x20 DUP5 ADD PUSH2 0xAF6 JUMP JUMPDEST SWAP1 POP SWAP3 POP SWAP3 SWAP1 POP JUMP JUMPDEST PUSH1 0x0 DUP1 PUSH1 0x40 DUP4 DUP6 SUB SLT ISZERO PUSH2 0xB51 JUMPI PUSH1 0x0 DUP1 REVERT JUMPDEST POP POP DUP1 CALLDATALOAD SWAP3 PUSH1 0x20 SWAP1 SWAP2 ADD CALLDATALOAD SWAP2 POP JUMP JUMPDEST PUSH1 0x0 DUP1 PUSH1 0x0 DUP1 PUSH1 0x80 DUP6 DUP8 SUB SLT ISZERO PUSH2 0xB76 JUMPI PUSH1 0x0 DUP1 REVERT JUMPDEST PUSH2 0xB7F DUP6 PUSH2 0xAF6 JUMP JUMPDEST SWAP4 POP PUSH1 0x20 DUP6 ADD CALLDATALOAD SWAP3 POP PUSH2 0xB94 PUSH1 0x40 DUP7 ADD PUSH2 0xAF6 JUMP JUMPDEST SWAP4 SWAP7 SWAP3 SWAP6 POP SWAP3 SWAP4 PUSH1 0x60 ADD CALLDATALOAD SWAP3 POP POP JUMP JUMPDEST PUSH1 0x0 PUSH1 0x20 DUP3 DUP5 SUB SLT ISZERO PUSH2 0xBB6 JUMPI PUSH1 0x0 DUP1 REVERT JUMPDEST POP CALLDATALOAD SWAP2 SWAP1 POP JUMP JUMPDEST PUSH1 0x0 PUSH1 0x20 DUP3 DUP5 SUB SLT ISZERO PUSH2 0xBCF JUMPI PUSH1 0x0 DUP1 REVERT JUMPDEST PUSH2 0xBD8 DUP3 PUSH2 0xAF6 JUMP JUMPDEST SWAP4 SWAP3 POP POP POP JUMP JUMPDEST PUSH4 0x4E487B71 PUSH1 0xE0 SHL PUSH1 0x0 MSTORE PUSH1 0x11 PUSH1 0x4 MSTORE PUSH1 0x24 PUSH1 0x0 REVERT JUMPDEST DUP1 DUP3 MUL DUP2 ISZERO DUP3 DUP3 DIV DUP5 EQ OR PUSH2 0x25D JUMPI PUSH2 0x25D PUSH2 0xBDF JUMP JUMPDEST DUP1 DUP3 ADD DUP1 DUP3 GT ISZERO PUSH2 0x25D JUMPI PUSH2 0x25D PUSH2 0xBDF JUMP JUMPDEST PUSH1 0x0 DUP3 PUSH2 0xC3C JUMPI PUSH4 0x4E487B71 PUSH1 0xE0 SHL PUSH1 0x0 MSTORE PUSH1 0x12 PUSH1 0x4 MSTORE PUSH1 0x24 PUSH1 0x0 REVERT JUMPDEST POP DIV SWAP1 JUMP JUMPDEST PUSH1 0x0 PUSH1 0x20 DUP3 DUP5 SUB SLT ISZERO PUSH2 0xC53 JUMPI PUSH1 0x0 DUP1 REVERT JUMPDEST DUP2 MLOAD DUP1 ISZERO ISZERO DUP2 EQ PUSH2 0xBD8 JUMPI PUSH1 0x0 DUP1 REVERT JUMPDEST DUP2 DUP2 SUB DUP2 DUP2 GT ISZERO PUSH2 0x25D JUMPI PUSH2 0x25D PUSH2 0xBDF JUMP JUMPDEST PUSH1 0x20 DUP1 DUP3 MSTORE PUSH1 0x32 SWAP1 DUP3 ADD MSTORE PUSH32 0x526563656976696E6720616D6F756E74206C657373207468616E206D696E696D PUSH1 0x40 DUP3 ADD MSTORE PUSH18 0x1D5B481C995C5D5A5C995908185B5BDD5B9D PUSH1 0x72 SHL PUSH1 0x60 DUP3 ADD MSTORE PUSH1 0x80 ADD SWAP1 JUMP INVALID LOG2 PUSH5 0x6970667358 0x22 SLT KECCAK256 DUP12 0xB5 0xE3 0xBE SWAP7 0x4D 0xE9 0xC3 0x27 BYTE JUMPDEST 0xE2 SWAP4 SWAP8 LOG3 CALLER 0xBC 0xF9 CALLDATASIZE SUB DUP13 0xD4 0x23 SWAP4 0xC8 0x22 SWAP13 0xFC 0xB4 0x2F SWAP1 0xDC PUSH5 0x736F6C6343 STOP ADDMOD BYTE STOP CALLER "
				},
				"gasEstimates": {
					"creation": {
						"codeDepositCost": "665200",
						"executionCost": "infinite",
						"totalCost": "infinite"
					},
					"external": {
						"admin()": "1147",
						"getReserves()": "3460",
						"getSwapAmount(uint256,address)": "infinite",
						"liquidity(address)": "1285",
						"provideLiquidity(uint256,uint256)": "infinite",
						"removeLiquidity(uint256)": "infinite",
						"reserveA()": "1083",
						"reserveB()": "1062",
						"swap(address,uint256,address,uint256)": "infinite",
						"tokenA()": "1060",
						"tokenB()": "1148",
						"totalLiquidity()": "1040"
					}
				},
				"methodIdentifiers": {
					"admin()": "f851a440",
					"getReserves()": "0902f1ac",
					"getSwapAmount(uint256,address)": "571a0ccf",
					"liquidity(address)": "b8c876b1",
					"provideLiquidity(uint256,uint256)": "7a16af7f",
					"removeLiquidity(uint256)": "9c8f9f23",
					"reserveA()": "dc5fa6c5",
					"reserveB()": "19e36f3b",
					"swap(address,uint256,address,uint256)": "8a0ccd56",
					"tokenA()": "0fc63d10",
					"tokenB()": "5f64b55b",
					"totalLiquidity()": "15770f92"
				}
			},
			"storageLayout": {
				"storage": [
					{
						"astId": 232,
						"contract": "contract/dex/pool.sol:Pool",
						"label": "tokenA",
						"offset": 0,
						"slot": "0",
						"type": "t_contract(IERC20)38"
					},
					{
						"astId": 235,
						"contract": "contract/dex/pool.sol:Pool",
						"label": "tokenB",
						"offset": 0,
						"slot": "1",
						"type": "t_contract(IERC20)38"
					},
					{
						"astId": 237,
						"contract": "contract/dex/pool.sol:Pool",
						"label": "reserveA",
						"offset": 0,
						"slot": "2",
						"type": "t_uint256"
					},
					{
						"astId": 239,
						"contract": "contract/dex/pool.sol:Pool",
						"label": "reserveB",
						"offset": 0,
						"slot": "3",
						"type": "t_uint256"
					},
					{
						"astId": 241,
						"contract": "contract/dex/pool.sol:Pool",
						"label": "totalLiquidity",
						"offset": 0,
						"slot": "4",
						"type": "t_uint256"
					},
					{
						"astId": 245,
						"contract": "contract/dex/pool.sol:Pool",
						"label": "liquidity",
						"offset": 0,
						"slot": "5",
						"type": "t_mapping(t_address,t_uint256)"
					},
					{
						"astId": 247,
						"contract": "contract/dex/pool.sol:Pool",
						"label": "admin",
						"offset": 0,
						"slot": "6",
						"type": "t_address"
					}
				],
				"types": {
					"t_address": {
						"encoding": "inplace",
						"label": "address",
						"numberOfBytes": "20"
					},
					"t_contract(IERC20)38": {
						"encoding": "inplace",
						"label": "contract IERC20",
						"numberOfBytes": "20"
					},
					"t_mapping(t_address,t_uint256)": {
						"encoding": "mapping",
						"key": "t_address",
						"label": "mapping(address => uint256)",
						"numberOfBytes": "32",
						"value": "t_uint256"
					},
					"t_uint256": {
						"encoding": "inplace",
						"label": "uint256",
						"numberOfBytes": "32"
					}
				}
			},
			"userdoc": {
				"kind": "user",
				"methods": {},
				"version": 1
			}
		}
	}
}