{
	"contract/Router.sol": {
		"Router": {
			"abi": [
				{
					"inputs": [],
					"stateMutability": "nonpayable",
					"type": "constructor"
				},
				{
					"inputs": [],
					"name": "admin",
					"outputs": [
						{
							"internalType": "address",
							"name": "",
							"type": "address"
						}
					],
					"stateMutability": "view",
					"type": "function"
				},
				{
					"inputs": [
						{
							"components": [
								{
									"internalType": "address",
									"name": "poolAddress",
									"type": "address"
								},
								{
									"internalType": "address",
									"name": "inputToken",
									"type": "address"
								},
								{
									"internalType": "address",
									"name": "outputToken",
									"type": "address"
								},
								{
									"internalType": "uint256",
									"name": "minAmountOut",
									"type": "uint256"
								}
							],
							"internalType": "struct Router.SwapRoute[]",
							"name": "routes",
							"type": "tuple[]"
						},
						{
							"internalType": "uint256",
							"name": "inputAmount",
							"type": "uint256"
						},
						{
							"internalType": "address",
							"name": "recipient",
							"type": "address"
						}
					],
					"name": "multiHopSwap",
					"outputs": [
						{
							"internalType": "uint256",
							"name": "finalOutputAmount",
							"type": "uint256"
						}
					],
					"stateMutability": "nonpayable",
					"type": "function"
				},
				{
					"inputs": [
						{
							"internalType": "address",
							"name": "poolAddress",
							"type": "address"
						},
						{
							"internalType": "address",
							"name": "inputToken",
							"type": "address"
						},
						{
							"internalType": "uint256",
							"name": "inputAmount",
							"type": "uint256"
						},
						{
							"internalType": "address",
							"name": "outputToken",
							"type": "address"
						},
						{
							"internalType": "address",
							"name": "recipient",
							"type": "address"
						},
						{
							"internalType": "uint256",
							"name": "minAmount",
							"type": "uint256"
						}
					],
					"name": "swapDirect",
					"outputs": [
						{
							"internalType": "uint256",
							"name": "outputAmount",
							"type": "uint256"
						}
					],
					"stateMutability": "nonpayable",
					"type": "function"
				}
			],
			"devdoc": {
				"kind": "dev",
				"methods": {},
				"version": 1
			},
			"evm": {
				"assembly": "    /* \"contract/Router.sol\":128:3221  contract Router {... */\n  mstore(0x40, 0x80)\n    /* \"contract/Router.sol\":177:226  constructor() {... */\n  callvalue\n  dup1\n  iszero\n  tag_1\n  jumpi\n  0x00\n  dup1\n  revert\ntag_1:\n  pop\n    /* \"contract/Router.sol\":201:206  admin */\n  0x00\n    /* \"contract/Router.sol\":201:219  admin = msg.sender */\n  dup1\n  sload\n  not(sub(shl(0xa0, 0x01), 0x01))\n  and\n    /* \"contract/Router.sol\":209:219  msg.sender */\n  caller\n    /* \"contract/Router.sol\":201:219  admin = msg.sender */\n  or\n  swap1\n  sstore\n    /* \"contract/Router.sol\":128:3221  contract Router {... */\n  dataSize(sub_0)\n  dup1\n  dataOffset(sub_0)\n  0x00\n  codecopy\n  0x00\n  return\nstop\n\nsub_0: assembly {\n        /* \"contract/Router.sol\":128:3221  contract Router {... */\n      mstore(0x40, 0x80)\n      callvalue\n      dup1\n      iszero\n      tag_1\n      jumpi\n      0x00\n      dup1\n      revert\n    tag_1:\n      pop\n      jumpi(tag_2, lt(calldatasize, 0x04))\n      shr(0xe0, calldataload(0x00))\n      dup1\n      0x751ee245\n      eq\n      tag_3\n      jumpi\n      dup1\n      0x7bd43c3a\n      eq\n      tag_4\n      jumpi\n      dup1\n      0xf851a440\n      eq\n      tag_5\n      jumpi\n    tag_2:\n      0x00\n      dup1\n      revert\n        /* \"contract/Router.sol\":2356:3219  function swapDirect(... */\n    tag_3:\n      tag_6\n      tag_7\n      calldatasize\n      0x04\n      tag_8\n      jump\t// in\n    tag_7:\n      tag_9\n      jump\t// in\n    tag_6:\n      mload(0x40)\n        /* \"#utility.yul\":988:1013   */\n      swap1\n      dup2\n      mstore\n        /* \"#utility.yul\":976:978   */\n      0x20\n        /* \"#utility.yul\":961:979   */\n      add\n        /* \"contract/Router.sol\":2356:3219  function swapDirect(... */\n    tag_10:\n      mload(0x40)\n      dup1\n      swap2\n      sub\n      swap1\n      return\n        /* \"contract/Router.sol\":544:2267  function multiHopSwap(... */\n    tag_4:\n      tag_6\n      tag_13\n      calldatasize\n      0x04\n      tag_14\n      jump\t// in\n    tag_13:\n      tag_15\n      jump\t// in\n        /* \"contract/Router.sol\":150:170  address public admin */\n    tag_5:\n      sload(0x00)\n      tag_17\n      swap1\n      sub(shl(0xa0, 0x01), 0x01)\n      and\n      dup2\n      jump\n    tag_17:\n      mload(0x40)\n      sub(shl(0xa0, 0x01), 0x01)\n        /* \"#utility.yul\":3434:3466   */\n      swap1\n      swap2\n      and\n        /* \"#utility.yul\":3416:3467   */\n      dup2\n      mstore\n        /* \"#utility.yul\":3404:3406   */\n      0x20\n        /* \"#utility.yul\":3389:3407   */\n      add\n        /* \"contract/Router.sol\":150:170  address public admin */\n      tag_10\n        /* \"#utility.yul\":3270:3473   */\n      jump\n        /* \"contract/Router.sol\":2356:3219  function swapDirect(... */\n    tag_9:\n        /* \"contract/Router.sol\":2942:3013  IERC20(inputToken).transferFrom(msg.sender, address(this), inputAmount) */\n      mload(0x40)\n      shl(0xe0, 0x23b872dd)\n      dup2\n      mstore\n        /* \"contract/Router.sol\":2974:2984  msg.sender */\n      caller\n        /* \"contract/Router.sol\":2942:3013  IERC20(inputToken).transferFrom(msg.sender, address(this), inputAmount) */\n      0x04\n      dup3\n      add\n        /* \"#utility.yul\":3680:3731   */\n      mstore\n        /* \"contract/Router.sol\":2994:2998  this */\n      address\n        /* \"#utility.yul\":3747:3765   */\n      0x24\n      dup3\n      add\n        /* \"#utility.yul\":3740:3800   */\n      mstore\n        /* \"#utility.yul\":3816:3834   */\n      0x44\n      dup2\n      add\n        /* \"#utility.yul\":3809:3843   */\n      dup6\n      swap1\n      mstore\n        /* \"contract/Router.sol\":2812:2832  uint256 outputAmount */\n      0x00\n      swap1\n        /* \"contract/Router.sol\":2861:2872  poolAddress */\n      dup8\n      swap1\n      sub(shl(0xa0, 0x01), 0x01)\n        /* \"contract/Router.sol\":2942:2973  IERC20(inputToken).transferFrom */\n      dup9\n      and\n      swap1\n      0x23b872dd\n      swap1\n        /* \"#utility.yul\":3653:3671   */\n      0x64\n      add\n        /* \"contract/Router.sol\":2942:3013  IERC20(inputToken).transferFrom(msg.sender, address(this), inputAmount) */\n      0x20\n      mload(0x40)\n      dup1\n      dup4\n      sub\n      dup2\n      0x00\n      dup8\n      gas\n      call\n      iszero\n      dup1\n      iszero\n      tag_25\n      jumpi\n      returndatasize\n      0x00\n      dup1\n      returndatacopy\n      revert(0x00, returndatasize)\n    tag_25:\n      pop\n      pop\n      pop\n      pop\n      mload(0x40)\n      returndatasize\n      not(0x1f)\n      0x1f\n      dup3\n      add\n      and\n      dup3\n      add\n      dup1\n      0x40\n      mstore\n      pop\n      dup2\n      add\n      swap1\n      tag_26\n      swap2\n      swap1\n      tag_27\n      jump\t// in\n    tag_26:\n      pop\n        /* \"contract/Router.sol\":3023:3075  IERC20(inputToken).approve(poolAddress, inputAmount) */\n      mload(0x40)\n      shl(0xe0, 0x095ea7b3)\n      dup2\n      mstore\n      sub(shl(0xa0, 0x01), 0x01)\n        /* \"#utility.yul\":4328:4360   */\n      dup10\n      dup2\n      and\n        /* \"contract/Router.sol\":3023:3075  IERC20(inputToken).approve(poolAddress, inputAmount) */\n      0x04\n      dup4\n      add\n        /* \"#utility.yul\":4310:4361   */\n      mstore\n        /* \"#utility.yul\":4377:4395   */\n      0x24\n      dup3\n      add\n        /* \"#utility.yul\":4370:4404   */\n      dup9\n      swap1\n      mstore\n        /* \"contract/Router.sol\":3023:3049  IERC20(inputToken).approve */\n      dup9\n      and\n      swap1\n      0x095ea7b3\n      swap1\n        /* \"#utility.yul\":4283:4301   */\n      0x44\n      add\n        /* \"contract/Router.sol\":3023:3075  IERC20(inputToken).approve(poolAddress, inputAmount) */\n      0x20\n      mload(0x40)\n      dup1\n      dup4\n      sub\n      dup2\n      0x00\n      dup8\n      gas\n      call\n      iszero\n      dup1\n      iszero\n      tag_31\n      jumpi\n      returndatasize\n      0x00\n      dup1\n      returndatacopy\n      revert(0x00, returndatasize)\n    tag_31:\n      pop\n      pop\n      pop\n      pop\n      mload(0x40)\n      returndatasize\n      not(0x1f)\n      0x1f\n      dup3\n      add\n      and\n      dup3\n      add\n      dup1\n      0x40\n      mstore\n      pop\n      dup2\n      add\n      swap1\n      tag_32\n      swap2\n      swap1\n      tag_27\n      jump\t// in\n    tag_32:\n      pop\n        /* \"contract/Router.sol\":3156:3212  pool.swap(inputToken, inputAmount, recipient, minAmount) */\n      mload(0x40)\n      shl(0xe1, 0x450666ab)\n      dup2\n      mstore\n      sub(shl(0xa0, 0x01), 0x01)\n        /* \"#utility.yul\":4664:4696   */\n      dup9\n      dup2\n      and\n        /* \"contract/Router.sol\":3156:3212  pool.swap(inputToken, inputAmount, recipient, minAmount) */\n      0x04\n      dup4\n      add\n        /* \"#utility.yul\":4646:4697   */\n      mstore\n        /* \"#utility.yul\":4713:4731   */\n      0x24\n      dup3\n      add\n        /* \"#utility.yul\":4706:4740   */\n      dup9\n      swap1\n      mstore\n        /* \"#utility.yul\":4776:4808   */\n      dup6\n      dup2\n      and\n        /* \"#utility.yul\":4756:4774   */\n      0x44\n      dup4\n      add\n        /* \"#utility.yul\":4749:4809   */\n      mstore\n        /* \"#utility.yul\":4825:4843   */\n      0x64\n      dup3\n      add\n        /* \"#utility.yul\":4818:4852   */\n      dup6\n      swap1\n      mstore\n        /* \"contract/Router.sol\":3156:3165  pool.swap */\n      dup3\n      and\n      swap1\n      0x8a0ccd56\n      swap1\n        /* \"#utility.yul\":4618:4637   */\n      0x84\n      add\n        /* \"contract/Router.sol\":3156:3212  pool.swap(inputToken, inputAmount, recipient, minAmount) */\n      0x20\n      mload(0x40)\n      dup1\n      dup4\n      sub\n      dup2\n      0x00\n      dup8\n      gas\n      call\n      iszero\n      dup1\n      iszero\n      tag_36\n      jumpi\n      returndatasize\n      0x00\n      dup1\n      returndatacopy\n      revert(0x00, returndatasize)\n    tag_36:\n      pop\n      pop\n      pop\n      pop\n      mload(0x40)\n      returndatasize\n      not(0x1f)\n      0x1f\n      dup3\n      add\n      and\n      dup3\n      add\n      dup1\n      0x40\n      mstore\n      pop\n      dup2\n      add\n      swap1\n      tag_37\n      swap2\n      swap1\n      tag_38\n      jump\t// in\n    tag_37:\n        /* \"contract/Router.sol\":3141:3212  outputAmount = pool.swap(inputToken, inputAmount, recipient, minAmount) */\n      swap9\n        /* \"contract/Router.sol\":2356:3219  function swapDirect(... */\n      swap8\n      pop\n      pop\n      pop\n      pop\n      pop\n      pop\n      pop\n      pop\n      jump\t// out\n        /* \"contract/Router.sol\":544:2267  function multiHopSwap(... */\n    tag_15:\n        /* \"contract/Router.sol\":805:830  uint256 finalOutputAmount */\n      0x00\n        /* \"contract/Router.sol\":866:867  0 */\n      dup1\n        /* \"contract/Router.sol\":850:856  routes */\n      dup5\n        /* \"contract/Router.sol\":850:863  routes.length */\n      mload\n        /* \"contract/Router.sol\":850:867  routes.length > 0 */\n      gt\n        /* \"contract/Router.sol\":842:895  require(routes.length > 0, \"No swap routes provided\") */\n      tag_40\n      jumpi\n      mload(0x40)\n      shl(0xe5, 0x461bcd)\n      dup2\n      mstore\n        /* \"#utility.yul\":5254:5256   */\n      0x20\n        /* \"contract/Router.sol\":842:895  require(routes.length > 0, \"No swap routes provided\") */\n      0x04\n      dup3\n      add\n        /* \"#utility.yul\":5236:5257   */\n      mstore\n        /* \"#utility.yul\":5293:5295   */\n      0x17\n        /* \"#utility.yul\":5273:5291   */\n      0x24\n      dup3\n      add\n        /* \"#utility.yul\":5266:5296   */\n      mstore\n        /* \"#utility.yul\":5332:5357   */\n      0x4e6f207377617020726f757465732070726f7669646564000000000000000000\n        /* \"#utility.yul\":5312:5330   */\n      0x44\n      dup3\n      add\n        /* \"#utility.yul\":5305:5358   */\n      mstore\n        /* \"#utility.yul\":5375:5393   */\n      0x64\n      add\n        /* \"contract/Router.sol\":842:895  require(routes.length > 0, \"No swap routes provided\") */\n    tag_41:\n      mload(0x40)\n      dup1\n      swap2\n      sub\n      swap1\n      revert\n    tag_40:\n        /* \"contract/Router.sol\":927:928  0 */\n      0x00\n        /* \"contract/Router.sol\":913:924  inputAmount */\n      dup4\n        /* \"contract/Router.sol\":913:928  inputAmount > 0 */\n      gt\n        /* \"contract/Router.sol\":905:968  require(inputAmount > 0, \"Input amount must be greater than 0\") */\n      tag_43\n      jumpi\n      mload(0x40)\n      shl(0xe5, 0x461bcd)\n      dup2\n      mstore\n        /* \"#utility.yul\":5606:5608   */\n      0x20\n        /* \"contract/Router.sol\":905:968  require(inputAmount > 0, \"Input amount must be greater than 0\") */\n      0x04\n      dup3\n      add\n        /* \"#utility.yul\":5588:5609   */\n      mstore\n        /* \"#utility.yul\":5645:5647   */\n      0x23\n        /* \"#utility.yul\":5625:5643   */\n      0x24\n      dup3\n      add\n        /* \"#utility.yul\":5618:5648   */\n      mstore\n        /* \"#utility.yul\":5684:5718   */\n      0x496e70757420616d6f756e74206d757374206265206772656174657220746861\n        /* \"#utility.yul\":5664:5682   */\n      0x44\n      dup3\n      add\n        /* \"#utility.yul\":5657:5719   */\n      mstore\n      shl(0xec, 0x06e203)\n        /* \"#utility.yul\":5735:5753   */\n      0x64\n      dup3\n      add\n        /* \"#utility.yul\":5728:5761   */\n      mstore\n        /* \"#utility.yul\":5778:5797   */\n      0x84\n      add\n        /* \"contract/Router.sol\":905:968  require(inputAmount > 0, \"Input amount must be greater than 0\") */\n      tag_41\n        /* \"#utility.yul\":5404:5803   */\n      jump\n        /* \"contract/Router.sol\":905:968  require(inputAmount > 0, \"Input amount must be greater than 0\") */\n    tag_43:\n      sub(shl(0xa0, 0x01), 0x01)\n        /* \"contract/Router.sol\":986:1009  recipient != address(0) */\n      dup3\n      and\n        /* \"contract/Router.sol\":978:1031  require(recipient != address(0), \"Invalid recipient\") */\n      tag_46\n      jumpi\n      mload(0x40)\n      shl(0xe5, 0x461bcd)\n      dup2\n      mstore\n        /* \"#utility.yul\":6010:6012   */\n      0x20\n        /* \"contract/Router.sol\":978:1031  require(recipient != address(0), \"Invalid recipient\") */\n      0x04\n      dup3\n      add\n        /* \"#utility.yul\":5992:6013   */\n      mstore\n        /* \"#utility.yul\":6049:6051   */\n      0x11\n        /* \"#utility.yul\":6029:6047   */\n      0x24\n      dup3\n      add\n        /* \"#utility.yul\":6022:6052   */\n      mstore\n      shl(0x7a, 0x125b9d985b1a59081c9958da5c1a595b9d)\n        /* \"#utility.yul\":6068:6086   */\n      0x44\n      dup3\n      add\n        /* \"#utility.yul\":6061:6108   */\n      mstore\n        /* \"#utility.yul\":6125:6143   */\n      0x64\n      add\n        /* \"contract/Router.sol\":978:1031  require(recipient != address(0), \"Invalid recipient\") */\n      tag_41\n        /* \"#utility.yul\":5808:6149   */\n      jump\n        /* \"contract/Router.sol\":978:1031  require(recipient != address(0), \"Invalid recipient\") */\n    tag_46:\n        /* \"contract/Router.sol\":1066:1077  inputAmount */\n      dup3\n        /* \"contract/Router.sol\":1042:1063  uint256 currentAmount */\n      0x00\n        /* \"contract/Router.sol\":1141:2226  for (uint256 i = 0; i < routes.length; i++) {... */\n    tag_49:\n        /* \"contract/Router.sol\":1165:1171  routes */\n      dup6\n        /* \"contract/Router.sol\":1165:1178  routes.length */\n      mload\n        /* \"contract/Router.sol\":1161:1162  i */\n      dup2\n        /* \"contract/Router.sol\":1161:1178  i < routes.length */\n      lt\n        /* \"contract/Router.sol\":1141:2226  for (uint256 i = 0; i < routes.length; i++) {... */\n      iszero\n      tag_50\n      jumpi\n        /* \"contract/Router.sol\":1199:1221  SwapRoute memory route */\n      0x00\n        /* \"contract/Router.sol\":1224:1230  routes */\n      dup7\n        /* \"contract/Router.sol\":1231:1232  i */\n      dup3\n        /* \"contract/Router.sol\":1224:1233  routes[i] */\n      dup2\n      mload\n      dup2\n      lt\n      tag_53\n      jumpi\n      tag_53\n      tag_54\n      jump\t// in\n    tag_53:\n      0x20\n      swap1\n      dup2\n      mul\n      swap2\n      swap1\n      swap2\n      add\n      dup2\n      add\n      mload\n        /* \"contract/Router.sol\":1264:1281  route.poolAddress */\n      dup1\n      mload\n        /* \"contract/Router.sol\":1386:1402  route.inputToken */\n      swap2\n      dup2\n      add\n      mload\n        /* \"contract/Router.sol\":1379:1458  IERC20(route.inputToken).transferFrom(msg.sender, address(this), currentAmount) */\n      mload(0x40)\n      shl(0xe0, 0x23b872dd)\n      dup2\n      mstore\n        /* \"contract/Router.sol\":1417:1427  msg.sender */\n      caller\n        /* \"contract/Router.sol\":1379:1458  IERC20(route.inputToken).transferFrom(msg.sender, address(this), currentAmount) */\n      0x04\n      dup3\n      add\n        /* \"#utility.yul\":3680:3731   */\n      mstore\n        /* \"contract/Router.sol\":1437:1441  this */\n      address\n        /* \"#utility.yul\":3747:3765   */\n      0x24\n      dup3\n      add\n        /* \"#utility.yul\":3740:3800   */\n      mstore\n        /* \"#utility.yul\":3816:3834   */\n      0x44\n      dup2\n      add\n        /* \"#utility.yul\":3809:3843   */\n      dup8\n      swap1\n      mstore\n        /* \"contract/Router.sol\":1224:1233  routes[i] */\n      swap2\n      swap4\n      pop\n      sub(shl(0xa0, 0x01), 0x01)\n        /* \"contract/Router.sol\":1379:1416  IERC20(route.inputToken).transferFrom */\n      and\n      swap1\n      0x23b872dd\n      swap1\n        /* \"#utility.yul\":3653:3671   */\n      0x64\n      add\n        /* \"contract/Router.sol\":1379:1458  IERC20(route.inputToken).transferFrom(msg.sender, address(this), currentAmount) */\n      0x20\n      mload(0x40)\n      dup1\n      dup4\n      sub\n      dup2\n      0x00\n      dup8\n      gas\n      call\n      iszero\n      dup1\n      iszero\n      tag_57\n      jumpi\n      returndatasize\n      0x00\n      dup1\n      returndatacopy\n      revert(0x00, returndatasize)\n    tag_57:\n      pop\n      pop\n      pop\n      pop\n      mload(0x40)\n      returndatasize\n      not(0x1f)\n      0x1f\n      dup3\n      add\n      and\n      dup3\n      add\n      dup1\n      0x40\n      mstore\n      pop\n      dup2\n      add\n      swap1\n      tag_58\n      swap2\n      swap1\n      tag_27\n      jump\t// in\n    tag_58:\n      pop\n        /* \"contract/Router.sol\":1547:1563  route.inputToken */\n      0x20\n      dup3\n      add\n      mload\n        /* \"contract/Router.sol\":1573:1590  route.poolAddress */\n      dup3\n      mload\n        /* \"contract/Router.sol\":1540:1606  IERC20(route.inputToken).approve(route.poolAddress, currentAmount) */\n      mload(0x40)\n      shl(0xe0, 0x095ea7b3)\n      dup2\n      mstore\n      sub(shl(0xa0, 0x01), 0x01)\n        /* \"#utility.yul\":4328:4360   */\n      swap2\n      dup3\n      and\n        /* \"contract/Router.sol\":1540:1606  IERC20(route.inputToken).approve(route.poolAddress, currentAmount) */\n      0x04\n      dup3\n      add\n        /* \"#utility.yul\":4310:4361   */\n      mstore\n        /* \"#utility.yul\":4377:4395   */\n      0x24\n      dup2\n      add\n        /* \"#utility.yul\":4370:4404   */\n      dup8\n      swap1\n      mstore\n        /* \"contract/Router.sol\":1540:1572  IERC20(route.inputToken).approve */\n      swap2\n      and\n      swap1\n      0x095ea7b3\n      swap1\n        /* \"#utility.yul\":4283:4301   */\n      0x44\n      add\n        /* \"contract/Router.sol\":1540:1606  IERC20(route.inputToken).approve(route.poolAddress, currentAmount) */\n      0x20\n      mload(0x40)\n      dup1\n      dup4\n      sub\n      dup2\n      0x00\n      dup8\n      gas\n      call\n      iszero\n      dup1\n      iszero\n      tag_61\n      jumpi\n      returndatasize\n      0x00\n      dup1\n      returndatacopy\n      revert(0x00, returndatasize)\n    tag_61:\n      pop\n      pop\n      pop\n      pop\n      mload(0x40)\n      returndatasize\n      not(0x1f)\n      0x1f\n      dup3\n      add\n      and\n      dup3\n      add\n      dup1\n      0x40\n      mstore\n      pop\n      dup2\n      add\n      swap1\n      tag_62\n      swap2\n      swap1\n      tag_27\n      jump\t// in\n    tag_62:\n      pop\n        /* \"contract/Router.sol\":1712:1728  route.inputToken */\n      0x20\n      dup3\n      add\n      mload\n        /* \"contract/Router.sol\":1760:1778  route.minAmountOut */\n      0x60\n      dup4\n      add\n      mload\n        /* \"contract/Router.sol\":1702:1779  pool.swap(route.inputToken, currentAmount, address(this), route.minAmountOut) */\n      mload(0x40)\n      shl(0xe1, 0x450666ab)\n      dup2\n      mstore\n      sub(shl(0xa0, 0x01), 0x01)\n        /* \"#utility.yul\":4664:4696   */\n      swap3\n      dup4\n      and\n        /* \"contract/Router.sol\":1702:1779  pool.swap(route.inputToken, currentAmount, address(this), route.minAmountOut) */\n      0x04\n      dup3\n      add\n        /* \"#utility.yul\":4646:4697   */\n      mstore\n        /* \"#utility.yul\":4713:4731   */\n      0x24\n      dup2\n      add\n        /* \"#utility.yul\":4706:4740   */\n      dup8\n      swap1\n      mstore\n        /* \"contract/Router.sol\":1753:1757  this */\n      address\n        /* \"#utility.yul\":4756:4774   */\n      0x44\n      dup3\n      add\n        /* \"#utility.yul\":4749:4809   */\n      mstore\n        /* \"#utility.yul\":4825:4843   */\n      0x64\n      dup2\n      add\n        /* \"#utility.yul\":4818:4852   */\n      swap2\n      swap1\n      swap2\n      mstore\n        /* \"contract/Router.sol\":1702:1711  pool.swap */\n      swap1\n      dup3\n      and\n      swap1\n      0x8a0ccd56\n      swap1\n        /* \"#utility.yul\":4618:4637   */\n      0x84\n      add\n        /* \"contract/Router.sol\":1702:1779  pool.swap(route.inputToken, currentAmount, address(this), route.minAmountOut) */\n      0x20\n      mload(0x40)\n      dup1\n      dup4\n      sub\n      dup2\n      0x00\n      dup8\n      gas\n      call\n      iszero\n      dup1\n      iszero\n      tag_65\n      jumpi\n      returndatasize\n      0x00\n      dup1\n      returndatacopy\n      revert(0x00, returndatasize)\n    tag_65:\n      pop\n      pop\n      pop\n      pop\n      mload(0x40)\n      returndatasize\n      not(0x1f)\n      0x1f\n      dup3\n      add\n      and\n      dup3\n      add\n      dup1\n      0x40\n      mstore\n      pop\n      dup2\n      add\n      swap1\n      tag_66\n      swap2\n      swap1\n      tag_38\n      jump\t// in\n    tag_66:\n        /* \"contract/Router.sol\":1686:1779  currentAmount = pool.swap(route.inputToken, currentAmount, address(this), route.minAmountOut) */\n      swap4\n      pop\n        /* \"contract/Router.sol\":1902:1907  route */\n      dup2\n        /* \"contract/Router.sol\":1902:1920  route.minAmountOut */\n      0x60\n      add\n      mload\n        /* \"contract/Router.sol\":1885:1898  currentAmount */\n      dup5\n        /* \"contract/Router.sol\":1885:1920  currentAmount >= route.minAmountOut */\n      lt\n      iszero\n        /* \"contract/Router.sol\":1877:1951  require(currentAmount >= route.minAmountOut, \"Insufficient output amount\") */\n      tag_67\n      jumpi\n      mload(0x40)\n      shl(0xe5, 0x461bcd)\n      dup2\n      mstore\n        /* \"#utility.yul\":6488:6490   */\n      0x20\n        /* \"contract/Router.sol\":1877:1951  require(currentAmount >= route.minAmountOut, \"Insufficient output amount\") */\n      0x04\n      dup3\n      add\n        /* \"#utility.yul\":6470:6491   */\n      mstore\n        /* \"#utility.yul\":6527:6529   */\n      0x1a\n        /* \"#utility.yul\":6507:6525   */\n      0x24\n      dup3\n      add\n        /* \"#utility.yul\":6500:6530   */\n      mstore\n        /* \"#utility.yul\":6566:6594   */\n      0x496e73756666696369656e74206f757470757420616d6f756e74000000000000\n        /* \"#utility.yul\":6546:6564   */\n      0x44\n      dup3\n      add\n        /* \"#utility.yul\":6539:6595   */\n      mstore\n        /* \"#utility.yul\":6612:6630   */\n      0x64\n      add\n        /* \"contract/Router.sol\":1877:1951  require(currentAmount >= route.minAmountOut, \"Insufficient output amount\") */\n      tag_41\n        /* \"#utility.yul\":6286:6636   */\n      jump\n        /* \"contract/Router.sol\":1877:1951  require(currentAmount >= route.minAmountOut, \"Insufficient output amount\") */\n    tag_67:\n        /* \"contract/Router.sol\":2069:2070  1 */\n      0x01\n        /* \"contract/Router.sol\":2053:2059  routes */\n      dup9\n        /* \"contract/Router.sol\":2053:2066  routes.length */\n      mload\n        /* \"contract/Router.sol\":2053:2070  routes.length - 1 */\n      tag_70\n      swap2\n      swap1\n      tag_71\n      jump\t// in\n    tag_70:\n        /* \"contract/Router.sol\":2048:2049  i */\n      dup4\n        /* \"contract/Router.sol\":2048:2070  i == routes.length - 1 */\n      sub\n        /* \"contract/Router.sol\":2044:2216  if (i == routes.length - 1) {... */\n      tag_72\n      jumpi\n        /* \"contract/Router.sol\":2097:2114  route.outputToken */\n      0x40\n      dup1\n      dup4\n      add\n      mload\n        /* \"contract/Router.sol\":2090:2150  IERC20(route.outputToken).transfer(recipient, currentAmount) */\n      swap1\n      mload\n      shl(0xe0, 0xa9059cbb)\n      dup2\n      mstore\n      sub(shl(0xa0, 0x01), 0x01)\n        /* \"#utility.yul\":4328:4360   */\n      dup9\n      dup2\n      and\n        /* \"contract/Router.sol\":2090:2150  IERC20(route.outputToken).transfer(recipient, currentAmount) */\n      0x04\n      dup4\n      add\n        /* \"#utility.yul\":4310:4361   */\n      mstore\n        /* \"#utility.yul\":4377:4395   */\n      0x24\n      dup3\n      add\n        /* \"#utility.yul\":4370:4404   */\n      dup8\n      swap1\n      mstore\n        /* \"contract/Router.sol\":2090:2124  IERC20(route.outputToken).transfer */\n      swap1\n      swap2\n      and\n      swap1\n      0xa9059cbb\n      swap1\n        /* \"#utility.yul\":4283:4301   */\n      0x44\n      add\n        /* \"contract/Router.sol\":2090:2150  IERC20(route.outputToken).transfer(recipient, currentAmount) */\n      0x20\n      mload(0x40)\n      dup1\n      dup4\n      sub\n      dup2\n      0x00\n      dup8\n      gas\n      call\n      iszero\n      dup1\n      iszero\n      tag_75\n      jumpi\n      returndatasize\n      0x00\n      dup1\n      returndatacopy\n      revert(0x00, returndatasize)\n    tag_75:\n      pop\n      pop\n      pop\n      pop\n      mload(0x40)\n      returndatasize\n      not(0x1f)\n      0x1f\n      dup3\n      add\n      and\n      dup3\n      add\n      dup1\n      0x40\n      mstore\n      pop\n      dup2\n      add\n      swap1\n      tag_76\n      swap2\n      swap1\n      tag_27\n      jump\t// in\n    tag_76:\n      pop\n        /* \"contract/Router.sol\":2188:2201  currentAmount */\n      dup4\n        /* \"contract/Router.sol\":2168:2201  finalOutputAmount = currentAmount */\n      swap5\n      pop\n        /* \"contract/Router.sol\":2044:2216  if (i == routes.length - 1) {... */\n    tag_72:\n      pop\n      pop\n        /* \"contract/Router.sol\":1180:1183  i++ */\n      0x01\n      add\n        /* \"contract/Router.sol\":1141:2226  for (uint256 i = 0; i < routes.length; i++) {... */\n      jump(tag_49)\n    tag_50:\n      pop\n        /* \"contract/Router.sol\":2236:2260  return finalOutputAmount */\n      pop\n        /* \"contract/Router.sol\":544:2267  function multiHopSwap(... */\n      swap4\n      swap3\n      pop\n      pop\n      pop\n      jump\t// out\n        /* \"#utility.yul\":14:187   */\n    tag_77:\n        /* \"#utility.yul\":82:102   */\n      dup1\n      calldataload\n      sub(shl(0xa0, 0x01), 0x01)\n        /* \"#utility.yul\":131:162   */\n      dup2\n      and\n        /* \"#utility.yul\":121:163   */\n      dup2\n      eq\n        /* \"#utility.yul\":111:181   */\n      tag_83\n      jumpi\n        /* \"#utility.yul\":177:178   */\n      0x00\n        /* \"#utility.yul\":174:175   */\n      dup1\n        /* \"#utility.yul\":167:179   */\n      revert\n        /* \"#utility.yul\":111:181   */\n    tag_83:\n        /* \"#utility.yul\":14:187   */\n      swap2\n      swap1\n      pop\n      jump\t// out\n        /* \"#utility.yul\":192:837   */\n    tag_8:\n        /* \"#utility.yul\":296:302   */\n      0x00\n        /* \"#utility.yul\":304:310   */\n      dup1\n        /* \"#utility.yul\":312:318   */\n      0x00\n        /* \"#utility.yul\":320:326   */\n      dup1\n        /* \"#utility.yul\":328:334   */\n      0x00\n        /* \"#utility.yul\":336:342   */\n      dup1\n        /* \"#utility.yul\":389:392   */\n      0xc0\n        /* \"#utility.yul\":377:386   */\n      dup8\n        /* \"#utility.yul\":368:375   */\n      dup10\n        /* \"#utility.yul\":364:387   */\n      sub\n        /* \"#utility.yul\":360:393   */\n      slt\n        /* \"#utility.yul\":357:410   */\n      iszero\n      tag_85\n      jumpi\n        /* \"#utility.yul\":406:407   */\n      0x00\n        /* \"#utility.yul\":403:404   */\n      dup1\n        /* \"#utility.yul\":396:408   */\n      revert\n        /* \"#utility.yul\":357:410   */\n    tag_85:\n        /* \"#utility.yul\":429:458   */\n      tag_86\n        /* \"#utility.yul\":448:457   */\n      dup8\n        /* \"#utility.yul\":429:458   */\n      tag_77\n      jump\t// in\n    tag_86:\n        /* \"#utility.yul\":419:458   */\n      swap6\n      pop\n        /* \"#utility.yul\":477:515   */\n      tag_87\n        /* \"#utility.yul\":511:513   */\n      0x20\n        /* \"#utility.yul\":500:509   */\n      dup9\n        /* \"#utility.yul\":496:514   */\n      add\n        /* \"#utility.yul\":477:515   */\n      tag_77\n      jump\t// in\n    tag_87:\n        /* \"#utility.yul\":467:515   */\n      swap5\n      pop\n        /* \"#utility.yul\":584:586   */\n      0x40\n        /* \"#utility.yul\":569:587   */\n      dup8\n      add\n        /* \"#utility.yul\":556:588   */\n      calldataload\n      swap4\n      pop\n        /* \"#utility.yul\":631:669   */\n      tag_88\n        /* \"#utility.yul\":665:667   */\n      0x60\n        /* \"#utility.yul\":650:668   */\n      dup9\n      add\n        /* \"#utility.yul\":631:669   */\n      tag_77\n      jump\t// in\n    tag_88:\n        /* \"#utility.yul\":621:669   */\n      swap3\n      pop\n        /* \"#utility.yul\":688:727   */\n      tag_89\n        /* \"#utility.yul\":722:725   */\n      0x80\n        /* \"#utility.yul\":711:720   */\n      dup9\n        /* \"#utility.yul\":707:726   */\n      add\n        /* \"#utility.yul\":688:727   */\n      tag_77\n      jump\t// in\n    tag_89:\n        /* \"#utility.yul\":192:837   */\n      swap6\n      swap9\n      swap5\n      swap8\n      pop\n      swap3\n      swap6\n      swap2\n      swap5\n      swap4\n        /* \"#utility.yul\":800:803   */\n      0xa0\n        /* \"#utility.yul\":785:804   */\n      swap1\n      swap3\n      add\n        /* \"#utility.yul\":772:805   */\n      calldataload\n      swap3\n      pop\n      pop\n        /* \"#utility.yul\":192:837   */\n      jump\t// out\n        /* \"#utility.yul\":1024:1151   */\n    tag_78:\n        /* \"#utility.yul\":1085:1095   */\n      0x4e487b71\n        /* \"#utility.yul\":1080:1083   */\n      0xe0\n        /* \"#utility.yul\":1076:1096   */\n      shl\n        /* \"#utility.yul\":1073:1074   */\n      0x00\n        /* \"#utility.yul\":1066:1097   */\n      mstore\n        /* \"#utility.yul\":1116:1120   */\n      0x41\n        /* \"#utility.yul\":1113:1114   */\n      0x04\n        /* \"#utility.yul\":1106:1121   */\n      mstore\n        /* \"#utility.yul\":1140:1144   */\n      0x24\n        /* \"#utility.yul\":1137:1138   */\n      0x00\n        /* \"#utility.yul\":1130:1145   */\n      revert\n        /* \"#utility.yul\":1156:1408   */\n    tag_79:\n        /* \"#utility.yul\":1227:1229   */\n      0x40\n        /* \"#utility.yul\":1221:1230   */\n      mload\n        /* \"#utility.yul\":1269:1273   */\n      0x80\n        /* \"#utility.yul\":1257:1274   */\n      dup2\n      add\n        /* \"#utility.yul\":1304:1322   */\n      0xffffffffffffffff\n        /* \"#utility.yul\":1289:1323   */\n      dup2\n      gt\n        /* \"#utility.yul\":1325:1347   */\n      dup3\n      dup3\n      lt\n        /* \"#utility.yul\":1286:1348   */\n      or\n        /* \"#utility.yul\":1283:1371   */\n      iszero\n      tag_94\n      jumpi\n        /* \"#utility.yul\":1351:1369   */\n      tag_94\n      tag_78\n      jump\t// in\n    tag_94:\n        /* \"#utility.yul\":1387:1389   */\n      0x40\n        /* \"#utility.yul\":1380:1402   */\n      mstore\n        /* \"#utility.yul\":1156:1408   */\n      swap1\n      jump\t// out\n        /* \"#utility.yul\":1413:1688   */\n    tag_80:\n        /* \"#utility.yul\":1484:1486   */\n      0x40\n        /* \"#utility.yul\":1478:1487   */\n      mload\n        /* \"#utility.yul\":1549:1551   */\n      0x1f\n        /* \"#utility.yul\":1530:1543   */\n      dup3\n      add\n      not(0x1f)\n        /* \"#utility.yul\":1526:1553   */\n      and\n        /* \"#utility.yul\":1514:1554   */\n      dup2\n      add\n        /* \"#utility.yul\":1584:1602   */\n      0xffffffffffffffff\n        /* \"#utility.yul\":1569:1603   */\n      dup2\n      gt\n        /* \"#utility.yul\":1605:1627   */\n      dup3\n      dup3\n      lt\n        /* \"#utility.yul\":1566:1628   */\n      or\n        /* \"#utility.yul\":1563:1651   */\n      iszero\n      tag_97\n      jumpi\n        /* \"#utility.yul\":1631:1649   */\n      tag_97\n      tag_78\n      jump\t// in\n    tag_97:\n        /* \"#utility.yul\":1667:1669   */\n      0x40\n        /* \"#utility.yul\":1660:1682   */\n      mstore\n        /* \"#utility.yul\":1413:1688   */\n      swap2\n      swap1\n      pop\n      jump\t// out\n        /* \"#utility.yul\":1693:3265   */\n    tag_14:\n        /* \"#utility.yul\":1820:1826   */\n      0x00\n        /* \"#utility.yul\":1828:1834   */\n      dup1\n        /* \"#utility.yul\":1836:1842   */\n      0x00\n        /* \"#utility.yul\":1889:1891   */\n      0x60\n        /* \"#utility.yul\":1877:1886   */\n      dup5\n        /* \"#utility.yul\":1868:1875   */\n      dup7\n        /* \"#utility.yul\":1864:1887   */\n      sub\n        /* \"#utility.yul\":1860:1892   */\n      slt\n        /* \"#utility.yul\":1857:1909   */\n      iszero\n      tag_99\n      jumpi\n        /* \"#utility.yul\":1905:1906   */\n      0x00\n        /* \"#utility.yul\":1902:1903   */\n      dup1\n        /* \"#utility.yul\":1895:1907   */\n      revert\n        /* \"#utility.yul\":1857:1909   */\n    tag_99:\n        /* \"#utility.yul\":1945:1954   */\n      dup4\n        /* \"#utility.yul\":1932:1955   */\n      calldataload\n        /* \"#utility.yul\":1978:1996   */\n      0xffffffffffffffff\n        /* \"#utility.yul\":1970:1976   */\n      dup2\n        /* \"#utility.yul\":1967:1997   */\n      gt\n        /* \"#utility.yul\":1964:2014   */\n      iszero\n      tag_100\n      jumpi\n        /* \"#utility.yul\":2010:2011   */\n      0x00\n        /* \"#utility.yul\":2007:2008   */\n      dup1\n        /* \"#utility.yul\":2000:2012   */\n      revert\n        /* \"#utility.yul\":1964:2014   */\n    tag_100:\n        /* \"#utility.yul\":2033:2055   */\n      dup5\n      add\n        /* \"#utility.yul\":2086:2090   */\n      0x1f\n        /* \"#utility.yul\":2078:2091   */\n      dup2\n      add\n        /* \"#utility.yul\":2074:2101   */\n      dup7\n      sgt\n        /* \"#utility.yul\":2064:2119   */\n      tag_101\n      jumpi\n        /* \"#utility.yul\":2115:2116   */\n      0x00\n        /* \"#utility.yul\":2112:2113   */\n      dup1\n        /* \"#utility.yul\":2105:2117   */\n      revert\n        /* \"#utility.yul\":2064:2119   */\n    tag_101:\n        /* \"#utility.yul\":2155:2157   */\n      dup1\n        /* \"#utility.yul\":2142:2158   */\n      calldataload\n        /* \"#utility.yul\":2181:2199   */\n      0xffffffffffffffff\n        /* \"#utility.yul\":2173:2179   */\n      dup2\n        /* \"#utility.yul\":2170:2200   */\n      gt\n        /* \"#utility.yul\":2167:2223   */\n      iszero\n      tag_103\n      jumpi\n        /* \"#utility.yul\":2203:2221   */\n      tag_103\n      tag_78\n      jump\t// in\n    tag_103:\n        /* \"#utility.yul\":2243:2285   */\n      tag_104\n        /* \"#utility.yul\":2279:2283   */\n      0x20\n        /* \"#utility.yul\":2270:2276   */\n      dup3\n        /* \"#utility.yul\":2267:2268   */\n      0x05\n        /* \"#utility.yul\":2263:2277   */\n      shl\n        /* \"#utility.yul\":2259:2284   */\n      add\n        /* \"#utility.yul\":2243:2285   */\n      tag_80\n      jump\t// in\n    tag_104:\n        /* \"#utility.yul\":2307:2310   */\n      dup1\n        /* \"#utility.yul\":2331:2337   */\n      dup3\n        /* \"#utility.yul\":2326:2329   */\n      dup3\n        /* \"#utility.yul\":2319:2338   */\n      mstore\n        /* \"#utility.yul\":2363:2367   */\n      0x20\n        /* \"#utility.yul\":2358:2361   */\n      dup3\n        /* \"#utility.yul\":2354:2368   */\n      add\n        /* \"#utility.yul\":2347:2368   */\n      swap2\n      pop\n        /* \"#utility.yul\":2420:2424   */\n      0x20\n        /* \"#utility.yul\":2410:2416   */\n      dup4\n        /* \"#utility.yul\":2407:2408   */\n      0x07\n        /* \"#utility.yul\":2403:2417   */\n      shl\n        /* \"#utility.yul\":2399:2401   */\n      dup6\n        /* \"#utility.yul\":2395:2418   */\n      add\n        /* \"#utility.yul\":2391:2425   */\n      add\n        /* \"#utility.yul\":2377:2425   */\n      swap3\n      pop\n        /* \"#utility.yul\":2448:2455   */\n      dup9\n        /* \"#utility.yul\":2440:2446   */\n      dup4\n        /* \"#utility.yul\":2437:2456   */\n      gt\n        /* \"#utility.yul\":2434:2473   */\n      iszero\n      tag_105\n      jumpi\n        /* \"#utility.yul\":2469:2470   */\n      0x00\n        /* \"#utility.yul\":2466:2467   */\n      dup1\n        /* \"#utility.yul\":2459:2471   */\n      revert\n        /* \"#utility.yul\":2434:2473   */\n    tag_105:\n        /* \"#utility.yul\":2501:2505   */\n      0x20\n        /* \"#utility.yul\":2497:2499   */\n      dup5\n        /* \"#utility.yul\":2493:2506   */\n      add\n        /* \"#utility.yul\":2482:2506   */\n      swap4\n      pop\n        /* \"#utility.yul\":2515:3073   */\n    tag_106:\n        /* \"#utility.yul\":2531:2537   */\n      dup3\n        /* \"#utility.yul\":2526:2529   */\n      dup5\n        /* \"#utility.yul\":2523:2538   */\n      lt\n        /* \"#utility.yul\":2515:3073   */\n      iszero\n      tag_108\n      jumpi\n        /* \"#utility.yul\":2613:2617   */\n      0x80\n        /* \"#utility.yul\":2607:2610   */\n      dup5\n        /* \"#utility.yul\":2598:2605   */\n      dup11\n        /* \"#utility.yul\":2594:2611   */\n      sub\n        /* \"#utility.yul\":2590:2618   */\n      slt\n        /* \"#utility.yul\":2587:2635   */\n      iszero\n      tag_109\n      jumpi\n        /* \"#utility.yul\":2631:2632   */\n      0x00\n        /* \"#utility.yul\":2628:2629   */\n      dup1\n        /* \"#utility.yul\":2621:2633   */\n      revert\n        /* \"#utility.yul\":2587:2635   */\n    tag_109:\n        /* \"#utility.yul\":2661:2682   */\n      tag_110\n      tag_79\n      jump\t// in\n    tag_110:\n        /* \"#utility.yul\":2709:2732   */\n      tag_111\n        /* \"#utility.yul\":2728:2731   */\n      dup6\n        /* \"#utility.yul\":2709:2732   */\n      tag_77\n      jump\t// in\n    tag_111:\n        /* \"#utility.yul\":2702:2707   */\n      dup2\n        /* \"#utility.yul\":2695:2733   */\n      mstore\n        /* \"#utility.yul\":2771:2805   */\n      tag_112\n        /* \"#utility.yul\":2799:2803   */\n      0x20\n        /* \"#utility.yul\":2794:2797   */\n      dup7\n        /* \"#utility.yul\":2790:2804   */\n      add\n        /* \"#utility.yul\":2771:2805   */\n      tag_77\n      jump\t// in\n    tag_112:\n        /* \"#utility.yul\":2764:2768   */\n      0x20\n        /* \"#utility.yul\":2757:2762   */\n      dup3\n        /* \"#utility.yul\":2753:2769   */\n      add\n        /* \"#utility.yul\":2746:2806   */\n      mstore\n        /* \"#utility.yul\":2842:2874   */\n      tag_113\n        /* \"#utility.yul\":2870:2872   */\n      0x40\n        /* \"#utility.yul\":2865:2868   */\n      dup7\n        /* \"#utility.yul\":2861:2873   */\n      add\n        /* \"#utility.yul\":2842:2874   */\n      tag_77\n      jump\t// in\n    tag_113:\n        /* \"#utility.yul\":2837:2839   */\n      0x40\n        /* \"#utility.yul\":2826:2840   */\n      dup3\n      add\n        /* \"#utility.yul\":2819:2875   */\n      mstore\n        /* \"#utility.yul\":2950:2952   */\n      0x60\n        /* \"#utility.yul\":2941:2953   */\n      dup6\n      dup2\n      add\n        /* \"#utility.yul\":2928:2954   */\n      calldataload\n        /* \"#utility.yul\":2974:2988   */\n      swap1\n      dup3\n      add\n        /* \"#utility.yul\":2967:2998   */\n      mstore\n        /* \"#utility.yul\":3011:3029   */\n      dup3\n      mstore\n        /* \"#utility.yul\":2557:2561   */\n      0x80\n        /* \"#utility.yul\":2548:2562   */\n      swap1\n      swap4\n      add\n      swap3\n        /* \"#utility.yul\":3058:3062   */\n      0x20\n        /* \"#utility.yul\":3049:3063   */\n      swap1\n      swap2\n      add\n      swap1\n        /* \"#utility.yul\":2515:3073   */\n      jump(tag_106)\n    tag_108:\n        /* \"#utility.yul\":3092:3097   */\n      swap6\n      pop\n      pop\n      pop\n      pop\n        /* \"#utility.yul\":3170:3174   */\n      0x20\n        /* \"#utility.yul\":3155:3175   */\n      dup5\n      add\n        /* \"#utility.yul\":3142:3176   */\n      calldataload\n      swap2\n      pop\n        /* \"#utility.yul\":3221:3259   */\n      tag_114\n        /* \"#utility.yul\":3255:3257   */\n      0x40\n        /* \"#utility.yul\":3240:3258   */\n      dup6\n      add\n        /* \"#utility.yul\":3221:3259   */\n      tag_77\n      jump\t// in\n    tag_114:\n        /* \"#utility.yul\":3211:3259   */\n      swap1\n      pop\n        /* \"#utility.yul\":1693:3265   */\n      swap3\n      pop\n      swap3\n      pop\n      swap3\n      jump\t// out\n        /* \"#utility.yul\":3854:4131   */\n    tag_27:\n        /* \"#utility.yul\":3921:3927   */\n      0x00\n        /* \"#utility.yul\":3974:3976   */\n      0x20\n        /* \"#utility.yul\":3962:3971   */\n      dup3\n        /* \"#utility.yul\":3953:3960   */\n      dup5\n        /* \"#utility.yul\":3949:3972   */\n      sub\n        /* \"#utility.yul\":3945:3977   */\n      slt\n        /* \"#utility.yul\":3942:3994   */\n      iszero\n      tag_118\n      jumpi\n        /* \"#utility.yul\":3990:3991   */\n      0x00\n        /* \"#utility.yul\":3987:3988   */\n      dup1\n        /* \"#utility.yul\":3980:3992   */\n      revert\n        /* \"#utility.yul\":3942:3994   */\n    tag_118:\n        /* \"#utility.yul\":4022:4031   */\n      dup2\n        /* \"#utility.yul\":4016:4032   */\n      mload\n        /* \"#utility.yul\":4075:4080   */\n      dup1\n        /* \"#utility.yul\":4068:4081   */\n      iszero\n        /* \"#utility.yul\":4061:4082   */\n      iszero\n        /* \"#utility.yul\":4054:4059   */\n      dup2\n        /* \"#utility.yul\":4051:4083   */\n      eq\n        /* \"#utility.yul\":4041:4101   */\n      tag_119\n      jumpi\n        /* \"#utility.yul\":4097:4098   */\n      0x00\n        /* \"#utility.yul\":4094:4095   */\n      dup1\n        /* \"#utility.yul\":4087:4099   */\n      revert\n        /* \"#utility.yul\":4041:4101   */\n    tag_119:\n        /* \"#utility.yul\":4120:4125   */\n      swap4\n        /* \"#utility.yul\":3854:4131   */\n      swap3\n      pop\n      pop\n      pop\n      jump\t// out\n        /* \"#utility.yul\":4863:5047   */\n    tag_38:\n        /* \"#utility.yul\":4933:4939   */\n      0x00\n        /* \"#utility.yul\":4986:4988   */\n      0x20\n        /* \"#utility.yul\":4974:4983   */\n      dup3\n        /* \"#utility.yul\":4965:4972   */\n      dup5\n        /* \"#utility.yul\":4961:4984   */\n      sub\n        /* \"#utility.yul\":4957:4989   */\n      slt\n        /* \"#utility.yul\":4954:5006   */\n      iszero\n      tag_123\n      jumpi\n        /* \"#utility.yul\":5002:5003   */\n      0x00\n        /* \"#utility.yul\":4999:5000   */\n      dup1\n        /* \"#utility.yul\":4992:5004   */\n      revert\n        /* \"#utility.yul\":4954:5006   */\n    tag_123:\n      pop\n        /* \"#utility.yul\":5025:5041   */\n      mload\n      swap2\n        /* \"#utility.yul\":4863:5047   */\n      swap1\n      pop\n      jump\t// out\n        /* \"#utility.yul\":6154:6281   */\n    tag_54:\n        /* \"#utility.yul\":6215:6225   */\n      0x4e487b71\n        /* \"#utility.yul\":6210:6213   */\n      0xe0\n        /* \"#utility.yul\":6206:6226   */\n      shl\n        /* \"#utility.yul\":6203:6204   */\n      0x00\n        /* \"#utility.yul\":6196:6227   */\n      mstore\n        /* \"#utility.yul\":6246:6250   */\n      0x32\n        /* \"#utility.yul\":6243:6244   */\n      0x04\n        /* \"#utility.yul\":6236:6251   */\n      mstore\n        /* \"#utility.yul\":6270:6274   */\n      0x24\n        /* \"#utility.yul\":6267:6268   */\n      0x00\n        /* \"#utility.yul\":6260:6275   */\n      revert\n        /* \"#utility.yul\":6641:6866   */\n    tag_71:\n        /* \"#utility.yul\":6708:6717   */\n      dup2\n      dup2\n      sub\n        /* \"#utility.yul\":6729:6740   */\n      dup2\n      dup2\n      gt\n        /* \"#utility.yul\":6726:6860   */\n      iszero\n      tag_130\n      jumpi\n        /* \"#utility.yul\":6782:6792   */\n      0x4e487b71\n        /* \"#utility.yul\":6777:6780   */\n      0xe0\n        /* \"#utility.yul\":6773:6793   */\n      shl\n        /* \"#utility.yul\":6770:6771   */\n      0x00\n        /* \"#utility.yul\":6763:6794   */\n      mstore\n        /* \"#utility.yul\":6817:6821   */\n      0x11\n        /* \"#utility.yul\":6814:6815   */\n      0x04\n        /* \"#utility.yul\":6807:6822   */\n      mstore\n        /* \"#utility.yul\":6845:6849   */\n      0x24\n        /* \"#utility.yul\":6842:6843   */\n      0x00\n        /* \"#utility.yul\":6835:6850   */\n      revert\n        /* \"#utility.yul\":6726:6860   */\n    tag_130:\n        /* \"#utility.yul\":6641:6866   */\n      swap3\n      swap2\n      pop\n      pop\n      jump\t// out\n\n    auxdata: 0xa26469706673582212203f281e96873b17c86f119526f2cca114e95ef3a36a7958d0ba5422315cbcb05764736f6c634300081a0033\n}\n",
				"bytecode": {
					"linkReferences": {},
					"object": "6080604052348015600f57600080fd5b50600080546001600160a01b03191633179055610898806100316000396000f3fe608060405234801561001057600080fd5b50600436106100415760003560e01c8063751ee245146100465780637bd43c3a1461006c578063f851a4401461007f575b600080fd5b6100596100543660046105f1565b6100aa565b6040519081526020015b60405180910390f35b61005961007a3660046106c9565b610229565b600054610092906001600160a01b031681565b6040516001600160a01b039091168152602001610063565b6040516323b872dd60e01b81523360048201523060248201526044810185905260009087906001600160a01b038816906323b872dd906064016020604051808303816000875af1158015610102573d6000803e3d6000fd5b505050506040513d601f19601f8201168201806040525081019061012691906107e3565b5060405163095ea7b360e01b81526001600160a01b0389811660048301526024820188905288169063095ea7b3906044016020604051808303816000875af1158015610176573d6000803e3d6000fd5b505050506040513d601f19601f8201168201806040525081019061019a91906107e3565b5060405163450666ab60e11b81526001600160a01b03888116600483015260248201889052858116604483015260648201859052821690638a0ccd56906084016020604051808303816000875af11580156101f9573d6000803e3d6000fd5b505050506040513d601f19601f8201168201806040525081019061021d919061080c565b98975050505050505050565b6000808451116102805760405162461bcd60e51b815260206004820152601760248201527f4e6f207377617020726f757465732070726f766964656400000000000000000060448201526064015b60405180910390fd5b600083116102dc5760405162461bcd60e51b815260206004820152602360248201527f496e70757420616d6f756e74206d75737420626520677265617465722074686160448201526206e20360ec1b6064820152608401610277565b6001600160a01b0382166103265760405162461bcd60e51b8152602060048201526011602482015270125b9d985b1a59081c9958da5c1a595b9d607a1b6044820152606401610277565b8260005b85518110156105cc57600086828151811061034757610347610825565b6020908102919091018101518051918101516040516323b872dd60e01b8152336004820152306024820152604481018790529193506001600160a01b0316906323b872dd906064016020604051808303816000875af11580156103ae573d6000803e3d6000fd5b505050506040513d601f19601f820116820180604052508101906103d291906107e3565b506020820151825160405163095ea7b360e01b81526001600160a01b0391821660048201526024810187905291169063095ea7b3906044016020604051808303816000875af1158015610429573d6000803e3d6000fd5b505050506040513d601f19601f8201168201806040525081019061044d91906107e3565b506020820151606083015160405163450666ab60e11b81526001600160a01b03928316600482015260248101879052306044820152606481019190915290821690638a0ccd56906084016020604051808303816000875af11580156104b6573d6000803e3d6000fd5b505050506040513d601f19601f820116820180604052508101906104da919061080c565b935081606001518410156105305760405162461bcd60e51b815260206004820152601a60248201527f496e73756666696369656e74206f757470757420616d6f756e740000000000006044820152606401610277565b6001885161053e919061083b565b83036105c257604080830151905163a9059cbb60e01b81526001600160a01b038881166004830152602482018790529091169063a9059cbb906044016020604051808303816000875af1158015610599573d6000803e3d6000fd5b505050506040513d601f19601f820116820180604052508101906105bd91906107e3565b508394505b505060010161032a565b50509392505050565b80356001600160a01b03811681146105ec57600080fd5b919050565b60008060008060008060c0878903121561060a57600080fd5b610613876105d5565b9550610621602088016105d5565b945060408701359350610636606088016105d5565b9250610644608088016105d5565b9598949750929591949360a090920135925050565b634e487b7160e01b600052604160045260246000fd5b6040516080810167ffffffffffffffff8111828210171561069257610692610659565b60405290565b604051601f8201601f1916810167ffffffffffffffff811182821017156106c1576106c1610659565b604052919050565b6000806000606084860312156106de57600080fd5b833567ffffffffffffffff8111156106f557600080fd5b8401601f8101861361070657600080fd5b803567ffffffffffffffff81111561072057610720610659565b61072f60208260051b01610698565b8082825260208201915060208360071b85010192508883111561075157600080fd5b6020840193505b828410156107c2576080848a03121561077057600080fd5b61077861066f565b610781856105d5565b815261078f602086016105d5565b60208201526107a0604086016105d5565b6040820152606085810135908201528252608090930192602090910190610758565b9550505050602084013591506107da604085016105d5565b90509250925092565b6000602082840312156107f557600080fd5b8151801515811461080557600080fd5b9392505050565b60006020828403121561081e57600080fd5b5051919050565b634e487b7160e01b600052603260045260246000fd5b8181038181111561085c57634e487b7160e01b600052601160045260246000fd5b9291505056fea26469706673582212203f281e96873b17c86f119526f2cca114e95ef3a36a7958d0ba5422315cbcb05764736f6c634300081a0033",
					"opcodes": "PUSH1 0x80 PUSH1 0x40 MSTORE CALLVALUE DUP1 ISZERO PUSH1 0xF JUMPI PUSH1 0x0 DUP1 REVERT JUMPDEST POP PUSH1 0x0 DUP1 SLOAD PUSH1 0x1 PUSH1 0x1 PUSH1 0xA0 SHL SUB NOT AND CALLER OR SWAP1 SSTORE PUSH2 0x898 DUP1 PUSH2 0x31 PUSH1 0x0 CODECOPY PUSH1 0x0 RETURN INVALID PUSH1 0x80 PUSH1 0x40 MSTORE CALLVALUE DUP1 ISZERO PUSH2 0x10 JUMPI PUSH1 0x0 DUP1 REVERT JUMPDEST POP PUSH1 0x4 CALLDATASIZE LT PUSH2 0x41 JUMPI PUSH1 0x0 CALLDATALOAD PUSH1 0xE0 SHR DUP1 PUSH4 0x751EE245 EQ PUSH2 0x46 JUMPI DUP1 PUSH4 0x7BD43C3A EQ PUSH2 0x6C JUMPI DUP1 PUSH4 0xF851A440 EQ PUSH2 0x7F JUMPI JUMPDEST PUSH1 0x0 DUP1 REVERT JUMPDEST PUSH2 0x59 PUSH2 0x54 CALLDATASIZE PUSH1 0x4 PUSH2 0x5F1 JUMP JUMPDEST PUSH2 0xAA JUMP JUMPDEST PUSH1 0x40 MLOAD SWAP1 DUP2 MSTORE PUSH1 0x20 ADD JUMPDEST PUSH1 0x40 MLOAD DUP1 SWAP2 SUB SWAP1 RETURN JUMPDEST PUSH2 0x59 PUSH2 0x7A CALLDATASIZE PUSH1 0x4 PUSH2 0x6C9 JUMP JUMPDEST PUSH2 0x229 JUMP JUMPDEST PUSH1 0x0 SLOAD PUSH2 0x92 SWAP1 PUSH1 0x1 PUSH1 0x1 PUSH1 0xA0 SHL SUB AND DUP2 JUMP JUMPDEST PUSH1 0x40 MLOAD PUSH1 0x1 PUSH1 0x1 PUSH1 0xA0 SHL SUB SWAP1 SWAP2 AND DUP2 MSTORE PUSH1 0x20 ADD PUSH2 0x63 JUMP JUMPDEST PUSH1 0x40 MLOAD PUSH4 0x23B872DD PUSH1 0xE0 SHL DUP2 MSTORE CALLER PUSH1 0x4 DUP3 ADD MSTORE ADDRESS PUSH1 0x24 DUP3 ADD MSTORE PUSH1 0x44 DUP2 ADD DUP6 SWAP1 MSTORE PUSH1 0x0 SWAP1 DUP8 SWAP1 PUSH1 0x1 PUSH1 0x1 PUSH1 0xA0 SHL SUB DUP9 AND SWAP1 PUSH4 0x23B872DD SWAP1 PUSH1 0x64 ADD PUSH1 0x20 PUSH1 0x40 MLOAD DUP1 DUP4 SUB DUP2 PUSH1 0x0 DUP8 GAS CALL ISZERO DUP1 ISZERO PUSH2 0x102 JUMPI RETURNDATASIZE PUSH1 0x0 DUP1 RETURNDATACOPY RETURNDATASIZE PUSH1 0x0 REVERT JUMPDEST POP POP POP POP PUSH1 0x40 MLOAD RETURNDATASIZE PUSH1 0x1F NOT PUSH1 0x1F DUP3 ADD AND DUP3 ADD DUP1 PUSH1 0x40 MSTORE POP DUP2 ADD SWAP1 PUSH2 0x126 SWAP2 SWAP1 PUSH2 0x7E3 JUMP JUMPDEST POP PUSH1 0x40 MLOAD PUSH4 0x95EA7B3 PUSH1 0xE0 SHL DUP2 MSTORE PUSH1 0x1 PUSH1 0x1 PUSH1 0xA0 SHL SUB DUP10 DUP2 AND PUSH1 0x4 DUP4 ADD MSTORE PUSH1 0x24 DUP3 ADD DUP9 SWAP1 MSTORE DUP9 AND SWAP1 PUSH4 0x95EA7B3 SWAP1 PUSH1 0x44 ADD PUSH1 0x20 PUSH1 0x40 MLOAD DUP1 DUP4 SUB DUP2 PUSH1 0x0 DUP8 GAS CALL ISZERO DUP1 ISZERO PUSH2 0x176 JUMPI RETURNDATASIZE PUSH1 0x0 DUP1 RETURNDATACOPY RETURNDATASIZE PUSH1 0x0 REVERT JUMPDEST POP POP POP POP PUSH1 0x40 MLOAD RETURNDATASIZE PUSH1 0x1F NOT PUSH1 0x1F DUP3 ADD AND DUP3 ADD DUP1 PUSH1 0x40 MSTORE POP DUP2 ADD SWAP1 PUSH2 0x19A SWAP2 SWAP1 PUSH2 0x7E3 JUMP JUMPDEST POP PUSH1 0x40 MLOAD PUSH4 0x450666AB PUSH1 0xE1 SHL DUP2 MSTORE PUSH1 0x1 PUSH1 0x1 PUSH1 0xA0 SHL SUB DUP9 DUP2 AND PUSH1 0x4 DUP4 ADD MSTORE PUSH1 0x24 DUP3 ADD DUP9 SWAP1 MSTORE DUP6 DUP2 AND PUSH1 0x44 DUP4 ADD MSTORE PUSH1 0x64 DUP3 ADD DUP6 SWAP1 MSTORE DUP3 AND SWAP1 PUSH4 0x8A0CCD56 SWAP1 PUSH1 0x84 ADD PUSH1 0x20 PUSH1 0x40 MLOAD DUP1 DUP4 SUB DUP2 PUSH1 0x0 DUP8 GAS CALL ISZERO DUP1 ISZERO PUSH2 0x1F9 JUMPI RETURNDATASIZE PUSH1 0x0 DUP1 RETURNDATACOPY RETURNDATASIZE PUSH1 0x0 REVERT JUMPDEST POP POP POP POP PUSH1 0x40 MLOAD RETURNDATASIZE PUSH1 0x1F NOT PUSH1 0x1F DUP3 ADD AND DUP3 ADD DUP1 PUSH1 0x40 MSTORE POP DUP2 ADD SWAP1 PUSH2 0x21D SWAP2 SWAP1 PUSH2 0x80C JUMP JUMPDEST SWAP9 SWAP8 POP POP POP POP POP POP POP POP JUMP JUMPDEST PUSH1 0x0 DUP1 DUP5 MLOAD GT PUSH2 0x280 JUMPI PUSH1 0x40 MLOAD PUSH3 0x461BCD PUSH1 0xE5 SHL DUP2 MSTORE PUSH1 0x20 PUSH1 0x4 DUP3 ADD MSTORE PUSH1 0x17 PUSH1 0x24 DUP3 ADD MSTORE PUSH32 0x4E6F207377617020726F757465732070726F7669646564000000000000000000 PUSH1 0x44 DUP3 ADD MSTORE PUSH1 0x64 ADD JUMPDEST PUSH1 0x40 MLOAD DUP1 SWAP2 SUB SWAP1 REVERT JUMPDEST PUSH1 0x0 DUP4 GT PUSH2 0x2DC JUMPI PUSH1 0x40 MLOAD PUSH3 0x461BCD PUSH1 0xE5 SHL DUP2 MSTORE PUSH1 0x20 PUSH1 0x4 DUP3 ADD MSTORE PUSH1 0x23 PUSH1 0x24 DUP3 ADD MSTORE PUSH32 0x496E70757420616D6F756E74206D757374206265206772656174657220746861 PUSH1 0x44 DUP3 ADD MSTORE PUSH3 0x6E203 PUSH1 0xEC SHL PUSH1 0x64 DUP3 ADD MSTORE PUSH1 0x84 ADD PUSH2 0x277 JUMP JUMPDEST PUSH1 0x1 PUSH1 0x1 PUSH1 0xA0 SHL SUB DUP3 AND PUSH2 0x326 JUMPI PUSH1 0x40 MLOAD PUSH3 0x461BCD PUSH1 0xE5 SHL DUP2 MSTORE PUSH1 0x20 PUSH1 0x4 DUP3 ADD MSTORE PUSH1 0x11 PUSH1 0x24 DUP3 ADD MSTORE PUSH17 0x125B9D985B1A59081C9958DA5C1A595B9D PUSH1 0x7A SHL PUSH1 0x44 DUP3 ADD MSTORE PUSH1 0x64 ADD PUSH2 0x277 JUMP JUMPDEST DUP3 PUSH1 0x0 JUMPDEST DUP6 MLOAD DUP2 LT ISZERO PUSH2 0x5CC JUMPI PUSH1 0x0 DUP7 DUP3 DUP2 MLOAD DUP2 LT PUSH2 0x347 JUMPI PUSH2 0x347 PUSH2 0x825 JUMP JUMPDEST PUSH1 0x20 SWAP1 DUP2 MUL SWAP2 SWAP1 SWAP2 ADD DUP2 ADD MLOAD DUP1 MLOAD SWAP2 DUP2 ADD MLOAD PUSH1 0x40 MLOAD PUSH4 0x23B872DD PUSH1 0xE0 SHL DUP2 MSTORE CALLER PUSH1 0x4 DUP3 ADD MSTORE ADDRESS PUSH1 0x24 DUP3 ADD MSTORE PUSH1 0x44 DUP2 ADD DUP8 SWAP1 MSTORE SWAP2 SWAP4 POP PUSH1 0x1 PUSH1 0x1 PUSH1 0xA0 SHL SUB AND SWAP1 PUSH4 0x23B872DD SWAP1 PUSH1 0x64 ADD PUSH1 0x20 PUSH1 0x40 MLOAD DUP1 DUP4 SUB DUP2 PUSH1 0x0 DUP8 GAS CALL ISZERO DUP1 ISZERO PUSH2 0x3AE JUMPI RETURNDATASIZE PUSH1 0x0 DUP1 RETURNDATACOPY RETURNDATASIZE PUSH1 0x0 REVERT JUMPDEST POP POP POP POP PUSH1 0x40 MLOAD RETURNDATASIZE PUSH1 0x1F NOT PUSH1 0x1F DUP3 ADD AND DUP3 ADD DUP1 PUSH1 0x40 MSTORE POP DUP2 ADD SWAP1 PUSH2 0x3D2 SWAP2 SWAP1 PUSH2 0x7E3 JUMP JUMPDEST POP PUSH1 0x20 DUP3 ADD MLOAD DUP3 MLOAD PUSH1 0x40 MLOAD PUSH4 0x95EA7B3 PUSH1 0xE0 SHL DUP2 MSTORE PUSH1 0x1 PUSH1 0x1 PUSH1 0xA0 SHL SUB SWAP2 DUP3 AND PUSH1 0x4 DUP3 ADD MSTORE PUSH1 0x24 DUP2 ADD DUP8 SWAP1 MSTORE SWAP2 AND SWAP1 PUSH4 0x95EA7B3 SWAP1 PUSH1 0x44 ADD PUSH1 0x20 PUSH1 0x40 MLOAD DUP1 DUP4 SUB DUP2 PUSH1 0x0 DUP8 GAS CALL ISZERO DUP1 ISZERO PUSH2 0x429 JUMPI RETURNDATASIZE PUSH1 0x0 DUP1 RETURNDATACOPY RETURNDATASIZE PUSH1 0x0 REVERT JUMPDEST POP POP POP POP PUSH1 0x40 MLOAD RETURNDATASIZE PUSH1 0x1F NOT PUSH1 0x1F DUP3 ADD AND DUP3 ADD DUP1 PUSH1 0x40 MSTORE POP DUP2 ADD SWAP1 PUSH2 0x44D SWAP2 SWAP1 PUSH2 0x7E3 JUMP JUMPDEST POP PUSH1 0x20 DUP3 ADD MLOAD PUSH1 0x60 DUP4 ADD MLOAD PUSH1 0x40 MLOAD PUSH4 0x450666AB PUSH1 0xE1 SHL DUP2 MSTORE PUSH1 0x1 PUSH1 0x1 PUSH1 0xA0 SHL SUB SWAP3 DUP4 AND PUSH1 0x4 DUP3 ADD MSTORE PUSH1 0x24 DUP2 ADD DUP8 SWAP1 MSTORE ADDRESS PUSH1 0x44 DUP3 ADD MSTORE PUSH1 0x64 DUP2 ADD SWAP2 SWAP1 SWAP2 MSTORE SWAP1 DUP3 AND SWAP1 PUSH4 0x8A0CCD56 SWAP1 PUSH1 0x84 ADD PUSH1 0x20 PUSH1 0x40 MLOAD DUP1 DUP4 SUB DUP2 PUSH1 0x0 DUP8 GAS CALL ISZERO DUP1 ISZERO PUSH2 0x4B6 JUMPI RETURNDATASIZE PUSH1 0x0 DUP1 RETURNDATACOPY RETURNDATASIZE PUSH1 0x0 REVERT JUMPDEST POP POP POP POP PUSH1 0x40 MLOAD RETURNDATASIZE PUSH1 0x1F NOT PUSH1 0x1F DUP3 ADD AND DUP3 ADD DUP1 PUSH1 0x40 MSTORE POP DUP2 ADD SWAP1 PUSH2 0x4DA SWAP2 SWAP1 PUSH2 0x80C JUMP JUMPDEST SWAP4 POP DUP2 PUSH1 0x60 ADD MLOAD DUP5 LT ISZERO PUSH2 0x530 JUMPI PUSH1 0x40 MLOAD PUSH3 0x461BCD PUSH1 0xE5 SHL DUP2 MSTORE PUSH1 0x20 PUSH1 0x4 DUP3 ADD MSTORE PUSH1 0x1A PUSH1 0x24 DUP3 ADD MSTORE PUSH32 0x496E73756666696369656E74206F757470757420616D6F756E74000000000000 PUSH1 0x44 DUP3 ADD MSTORE PUSH1 0x64 ADD PUSH2 0x277 JUMP JUMPDEST PUSH1 0x1 DUP9 MLOAD PUSH2 0x53E SWAP2 SWAP1 PUSH2 0x83B JUMP JUMPDEST DUP4 SUB PUSH2 0x5C2 JUMPI PUSH1 0x40 DUP1 DUP4 ADD MLOAD SWAP1 MLOAD PUSH4 0xA9059CBB PUSH1 0xE0 SHL DUP2 MSTORE PUSH1 0x1 PUSH1 0x1 PUSH1 0xA0 SHL SUB DUP9 DUP2 AND PUSH1 0x4 DUP4 ADD MSTORE PUSH1 0x24 DUP3 ADD DUP8 SWAP1 MSTORE SWAP1 SWAP2 AND SWAP1 PUSH4 0xA9059CBB SWAP1 PUSH1 0x44 ADD PUSH1 0x20 PUSH1 0x40 MLOAD DUP1 DUP4 SUB DUP2 PUSH1 0x0 DUP8 GAS CALL ISZERO DUP1 ISZERO PUSH2 0x599 JUMPI RETURNDATASIZE PUSH1 0x0 DUP1 RETURNDATACOPY RETURNDATASIZE PUSH1 0x0 REVERT JUMPDEST POP POP POP POP PUSH1 0x40 MLOAD RETURNDATASIZE PUSH1 0x1F NOT PUSH1 0x1F DUP3 ADD AND DUP3 ADD DUP1 PUSH1 0x40 MSTORE POP DUP2 ADD SWAP1 PUSH2 0x5BD SWAP2 SWAP1 PUSH2 0x7E3 JUMP JUMPDEST POP DUP4 SWAP5 POP JUMPDEST POP POP PUSH1 0x1 ADD PUSH2 0x32A JUMP JUMPDEST POP POP SWAP4 SWAP3 POP POP POP JUMP JUMPDEST DUP1 CALLDATALOAD PUSH1 0x1 PUSH1 0x1 PUSH1 0xA0 SHL SUB DUP2 AND DUP2 EQ PUSH2 0x5EC JUMPI PUSH1 0x0 DUP1 REVERT JUMPDEST SWAP2 SWAP1 POP JUMP JUMPDEST PUSH1 0x0 DUP1 PUSH1 0x0 DUP1 PUSH1 0x0 DUP1 PUSH1 0xC0 DUP8 DUP10 SUB SLT ISZERO PUSH2 0x60A JUMPI PUSH1 0x0 DUP1 REVERT JUMPDEST PUSH2 0x613 DUP8 PUSH2 0x5D5 JUMP JUMPDEST SWAP6 POP PUSH2 0x621 PUSH1 0x20 DUP9 ADD PUSH2 0x5D5 JUMP JUMPDEST SWAP5 POP PUSH1 0x40 DUP8 ADD CALLDATALOAD SWAP4 POP PUSH2 0x636 PUSH1 0x60 DUP9 ADD PUSH2 0x5D5 JUMP JUMPDEST SWAP3 POP PUSH2 0x644 PUSH1 0x80 DUP9 ADD PUSH2 0x5D5 JUMP JUMPDEST SWAP6 SWAP9 SWAP5 SWAP8 POP SWAP3 SWAP6 SWAP2 SWAP5 SWAP4 PUSH1 0xA0 SWAP1 SWAP3 ADD CALLDATALOAD SWAP3 POP POP JUMP JUMPDEST PUSH4 0x4E487B71 PUSH1 0xE0 SHL PUSH1 0x0 MSTORE PUSH1 0x41 PUSH1 0x4 MSTORE PUSH1 0x24 PUSH1 0x0 REVERT JUMPDEST PUSH1 0x40 MLOAD PUSH1 0x80 DUP2 ADD PUSH8 0xFFFFFFFFFFFFFFFF DUP2 GT DUP3 DUP3 LT OR ISZERO PUSH2 0x692 JUMPI PUSH2 0x692 PUSH2 0x659 JUMP JUMPDEST PUSH1 0x40 MSTORE SWAP1 JUMP JUMPDEST PUSH1 0x40 MLOAD PUSH1 0x1F DUP3 ADD PUSH1 0x1F NOT AND DUP2 ADD PUSH8 0xFFFFFFFFFFFFFFFF DUP2 GT DUP3 DUP3 LT OR ISZERO PUSH2 0x6C1 JUMPI PUSH2 0x6C1 PUSH2 0x659 JUMP JUMPDEST PUSH1 0x40 MSTORE SWAP2 SWAP1 POP JUMP JUMPDEST PUSH1 0x0 DUP1 PUSH1 0x0 PUSH1 0x60 DUP5 DUP7 SUB SLT ISZERO PUSH2 0x6DE JUMPI PUSH1 0x0 DUP1 REVERT JUMPDEST DUP4 CALLDATALOAD PUSH8 0xFFFFFFFFFFFFFFFF DUP2 GT ISZERO PUSH2 0x6F5 JUMPI PUSH1 0x0 DUP1 REVERT JUMPDEST DUP5 ADD PUSH1 0x1F DUP2 ADD DUP7 SGT PUSH2 0x706 JUMPI PUSH1 0x0 DUP1 REVERT JUMPDEST DUP1 CALLDATALOAD PUSH8 0xFFFFFFFFFFFFFFFF DUP2 GT ISZERO PUSH2 0x720 JUMPI PUSH2 0x720 PUSH2 0x659 JUMP JUMPDEST PUSH2 0x72F PUSH1 0x20 DUP3 PUSH1 0x5 SHL ADD PUSH2 0x698 JUMP JUMPDEST DUP1 DUP3 DUP3 MSTORE PUSH1 0x20 DUP3 ADD SWAP2 POP PUSH1 0x20 DUP4 PUSH1 0x7 SHL DUP6 ADD ADD SWAP3 POP DUP9 DUP4 GT ISZERO PUSH2 0x751 JUMPI PUSH1 0x0 DUP1 REVERT JUMPDEST PUSH1 0x20 DUP5 ADD SWAP4 POP JUMPDEST DUP3 DUP5 LT ISZERO PUSH2 0x7C2 JUMPI PUSH1 0x80 DUP5 DUP11 SUB SLT ISZERO PUSH2 0x770 JUMPI PUSH1 0x0 DUP1 REVERT JUMPDEST PUSH2 0x778 PUSH2 0x66F JUMP JUMPDEST PUSH2 0x781 DUP6 PUSH2 0x5D5 JUMP JUMPDEST DUP2 MSTORE PUSH2 0x78F PUSH1 0x20 DUP7 ADD PUSH2 0x5D5 JUMP JUMPDEST PUSH1 0x20 DUP3 ADD MSTORE PUSH2 0x7A0 PUSH1 0x40 DUP7 ADD PUSH2 0x5D5 JUMP JUMPDEST PUSH1 0x40 DUP3 ADD MSTORE PUSH1 0x60 DUP6 DUP2 ADD CALLDATALOAD SWAP1 DUP3 ADD MSTORE DUP3 MSTORE PUSH1 0x80 SWAP1 SWAP4 ADD SWAP3 PUSH1 0x20 SWAP1 SWAP2 ADD SWAP1 PUSH2 0x758 JUMP JUMPDEST SWAP6 POP POP POP POP PUSH1 0x20 DUP5 ADD CALLDATALOAD SWAP2 POP PUSH2 0x7DA PUSH1 0x40 DUP6 ADD PUSH2 0x5D5 JUMP JUMPDEST SWAP1 POP SWAP3 POP SWAP3 POP SWAP3 JUMP JUMPDEST PUSH1 0x0 PUSH1 0x20 DUP3 DUP5 SUB SLT ISZERO PUSH2 0x7F5 JUMPI PUSH1 0x0 DUP1 REVERT JUMPDEST DUP2 MLOAD DUP1 ISZERO ISZERO DUP2 EQ PUSH2 0x805 JUMPI PUSH1 0x0 DUP1 REVERT JUMPDEST SWAP4 SWAP3 POP POP POP JUMP JUMPDEST PUSH1 0x0 PUSH1 0x20 DUP3 DUP5 SUB SLT ISZERO PUSH2 0x81E JUMPI PUSH1 0x0 DUP1 REVERT JUMPDEST POP MLOAD SWAP2 SWAP1 POP JUMP JUMPDEST PUSH4 0x4E487B71 PUSH1 0xE0 SHL PUSH1 0x0 MSTORE PUSH1 0x32 PUSH1 0x4 MSTORE PUSH1 0x24 PUSH1 0x0 REVERT JUMPDEST DUP2 DUP2 SUB DUP2 DUP2 GT ISZERO PUSH2 0x85C JUMPI PUSH4 0x4E487B71 PUSH1 0xE0 SHL PUSH1 0x0 MSTORE PUSH1 0x11 PUSH1 0x4 MSTORE PUSH1 0x24 PUSH1 0x0 REVERT JUMPDEST SWAP3 SWAP2 POP POP JUMP INVALID LOG2 PUSH5 0x6970667358 0x22 SLT KECCAK256 EXTCODEHASH 0x28 0x1E SWAP7 DUP8 EXTCODESIZE OR 0xC8 PUSH16 0x119526F2CCA114E95EF3A36A7958D0BA SLOAD 0x22 BALANCE TLOAD 0xBC 0xB0 JUMPI PUSH5 0x736F6C6343 STOP ADDMOD BYTE STOP CALLER "
				},
				"gasEstimates": {
					"creation": {
						"codeDepositCost": "440000",
						"executionCost": "21309",
						"totalCost": "461309"
					},
					"external": {
						"admin()": "1059",
						"multiHopSwap((address,address,address,uint256)[],uint256,address)": "infinite",
						"swapDirect(address,address,uint256,address,address,uint256)": "infinite"
					}
				},
				"methodIdentifiers": {
					"admin()": "f851a440",
					"multiHopSwap((address,address,address,uint256)[],uint256,address)": "7bd43c3a",
					"swapDirect(address,address,uint256,address,address,uint256)": "751ee245"
				}
			},
			"storageLayout": {
				"storage": [
					{
						"astId": 46,
						"contract": "contract/Router.sol:Router",
						"label": "admin",
						"offset": 0,
						"slot": "0",
						"type": "t_address"
					}
				],
				"types": {
					"t_address": {
						"encoding": "inplace",
						"label": "address",
						"numberOfBytes": "20"
					}
				}
			},
			"userdoc": {
				"kind": "user",
				"methods": {},
				"version": 1
			}
		}
	}
}