{
	"contract/bridge.sol": {
		"SimpleBridge": {
			"abi": [
				{
					"inputs": [],
					"stateMutability": "nonpayable",
					"type": "constructor"
				},
				{
					"anonymous": false,
					"inputs": [
						{
							"indexed": true,
							"internalType": "address",
							"name": "user",
							"type": "address"
						},
						{
							"indexed": false,
							"internalType": "uint256",
							"name": "amountIn",
							"type": "uint256"
						},
						{
							"indexed": false,
							"internalType": "address",
							"name": "tokenIn",
							"type": "address"
						},
						{
							"indexed": false,
							"internalType": "string",
							"name": "destChainId",
							"type": "string"
						},
						{
							"indexed": false,
							"internalType": "string",
							"name": "destToken",
							"type": "string"
						},
						{
							"indexed": false,
							"internalType": "string",
							"name": "recipients",
							"type": "string"
						}
					],
					"name": "Lock",
					"type": "event"
				},
				{
					"anonymous": false,
					"inputs": [
						{
							"indexed": true,
							"internalType": "address",
							"name": "user",
							"type": "address"
						},
						{
							"indexed": false,
							"internalType": "uint256",
							"name": "amountOut",
							"type": "uint256"
						},
						{
							"indexed": false,
							"internalType": "address",
							"name": "tokenOut",
							"type": "address"
						}
					],
					"name": "Release",
					"type": "event"
				},
				{
					"inputs": [],
					"name": "admin",
					"outputs": [
						{
							"internalType": "address",
							"name": "",
							"type": "address"
						}
					],
					"stateMutability": "view",
					"type": "function"
				},
				{
					"inputs": [
						{
							"internalType": "address",
							"name": "token",
							"type": "address"
						},
						{
							"internalType": "uint256",
							"name": "amountIn",
							"type": "uint256"
						},
						{
							"internalType": "string",
							"name": "destChainId",
							"type": "string"
						},
						{
							"internalType": "string",
							"name": "destToken",
							"type": "string"
						},
						{
							"internalType": "string",
							"name": "recipients",
							"type": "string"
						}
					],
					"name": "lock",
					"outputs": [],
					"stateMutability": "nonpayable",
					"type": "function"
				},
				{
					"inputs": [
						{
							"internalType": "string",
							"name": "",
							"type": "string"
						}
					],
					"name": "processed",
					"outputs": [
						{
							"internalType": "bool",
							"name": "",
							"type": "bool"
						}
					],
					"stateMutability": "view",
					"type": "function"
				},
				{
					"inputs": [
						{
							"internalType": "address",
							"name": "tokenOut",
							"type": "address"
						},
						{
							"internalType": "address",
							"name": "user",
							"type": "address"
						},
						{
							"internalType": "uint256",
							"name": "amountOut",
							"type": "uint256"
						},
						{
							"internalType": "string",
							"name": "lockHash",
							"type": "string"
						}
					],
					"name": "release",
					"outputs": [],
					"stateMutability": "nonpayable",
					"type": "function"
				},
				{
					"inputs": [
						{
							"internalType": "address",
							"name": "newAdmin",
							"type": "address"
						}
					],
					"name": "setAdmin",
					"outputs": [],
					"stateMutability": "nonpayable",
					"type": "function"
				}
			],
			"devdoc": {
				"kind": "dev",
				"methods": {},
				"version": 1
			},
			"evm": {
				"assembly": "    /* \"contract/bridge.sol\":130:2126  contract SimpleBridge {... */\n  mstore(0x40, 0x80)\n    /* \"contract/bridge.sol\":614:705  constructor() {... */\n  callvalue\n  dup1\n  iszero\n  tag_1\n  jumpi\n  0x00\n  dup1\n  revert\ntag_1:\n  pop\n    /* \"contract/bridge.sol\":638:643  admin */\n  0x00\n    /* \"contract/bridge.sol\":638:656  admin = msg.sender */\n  dup1\n  sload\n  not(sub(shl(0xa0, 0x01), 0x01))\n  and\n    /* \"contract/bridge.sol\":646:656  msg.sender */\n  caller\n    /* \"contract/bridge.sol\":638:656  admin = msg.sender */\n  or\n  swap1\n  sstore\n    /* \"contract/bridge.sol\":130:2126  contract SimpleBridge {... */\n  dataSize(sub_0)\n  dup1\n  dataOffset(sub_0)\n  0x00\n  codecopy\n  0x00\n  return\nstop\n\nsub_0: assembly {\n        /* \"contract/bridge.sol\":130:2126  contract SimpleBridge {... */\n      mstore(0x40, 0x80)\n      callvalue\n      dup1\n      iszero\n      tag_1\n      jumpi\n      0x00\n      dup1\n      revert\n    tag_1:\n      pop\n      jumpi(tag_2, lt(calldatasize, 0x04))\n      shr(0xe0, calldataload(0x00))\n      dup1\n      0x53678894\n      eq\n      tag_3\n      jumpi\n      dup1\n      0x704b6c02\n      eq\n      tag_4\n      jumpi\n      dup1\n      0x986cf3b6\n      eq\n      tag_5\n      jumpi\n      dup1\n      0x98e7dc95\n      eq\n      tag_6\n      jumpi\n      dup1\n      0xf851a440\n      eq\n      tag_7\n      jumpi\n    tag_2:\n      0x00\n      dup1\n      revert\n        /* \"contract/bridge.sol\":766:1308  function lock(address token, uint256 amountIn, string calldata destChainId, string calldata destToken, string calldata recipients) external {... */\n    tag_3:\n      tag_8\n      tag_9\n      calldatasize\n      0x04\n      tag_10\n      jump\t// in\n    tag_9:\n      tag_11\n      jump\t// in\n    tag_8:\n      stop\n        /* \"contract/bridge.sol\":1951:2124  function setAdmin(address newAdmin) external onlyAdmin {... */\n    tag_4:\n      tag_8\n      tag_13\n      calldatasize\n      0x04\n      tag_14\n      jump\t// in\n    tag_13:\n      tag_15\n      jump\t// in\n        /* \"contract/bridge.sol\":247:287  mapping(string => bool) public processed */\n    tag_5:\n      tag_16\n      tag_17\n      calldatasize\n      0x04\n      tag_18\n      jump\t// in\n    tag_17:\n      dup1\n      mload\n      0x20\n      dup2\n      dup4\n      add\n      dup2\n      add\n      dup1\n      mload\n      0x01\n      dup3\n      mstore\n      swap3\n      dup3\n      add\n      swap2\n      swap1\n      swap4\n      add\n      keccak256\n      swap2\n      mstore\n      sload\n      0xff\n      and\n      dup2\n      jump\n    tag_16:\n      mload(0x40)\n        /* \"#utility.yul\":3199:3213   */\n      swap1\n      iszero\n        /* \"#utility.yul\":3192:3214   */\n      iszero\n        /* \"#utility.yul\":3174:3215   */\n      dup2\n      mstore\n        /* \"#utility.yul\":3162:3164   */\n      0x20\n        /* \"#utility.yul\":3147:3165   */\n      add\n        /* \"contract/bridge.sol\":247:287  mapping(string => bool) public processed */\n    tag_20:\n      mload(0x40)\n      dup1\n      swap2\n      sub\n      swap1\n      return\n        /* \"contract/bridge.sol\":1369:1883  function release(address tokenOut, address user, uint256 amountOut, string calldata lockHash) external onlyAdmin {... */\n    tag_6:\n      tag_8\n      tag_23\n      calldatasize\n      0x04\n      tag_24\n      jump\t// in\n    tag_23:\n      tag_25\n      jump\t// in\n        /* \"contract/bridge.sol\":158:178  address public admin */\n    tag_7:\n      sload(0x00)\n      tag_26\n      swap1\n      sub(shl(0xa0, 0x01), 0x01)\n      and\n      dup2\n      jump\n    tag_26:\n      mload(0x40)\n      sub(shl(0xa0, 0x01), 0x01)\n        /* \"#utility.yul\":4069:4101   */\n      swap1\n      swap2\n      and\n        /* \"#utility.yul\":4051:4102   */\n      dup2\n      mstore\n        /* \"#utility.yul\":4039:4041   */\n      0x20\n        /* \"#utility.yul\":4024:4042   */\n      add\n        /* \"contract/bridge.sol\":158:178  address public admin */\n      tag_20\n        /* \"#utility.yul\":3905:4108   */\n      jump\n        /* \"contract/bridge.sol\":766:1308  function lock(address token, uint256 amountIn, string calldata destChainId, string calldata destToken, string calldata recipients) external {... */\n    tag_11:\n        /* \"contract/bridge.sol\":935:936  0 */\n      0x00\n        /* \"contract/bridge.sol\":924:932  amountIn */\n      dup8\n        /* \"contract/bridge.sol\":924:936  amountIn > 0 */\n      gt\n        /* \"contract/bridge.sol\":916:970  require(amountIn > 0, \"Amount must be greater than 0\") */\n      tag_31\n      jumpi\n      mload(0x40)\n      shl(0xe5, 0x461bcd)\n      dup2\n      mstore\n        /* \"#utility.yul\":4315:4317   */\n      0x20\n        /* \"contract/bridge.sol\":916:970  require(amountIn > 0, \"Amount must be greater than 0\") */\n      0x04\n      dup3\n      add\n        /* \"#utility.yul\":4297:4318   */\n      mstore\n        /* \"#utility.yul\":4354:4356   */\n      0x1d\n        /* \"#utility.yul\":4334:4352   */\n      0x24\n      dup3\n      add\n        /* \"#utility.yul\":4327:4357   */\n      mstore\n        /* \"#utility.yul\":4393:4424   */\n      0x416d6f756e74206d7573742062652067726561746572207468616e2030000000\n        /* \"#utility.yul\":4373:4391   */\n      0x44\n      dup3\n      add\n        /* \"#utility.yul\":4366:4425   */\n      mstore\n        /* \"#utility.yul\":4442:4460   */\n      0x64\n      add\n        /* \"contract/bridge.sol\":916:970  require(amountIn > 0, \"Amount must be greater than 0\") */\n    tag_32:\n      mload(0x40)\n      dup1\n      swap2\n      sub\n      swap1\n      revert\n    tag_31:\n        /* \"contract/bridge.sol\":1070:1071  0 */\n      0x00\n        /* \"contract/bridge.sol\":1053:1058  admin */\n      sload\n      sub(shl(0xa0, 0x01), 0x01)\n      and\n        /* \"contract/bridge.sol\":1045:1091  require(admin != address(0), \"Set the admin \") */\n      tag_34\n      jumpi\n      mload(0x40)\n      shl(0xe5, 0x461bcd)\n      dup2\n      mstore\n        /* \"#utility.yul\":4673:4675   */\n      0x20\n        /* \"contract/bridge.sol\":1045:1091  require(admin != address(0), \"Set the admin \") */\n      0x04\n      dup3\n      add\n        /* \"#utility.yul\":4655:4676   */\n      mstore\n        /* \"#utility.yul\":4712:4714   */\n      0x0e\n        /* \"#utility.yul\":4692:4710   */\n      0x24\n      dup3\n      add\n        /* \"#utility.yul\":4685:4715   */\n      mstore\n      shl(0x95, 0x029b2ba103a34329030b236b4b71)\n        /* \"#utility.yul\":4731:4749   */\n      0x44\n      dup3\n      add\n        /* \"#utility.yul\":4724:4768   */\n      mstore\n        /* \"#utility.yul\":4785:4803   */\n      0x64\n      add\n        /* \"contract/bridge.sol\":1045:1091  require(admin != address(0), \"Set the admin \") */\n      tag_32\n        /* \"#utility.yul\":4471:4809   */\n      jump\n        /* \"contract/bridge.sol\":1045:1091  require(admin != address(0), \"Set the admin \") */\n    tag_34:\n        /* \"contract/bridge.sol\":1140:1145  admin */\n      sload(0x00)\n        /* \"contract/bridge.sol\":1101:1156  IERC20(token).transferFrom(msg.sender, admin, amountIn) */\n      mload(0x40)\n      shl(0xe0, 0x23b872dd)\n      dup2\n      mstore\n        /* \"contract/bridge.sol\":1128:1138  msg.sender */\n      caller\n        /* \"contract/bridge.sol\":1101:1156  IERC20(token).transferFrom(msg.sender, admin, amountIn) */\n      0x04\n      dup3\n      add\n        /* \"#utility.yul\":5016:5067   */\n      mstore\n      sub(shl(0xa0, 0x01), 0x01)\n        /* \"contract/bridge.sol\":1140:1145  admin */\n      swap2\n      dup3\n      and\n        /* \"#utility.yul\":5083:5101   */\n      0x24\n      dup3\n      add\n        /* \"#utility.yul\":5076:5136   */\n      mstore\n        /* \"#utility.yul\":5152:5170   */\n      0x44\n      dup2\n      add\n        /* \"#utility.yul\":5145:5179   */\n      dup10\n      swap1\n      mstore\n        /* \"contract/bridge.sol\":1101:1127  IERC20(token).transferFrom */\n      swap1\n      dup10\n      and\n      swap1\n      0x23b872dd\n      swap1\n        /* \"#utility.yul\":4989:5007   */\n      0x64\n      add\n        /* \"contract/bridge.sol\":1101:1156  IERC20(token).transferFrom(msg.sender, admin, amountIn) */\n      0x20\n      mload(0x40)\n      dup1\n      dup4\n      sub\n      dup2\n      0x00\n      dup8\n      gas\n      call\n      iszero\n      dup1\n      iszero\n      tag_40\n      jumpi\n      returndatasize\n      0x00\n      dup1\n      returndatacopy\n      revert(0x00, returndatasize)\n    tag_40:\n      pop\n      pop\n      pop\n      pop\n      mload(0x40)\n      returndatasize\n      not(0x1f)\n      0x1f\n      dup3\n      add\n      and\n      dup3\n      add\n      dup1\n      0x40\n      mstore\n      pop\n      dup2\n      add\n      swap1\n      tag_41\n      swap2\n      swap1\n      tag_42\n      jump\t// in\n    tag_41:\n      pop\n        /* \"contract/bridge.sol\":1237:1247  msg.sender */\n      caller\n      sub(shl(0xa0, 0x01), 0x01)\n        /* \"contract/bridge.sol\":1232:1301  Lock(msg.sender, amountIn, token, destChainId, destToken, recipients) */\n      and\n      0x78e9f780c290ff464c0f50abe334486f00bad6e233876d9d9dedad8fb27b0cae\n        /* \"contract/bridge.sol\":1249:1257  amountIn */\n      dup9\n        /* \"contract/bridge.sol\":1259:1264  token */\n      dup11\n        /* \"contract/bridge.sol\":1266:1277  destChainId */\n      dup10\n      dup10\n        /* \"contract/bridge.sol\":1279:1288  destToken */\n      dup10\n      dup10\n        /* \"contract/bridge.sol\":1290:1300  recipients */\n      dup10\n      dup10\n        /* \"contract/bridge.sol\":1232:1301  Lock(msg.sender, amountIn, token, destChainId, destToken, recipients) */\n      mload(0x40)\n      tag_43\n      swap9\n      swap8\n      swap7\n      swap6\n      swap5\n      swap4\n      swap3\n      swap2\n      swap1\n      tag_44\n      jump\t// in\n    tag_43:\n      mload(0x40)\n      dup1\n      swap2\n      sub\n      swap1\n      log2\n        /* \"contract/bridge.sol\":766:1308  function lock(address token, uint256 amountIn, string calldata destChainId, string calldata destToken, string calldata recipients) external {... */\n      pop\n      pop\n      pop\n      pop\n      pop\n      pop\n      pop\n      pop\n      jump\t// out\n        /* \"contract/bridge.sol\":1951:2124  function setAdmin(address newAdmin) external onlyAdmin {... */\n    tag_15:\n        /* \"contract/bridge.sol\":553:558  admin */\n      and(sub(shl(0xa0, 0x01), 0x01), sload(0x00))\n        /* \"contract/bridge.sol\":539:549  msg.sender */\n      caller\n        /* \"contract/bridge.sol\":539:558  msg.sender == admin */\n      eq\n        /* \"contract/bridge.sol\":531:590  require(msg.sender == admin, \"Only admin can execute this\") */\n      tag_46\n      jumpi\n      mload(0x40)\n      shl(0xe5, 0x461bcd)\n      dup2\n      mstore\n        /* \"#utility.yul\":6749:6751   */\n      0x20\n        /* \"contract/bridge.sol\":531:590  require(msg.sender == admin, \"Only admin can execute this\") */\n      0x04\n      dup3\n      add\n        /* \"#utility.yul\":6731:6752   */\n      mstore\n        /* \"#utility.yul\":6788:6790   */\n      0x1b\n        /* \"#utility.yul\":6768:6786   */\n      0x24\n      dup3\n      add\n        /* \"#utility.yul\":6761:6791   */\n      mstore\n        /* \"#utility.yul\":6827:6856   */\n      0x4f6e6c792061646d696e2063616e206578656375746520746869730000000000\n        /* \"#utility.yul\":6807:6825   */\n      0x44\n      dup3\n      add\n        /* \"#utility.yul\":6800:6857   */\n      mstore\n        /* \"#utility.yul\":6874:6892   */\n      0x64\n      add\n        /* \"contract/bridge.sol\":531:590  require(msg.sender == admin, \"Only admin can execute this\") */\n      tag_32\n        /* \"#utility.yul\":6547:6898   */\n      jump\n        /* \"contract/bridge.sol\":531:590  require(msg.sender == admin, \"Only admin can execute this\") */\n    tag_46:\n      sub(shl(0xa0, 0x01), 0x01)\n        /* \"contract/bridge.sol\":2024:2046  newAdmin != address(0) */\n      dup2\n      and\n        /* \"contract/bridge.sol\":2016:2091  require(newAdmin != address(0), \"New admin address cannot be zero address\") */\n      tag_50\n      jumpi\n      mload(0x40)\n      shl(0xe5, 0x461bcd)\n      dup2\n      mstore\n        /* \"#utility.yul\":7105:7107   */\n      0x20\n        /* \"contract/bridge.sol\":2016:2091  require(newAdmin != address(0), \"New admin address cannot be zero address\") */\n      0x04\n      dup3\n      add\n        /* \"#utility.yul\":7087:7108   */\n      mstore\n        /* \"#utility.yul\":7144:7146   */\n      0x28\n        /* \"#utility.yul\":7124:7142   */\n      0x24\n      dup3\n      add\n        /* \"#utility.yul\":7117:7147   */\n      mstore\n        /* \"#utility.yul\":7183:7217   */\n      0x4e65772061646d696e20616464726573732063616e6e6f74206265207a65726f\n        /* \"#utility.yul\":7163:7181   */\n      0x44\n      dup3\n      add\n        /* \"#utility.yul\":7156:7218   */\n      mstore\n      shl(0xc0, 0x2061646472657373)\n        /* \"#utility.yul\":7234:7252   */\n      0x64\n      dup3\n      add\n        /* \"#utility.yul\":7227:7265   */\n      mstore\n        /* \"#utility.yul\":7282:7301   */\n      0x84\n      add\n        /* \"contract/bridge.sol\":2016:2091  require(newAdmin != address(0), \"New admin address cannot be zero address\") */\n      tag_32\n        /* \"#utility.yul\":6903:7307   */\n      jump\n        /* \"contract/bridge.sol\":2016:2091  require(newAdmin != address(0), \"New admin address cannot be zero address\") */\n    tag_50:\n        /* \"contract/bridge.sol\":2101:2106  admin */\n      0x00\n        /* \"contract/bridge.sol\":2101:2117  admin = newAdmin */\n      dup1\n      sload\n      not(sub(shl(0xa0, 0x01), 0x01))\n      and\n      sub(shl(0xa0, 0x01), 0x01)\n      swap3\n      swap1\n      swap3\n      and\n      swap2\n      swap1\n      swap2\n      or\n      swap1\n      sstore\n        /* \"contract/bridge.sol\":1951:2124  function setAdmin(address newAdmin) external onlyAdmin {... */\n      jump\t// out\n        /* \"contract/bridge.sol\":1369:1883  function release(address tokenOut, address user, uint256 amountOut, string calldata lockHash) external onlyAdmin {... */\n    tag_25:\n        /* \"contract/bridge.sol\":553:558  admin */\n      and(sub(shl(0xa0, 0x01), 0x01), sload(0x00))\n        /* \"contract/bridge.sol\":539:549  msg.sender */\n      caller\n        /* \"contract/bridge.sol\":539:558  msg.sender == admin */\n      eq\n        /* \"contract/bridge.sol\":531:590  require(msg.sender == admin, \"Only admin can execute this\") */\n      tag_54\n      jumpi\n      mload(0x40)\n      shl(0xe5, 0x461bcd)\n      dup2\n      mstore\n        /* \"#utility.yul\":6749:6751   */\n      0x20\n        /* \"contract/bridge.sol\":531:590  require(msg.sender == admin, \"Only admin can execute this\") */\n      0x04\n      dup3\n      add\n        /* \"#utility.yul\":6731:6752   */\n      mstore\n        /* \"#utility.yul\":6788:6790   */\n      0x1b\n        /* \"#utility.yul\":6768:6786   */\n      0x24\n      dup3\n      add\n        /* \"#utility.yul\":6761:6791   */\n      mstore\n        /* \"#utility.yul\":6827:6856   */\n      0x4f6e6c792061646d696e2063616e206578656375746520746869730000000000\n        /* \"#utility.yul\":6807:6825   */\n      0x44\n      dup3\n      add\n        /* \"#utility.yul\":6800:6857   */\n      mstore\n        /* \"#utility.yul\":6874:6892   */\n      0x64\n      add\n        /* \"contract/bridge.sol\":531:590  require(msg.sender == admin, \"Only admin can execute this\") */\n      tag_32\n        /* \"#utility.yul\":6547:6898   */\n      jump\n        /* \"contract/bridge.sol\":531:590  require(msg.sender == admin, \"Only admin can execute this\") */\n    tag_54:\n        /* \"contract/bridge.sol\":1512:1513  0 */\n      0x00\n        /* \"contract/bridge.sol\":1500:1509  amountOut */\n      dup4\n        /* \"contract/bridge.sol\":1500:1513  amountOut > 0 */\n      gt\n        /* \"contract/bridge.sol\":1492:1547  require(amountOut > 0, \"Amount must be greater than 0\") */\n      tag_57\n      jumpi\n      mload(0x40)\n      shl(0xe5, 0x461bcd)\n      dup2\n      mstore\n        /* \"#utility.yul\":4315:4317   */\n      0x20\n        /* \"contract/bridge.sol\":1492:1547  require(amountOut > 0, \"Amount must be greater than 0\") */\n      0x04\n      dup3\n      add\n        /* \"#utility.yul\":4297:4318   */\n      mstore\n        /* \"#utility.yul\":4354:4356   */\n      0x1d\n        /* \"#utility.yul\":4334:4352   */\n      0x24\n      dup3\n      add\n        /* \"#utility.yul\":4327:4357   */\n      mstore\n        /* \"#utility.yul\":4393:4424   */\n      0x416d6f756e74206d7573742062652067726561746572207468616e2030000000\n        /* \"#utility.yul\":4373:4391   */\n      0x44\n      dup3\n      add\n        /* \"#utility.yul\":4366:4425   */\n      mstore\n        /* \"#utility.yul\":4442:4460   */\n      0x64\n      add\n        /* \"contract/bridge.sol\":1492:1547  require(amountOut > 0, \"Amount must be greater than 0\") */\n      tag_32\n        /* \"#utility.yul\":4113:4466   */\n      jump\n        /* \"contract/bridge.sol\":1492:1547  require(amountOut > 0, \"Amount must be greater than 0\") */\n    tag_57:\n        /* \"contract/bridge.sol\":1570:1579  processed */\n      0x01\n        /* \"contract/bridge.sol\":1580:1588  lockHash */\n      dup3\n      dup3\n        /* \"contract/bridge.sol\":1570:1589  processed[lockHash] */\n      mload(0x40)\n      tag_59\n      swap3\n      swap2\n      swap1\n      tag_60\n      jump\t// in\n    tag_59:\n      swap1\n      dup2\n      mstore\n      mload(0x40)\n      swap1\n      dup2\n      swap1\n      sub\n      0x20\n      add\n      swap1\n      keccak256\n      sload\n      0xff\n      and\n        /* \"contract/bridge.sol\":1569:1589  !processed[lockHash] */\n      iszero\n        /* \"contract/bridge.sol\":1561:1616  require(!processed[lockHash], \"Hash already processed\") */\n      tag_61\n      jumpi\n      mload(0x40)\n      shl(0xe5, 0x461bcd)\n      dup2\n      mstore\n        /* \"#utility.yul\":7792:7794   */\n      0x20\n        /* \"contract/bridge.sol\":1561:1616  require(!processed[lockHash], \"Hash already processed\") */\n      0x04\n      dup3\n      add\n        /* \"#utility.yul\":7774:7795   */\n      mstore\n        /* \"#utility.yul\":7831:7833   */\n      0x16\n        /* \"#utility.yul\":7811:7829   */\n      0x24\n      dup3\n      add\n        /* \"#utility.yul\":7804:7834   */\n      mstore\n      shl(0x52, 0x12185cda08185b1c9958591e481c1c9bd8d95cdcd959)\n        /* \"#utility.yul\":7850:7868   */\n      0x44\n      dup3\n      add\n        /* \"#utility.yul\":7843:7895   */\n      mstore\n        /* \"#utility.yul\":7912:7930   */\n      0x64\n      add\n        /* \"contract/bridge.sol\":1561:1616  require(!processed[lockHash], \"Hash already processed\") */\n      tag_32\n        /* \"#utility.yul\":7590:7936   */\n      jump\n        /* \"contract/bridge.sol\":1561:1616  require(!processed[lockHash], \"Hash already processed\") */\n    tag_61:\n        /* \"contract/bridge.sol\":1648:1652  true */\n      0x01\n        /* \"contract/bridge.sol\":1626:1635  processed */\n      dup1\n        /* \"contract/bridge.sol\":1636:1644  lockHash */\n      dup4\n      dup4\n        /* \"contract/bridge.sol\":1626:1645  processed[lockHash] */\n      mload(0x40)\n      tag_64\n      swap3\n      swap2\n      swap1\n      tag_60\n      jump\t// in\n    tag_64:\n      swap1\n      dup2\n      mstore\n      mload(0x40)\n      swap1\n      dup2\n      swap1\n      sub\n      0x20\n      add\n      dup2\n      keccak256\n        /* \"contract/bridge.sol\":1626:1652  processed[lockHash] = true */\n      dup1\n      sload\n      swap3\n      iszero\n      iszero\n      not(0xff)\n      swap1\n      swap4\n      and\n      swap3\n      swap1\n      swap3\n      or\n      swap1\n      swap2\n      sstore\n      0x00\n        /* \"contract/bridge.sol\":1767:1772  admin */\n      sload\n      shl(0xe0, 0x23b872dd)\n        /* \"contract/bridge.sol\":1737:1791  IERC20(tokenOut).transferFrom(admin , user, amountOut) */\n      dup3\n      mstore\n      sub(shl(0xa0, 0x01), 0x01)\n        /* \"contract/bridge.sol\":1767:1772  admin */\n      swap1\n      dup2\n      and\n        /* \"contract/bridge.sol\":1737:1791  IERC20(tokenOut).transferFrom(admin , user, amountOut) */\n      0x04\n      dup4\n      add\n        /* \"#utility.yul\":5016:5067   */\n      mstore\n        /* \"#utility.yul\":5103:5135   */\n      dup6\n      dup2\n      and\n        /* \"#utility.yul\":5083:5101   */\n      0x24\n      dup4\n      add\n        /* \"#utility.yul\":5076:5136   */\n      mstore\n        /* \"#utility.yul\":5152:5170   */\n      0x44\n      dup3\n      add\n        /* \"#utility.yul\":5145:5179   */\n      dup6\n      swap1\n      mstore\n        /* \"contract/bridge.sol\":1737:1766  IERC20(tokenOut).transferFrom */\n      dup7\n      and\n      swap1\n      0x23b872dd\n      swap1\n        /* \"#utility.yul\":4989:5007   */\n      0x64\n      add\n        /* \"contract/bridge.sol\":1737:1791  IERC20(tokenOut).transferFrom(admin , user, amountOut) */\n      0x20\n      mload(0x40)\n      dup1\n      dup4\n      sub\n      dup2\n      0x00\n      dup8\n      gas\n      call\n      iszero\n      dup1\n      iszero\n      tag_67\n      jumpi\n      returndatasize\n      0x00\n      dup1\n      returndatacopy\n      revert(0x00, returndatasize)\n    tag_67:\n      pop\n      pop\n      pop\n      pop\n      mload(0x40)\n      returndatasize\n      not(0x1f)\n      0x1f\n      dup3\n      add\n      and\n      dup3\n      add\n      dup1\n      0x40\n      mstore\n      pop\n      dup2\n      add\n      swap1\n      tag_68\n      swap2\n      swap1\n      tag_42\n      jump\t// in\n    tag_68:\n      pop\n        /* \"contract/bridge.sol\":1842:1876  Release(user, amountOut, tokenOut) */\n      0x40\n      dup1\n      mload\n        /* \"#utility.yul\":8115:8140   */\n      dup5\n      dup2\n      mstore\n      sub(shl(0xa0, 0x01), 0x01)\n        /* \"#utility.yul\":8176:8208   */\n      dup8\n      dup2\n      and\n        /* \"#utility.yul\":8171:8173   */\n      0x20\n        /* \"#utility.yul\":8156:8174   */\n      dup4\n      add\n        /* \"#utility.yul\":8149:8209   */\n      mstore\n        /* \"contract/bridge.sol\":1842:1876  Release(user, amountOut, tokenOut) */\n      dup7\n      and\n      swap2\n      0xdfac932ca264a8c7345ea1299e5789225e91b6a2acba6f0c23bc0a757dbcd9da\n      swap2\n        /* \"#utility.yul\":8088:8106   */\n      add\n        /* \"contract/bridge.sol\":1842:1876  Release(user, amountOut, tokenOut) */\n      mload(0x40)\n      dup1\n      swap2\n      sub\n      swap1\n      log2\n        /* \"contract/bridge.sol\":1369:1883  function release(address tokenOut, address user, uint256 amountOut, string calldata lockHash) external onlyAdmin {... */\n      pop\n      pop\n      pop\n      pop\n      pop\n      jump\t// out\n        /* \"#utility.yul\":14:187   */\n    tag_71:\n        /* \"#utility.yul\":82:102   */\n      dup1\n      calldataload\n      sub(shl(0xa0, 0x01), 0x01)\n        /* \"#utility.yul\":131:162   */\n      dup2\n      and\n        /* \"#utility.yul\":121:163   */\n      dup2\n      eq\n        /* \"#utility.yul\":111:181   */\n      tag_77\n      jumpi\n        /* \"#utility.yul\":177:178   */\n      0x00\n        /* \"#utility.yul\":174:175   */\n      dup1\n        /* \"#utility.yul\":167:179   */\n      revert\n        /* \"#utility.yul\":111:181   */\n    tag_77:\n        /* \"#utility.yul\":14:187   */\n      swap2\n      swap1\n      pop\n      jump\t// out\n        /* \"#utility.yul\":192:540   */\n    tag_72:\n        /* \"#utility.yul\":244:252   */\n      0x00\n        /* \"#utility.yul\":254:260   */\n      dup1\n        /* \"#utility.yul\":308:311   */\n      dup4\n        /* \"#utility.yul\":301:305   */\n      0x1f\n        /* \"#utility.yul\":293:299   */\n      dup5\n        /* \"#utility.yul\":289:306   */\n      add\n        /* \"#utility.yul\":285:312   */\n      slt\n        /* \"#utility.yul\":275:330   */\n      tag_79\n      jumpi\n        /* \"#utility.yul\":326:327   */\n      0x00\n        /* \"#utility.yul\":323:324   */\n      dup1\n        /* \"#utility.yul\":316:328   */\n      revert\n        /* \"#utility.yul\":275:330   */\n    tag_79:\n      pop\n        /* \"#utility.yul\":349:369   */\n      dup2\n      calldataload\n        /* \"#utility.yul\":392:410   */\n      0xffffffffffffffff\n        /* \"#utility.yul\":381:411   */\n      dup2\n      gt\n        /* \"#utility.yul\":378:428   */\n      iszero\n      tag_80\n      jumpi\n        /* \"#utility.yul\":424:425   */\n      0x00\n        /* \"#utility.yul\":421:422   */\n      dup1\n        /* \"#utility.yul\":414:426   */\n      revert\n        /* \"#utility.yul\":378:428   */\n    tag_80:\n        /* \"#utility.yul\":461:465   */\n      0x20\n        /* \"#utility.yul\":453:459   */\n      dup4\n        /* \"#utility.yul\":449:466   */\n      add\n        /* \"#utility.yul\":437:466   */\n      swap2\n      pop\n        /* \"#utility.yul\":513:516   */\n      dup4\n        /* \"#utility.yul\":506:510   */\n      0x20\n        /* \"#utility.yul\":497:503   */\n      dup3\n        /* \"#utility.yul\":489:495   */\n      dup6\n        /* \"#utility.yul\":485:504   */\n      add\n        /* \"#utility.yul\":481:511   */\n      add\n        /* \"#utility.yul\":478:517   */\n      gt\n        /* \"#utility.yul\":475:534   */\n      iszero\n      tag_81\n      jumpi\n        /* \"#utility.yul\":530:531   */\n      0x00\n        /* \"#utility.yul\":527:528   */\n      dup1\n        /* \"#utility.yul\":520:532   */\n      revert\n        /* \"#utility.yul\":475:534   */\n    tag_81:\n        /* \"#utility.yul\":192:540   */\n      swap3\n      pop\n      swap3\n      swap1\n      pop\n      jump\t// out\n        /* \"#utility.yul\":545:1756   */\n    tag_10:\n        /* \"#utility.yul\":676:682   */\n      0x00\n        /* \"#utility.yul\":684:690   */\n      dup1\n        /* \"#utility.yul\":692:698   */\n      0x00\n        /* \"#utility.yul\":700:706   */\n      dup1\n        /* \"#utility.yul\":708:714   */\n      0x00\n        /* \"#utility.yul\":716:722   */\n      dup1\n        /* \"#utility.yul\":724:730   */\n      0x00\n        /* \"#utility.yul\":732:738   */\n      dup1\n        /* \"#utility.yul\":785:788   */\n      0xa0\n        /* \"#utility.yul\":773:782   */\n      dup10\n        /* \"#utility.yul\":764:771   */\n      dup12\n        /* \"#utility.yul\":760:783   */\n      sub\n        /* \"#utility.yul\":756:789   */\n      slt\n        /* \"#utility.yul\":753:806   */\n      iszero\n      tag_83\n      jumpi\n        /* \"#utility.yul\":802:803   */\n      0x00\n        /* \"#utility.yul\":799:800   */\n      dup1\n        /* \"#utility.yul\":792:804   */\n      revert\n        /* \"#utility.yul\":753:806   */\n    tag_83:\n        /* \"#utility.yul\":825:854   */\n      tag_84\n        /* \"#utility.yul\":844:853   */\n      dup10\n        /* \"#utility.yul\":825:854   */\n      tag_71\n      jump\t// in\n    tag_84:\n        /* \"#utility.yul\":815:854   */\n      swap8\n      pop\n        /* \"#utility.yul\":923:925   */\n      0x20\n        /* \"#utility.yul\":908:926   */\n      dup10\n      add\n        /* \"#utility.yul\":895:927   */\n      calldataload\n      swap7\n      pop\n        /* \"#utility.yul\":1002:1004   */\n      0x40\n        /* \"#utility.yul\":987:1005   */\n      dup10\n      add\n        /* \"#utility.yul\":974:1006   */\n      calldataload\n        /* \"#utility.yul\":1029:1047   */\n      0xffffffffffffffff\n        /* \"#utility.yul\":1018:1048   */\n      dup2\n      gt\n        /* \"#utility.yul\":1015:1065   */\n      iszero\n      tag_85\n      jumpi\n        /* \"#utility.yul\":1061:1062   */\n      0x00\n        /* \"#utility.yul\":1058:1059   */\n      dup1\n        /* \"#utility.yul\":1051:1063   */\n      revert\n        /* \"#utility.yul\":1015:1065   */\n    tag_85:\n        /* \"#utility.yul\":1100:1159   */\n      tag_86\n        /* \"#utility.yul\":1151:1158   */\n      dup12\n        /* \"#utility.yul\":1142:1148   */\n      dup3\n        /* \"#utility.yul\":1131:1140   */\n      dup13\n        /* \"#utility.yul\":1127:1149   */\n      add\n        /* \"#utility.yul\":1100:1159   */\n      tag_72\n      jump\t// in\n    tag_86:\n        /* \"#utility.yul\":1178:1186   */\n      swap1\n      swap8\n      pop\n        /* \"#utility.yul\":1074:1159   */\n      swap6\n      pop\n      pop\n        /* \"#utility.yul\":1266:1268   */\n      0x60\n        /* \"#utility.yul\":1251:1269   */\n      dup10\n      add\n        /* \"#utility.yul\":1238:1270   */\n      calldataload\n        /* \"#utility.yul\":1295:1313   */\n      0xffffffffffffffff\n        /* \"#utility.yul\":1282:1314   */\n      dup2\n      gt\n        /* \"#utility.yul\":1279:1331   */\n      iszero\n      tag_87\n      jumpi\n        /* \"#utility.yul\":1327:1328   */\n      0x00\n        /* \"#utility.yul\":1324:1325   */\n      dup1\n        /* \"#utility.yul\":1317:1329   */\n      revert\n        /* \"#utility.yul\":1279:1331   */\n    tag_87:\n        /* \"#utility.yul\":1366:1427   */\n      tag_88\n        /* \"#utility.yul\":1419:1426   */\n      dup12\n        /* \"#utility.yul\":1408:1416   */\n      dup3\n        /* \"#utility.yul\":1397:1406   */\n      dup13\n        /* \"#utility.yul\":1393:1417   */\n      add\n        /* \"#utility.yul\":1366:1427   */\n      tag_72\n      jump\t// in\n    tag_88:\n        /* \"#utility.yul\":1446:1454   */\n      swap1\n      swap6\n      pop\n        /* \"#utility.yul\":1340:1427   */\n      swap4\n      pop\n      pop\n        /* \"#utility.yul\":1534:1537   */\n      0x80\n        /* \"#utility.yul\":1519:1538   */\n      dup10\n      add\n        /* \"#utility.yul\":1506:1539   */\n      calldataload\n        /* \"#utility.yul\":1564:1582   */\n      0xffffffffffffffff\n        /* \"#utility.yul\":1551:1583   */\n      dup2\n      gt\n        /* \"#utility.yul\":1548:1600   */\n      iszero\n      tag_89\n      jumpi\n        /* \"#utility.yul\":1596:1597   */\n      0x00\n        /* \"#utility.yul\":1593:1594   */\n      dup1\n        /* \"#utility.yul\":1586:1598   */\n      revert\n        /* \"#utility.yul\":1548:1600   */\n    tag_89:\n        /* \"#utility.yul\":1635:1696   */\n      tag_90\n        /* \"#utility.yul\":1688:1695   */\n      dup12\n        /* \"#utility.yul\":1677:1685   */\n      dup3\n        /* \"#utility.yul\":1666:1675   */\n      dup13\n        /* \"#utility.yul\":1662:1686   */\n      add\n        /* \"#utility.yul\":1635:1696   */\n      tag_72\n      jump\t// in\n    tag_90:\n        /* \"#utility.yul\":545:1756   */\n      swap10\n      swap13\n      swap9\n      swap12\n      pop\n      swap7\n      swap10\n      pop\n      swap5\n      swap8\n      swap4\n      swap7\n      swap3\n      swap6\n        /* \"#utility.yul\":1715:1723   */\n      swap5\n      pop\n      pop\n      pop\n        /* \"#utility.yul\":545:1756   */\n      jump\t// out\n        /* \"#utility.yul\":1761:1947   */\n    tag_14:\n        /* \"#utility.yul\":1820:1826   */\n      0x00\n        /* \"#utility.yul\":1873:1875   */\n      0x20\n        /* \"#utility.yul\":1861:1870   */\n      dup3\n        /* \"#utility.yul\":1852:1859   */\n      dup5\n        /* \"#utility.yul\":1848:1871   */\n      sub\n        /* \"#utility.yul\":1844:1876   */\n      slt\n        /* \"#utility.yul\":1841:1893   */\n      iszero\n      tag_92\n      jumpi\n        /* \"#utility.yul\":1889:1890   */\n      0x00\n        /* \"#utility.yul\":1886:1887   */\n      dup1\n        /* \"#utility.yul\":1879:1891   */\n      revert\n        /* \"#utility.yul\":1841:1893   */\n    tag_92:\n        /* \"#utility.yul\":1912:1941   */\n      tag_93\n        /* \"#utility.yul\":1931:1940   */\n      dup3\n        /* \"#utility.yul\":1912:1941   */\n      tag_71\n      jump\t// in\n    tag_93:\n        /* \"#utility.yul\":1902:1941   */\n      swap4\n        /* \"#utility.yul\":1761:1947   */\n      swap3\n      pop\n      pop\n      pop\n      jump\t// out\n        /* \"#utility.yul\":1952:2079   */\n    tag_73:\n        /* \"#utility.yul\":2013:2023   */\n      0x4e487b71\n        /* \"#utility.yul\":2008:2011   */\n      0xe0\n        /* \"#utility.yul\":2004:2024   */\n      shl\n        /* \"#utility.yul\":2001:2002   */\n      0x00\n        /* \"#utility.yul\":1994:2025   */\n      mstore\n        /* \"#utility.yul\":2044:2048   */\n      0x41\n        /* \"#utility.yul\":2041:2042   */\n      0x04\n        /* \"#utility.yul\":2034:2049   */\n      mstore\n        /* \"#utility.yul\":2068:2072   */\n      0x24\n        /* \"#utility.yul\":2065:2066   */\n      0x00\n        /* \"#utility.yul\":2058:2073   */\n      revert\n        /* \"#utility.yul\":2084:3029   */\n    tag_18:\n        /* \"#utility.yul\":2153:2159   */\n      0x00\n        /* \"#utility.yul\":2206:2208   */\n      0x20\n        /* \"#utility.yul\":2194:2203   */\n      dup3\n        /* \"#utility.yul\":2185:2192   */\n      dup5\n        /* \"#utility.yul\":2181:2204   */\n      sub\n        /* \"#utility.yul\":2177:2209   */\n      slt\n        /* \"#utility.yul\":2174:2226   */\n      iszero\n      tag_96\n      jumpi\n        /* \"#utility.yul\":2222:2223   */\n      0x00\n        /* \"#utility.yul\":2219:2220   */\n      dup1\n        /* \"#utility.yul\":2212:2224   */\n      revert\n        /* \"#utility.yul\":2174:2226   */\n    tag_96:\n        /* \"#utility.yul\":2262:2271   */\n      dup2\n        /* \"#utility.yul\":2249:2272   */\n      calldataload\n        /* \"#utility.yul\":2295:2313   */\n      0xffffffffffffffff\n        /* \"#utility.yul\":2287:2293   */\n      dup2\n        /* \"#utility.yul\":2284:2314   */\n      gt\n        /* \"#utility.yul\":2281:2331   */\n      iszero\n      tag_97\n      jumpi\n        /* \"#utility.yul\":2327:2328   */\n      0x00\n        /* \"#utility.yul\":2324:2325   */\n      dup1\n        /* \"#utility.yul\":2317:2329   */\n      revert\n        /* \"#utility.yul\":2281:2331   */\n    tag_97:\n        /* \"#utility.yul\":2350:2372   */\n      dup3\n      add\n        /* \"#utility.yul\":2403:2407   */\n      0x1f\n        /* \"#utility.yul\":2395:2408   */\n      dup2\n      add\n        /* \"#utility.yul\":2391:2418   */\n      dup5\n      sgt\n        /* \"#utility.yul\":2381:2436   */\n      tag_98\n      jumpi\n        /* \"#utility.yul\":2432:2433   */\n      0x00\n        /* \"#utility.yul\":2429:2430   */\n      dup1\n        /* \"#utility.yul\":2422:2434   */\n      revert\n        /* \"#utility.yul\":2381:2436   */\n    tag_98:\n        /* \"#utility.yul\":2472:2474   */\n      dup1\n        /* \"#utility.yul\":2459:2475   */\n      calldataload\n        /* \"#utility.yul\":2498:2516   */\n      0xffffffffffffffff\n        /* \"#utility.yul\":2490:2496   */\n      dup2\n        /* \"#utility.yul\":2487:2517   */\n      gt\n        /* \"#utility.yul\":2484:2540   */\n      iszero\n      tag_100\n      jumpi\n        /* \"#utility.yul\":2520:2538   */\n      tag_100\n      tag_73\n      jump\t// in\n    tag_100:\n        /* \"#utility.yul\":2569:2571   */\n      0x40\n        /* \"#utility.yul\":2563:2572   */\n      mload\n        /* \"#utility.yul\":2661:2663   */\n      0x1f\n        /* \"#utility.yul\":2623:2640   */\n      dup3\n      add\n      not(0x1f)\n        /* \"#utility.yul\":2619:2650   */\n      swap1\n      dup2\n      and\n        /* \"#utility.yul\":2652:2654   */\n      0x3f\n        /* \"#utility.yul\":2615:2655   */\n      add\n        /* \"#utility.yul\":2611:2665   */\n      and\n        /* \"#utility.yul\":2599:2666   */\n      dup2\n      add\n        /* \"#utility.yul\":2696:2714   */\n      0xffffffffffffffff\n        /* \"#utility.yul\":2681:2715   */\n      dup2\n      gt\n        /* \"#utility.yul\":2717:2739   */\n      dup3\n      dup3\n      lt\n        /* \"#utility.yul\":2678:2740   */\n      or\n        /* \"#utility.yul\":2675:2763   */\n      iszero\n      tag_102\n      jumpi\n        /* \"#utility.yul\":2743:2761   */\n      tag_102\n      tag_73\n      jump\t// in\n    tag_102:\n        /* \"#utility.yul\":2779:2781   */\n      0x40\n        /* \"#utility.yul\":2772:2794   */\n      mstore\n        /* \"#utility.yul\":2803:2825   */\n      dup2\n      dup2\n      mstore\n        /* \"#utility.yul\":2844:2859   */\n      dup3\n      dup3\n      add\n        /* \"#utility.yul\":2861:2863   */\n      0x20\n        /* \"#utility.yul\":2840:2864   */\n      add\n        /* \"#utility.yul\":2837:2874   */\n      dup7\n      lt\n        /* \"#utility.yul\":2834:2891   */\n      iszero\n      tag_103\n      jumpi\n        /* \"#utility.yul\":2887:2888   */\n      0x00\n        /* \"#utility.yul\":2884:2885   */\n      dup1\n        /* \"#utility.yul\":2877:2889   */\n      revert\n        /* \"#utility.yul\":2834:2891   */\n    tag_103:\n        /* \"#utility.yul\":2943:2949   */\n      dup2\n        /* \"#utility.yul\":2938:2940   */\n      0x20\n        /* \"#utility.yul\":2934:2936   */\n      dup5\n        /* \"#utility.yul\":2930:2941   */\n      add\n        /* \"#utility.yul\":2925:2927   */\n      0x20\n        /* \"#utility.yul\":2917:2923   */\n      dup4\n        /* \"#utility.yul\":2913:2928   */\n      add\n        /* \"#utility.yul\":2900:2950   */\n      calldatacopy\n        /* \"#utility.yul\":2996:2997   */\n      0x00\n        /* \"#utility.yul\":2970:2989   */\n      swap2\n      dup2\n      add\n        /* \"#utility.yul\":2991:2993   */\n      0x20\n        /* \"#utility.yul\":2966:2994   */\n      add\n        /* \"#utility.yul\":2959:2998   */\n      swap2\n      swap1\n      swap2\n      mstore\n        /* \"#utility.yul\":2974:2980   */\n      swap5\n        /* \"#utility.yul\":2084:3029   */\n      swap4\n      pop\n      pop\n      pop\n      pop\n      jump\t// out\n        /* \"#utility.yul\":3226:3900   */\n    tag_24:\n        /* \"#utility.yul\":3324:3330   */\n      0x00\n        /* \"#utility.yul\":3332:3338   */\n      dup1\n        /* \"#utility.yul\":3340:3346   */\n      0x00\n        /* \"#utility.yul\":3348:3354   */\n      dup1\n        /* \"#utility.yul\":3356:3362   */\n      0x00\n        /* \"#utility.yul\":3409:3412   */\n      0x80\n        /* \"#utility.yul\":3397:3406   */\n      dup7\n        /* \"#utility.yul\":3388:3395   */\n      dup9\n        /* \"#utility.yul\":3384:3407   */\n      sub\n        /* \"#utility.yul\":3380:3413   */\n      slt\n        /* \"#utility.yul\":3377:3430   */\n      iszero\n      tag_106\n      jumpi\n        /* \"#utility.yul\":3426:3427   */\n      0x00\n        /* \"#utility.yul\":3423:3424   */\n      dup1\n        /* \"#utility.yul\":3416:3428   */\n      revert\n        /* \"#utility.yul\":3377:3430   */\n    tag_106:\n        /* \"#utility.yul\":3449:3478   */\n      tag_107\n        /* \"#utility.yul\":3468:3477   */\n      dup7\n        /* \"#utility.yul\":3449:3478   */\n      tag_71\n      jump\t// in\n    tag_107:\n        /* \"#utility.yul\":3439:3478   */\n      swap5\n      pop\n        /* \"#utility.yul\":3497:3535   */\n      tag_108\n        /* \"#utility.yul\":3531:3533   */\n      0x20\n        /* \"#utility.yul\":3520:3529   */\n      dup8\n        /* \"#utility.yul\":3516:3534   */\n      add\n        /* \"#utility.yul\":3497:3535   */\n      tag_71\n      jump\t// in\n    tag_108:\n        /* \"#utility.yul\":3487:3535   */\n      swap4\n      pop\n        /* \"#utility.yul\":3604:3606   */\n      0x40\n        /* \"#utility.yul\":3589:3607   */\n      dup7\n      add\n        /* \"#utility.yul\":3576:3608   */\n      calldataload\n      swap3\n      pop\n        /* \"#utility.yul\":3683:3685   */\n      0x60\n        /* \"#utility.yul\":3668:3686   */\n      dup7\n      add\n        /* \"#utility.yul\":3655:3687   */\n      calldataload\n        /* \"#utility.yul\":3710:3728   */\n      0xffffffffffffffff\n        /* \"#utility.yul\":3699:3729   */\n      dup2\n      gt\n        /* \"#utility.yul\":3696:3746   */\n      iszero\n      tag_109\n      jumpi\n        /* \"#utility.yul\":3742:3743   */\n      0x00\n        /* \"#utility.yul\":3739:3740   */\n      dup1\n        /* \"#utility.yul\":3732:3744   */\n      revert\n        /* \"#utility.yul\":3696:3746   */\n    tag_109:\n        /* \"#utility.yul\":3781:3840   */\n      tag_110\n        /* \"#utility.yul\":3832:3839   */\n      dup9\n        /* \"#utility.yul\":3823:3829   */\n      dup3\n        /* \"#utility.yul\":3812:3821   */\n      dup10\n        /* \"#utility.yul\":3808:3830   */\n      add\n        /* \"#utility.yul\":3781:3840   */\n      tag_72\n      jump\t// in\n    tag_110:\n        /* \"#utility.yul\":3226:3900   */\n      swap7\n      swap10\n      swap6\n      swap9\n      pop\n      swap4\n      swap7\n      pop\n        /* \"#utility.yul\":3859:3867   */\n      swap3\n      swap5\n        /* \"#utility.yul\":3755:3840   */\n      swap4\n        /* \"#utility.yul\":3226:3900   */\n      swap3\n      pop\n      pop\n      pop\n      jump\t// out\n        /* \"#utility.yul\":5190:5467   */\n    tag_42:\n        /* \"#utility.yul\":5257:5263   */\n      0x00\n        /* \"#utility.yul\":5310:5312   */\n      0x20\n        /* \"#utility.yul\":5298:5307   */\n      dup3\n        /* \"#utility.yul\":5289:5296   */\n      dup5\n        /* \"#utility.yul\":5285:5308   */\n      sub\n        /* \"#utility.yul\":5281:5313   */\n      slt\n        /* \"#utility.yul\":5278:5330   */\n      iszero\n      tag_116\n      jumpi\n        /* \"#utility.yul\":5326:5327   */\n      0x00\n        /* \"#utility.yul\":5323:5324   */\n      dup1\n        /* \"#utility.yul\":5316:5328   */\n      revert\n        /* \"#utility.yul\":5278:5330   */\n    tag_116:\n        /* \"#utility.yul\":5358:5367   */\n      dup2\n        /* \"#utility.yul\":5352:5368   */\n      mload\n        /* \"#utility.yul\":5411:5416   */\n      dup1\n        /* \"#utility.yul\":5404:5417   */\n      iszero\n        /* \"#utility.yul\":5397:5418   */\n      iszero\n        /* \"#utility.yul\":5390:5395   */\n      dup2\n        /* \"#utility.yul\":5387:5419   */\n      eq\n        /* \"#utility.yul\":5377:5437   */\n      tag_93\n      jumpi\n        /* \"#utility.yul\":5433:5434   */\n      0x00\n        /* \"#utility.yul\":5430:5431   */\n      dup1\n        /* \"#utility.yul\":5423:5435   */\n      revert\n        /* \"#utility.yul\":5472:5739   */\n    tag_74:\n        /* \"#utility.yul\":5561:5567   */\n      dup2\n        /* \"#utility.yul\":5556:5559   */\n      dup4\n        /* \"#utility.yul\":5549:5568   */\n      mstore\n        /* \"#utility.yul\":5613:5619   */\n      dup2\n        /* \"#utility.yul\":5606:5611   */\n      dup2\n        /* \"#utility.yul\":5599:5603   */\n      0x20\n        /* \"#utility.yul\":5594:5597   */\n      dup6\n        /* \"#utility.yul\":5590:5604   */\n      add\n        /* \"#utility.yul\":5577:5620   */\n      calldatacopy\n      pop\n        /* \"#utility.yul\":5665:5666   */\n      0x00\n        /* \"#utility.yul\":5640:5656   */\n      dup3\n      dup3\n      add\n        /* \"#utility.yul\":5658:5662   */\n      0x20\n        /* \"#utility.yul\":5636:5663   */\n      swap1\n      dup2\n      add\n        /* \"#utility.yul\":5629:5667   */\n      swap2\n      swap1\n      swap2\n      mstore\n        /* \"#utility.yul\":5721:5723   */\n      0x1f\n        /* \"#utility.yul\":5700:5715   */\n      swap1\n      swap2\n      add\n      not(0x1f)\n        /* \"#utility.yul\":5696:5725   */\n      and\n        /* \"#utility.yul\":5687:5726   */\n      swap1\n      swap2\n      add\n        /* \"#utility.yul\":5683:5733   */\n      add\n      swap1\n        /* \"#utility.yul\":5472:5739   */\n      jump\t// out\n        /* \"#utility.yul\":5744:6542   */\n    tag_44:\n        /* \"#utility.yul\":6057:6082   */\n      dup9\n      dup2\n      mstore\n      sub(shl(0xa0, 0x01), 0x01)\n        /* \"#utility.yul\":6118:6150   */\n      dup9\n      and\n        /* \"#utility.yul\":6113:6115   */\n      0x20\n        /* \"#utility.yul\":6098:6116   */\n      dup3\n      add\n        /* \"#utility.yul\":6091:6151   */\n      mstore\n        /* \"#utility.yul\":6138:6141   */\n      0xa0\n        /* \"#utility.yul\":6182:6184   */\n      0x40\n        /* \"#utility.yul\":6167:6185   */\n      dup3\n      add\n        /* \"#utility.yul\":6160:6191   */\n      dup2\n      swap1\n      mstore\n      0x00\n      swap1\n        /* \"#utility.yul\":6214:6277   */\n      tag_120\n      swap1\n        /* \"#utility.yul\":6257:6276   */\n      dup4\n      add\n        /* \"#utility.yul\":6249:6255   */\n      dup9\n        /* \"#utility.yul\":6241:6247   */\n      dup11\n        /* \"#utility.yul\":6214:6277   */\n      tag_74\n      jump\t// in\n    tag_120:\n        /* \"#utility.yul\":6325:6334   */\n      dup3\n        /* \"#utility.yul\":6317:6323   */\n      dup2\n        /* \"#utility.yul\":6313:6335   */\n      sub\n        /* \"#utility.yul\":6308:6310   */\n      0x60\n        /* \"#utility.yul\":6297:6306   */\n      dup5\n        /* \"#utility.yul\":6293:6311   */\n      add\n        /* \"#utility.yul\":6286:6336   */\n      mstore\n        /* \"#utility.yul\":6359:6409   */\n      tag_121\n        /* \"#utility.yul\":6402:6408   */\n      dup2\n        /* \"#utility.yul\":6394:6400   */\n      dup8\n        /* \"#utility.yul\":6386:6392   */\n      dup10\n        /* \"#utility.yul\":6359:6409   */\n      tag_74\n      jump\t// in\n    tag_121:\n        /* \"#utility.yul\":6345:6409   */\n      swap1\n      pop\n        /* \"#utility.yul\":6458:6467   */\n      dup3\n        /* \"#utility.yul\":6450:6456   */\n      dup2\n        /* \"#utility.yul\":6446:6468   */\n      sub\n        /* \"#utility.yul\":6440:6443   */\n      0x80\n        /* \"#utility.yul\":6429:6438   */\n      dup5\n        /* \"#utility.yul\":6425:6444   */\n      add\n        /* \"#utility.yul\":6418:6469   */\n      mstore\n        /* \"#utility.yul\":6486:6536   */\n      tag_122\n        /* \"#utility.yul\":6529:6535   */\n      dup2\n        /* \"#utility.yul\":6521:6527   */\n      dup6\n        /* \"#utility.yul\":6513:6519   */\n      dup8\n        /* \"#utility.yul\":6486:6536   */\n      tag_74\n      jump\t// in\n    tag_122:\n        /* \"#utility.yul\":6478:6536   */\n      swap12\n        /* \"#utility.yul\":5744:6542   */\n      swap11\n      pop\n      pop\n      pop\n      pop\n      pop\n      pop\n      pop\n      pop\n      pop\n      pop\n      pop\n      jump\t// out\n        /* \"#utility.yul\":7312:7585   */\n    tag_60:\n        /* \"#utility.yul\":7497:7503   */\n      dup2\n        /* \"#utility.yul\":7489:7495   */\n      dup4\n        /* \"#utility.yul\":7484:7487   */\n      dup3\n        /* \"#utility.yul\":7471:7504   */\n      calldatacopy\n        /* \"#utility.yul\":7453:7456   */\n      0x00\n        /* \"#utility.yul\":7523:7539   */\n      swap2\n      add\n        /* \"#utility.yul\":7548:7561   */\n      swap1\n      dup2\n      mstore\n        /* \"#utility.yul\":7523:7539   */\n      swap2\n        /* \"#utility.yul\":7312:7585   */\n      swap1\n      pop\n      jump\t// out\n\n    auxdata: 0xa2646970667358221220c96501cc4246366c794c25eef6acf85bdf9f1289b6450f5e89989ff3405d087464736f6c634300081a0033\n}\n",
				"bytecode": {
					"linkReferences": {},
					"object": "6080604052348015600f57600080fd5b50600080546001600160a01b031916331790556108e6806100316000396000f3fe608060405234801561001057600080fd5b50600436106100575760003560e01c8063536788941461005c578063704b6c0214610071578063986cf3b61461008457806398e7dc95146100c7578063f851a440146100da575b600080fd5b61006f61006a3660046105d3565b610105565b005b61006f61007f366004610693565b61027a565b6100b26100923660046106cb565b805160208183018101805160018252928201919093012091525460ff1681565b60405190151581526020015b60405180910390f35b61006f6100d5366004610784565b61035d565b6000546100ed906001600160a01b031681565b6040516001600160a01b0390911681526020016100be565b6000871161015a5760405162461bcd60e51b815260206004820152601d60248201527f416d6f756e74206d7573742062652067726561746572207468616e203000000060448201526064015b60405180910390fd5b6000546001600160a01b03166101a35760405162461bcd60e51b815260206004820152600e60248201526d029b2ba103a34329030b236b4b7160951b6044820152606401610151565b6000546040516323b872dd60e01b81523360048201526001600160a01b03918216602482015260448101899052908916906323b872dd906064016020604051808303816000875af11580156101fc573d6000803e3d6000fd5b505050506040513d601f19601f8201168201806040525081019061022091906107f3565b50336001600160a01b03167f78e9f780c290ff464c0f50abe334486f00bad6e233876d9d9dedad8fb27b0cae888a89898989898960405161026898979695949392919061083e565b60405180910390a25050505050505050565b6000546001600160a01b031633146102d45760405162461bcd60e51b815260206004820152601b60248201527f4f6e6c792061646d696e2063616e2065786563757465207468697300000000006044820152606401610151565b6001600160a01b03811661033b5760405162461bcd60e51b815260206004820152602860248201527f4e65772061646d696e20616464726573732063616e6e6f74206265207a65726f604482015267206164647265737360c01b6064820152608401610151565b600080546001600160a01b0319166001600160a01b0392909216919091179055565b6000546001600160a01b031633146103b75760405162461bcd60e51b815260206004820152601b60248201527f4f6e6c792061646d696e2063616e2065786563757465207468697300000000006044820152606401610151565b600083116104075760405162461bcd60e51b815260206004820152601d60248201527f416d6f756e74206d7573742062652067726561746572207468616e20300000006044820152606401610151565b600182826040516104199291906108a0565b9081526040519081900360200190205460ff16156104725760405162461bcd60e51b815260206004820152601660248201527512185cda08185b1c9958591e481c1c9bd8d95cdcd95960521b6044820152606401610151565b60018083836040516104859291906108a0565b908152604051908190036020018120805492151560ff19909316929092179091556000546323b872dd60e01b82526001600160a01b0390811660048301528581166024830152604482018590528616906323b872dd906064016020604051808303816000875af11580156104fd573d6000803e3d6000fd5b505050506040513d601f19601f8201168201806040525081019061052191906107f3565b50604080518481526001600160a01b0387811660208301528616917fdfac932ca264a8c7345ea1299e5789225e91b6a2acba6f0c23bc0a757dbcd9da910160405180910390a25050505050565b80356001600160a01b038116811461058557600080fd5b919050565b60008083601f84011261059c57600080fd5b50813567ffffffffffffffff8111156105b457600080fd5b6020830191508360208285010111156105cc57600080fd5b9250929050565b60008060008060008060008060a0898b0312156105ef57600080fd5b6105f88961056e565b975060208901359650604089013567ffffffffffffffff81111561061b57600080fd5b6106278b828c0161058a565b909750955050606089013567ffffffffffffffff81111561064757600080fd5b6106538b828c0161058a565b909550935050608089013567ffffffffffffffff81111561067357600080fd5b61067f8b828c0161058a565b999c989b5096995094979396929594505050565b6000602082840312156106a557600080fd5b6106ae8261056e565b9392505050565b634e487b7160e01b600052604160045260246000fd5b6000602082840312156106dd57600080fd5b813567ffffffffffffffff8111156106f457600080fd5b8201601f8101841361070557600080fd5b803567ffffffffffffffff81111561071f5761071f6106b5565b604051601f8201601f19908116603f0116810167ffffffffffffffff8111828210171561074e5761074e6106b5565b60405281815282820160200186101561076657600080fd5b81602084016020830137600091810160200191909152949350505050565b60008060008060006080868803121561079c57600080fd5b6107a58661056e565b94506107b36020870161056e565b935060408601359250606086013567ffffffffffffffff8111156107d657600080fd5b6107e28882890161058a565b969995985093965092949392505050565b60006020828403121561080557600080fd5b815180151581146106ae57600080fd5b81835281816020850137506000828201602090810191909152601f909101601f19169091010190565b8881526001600160a01b038816602082015260a060408201819052600090610869908301888a610815565b828103606084015261087c818789610815565b90508281036080840152610891818587610815565b9b9a5050505050505050505050565b818382376000910190815291905056fea2646970667358221220c96501cc4246366c794c25eef6acf85bdf9f1289b6450f5e89989ff3405d087464736f6c634300081a0033",
					"opcodes": "PUSH1 0x80 PUSH1 0x40 MSTORE CALLVALUE DUP1 ISZERO PUSH1 0xF JUMPI PUSH1 0x0 DUP1 REVERT JUMPDEST POP PUSH1 0x0 DUP1 SLOAD PUSH1 0x1 PUSH1 0x1 PUSH1 0xA0 SHL SUB NOT AND CALLER OR SWAP1 SSTORE PUSH2 0x8E6 DUP1 PUSH2 0x31 PUSH1 0x0 CODECOPY PUSH1 0x0 RETURN INVALID PUSH1 0x80 PUSH1 0x40 MSTORE CALLVALUE DUP1 ISZERO PUSH2 0x10 JUMPI PUSH1 0x0 DUP1 REVERT JUMPDEST POP PUSH1 0x4 CALLDATASIZE LT PUSH2 0x57 JUMPI PUSH1 0x0 CALLDATALOAD PUSH1 0xE0 SHR DUP1 PUSH4 0x53678894 EQ PUSH2 0x5C JUMPI DUP1 PUSH4 0x704B6C02 EQ PUSH2 0x71 JUMPI DUP1 PUSH4 0x986CF3B6 EQ PUSH2 0x84 JUMPI DUP1 PUSH4 0x98E7DC95 EQ PUSH2 0xC7 JUMPI DUP1 PUSH4 0xF851A440 EQ PUSH2 0xDA JUMPI JUMPDEST PUSH1 0x0 DUP1 REVERT JUMPDEST PUSH2 0x6F PUSH2 0x6A CALLDATASIZE PUSH1 0x4 PUSH2 0x5D3 JUMP JUMPDEST PUSH2 0x105 JUMP JUMPDEST STOP JUMPDEST PUSH2 0x6F PUSH2 0x7F CALLDATASIZE PUSH1 0x4 PUSH2 0x693 JUMP JUMPDEST PUSH2 0x27A JUMP JUMPDEST PUSH2 0xB2 PUSH2 0x92 CALLDATASIZE PUSH1 0x4 PUSH2 0x6CB JUMP JUMPDEST DUP1 MLOAD PUSH1 0x20 DUP2 DUP4 ADD DUP2 ADD DUP1 MLOAD PUSH1 0x1 DUP3 MSTORE SWAP3 DUP3 ADD SWAP2 SWAP1 SWAP4 ADD KECCAK256 SWAP2 MSTORE SLOAD PUSH1 0xFF AND DUP2 JUMP JUMPDEST PUSH1 0x40 MLOAD SWAP1 ISZERO ISZERO DUP2 MSTORE PUSH1 0x20 ADD JUMPDEST PUSH1 0x40 MLOAD DUP1 SWAP2 SUB SWAP1 RETURN JUMPDEST PUSH2 0x6F PUSH2 0xD5 CALLDATASIZE PUSH1 0x4 PUSH2 0x784 JUMP JUMPDEST PUSH2 0x35D JUMP JUMPDEST PUSH1 0x0 SLOAD PUSH2 0xED SWAP1 PUSH1 0x1 PUSH1 0x1 PUSH1 0xA0 SHL SUB AND DUP2 JUMP JUMPDEST PUSH1 0x40 MLOAD PUSH1 0x1 PUSH1 0x1 PUSH1 0xA0 SHL SUB SWAP1 SWAP2 AND DUP2 MSTORE PUSH1 0x20 ADD PUSH2 0xBE JUMP JUMPDEST PUSH1 0x0 DUP8 GT PUSH2 0x15A JUMPI PUSH1 0x40 MLOAD PUSH3 0x461BCD PUSH1 0xE5 SHL DUP2 MSTORE PUSH1 0x20 PUSH1 0x4 DUP3 ADD MSTORE PUSH1 0x1D PUSH1 0x24 DUP3 ADD MSTORE PUSH32 0x416D6F756E74206D7573742062652067726561746572207468616E2030000000 PUSH1 0x44 DUP3 ADD MSTORE PUSH1 0x64 ADD JUMPDEST PUSH1 0x40 MLOAD DUP1 SWAP2 SUB SWAP1 REVERT JUMPDEST PUSH1 0x0 SLOAD PUSH1 0x1 PUSH1 0x1 PUSH1 0xA0 SHL SUB AND PUSH2 0x1A3 JUMPI PUSH1 0x40 MLOAD PUSH3 0x461BCD PUSH1 0xE5 SHL DUP2 MSTORE PUSH1 0x20 PUSH1 0x4 DUP3 ADD MSTORE PUSH1 0xE PUSH1 0x24 DUP3 ADD MSTORE PUSH14 0x29B2BA103A34329030B236B4B71 PUSH1 0x95 SHL PUSH1 0x44 DUP3 ADD MSTORE PUSH1 0x64 ADD PUSH2 0x151 JUMP JUMPDEST PUSH1 0x0 SLOAD PUSH1 0x40 MLOAD PUSH4 0x23B872DD PUSH1 0xE0 SHL DUP2 MSTORE CALLER PUSH1 0x4 DUP3 ADD MSTORE PUSH1 0x1 PUSH1 0x1 PUSH1 0xA0 SHL SUB SWAP2 DUP3 AND PUSH1 0x24 DUP3 ADD MSTORE PUSH1 0x44 DUP2 ADD DUP10 SWAP1 MSTORE SWAP1 DUP10 AND SWAP1 PUSH4 0x23B872DD SWAP1 PUSH1 0x64 ADD PUSH1 0x20 PUSH1 0x40 MLOAD DUP1 DUP4 SUB DUP2 PUSH1 0x0 DUP8 GAS CALL ISZERO DUP1 ISZERO PUSH2 0x1FC JUMPI RETURNDATASIZE PUSH1 0x0 DUP1 RETURNDATACOPY RETURNDATASIZE PUSH1 0x0 REVERT JUMPDEST POP POP POP POP PUSH1 0x40 MLOAD RETURNDATASIZE PUSH1 0x1F NOT PUSH1 0x1F DUP3 ADD AND DUP3 ADD DUP1 PUSH1 0x40 MSTORE POP DUP2 ADD SWAP1 PUSH2 0x220 SWAP2 SWAP1 PUSH2 0x7F3 JUMP JUMPDEST POP CALLER PUSH1 0x1 PUSH1 0x1 PUSH1 0xA0 SHL SUB AND PUSH32 0x78E9F780C290FF464C0F50ABE334486F00BAD6E233876D9D9DEDAD8FB27B0CAE DUP9 DUP11 DUP10 DUP10 DUP10 DUP10 DUP10 DUP10 PUSH1 0x40 MLOAD PUSH2 0x268 SWAP9 SWAP8 SWAP7 SWAP6 SWAP5 SWAP4 SWAP3 SWAP2 SWAP1 PUSH2 0x83E JUMP JUMPDEST PUSH1 0x40 MLOAD DUP1 SWAP2 SUB SWAP1 LOG2 POP POP POP POP POP POP POP POP JUMP JUMPDEST PUSH1 0x0 SLOAD PUSH1 0x1 PUSH1 0x1 PUSH1 0xA0 SHL SUB AND CALLER EQ PUSH2 0x2D4 JUMPI PUSH1 0x40 MLOAD PUSH3 0x461BCD PUSH1 0xE5 SHL DUP2 MSTORE PUSH1 0x20 PUSH1 0x4 DUP3 ADD MSTORE PUSH1 0x1B PUSH1 0x24 DUP3 ADD MSTORE PUSH32 0x4F6E6C792061646D696E2063616E206578656375746520746869730000000000 PUSH1 0x44 DUP3 ADD MSTORE PUSH1 0x64 ADD PUSH2 0x151 JUMP JUMPDEST PUSH1 0x1 PUSH1 0x1 PUSH1 0xA0 SHL SUB DUP2 AND PUSH2 0x33B JUMPI PUSH1 0x40 MLOAD PUSH3 0x461BCD PUSH1 0xE5 SHL DUP2 MSTORE PUSH1 0x20 PUSH1 0x4 DUP3 ADD MSTORE PUSH1 0x28 PUSH1 0x24 DUP3 ADD MSTORE PUSH32 0x4E65772061646D696E20616464726573732063616E6E6F74206265207A65726F PUSH1 0x44 DUP3 ADD MSTORE PUSH8 0x2061646472657373 PUSH1 0xC0 SHL PUSH1 0x64 DUP3 ADD MSTORE PUSH1 0x84 ADD PUSH2 0x151 JUMP JUMPDEST PUSH1 0x0 DUP1 SLOAD PUSH1 0x1 PUSH1 0x1 PUSH1 0xA0 SHL SUB NOT AND PUSH1 0x1 PUSH1 0x1 PUSH1 0xA0 SHL SUB SWAP3 SWAP1 SWAP3 AND SWAP2 SWAP1 SWAP2 OR SWAP1 SSTORE JUMP JUMPDEST PUSH1 0x0 SLOAD PUSH1 0x1 PUSH1 0x1 PUSH1 0xA0 SHL SUB AND CALLER EQ PUSH2 0x3B7 JUMPI PUSH1 0x40 MLOAD PUSH3 0x461BCD PUSH1 0xE5 SHL DUP2 MSTORE PUSH1 0x20 PUSH1 0x4 DUP3 ADD MSTORE PUSH1 0x1B PUSH1 0x24 DUP3 ADD MSTORE PUSH32 0x4F6E6C792061646D696E2063616E206578656375746520746869730000000000 PUSH1 0x44 DUP3 ADD MSTORE PUSH1 0x64 ADD PUSH2 0x151 JUMP JUMPDEST PUSH1 0x0 DUP4 GT PUSH2 0x407 JUMPI PUSH1 0x40 MLOAD PUSH3 0x461BCD PUSH1 0xE5 SHL DUP2 MSTORE PUSH1 0x20 PUSH1 0x4 DUP3 ADD MSTORE PUSH1 0x1D PUSH1 0x24 DUP3 ADD MSTORE PUSH32 0x416D6F756E74206D7573742062652067726561746572207468616E2030000000 PUSH1 0x44 DUP3 ADD MSTORE PUSH1 0x64 ADD PUSH2 0x151 JUMP JUMPDEST PUSH1 0x1 DUP3 DUP3 PUSH1 0x40 MLOAD PUSH2 0x419 SWAP3 SWAP2 SWAP1 PUSH2 0x8A0 JUMP JUMPDEST SWAP1 DUP2 MSTORE PUSH1 0x40 MLOAD SWAP1 DUP2 SWAP1 SUB PUSH1 0x20 ADD SWAP1 KECCAK256 SLOAD PUSH1 0xFF AND ISZERO PUSH2 0x472 JUMPI PUSH1 0x40 MLOAD PUSH3 0x461BCD PUSH1 0xE5 SHL DUP2 MSTORE PUSH1 0x20 PUSH1 0x4 DUP3 ADD MSTORE PUSH1 0x16 PUSH1 0x24 DUP3 ADD MSTORE PUSH22 0x12185CDA08185B1C9958591E481C1C9BD8D95CDCD959 PUSH1 0x52 SHL PUSH1 0x44 DUP3 ADD MSTORE PUSH1 0x64 ADD PUSH2 0x151 JUMP JUMPDEST PUSH1 0x1 DUP1 DUP4 DUP4 PUSH1 0x40 MLOAD PUSH2 0x485 SWAP3 SWAP2 SWAP1 PUSH2 0x8A0 JUMP JUMPDEST SWAP1 DUP2 MSTORE PUSH1 0x40 MLOAD SWAP1 DUP2 SWAP1 SUB PUSH1 0x20 ADD DUP2 KECCAK256 DUP1 SLOAD SWAP3 ISZERO ISZERO PUSH1 0xFF NOT SWAP1 SWAP4 AND SWAP3 SWAP1 SWAP3 OR SWAP1 SWAP2 SSTORE PUSH1 0x0 SLOAD PUSH4 0x23B872DD PUSH1 0xE0 SHL DUP3 MSTORE PUSH1 0x1 PUSH1 0x1 PUSH1 0xA0 SHL SUB SWAP1 DUP2 AND PUSH1 0x4 DUP4 ADD MSTORE DUP6 DUP2 AND PUSH1 0x24 DUP4 ADD MSTORE PUSH1 0x44 DUP3 ADD DUP6 SWAP1 MSTORE DUP7 AND SWAP1 PUSH4 0x23B872DD SWAP1 PUSH1 0x64 ADD PUSH1 0x20 PUSH1 0x40 MLOAD DUP1 DUP4 SUB DUP2 PUSH1 0x0 DUP8 GAS CALL ISZERO DUP1 ISZERO PUSH2 0x4FD JUMPI RETURNDATASIZE PUSH1 0x0 DUP1 RETURNDATACOPY RETURNDATASIZE PUSH1 0x0 REVERT JUMPDEST POP POP POP POP PUSH1 0x40 MLOAD RETURNDATASIZE PUSH1 0x1F NOT PUSH1 0x1F DUP3 ADD AND DUP3 ADD DUP1 PUSH1 0x40 MSTORE POP DUP2 ADD SWAP1 PUSH2 0x521 SWAP2 SWAP1 PUSH2 0x7F3 JUMP JUMPDEST POP PUSH1 0x40 DUP1 MLOAD DUP5 DUP2 MSTORE PUSH1 0x1 PUSH1 0x1 PUSH1 0xA0 SHL SUB DUP8 DUP2 AND PUSH1 0x20 DUP4 ADD MSTORE DUP7 AND SWAP2 PUSH32 0xDFAC932CA264A8C7345EA1299E5789225E91B6A2ACBA6F0C23BC0A757DBCD9DA SWAP2 ADD PUSH1 0x40 MLOAD DUP1 SWAP2 SUB SWAP1 LOG2 POP POP POP POP POP JUMP JUMPDEST DUP1 CALLDATALOAD PUSH1 0x1 PUSH1 0x1 PUSH1 0xA0 SHL SUB DUP2 AND DUP2 EQ PUSH2 0x585 JUMPI PUSH1 0x0 DUP1 REVERT JUMPDEST SWAP2 SWAP1 POP JUMP JUMPDEST PUSH1 0x0 DUP1 DUP4 PUSH1 0x1F DUP5 ADD SLT PUSH2 0x59C JUMPI PUSH1 0x0 DUP1 REVERT JUMPDEST POP DUP2 CALLDATALOAD PUSH8 0xFFFFFFFFFFFFFFFF DUP2 GT ISZERO PUSH2 0x5B4 JUMPI PUSH1 0x0 DUP1 REVERT JUMPDEST PUSH1 0x20 DUP4 ADD SWAP2 POP DUP4 PUSH1 0x20 DUP3 DUP6 ADD ADD GT ISZERO PUSH2 0x5CC JUMPI PUSH1 0x0 DUP1 REVERT JUMPDEST SWAP3 POP SWAP3 SWAP1 POP JUMP JUMPDEST PUSH1 0x0 DUP1 PUSH1 0x0 DUP1 PUSH1 0x0 DUP1 PUSH1 0x0 DUP1 PUSH1 0xA0 DUP10 DUP12 SUB SLT ISZERO PUSH2 0x5EF JUMPI PUSH1 0x0 DUP1 REVERT JUMPDEST PUSH2 0x5F8 DUP10 PUSH2 0x56E JUMP JUMPDEST SWAP8 POP PUSH1 0x20 DUP10 ADD CALLDATALOAD SWAP7 POP PUSH1 0x40 DUP10 ADD CALLDATALOAD PUSH8 0xFFFFFFFFFFFFFFFF DUP2 GT ISZERO PUSH2 0x61B JUMPI PUSH1 0x0 DUP1 REVERT JUMPDEST PUSH2 0x627 DUP12 DUP3 DUP13 ADD PUSH2 0x58A JUMP JUMPDEST SWAP1 SWAP8 POP SWAP6 POP POP PUSH1 0x60 DUP10 ADD CALLDATALOAD PUSH8 0xFFFFFFFFFFFFFFFF DUP2 GT ISZERO PUSH2 0x647 JUMPI PUSH1 0x0 DUP1 REVERT JUMPDEST PUSH2 0x653 DUP12 DUP3 DUP13 ADD PUSH2 0x58A JUMP JUMPDEST SWAP1 SWAP6 POP SWAP4 POP POP PUSH1 0x80 DUP10 ADD CALLDATALOAD PUSH8 0xFFFFFFFFFFFFFFFF DUP2 GT ISZERO PUSH2 0x673 JUMPI PUSH1 0x0 DUP1 REVERT JUMPDEST PUSH2 0x67F DUP12 DUP3 DUP13 ADD PUSH2 0x58A JUMP JUMPDEST SWAP10 SWAP13 SWAP9 SWAP12 POP SWAP7 SWAP10 POP SWAP5 SWAP8 SWAP4 SWAP7 SWAP3 SWAP6 SWAP5 POP POP POP JUMP JUMPDEST PUSH1 0x0 PUSH1 0x20 DUP3 DUP5 SUB SLT ISZERO PUSH2 0x6A5 JUMPI PUSH1 0x0 DUP1 REVERT JUMPDEST PUSH2 0x6AE DUP3 PUSH2 0x56E JUMP JUMPDEST SWAP4 SWAP3 POP POP POP JUMP JUMPDEST PUSH4 0x4E487B71 PUSH1 0xE0 SHL PUSH1 0x0 MSTORE PUSH1 0x41 PUSH1 0x4 MSTORE PUSH1 0x24 PUSH1 0x0 REVERT JUMPDEST PUSH1 0x0 PUSH1 0x20 DUP3 DUP5 SUB SLT ISZERO PUSH2 0x6DD JUMPI PUSH1 0x0 DUP1 REVERT JUMPDEST DUP2 CALLDATALOAD PUSH8 0xFFFFFFFFFFFFFFFF DUP2 GT ISZERO PUSH2 0x6F4 JUMPI PUSH1 0x0 DUP1 REVERT JUMPDEST DUP3 ADD PUSH1 0x1F DUP2 ADD DUP5 SGT PUSH2 0x705 JUMPI PUSH1 0x0 DUP1 REVERT JUMPDEST DUP1 CALLDATALOAD PUSH8 0xFFFFFFFFFFFFFFFF DUP2 GT ISZERO PUSH2 0x71F JUMPI PUSH2 0x71F PUSH2 0x6B5 JUMP JUMPDEST PUSH1 0x40 MLOAD PUSH1 0x1F DUP3 ADD PUSH1 0x1F NOT SWAP1 DUP2 AND PUSH1 0x3F ADD AND DUP2 ADD PUSH8 0xFFFFFFFFFFFFFFFF DUP2 GT DUP3 DUP3 LT OR ISZERO PUSH2 0x74E JUMPI PUSH2 0x74E PUSH2 0x6B5 JUMP JUMPDEST PUSH1 0x40 MSTORE DUP2 DUP2 MSTORE DUP3 DUP3 ADD PUSH1 0x20 ADD DUP7 LT ISZERO PUSH2 0x766 JUMPI PUSH1 0x0 DUP1 REVERT JUMPDEST DUP2 PUSH1 0x20 DUP5 ADD PUSH1 0x20 DUP4 ADD CALLDATACOPY PUSH1 0x0 SWAP2 DUP2 ADD PUSH1 0x20 ADD SWAP2 SWAP1 SWAP2 MSTORE SWAP5 SWAP4 POP POP POP POP JUMP JUMPDEST PUSH1 0x0 DUP1 PUSH1 0x0 DUP1 PUSH1 0x0 PUSH1 0x80 DUP7 DUP9 SUB SLT ISZERO PUSH2 0x79C JUMPI PUSH1 0x0 DUP1 REVERT JUMPDEST PUSH2 0x7A5 DUP7 PUSH2 0x56E JUMP JUMPDEST SWAP5 POP PUSH2 0x7B3 PUSH1 0x20 DUP8 ADD PUSH2 0x56E JUMP JUMPDEST SWAP4 POP PUSH1 0x40 DUP7 ADD CALLDATALOAD SWAP3 POP PUSH1 0x60 DUP7 ADD CALLDATALOAD PUSH8 0xFFFFFFFFFFFFFFFF DUP2 GT ISZERO PUSH2 0x7D6 JUMPI PUSH1 0x0 DUP1 REVERT JUMPDEST PUSH2 0x7E2 DUP9 DUP3 DUP10 ADD PUSH2 0x58A JUMP JUMPDEST SWAP7 SWAP10 SWAP6 SWAP9 POP SWAP4 SWAP7 POP SWAP3 SWAP5 SWAP4 SWAP3 POP POP POP JUMP JUMPDEST PUSH1 0x0 PUSH1 0x20 DUP3 DUP5 SUB SLT ISZERO PUSH2 0x805 JUMPI PUSH1 0x0 DUP1 REVERT JUMPDEST DUP2 MLOAD DUP1 ISZERO ISZERO DUP2 EQ PUSH2 0x6AE JUMPI PUSH1 0x0 DUP1 REVERT JUMPDEST DUP2 DUP4 MSTORE DUP2 DUP2 PUSH1 0x20 DUP6 ADD CALLDATACOPY POP PUSH1 0x0 DUP3 DUP3 ADD PUSH1 0x20 SWAP1 DUP2 ADD SWAP2 SWAP1 SWAP2 MSTORE PUSH1 0x1F SWAP1 SWAP2 ADD PUSH1 0x1F NOT AND SWAP1 SWAP2 ADD ADD SWAP1 JUMP JUMPDEST DUP9 DUP2 MSTORE PUSH1 0x1 PUSH1 0x1 PUSH1 0xA0 SHL SUB DUP9 AND PUSH1 0x20 DUP3 ADD MSTORE PUSH1 0xA0 PUSH1 0x40 DUP3 ADD DUP2 SWAP1 MSTORE PUSH1 0x0 SWAP1 PUSH2 0x869 SWAP1 DUP4 ADD DUP9 DUP11 PUSH2 0x815 JUMP JUMPDEST DUP3 DUP2 SUB PUSH1 0x60 DUP5 ADD MSTORE PUSH2 0x87C DUP2 DUP8 DUP10 PUSH2 0x815 JUMP JUMPDEST SWAP1 POP DUP3 DUP2 SUB PUSH1 0x80 DUP5 ADD MSTORE PUSH2 0x891 DUP2 DUP6 DUP8 PUSH2 0x815 JUMP JUMPDEST SWAP12 SWAP11 POP POP POP POP POP POP POP POP POP POP POP JUMP JUMPDEST DUP2 DUP4 DUP3 CALLDATACOPY PUSH1 0x0 SWAP2 ADD SWAP1 DUP2 MSTORE SWAP2 SWAP1 POP JUMP INVALID LOG2 PUSH5 0x6970667358 0x22 SLT KECCAK256 0xC9 PUSH6 0x1CC4246366C PUSH26 0x4C25EEF6ACF85BDF9F1289B6450F5E89989FF3405D087464736F PUSH13 0x634300081A0033000000000000 "
				},
				"gasEstimates": {
					"creation": {
						"codeDepositCost": "455600",
						"executionCost": "21328",
						"totalCost": "476928"
					},
					"external": {
						"admin()": "1103",
						"lock(address,uint256,string,string,string)": "infinite",
						"processed(string)": "infinite",
						"release(address,address,uint256,string)": "infinite",
						"setAdmin(address)": "22046"
					}
				},
				"methodIdentifiers": {
					"admin()": "f851a440",
					"lock(address,uint256,string,string,string)": "53678894",
					"processed(string)": "986cf3b6",
					"release(address,address,uint256,string)": "98e7dc95",
					"setAdmin(address)": "704b6c02"
				}
			},
			"storageLayout": {
				"storage": [
					{
						"astId": 5,
						"contract": "contract/bridge.sol:SimpleBridge",
						"label": "admin",
						"offset": 0,
						"slot": "0",
						"type": "t_address"
					},
					{
						"astId": 9,
						"contract": "contract/bridge.sol:SimpleBridge",
						"label": "processed",
						"offset": 0,
						"slot": "1",
						"type": "t_mapping(t_string_memory_ptr,t_bool)"
					}
				],
				"types": {
					"t_address": {
						"encoding": "inplace",
						"label": "address",
						"numberOfBytes": "20"
					},
					"t_bool": {
						"encoding": "inplace",
						"label": "bool",
						"numberOfBytes": "1"
					},
					"t_mapping(t_string_memory_ptr,t_bool)": {
						"encoding": "mapping",
						"key": "t_string_memory_ptr",
						"label": "mapping(string => bool)",
						"numberOfBytes": "32",
						"value": "t_bool"
					},
					"t_string_memory_ptr": {
						"encoding": "bytes",
						"label": "string",
						"numberOfBytes": "32"
					}
				}
			},
			"userdoc": {
				"kind": "user",
				"methods": {},
				"version": 1
			}
		}
	}
}